:020000040800F2
:10600000381F002061700008697000086B7000087C
:106010000000000000000000000000000000000080
:106020000000000000000000000000006D7000088B
:1060300000000000000000006F7000087170000890
:106040007D4C010873700008D915010873700008B1
:1060500073700008737000087370000841830008B3
:10606000737000087370000873700008B582000830
:106070007370000873700008D93401081D370108D7
:10608000C9380108B5390108737000087370000839
:106090007370000873700008693401087370000899
:1060A0007370000873700008737000089D42010847
:1060B00001430108654301087370000800F002F80D
:1060C00000F0A2FF0CA030C8083824182D18671E55
:1060D000A246AB4654465D46AC4201D100F094FF67
:1060E0007E460F3EB6460FCC0126334200D0FB1A47
:1060F0003343A246AB46184724000000440000008A
:106100000023002400250026103A01D378C1FBD8D3
:10611000520700D330C100D50B60704740610008C2
:1061200080000020A80100002A81000828620008E1
:1061300028020020101D000000610008000000007F
:1061400041139807142044061420C4051008200E9B
:1061500070010882081B204204415A380801141AB1
:106160003838411A943CA9441A850C69441A840CA5
:1061700029441A3C081A86041B9412041A11383256
:1061800001190439442207128E1280137DD382082C
:106190008B440F781A4C0C322C2DFEFFFFFF04416C
:1061A0001816B92701088D300108951A01086125D4
:1061B00001083D2E0108590C2DA1210108901A64F7
:1061C000041A04046988139401180F20413D010842
:1061D0009D400108153C01085D04411715CD5B0782
:1061E000A9D7140835CE1B081D08415B0818A0313B
:1061F0002BE803E9140140081402401B0315333255
:1062000012441B401C2005151C01353412481B404C
:10621000302005101D0237363967124C2B404420C0
:086220000C1303393820310092
:020000040800F2
:046F8000CC5172C8B6
:020000040800F2
:046F8400A07E019258
:020000040800F2
:046F880078563412F1
:020000040800F2
:046F8C0008010000F8
:020000040800F2
:106F900000000000000000000000000000000000F1
:106FA00000000000000000000000000000000000E1
:106FB00000000000000000000000000000000000D1
:106FC00000000000000000000000000000000000C1
:106FD00000000000000000000000000000000000B1
:106FE00000000000000000000000000000000000A1
:106FF0000000000000000000000000000000000091
:020000040800F2
:107000001FB51FBD10B510BD00F088F91146FFF780
:10701000F7FF0DF03DFE00F0A0F903B4FFF7F2FF1B
:1070200003BC00F0A7F9000070B505460C461646F3
:1070300002E00FCC0FC5103E102EFAD2082E02D35C
:1070400003CC03C5083E042E07D301CC01C5361F6F
:1070500003E021782970641C6D1C761EF9D270BD86
:107060000748804707480047FEE7FEE7FEE7FEE7E0
:10707000FEE7FEE704480549054A064B7047000055
:1070800065340108BD60000838190020381F002051
:10709000381B0020381B002010B5202A04DB0846CE
:1070A000203AD040002110BD0B462024D340D040D0
:1070B000A21A91400843194610BD4343514330B5CD
:1070C0005C18010C130C0D4692B25D4380B2514323
:1070D0002C19054655430A0C09044D1962415843C1
:1070E000010C00044019514130BDFEB50446104664
:1070F0000D46184373D0A6468C460020A41A0146BC
:107100009D4167D36646002701243D46B61A9D413E
:1071100002D313463A462124654676462F04360CA0
:107120003E432D0CB61A9D4104D3150C1B042B4372
:1071300012041034654676462F06360A3E432D0A61
:10714000B61A9D4104D3150E1B022B4312020834BC
:10715000654676462F0736093E432D09B61A9D41EE
:1071600004D3150F1B012B431201241D65467646DF
:10717000AF07B6083E43AD08B61A9D4104D3950F3C
:107180009B002B439200A41C65467646EF077608C9
:107190003E436D08B61A9D411AD392185B41641C98
:1071A00016E00018764665464941B71A9D4101919F
:1071B000009009D36046B11A98418E4684460098E3
:1071C00001990025401C6941DD0752082A435B08EC
:1071D000641EE6D57246634603B0F0BDFFE7204665
:1071E000284307D00020C0430146C046C04622467F
:1071F0002B46F1E700200146F7E7034610B50B43A5
:107200009B070FD1042A0DD308C810C9121FA3422F
:10721000F8D018BA21BA884201D9012010BD002047
:10722000C04310BD002A03D0D30703D0521C07E08F
:10723000002010BD03780C78401C491C1B1B07D193
:1072400003780C78401C491C1B1B01D1921EF1D104
:10725000184610BDF8B5042A2CD3830712D00B783A
:10726000491C0370401C521E83070BD00B78491C2D
:107270000370401C521E830704D00B78491C037016
:10728000401C521E8B079B0F05D0C91ADF0020231C
:10729000DE1B08C90AE0FFF7C7FEF8BD1D4608C996
:1072A000FD401C46B4402C4310C0121F042AF5D2E6
:1072B000F308C91A521EF0D40B78491C0370401C05
:1072C000521EEAD40B78491C0370401C012AE4D4F6
:1072D00009780170F8BD01E004C0091F0429FBD240
:1072E0008B0701D50280801CC90700D0027070474F
:1072F00000290BD0C30702D00270401C491E02298E
:1073000004D3830702D50280801C891EE3E7002294
:10731000EEE70022DFE7704770477047754600F0E0
:1073200025F8AE46050069465346C008C0008546AC
:1073300018B020B5FFF79EFE60BCB64600260027B9
:10734000C0C5C0C5C0C5C0C5C0C5C0C5C0C5C0C515
:10735000403D490849008D46704710B50446C04677
:10736000C0462046FFF759FE10BD00000048704798
:107370002802002001491820ABBEFEE726000200CB
:10738000704770B5054610460C4618430ED00021D4
:107390000846891A984127DA00210846491BA0416E
:1073A00018DA28462146FFF7A0FE70BD002C03DA4C
:1073B00001230022DB0707E000210846491BA0410A
:1073C00002DA0022D243530810461946C046C0468E
:1073D0002A4627E000216842A141FFF786FE0024EB
:1073E00040428C4121461AE000210846491BA04139
:1073F0000CDA214600205242984103462846FFF706
:1074000074FE002440428C41214670BD002052424F
:107410009841002103466842A141FFF766FE00241F
:1074200052429C41234670BDF0B50C46871A9C41E0
:107430000D46861A9D4103D2C01BA141D21963415A
:107440000D0D1F0DC94EEC1BAE435CD07F057F0DAB
:107450000026002F51D02D05AC46A943DD020123A3
:10746000ED0A1B051D4320231B1B24D41746E740B0
:10747000381871412F46E740CC199D4028183146F5
:1074800061410C0D27D161449A4013D50023401C63
:10749000594152000ED14008400001224B005205D4
:1074A000D34207D305204007C14201D5B04900E0CF
:1074B000B0493046F0BD6B00002A00D001229A1876
:1074C0001F23203C1B1B01D5002302E0E5402818A8
:1074D00071410C0DD7D0012424050919C407CD072B
:1074E00040084908E40F28436144002CD5D000240B
:1074F000401C61419A40D0D1CDE76A05520DD9D1E7
:10750000C90FC907D5E79C4D4E00002801D00124C2
:1075100000E0002434195F00002A01D0012600E0B9
:107520000026BE19954FAC420CD8AE420AD8B442E0
:1075300006D001256D05EC42BCD010461946F0BDC1
:107540009942FCD000203946F0BDF0B51FB40C467E
:107550000F46811A9F412546861A9D4106D2012574
:10756000ED076F40401ABC4152187B41210D1E0DA2
:107570008D1BAC467D4D8D437ED075056D0D7CD049
:107580000D05AE46AC431B031B0B794D52429D418A
:10759000202366469B1B14D31746F7403818002655
:1075A0000090744160462F460741E41900989D40C1
:1075B0002818664116D4714671189A4025D50123C2
:1075C00020E093182A466A415200002B00D0521C3A
:1075D0001E23203E9B1B002B61DD3541EE17281832
:1075E0006641E8D5001876415B1C9A4000D3401CE8
:1075F0004B05F3181524E34010D3002B52D07146ED
:107600007118D30FC01802D3491C05B0F0BD012377
:10761000DB079A42F9D140084000F6E70122520503
:10762000B21801D1002853D00123CC0ADB029943C0
:10763000891E002A08D1020C03D0020C0004103964
:1076400002E00246002020390023550B05D112022A
:107650000823550B01D152010D23550C01D1120104
:107660001B1DD50C01D192009B1C150D01D15200A0
:107670005B1C2025EE1A01E02CE022E00546F540D7
:1076800015439840CA1AE10769181305C918002A5A
:10769000BBDA032040070818C10FC9070FE0714685
:1076A0006118B2E7F10740080843711071444A00BD
:1076B0000CD001235B059A42A7D2C90FC90700204D
:1076C000A3E74905490D26D1002001E00028F4D1A7
:1076D00000219AE7284D6600002801D0012100E032
:1076E000002171185F00002A01D0012600E0002669
:1076F000BE19224FA94210D8AE420ED8B14208D0CE
:1077000001256D05E94206D01946A8024140104600
:107710007BE79C4201D0214677E70020394674E799
:1077200010B50C465C4005D50124E4076340FFF723
:107730000CFF10BDFFF778FE10BD30B40C465C4066
:1077400004D50124E407634030BC6DE630BCFCE6A0
:1077500070B50124E40761400D465D4002D4FFF797
:1077600063FE70BD6340FFF7F0FE70BDFF070000D1
:107770000000F0FF0000F07F0000E0FF0000F87F55
:10778000F0B5F94D0C091E092C402E402F468BB048
:10779000A7437DD0B543FCD0002E7AD0002CFCD07E
:1077A0000D465D40ED0F2543AC1BFF25AD0464196C
:1077B0000894C502440DC9022143500DDC02044364
:1077C0000120C00701430443D2020191200C110C97
:1077D00000958C46010423468B430A9161460904B7
:1077E000E24D8A430991010A7D444919803909789B
:1077F00005464D4301266D18F605751B6943C90CF6
:10780000640B891C4C436418B5012C1B250C2E04F9
:10781000B4434C434D43210C691889090591009DDF
:10782000E90701D00121C90704912C460199670895
:10783000CD072F434C08059DE10B4D432D0C2946E8
:107840006646754302950D4645432E46029D7D1BB7
:10785000B44100950D465D4301942C0C2F040D4658
:107860005543AE462D0C3D43029503947546049C4A
:107870002D04641B049406D2029C039D641C002604
:1078800075410395029401AC70CC009F7D1B01E013
:107890003EE162E1B4410904009507910194059924
:1078A000A4086143090C0C464443650BE7040C46ED
:1078B00066467443A646640B3C43039502947446A3
:1078C000049DE4042C1B049406D2029C039D641CBA
:1078D000002675410395029401AC70CC009F7D1B7E
:1078E000B44101940C465C430095650FE7000C46DB
:1078F0005443A646640F3C43039502947446049D8A
:10790000E4002C1B049406D2029C039D641C0026F8
:1079100075410395029401AC70CC009F7D1BB4416E
:10792000AE09AF06049DC900AD092F43049DA4060E
:10793000AD060495079D344369180791059DE10B39
:107940004D432D0C29466646754302950D46454329
:107950002E46029D7D1BB44100950D465D4301946A
:107960002C0C2F040D465543AE462D0C3D4302957D
:1079700003947546049C2D04641B049406D2029C57
:10798000039D641C002675410395029401AC70CCE4
:10799000009F7D1BB44101948C050694079C890AC5
:1079A000611800950791019C0599A4086143090C91
:1079B0000D464543680BEF040D46644665436C0B6A
:1079C0003C43049FED047D1BAC4602D20025641CA1
:1079D0006841009E019D371B85410846584301952B
:1079E0000C46460FC5005443600F28436546E4002B
:1079F0002C1B02D20025401C6E41019D3F1AB5414F
:107A00002846BD09800628438446A009BF064E02C9
:107A10000699A40676180743079D002068410A9935
:107A2000079019430020099B00906046FF191343FB
:107A30004041E20F64003A43A4460446D71A8C4101
:107A4000A04203D90120009020463A46C70F94185F
:107A500040416246D20F2243644664000494009C75
:107A6000BE466400D71AA446044602978C41774666
:107A7000002F01D1A04204D96046401C8446029ADE
:107A80002046C40FA64694184041049A0546D20FDA
:107A9000224364466400D31A8D417146002901D106
:107AA000A84202D928461A46641C10430122002825
:107AB00000D0164361020020079B891904465C41EF
:107AC0000223002C02DB491813466441089DCE0AAC
:107AD0002D145D194B056705E10A2C050D19089950
:107AE0003E43C9076940002B08D0934006D30022CB
:107AF000761C5141002B01D1760876001C4A002DDE
:107B000043DB154241D0AA433FD030460BB0F0BD15
:107B100006180D464D41174C7642AC411AD39518C4
:107B20001C465C41134A6D42A24113D30122520507
:107B30004C00D4420AD15C00D4420BD04B4002D559
:107B400092021143E2E749004908DFE75940C90FB3
:107B5000C90718E000200849D8E7054801420DD1BF
:107B60000342F7D0F2E700000000FF0714F5000021
:107B70000000F07F0000E0FF0000F87F114859404E
:107B80000143C01241400020C0E70123089A9B0630
:107B90009A4205DC032252078918C90FC907B5E7C5
:107BA000052252078918074A1143D2125140ADE706
:107BB00070B515461C4602460B4628462146FFF77F
:107BC000DFFD70BDFFFFFF7F1F22030C02D10F22DC
:107BD000000402D0030E03D004E0002001467047E9
:107BE0000002083A030F01D10001121F830F01D1D7
:107BF0008000921E002801DB4000521E1205511821
:107C00004205C012411810467047C10FC90700D085
:107C10004042012292071143D6E701218907D3E7A9
:107C2000F0B58B4C0F09254689B0BD437BD01D09AB
:107C30002646AE43FAD00E465E402740F60F3E433E
:107C4000254071D024012142FBD0FF24AD19A404AA
:107C50002D1B039501252D05DB02DB0AC9022B43F1
:107C6000C90A29431E010901040F130F050121430D
:107C70001701880B820391432D098C46A90B1E43E3
:107C80008A039543B30B9A0396433F09BA0B9403B7
:107C9000A74302962E467E430497B6464E19D7193F
:107CA0000C460196544305977E43371B7646BF1B0F
:107CB0003601B646BE0B361900967646BC04371917
:107CC000009C01D3641C00946400002F01D00126A5
:107CD0003443029E049F754366467E4304967600B5
:107CE00034196E0034190094029C019E1C196643DD
:107CF000751BAE46069465464519059C05956C4373
:107D0000594375460891691A0191049E01465143F1
:107D1000A41B0491611A009C0791E10605D061093A
:107D20000122114302E072E06EE06109089D002724
:107D30002C0A2D066918049D7C412A0A2D06691813
:107D4000019D6241AC0DAD026D185441079A910D31
:107D5000920255196141029A644658435443069B66
:107D6000059A5A43121A131B9A0E9B015B187A410B
:107D7000010B0005C3185141220A200644195A413B
:107D80009A4200D2491C01204002814203D31523AC
:107D90000226F64302E014230326F6432020C51AE8
:107DA000A9401746AF40DA400A4320460399D8401D
:107DB0000914731819055118039A3843D207514012
:107DC000AC4009D00122944006D30022401C51410E
:107DD000002C01D1400840001E4A934212D30122D8
:107DE00003989206904207DB0520400709181A48BD
:107DF0000143C012414004E0032040070818C10FAE
:107E0000C907002009B0F0BD0020F107FAE7051806
:107E10000C464C4111486D42A04115D394181A46A6
:107E20005A410E48644290410ED301204A00400559
:107E3000824209D35A00824206D35940C90F084AE8
:107E4000C90700201143DDE700200649DAE70000FA
:107E50000000FF07FE070000FFFFFF7F0000E0FFBC
:107E60000000F07F0000F87F10B500F039F80068DE
:107E700010BD10B5044600F033F8046010BD0000DA
:107E800070B505464800440D124B0020002C0AD066
:107E9000634008D09A4206DA6642B24203DD120518
:107EA0004019514170BD002C08D0002B09D0C90FDA
:107EB000C907002AF6DB084A114370BDC90FC9077C
:107EC00070BD28460A03104302D00020034970BD4C
:107ED000284670BDFF0700000000F07F0000F87F1B
:107EE0000048704728020020F8B5264C4E00069D39
:107EF000A6420AD8A64201D1002806D15E00A642B9
:107F000003D8A6420AD1002A08D00D242404254211
:107F100033D02946002000F0B7F8F8BD0C461C43CA
:107F200011D4994207D0C81A02D3EFF30080F8BDEC
:107F3000EFF30080F8BD801A02D3EFF30080F8BDA4
:107F4000EFF30080F8BD09242407E5008B4207D039
:107F5000581A02D3EFF3008006E0EFF3008007E049
:107F6000101A03D3EFF30080A04303E0EFF3008087
:107F7000A043284380F30088F8BD009500F09CF8EA
:107F8000F8BD00000000E0FFF0B53D4B02460C4696
:107F90001C400020002C63D03A4D8B4366D0002952
:107FA0006BDB0B0D1D05A94301252D05294301247C
:107FB000FD33E34001D392184941FF3381339C469E
:107FC0008B02940D0121234389074C429202002722
:107FD0001B198C105D1A04D42D1B02D42B4665008E
:107FE000491992185B416408F4D15C1A08D4012540
:107FF000ED07EE175519744102D42A462346491C51
:1080000094185B41012292071D46E61B8D4106D460
:10801000B61A854103D42B46550034467F192419DE
:108020005B415208802AEFD1234300D00223384617
:108030000A22D04001D3012213438A05104362462D
:10804000890A12058918002B09D00122D34002D3D6
:108050000022401C5141002B01D140084000F0BDDE
:108060000B03134307D0C90FC907F0BD0803104322
:1080700003D1002901DB1046F0BD00202946F0BDE8
:108080000000F07F0000F87FC80212D54803400FBF
:10809000002804D0C803C043012188407047EFF393
:1080A00000800001000903210907084380F30088CC
:1080B000704700207047000010B500200249029A66
:1080C00000F004F810BD00000000F87F10B50C4669
:1080D0001107090F092904D00A290AD008290CD14F
:1080E00004E011460820FFF7CFFF06E0510606D551
:1080F00001E0510601D50120C007214610BDD1067F
:1081000007D501010909CC084907000E0006044300
:1081100009E0410F20024907000A0143200E000632
:108120001D22D14101430846E7E770B58C18057858
:10813000401C6B075B0F01D10378401C2A1106D14C
:108140000278401C03E00678401C0E70491C5B1E40
:10815000F9D12B0705D40023521E0DD40B70491CF6
:10816000FAE70378401CCB1A921C03E01D780D70CF
:10817000491C5B1C521EF9D5A142D8D3002070BD0A
:1081800019484068122141430A4A42430120C3036F
:10819000D218120C5118444A1289002A01D05200F8
:1081A00001E0104AD28892B24A4380031018C00BF3
:1081B0007047C0465F8400003B48C088002801D05B
:1081C000400001E00748808880B207490968074AF3
:1081D0004A430121CB03D218120C424388031018E2
:1081E000C00B7047440F0020B0050020CDD504001F
:1081F000F0B583B02C4C002525702C4805700095F7
:108200005021012630462246334600F0B5F80028BA
:1082100030D00096412087003B1D00205021029065
:10822000224600F0A9F8002824D02120C00021888F
:1082300081421FD1618881421CD1E05901902046C2
:1082400039460AF0C7FF0199814213D14820205CCA
:10825000411E022916D220464930154E00223146D1
:108260000AF0D0FE5D340125204631462A460AF048
:10827000C9FE04E02120C1000B48FFF74AF8284658
:1082800003B0F0BD0028029DF9D12046D430084D3E
:10829000002229460AF0B6FEE83420462946324636
:1082A0000AF0B0FE3546EAE7880600209007002075
:1082B0009807002001211E480246583A126893038D
:1082C0001AD549040246543A11601A49097800291E
:1082D0002AD119490A681206FCD4184A10231360DF
:1082E000002202600260081F172212020260086862
:1082F000C0071AD00879FAE7920215D54905024657
:10830000543A11600C490A681206FCD40B4A102337
:108310001360BFF34F8F002202600260426142612E
:10832000081F172109020160704708687047C0469E
:1083300058000240B41400200830014018000050DA
:1083400080B501210A484268D20409D50903416079
:108350000849086800280AD000220A60804780BDCA
:108360000268D20503D50902016007F01BFD80BD3C
:108370000C18024034190020F0B588B00692424231
:108380000290424190024900081805900D99481E3C
:10839000009181414A0601277E033A491C46019318
:1083A0000492FF2C2046254600D3FF250124401BC4
:1083B00003900498024600D0220607941C0A044643
:1083C00000D014462804059B18182043079B1F4023
:1083D00000D030430C46143C2060002F02D02068AF
:1083E0003042FCD10868C00643D4002D1FD002984B
:1083F00000280ED00868C40630D4C2242042F9D028
:10840000069B187808616D1E5B1C0693002DF1D148
:108410000DE00868C00621D408684007F9D5C8688F
:10842000069B18706D1E5B1C0693002DF1D1086829
:108430000006400FFBD00027039C002C019B0798EF
:10844000AFD1009A002A07D00A689206FCD52022F4
:108450004A600A689206FCD408B0F0BD086880063D
:10846000FCD53020486008688006FCD4002008B0A5
:10847000F0BD08688006FCD530204860086880069A
:10848000FCD4F3E718540040F0B55A4900254D716B
:108490008400594B5C61E0480178002904D1EFF376
:1084A000108172B65C6901784A1C0270544E77697B
:1084B0000122100484420BD85D61381983B27361C4
:1084C0004C484079144A136000280FD010230EE066
:1084D0005004844212D86008221A5A61381883B2B4
:1084E0007361002AECD00C4803600DE02023203A91
:1084F0001068514C0440E018106005E00648076021
:108500004D48201871305861C3480170002900D0CF
:10851000F0BD62B6F0BDC0463C2C0140F0B5354917
:1085200000264E71800034494861BB480278002A19
:1085300003D1EFF3108172B6027830490B460C3B41
:108540000824E5431D600B46103B1D6825431D6054
:10855000B1480B68384C234040330B60531C037008
:108560008A68274D6A61DCB29C4204D0EFF3108226
:1085700072B66A6903785C1C04701F4F7C69012520
:10858000280484420CD87E61101982B21C484261D2
:10859000A14C184840790A62002811D0102210E03E
:1085A0006804844213D86008241A134D6C611018B3
:1085B00082B213484261002C974CEAD00A620DE067
:1085C000202208681C4D28401043086006E00A621B
:1085D000194800197130084948618F4C23701806FA
:1085E00001D162B62378581E2070000600D0F0BD7D
:1085F00062B6F0BD5C110020641100201C2C01400B
:108600007C11002010B584490878002803D1EFF3CD
:10861000108072B60878074A13680824A3431360D1
:1086200008701169044B0B401361002800D010BD85
:1086300062B610BD0C2C01408FFFFEFFB0B5B34CED
:108640002078012820D1607805281DD87844007949
:108650004000874402291A383E022248007803214C
:1086600041430D19FFF7CEFF687A811E4842484109
:10867000C046C0462046303020211B4A00F038F862
:1086800000F072F800206070B0BDA078012801D120
:1086900000F0C8F87D200001144909680818FFF7A8
:1086A000F3FE03206070B0BDA078002802D1022044
:1086B000C046C0460D4800686421081AFFF7E4FE72
:1086C00002206070B0BD6420FFF7DEFE0420607001
:1086D000B0BD0020C046C0466420FFF7D5FE05208F
:1086E0006070B0BD166E0108418800081C6E01085C
:1086F00070B5524B1C689D6925605C68002525603B
:108700005A612560444C267805221207434D002EFD
:1087100004D0267014682C40146009E0EFF3108632
:1087200072B616682E4016602278002A00D162B612
:10873000DA7A5C7AA4003A4D625114CB154624359E
:10874000A560E06061608020206081202060596029
:10875000D069800603D5506AD0698006FBD46120B9
:108760008001906070BDC04634484369816904222D
:108770000A43002B09D0437A012B08D80268012351
:10878000DB021362054A114305E0114603E021496B
:1087900001230B701146006801607047040000045B
:1087A000F0B51C4A00231370244A146895692560AB
:1087B0005468236013612360174D2F780123DC0474
:1087C00005231B07154E002F05D02F701D6835405F
:1087D00025431D600AE0EFF3108772B61F6837402B
:1087E00027431F602B78002B00D162B6937A547A0E
:1087F000A4000B4D6351136852681C4628349460E2
:10880000D060516090201060912010603120C00134
:108810009860F0BD08190020B5140020FFFFF3FF99
:10882000000802400448012101700448816948227F
:108830000A4300680260704711190020A40100205B
:10884000F0B58BB00546314E3078012800D090E06D
:108850002F4800687D218900081AFFF75FFE002479
:108860002046C046C046B47001227270281F1C28E2
:1088700069D830200590315CA94264D10692032D5D
:1088800008460AD032463132EB1E08461778C01926
:1088900080B25B1E521C002BF8D172193032521E6E
:1088A000531E1B7812781202D218EA4B43409A42A8
:1088B000069A48D1B460F078002800D1F27034777D
:1088C00031200290375CFA09E3488378934252D111
:1088D000E243049203977A06520F072A00D97CE1FB
:1088E000920002A39A58049B9746C0461589000837
:1088F00085890008EB890008EF8A00081F8B0008B3
:108900004B8A0008DB8B0008A38A0008A003002024
:10891000186E0108042900D05FE10F20039901407F
:10892000039100D159E1FC480078002800D154E1BE
:1089300031460D31CA5C022A00D02FE1401EC91C0D
:108940000028F7D149E1F4480078032141438D190B
:10895000FFF758FE687A811E48424841C046C0462B
:10896000304630302021ED4AFFF7C2FEFFF7FCFE13
:1089700074700BB0F0BD0120C046C0460320F070FB
:108980000BB0F0BD042900D027E1E3490A78002AA2
:1089900000D122E10F21039C0C40039431460E319B
:1089A000039F06E0521EC01CC91C002A2B4600D1A2
:1089B00013E11D465B185B1E1B78002BF2D04C5D4B
:1089C000BC42EFD1022B04D0049A521E02238B54D6
:1089D000F370039A1202A14BD218B2830278B277D5
:1089E0004078F07700200870F7E0042900D0F4E028
:1089F000E9490978002900D1EFE00F24039A059492
:108A000022400392451C37460E370020039C05E0A8
:108A1000FF1CED1C401C814200D1DEE0DA19521E21
:108A20001278022AF4D1FA5CA242F1D13A7807AC6A
:108A3000214600F015F92D783878039000011030A8
:108A4000A84200D9B1E01022B1E0D3480078002854
:108A500000D1C2E00F21039A0A40039235460D353A
:108A6000039A04E0ED1C641CA04200D1B5E0E95C6F
:108A70000229F7D129789142F4D1718E3246203201
:108A800020460020C046002800D1A6E02978728E3A
:108A9000F283801D090201430D2000030843B083C7
:108AA0009BE0042900D098E00F200399014000D0FA
:108AB00093E0FFF7A7FDB8480078002805D03146BD
:108AC0000C310C70C91C401EFBD1B4707470B460C2
:108AD0002046C046C04604203071F4703046303025
:108AE0002021AE4AFFF704FEFFF73EFE75E00F209F
:108AF000039C044039D0A848017800296DD0324643
:108B00000D32002004E0D21C401C8142049B64D042
:108B1000D35C022BF7D11378A342F4D126E09E4810
:108B20000078032141438C19FFF76CFD607A811EA8
:108B300048424841C046C046304630302021974A1E
:108B4000FFF7D6FDFFF710FE00207070039840B2CB
:108B5000002842D40598305C20283ED1304632307F
:108B600000F01EF90220F07037E00020728E3146CE
:108B70003431009161426141AB1F0020C0460028A2
:108B80002BD00298305C000727D00598325C304625
:108B90001C3031463031FEF747FA1EE00698C854C3
:108BA00003980870306BF06117E0059A2A4004982A
:108BB000385C00021018001D052149030143B183F0
:108BC00030461E302146FEF745FB0398401CC1B2DB
:108BD00009018D4200D800203870327F002A00D170
:108BE000C7E6FF21022A0B460FD0032A01D1FC233E
:108BF0000BE030461D30D31E14460578A4B264192C
:108C00005B1E401C002BF8D1E34330461C30821819
:108C1000049CA218521E1370327FFE231340022BB5
:108C20000DD031461D31D31E14460D78A4B26419FF
:108C30005B1E491C002BF8D1A1B2090AC943821856
:108C4000049B9954317FFFF7ABFD0698B0700BB0D1
:108C5000F0BDC046FFFF0000136E01080690000043
:108C6000F0B51748BA4AD388002B02D004465B00FF
:108C700001E0044683889EB212480768124B5F43A6
:108C80000120C5037F193A0C72438703D019C00B2A
:108C90000E4E7043C00C0870AD48C288002A01D047
:108CA000500000E0A08880B2064A126853435A1967
:108CB000120C4243D019C00B4643F00E4870F0BD71
:108CC000440F0020B0050020CDD50400CDCC00001D
:108CD000B0B5FFF797FC30480078002806D02D4942
:108CE0000C3100220A70C91C401EFAD1294D002403
:108CF000AC706C70AC602046C046C0460420287141
:108D0000EC70284630302021244AFFF7F1FCFFF7B1
:108D10002BFD01202870B0BD166E010841880008A7
:108D2000B0B51C4D287801282DD1E87800282BD02B
:108D3000A968491CA960FA291FD3FFF763FC1648EC
:108D40000078002806D029460C3100220A70C91C80
:108D5000401EFAD10024AC706C70AC602046C04656
:108D6000C04604202871EC702846303020210B4A80
:108D7000FFF7BEFCFFF7F8FCE8782979884202D0BB
:108D8000287100F0F1F8B0BD002029798842FAD0AE
:108D9000F6E7C046A0030020166E010841880008CF
:108DA000F0B583B071216A4A535C421C0F2109025D
:108DB0000D2B019206D85B00C45CC3185B781B02C4
:108DC0000B400CE006245C43A318543B9C78F02530
:108DD0002C401E783609A4191B792B401B011C1945
:108DE0005C4FBC4200D33C465B4DAC4200D82C46A5
:108DF00002915A4E74435A4963180C461B0C594948
:108E00000B8072235249CB5C0E2B07D25900425C77
:108E1000411849780902029B19400EE006245C4380
:108E200001996318543B9C78F0210C401A78120980
:108E3000A2184B4C1B790B4019018B18BB4200D375
:108E40003B46AB4200D82B4673431919090C454ADF
:108E5000518073213E4A535C0E2B07D25900425C6D
:108E6000411849780902029B19400EE00621594336
:108E7000019A891854398A78F0231A400C78240909
:108E80001219374C0979194009018B18BB4200D3DC
:108E90003B46AB4200D82B4673431919090C314AA3
:108EA000918074212A4A535C0E2B07D25900425CF0
:108EB000411849780902029B19400EE006215943E6
:108EC000019A891854398A78F0231A400C782409B9
:108ED0001219234C0979194009018B18BB4200D3A0
:108EE0003B46AB4200D82B4673431919090C1D4A67
:108EF000D1807521164A535C0E2B0AD25900425C70
:108F0000401840780002029908408018B84211D2F7
:108F100011E0062058430199401854388178F02216
:108F2000114003781B09C91800791040000140184E
:108F3000B84200D33846A84200D8284646433019E4
:108F4000000C0849088106F05FFC03B0F0BDC04684
:108F500088060020CA080000EE0200009CC4200021
:108F6000F0FDFF3FC4050020B0B5C11E022903D3A8
:108F7000022806D0002806D10F48032101700F4CAB
:108F800002E00C4C00E00A4C0D4D08222846214618
:108F9000FEF733F900280AD003CC03C5083CA088AB
:108FA000401E08490860E088401E07490860B0BDBF
:108FB000986E0108A86E0108E0130020B06E010849
:108FC000C00E0020C80E0020B80E0020F0B581B001
:108FD000602200238354027B042A50D80446603464
:108FE0007A44127952009744020E1B1F2D0002682A
:108FF000092A08D8EF4A1268426074482080042683
:1090000000292AD12DE041229200437B1B029A18AD
:109010002280E84A12688260042600291DD120E0DF
:10902000807B0002684A07E02222E14B9A5C0A43F7
:1090300027D0807B0002614A024322800426002957
:109040000BD10EE040302246E8C8E8C2E8C8E8C2CA
:109050002678002E13D0002903D0607880210143A8
:109060006170B51E204629460AF0DCF8A1198E1E53
:109070003070204629460AF0D5F8000A707001B019
:10908000F0BD4F480288921C930AE3709208A270C8
:109090004288921C930A6371920822718288921C02
:1090A000930AE3719208A271C288921C930A6372B8
:1090B000920822720289921C930AE3729208A272A9
:1090C0004289921C930A6373920822738289921CCC
:1090D000930AE3739208A273C289921C930A637481
:1090E00092082274028A921C930AE3749208A27472
:1090F000428A921C930A637592082275828A921C96
:10910000930AE3759208A275C28A921C930A637649
:1091100092082276028B921C930AE3769208A2763A
:10912000428B921C930A637792082277E278838BB2
:109130009B1C9D082E011643E670F02215406679AF
:109140002E4366719B091340E5791D43E571637AEF
:10915000C58BAD1CAE0837011F4367721640E37A1A
:109160003343E372AB091340657B1D436573E37BB7
:10917000058CAD1CAE0837011F43E7731640637CB6
:1091800033436374AB091340E57C1D43E574637D91
:10919000408C801C85082E011E4366751540E37DBA
:1091A0002B43E37580091040627E024362760548D6
:1091B00020802026002900D04FE752E7042000003D
:1091C0005004002020400000041000000470000043
:1091D000F0B587B004920390734802780020012A0A
:1091E00063D1E522724C0592A35C0E78FF2E00D16C
:1091F00001269E4259D8029100900398C01C01900C
:109200000498077805E0761C0027D9B2F2B28A42AA
:109210004AD8F1B26518E822AA5CFF2AF3D0F820F8
:10922000285C0697FFB23B01C21A102A00D3102215
:109230002124E4002C5DFC40E40718D0039F3A7021
:109240005B489830451850242C5DBE707C708901B5
:109250004018C118F4310198FDF7FCFF0298067020
:109260000498069F07706020285C002101E001211E
:10927000069F7F1CFAB213010022984206D9984239
:109280004B4C07D9B618002908D110E01746984270
:10929000474CF7D80122B618002908D00598235C5E
:1092A000D9B2F2B28A42B4D9009807B0F0BD0298A0
:1092B000067004980770012007B0F0BD10B5F44A9D
:1092C000F249535C0021FF2B18D0374B1B78002B41
:1092D00014D0E423D45C002C10D001780902084C8F
:1092E0000C432321C900545240880421D1548D21BC
:1092F00049005052D820002111500121084610BDCC
:1093000006D00000B0B582B014466D466970287072
:10931000080AA870E81C1946FDF79CFFE21C0348E8
:10932000294609F075FC02B0B0BDC04622F000002D
:10933000F0B581B01C4C2278002A33D11B4BEF4D85
:109340000022EA54EC4BE954DD4EA85530230327A4
:10935000EF548423EA54E423EA52D823EA50272323
:10936000DB00EA54CB4B1B68DC27EB51FF280B4694
:1093700000D003460527FB1AF64FEB5562702A62B0
:109380006A62FF2906D00C4B0022084619460BF0F2
:10939000DBF8A85DFF2803D0074900220BF0D4F8C2
:1093A0000120207001B0F0BD900400208F05000066
:1093B000D8080020B8150020206E0108F0B585B04F
:1093C0000446FB4A0029019101D1CB4800E0F9484D
:1093D000101800780BF0ACF8029480340394042841
:1093E00026D30746039D14350120C043049003E0B3
:1093F0007F1E6D1C032F1BD92E78301F1C28F7D819
:10940000A819049A815C8018407800024418B11EA3
:10941000284609F007FF8442EAD1039F38462946CF
:109420003246FDF717FF029E307B042808D920E161
:109430000020039F3870029E307B042800D918E179
:109440003246403278440079400087440214284371
:1094500052003068401C306070688E490968081AF4
:10946000FF21F431491C884200D202E10120B08181
:1094700002F0BEFDE7E0707B118C3A888A426CD125
:10948000401C707302F0B4FD707B31183022002351
:109490008B5402223273B073FF200874D3E001981A
:1094A000C103707B02020A437B49114389B23A88A7
:1094B000914200D0A7E0F978491E3F2900D9A2E0E7
:1094C0003018B9780174F978202281540020F073A3
:1094D0000120CDE02220B649085C019B184300D151
:1094E000B1E0B07B311820228A5C112A46D20025D7
:1094F00063E051780F230846184000D1B2E04906D6
:10950000490F032943D0052900D0ABE03D780A2D4F
:1095100000D9A7E00121A9400B24E401214200D198
:10952000A0E07978CC090495019DA542049C00D067
:1095300098E00B40834200D094E0702319405029FA
:1095400000D08FE079885288914200D08AE0A21F33
:1095500033468433FFF7D6FE89E0002873D001201C
:10956000B0730198002824D12220ED49085C00281E
:109570001FD0042030730020306064E0B9780325E8
:109580000D4029011031914215D8102215E038887C
:109590001188884266D179885488A14262D1C0B2CC
:1095A0000A2853D0082854D007285BD110793A797B
:1095B00051E0032046E00F210A401C46D903030274
:1095C0000B43111D1943012673030B4399B23B88CA
:1095D000994217D1002C1AD08001D14908182901CD
:1095E0004018632189004018029F39468231FDF7F7
:1095F00031FE3146A940B87B3A183023D45C0C4385
:10960000D4540DE0029EF07B401CF07331E040002A
:10961000C3490818029F39468231FDF71BFEB87B0B
:10962000797B401CC2B28A4200D80646BE730F291D
:109630003E4608D2B068BC490968081A80087D28EF
:1096400001D3012030730020F07312E0706C7A684F
:1096500001E09088BA88824204D17878184000F0FE
:10966000ABF804E03068401C30600A2801D30320C6
:109670003073F07B0A2806D3B07B401E707302F073
:10968000B7FC0120307305B0F0BDC0468C0500006A
:10969000D8080020B815002006100000B0B582B030
:1096A000444C9F4D285D002300935B21890069187D
:1096B00020220BF0D5F8285D0BF03AF902B0B0BDCE
:1096C0008C05000080B50248002109F075FE80BDC0
:1096D0009D960008B0B582B0F04CEE4D285D002399
:1096E00000932946B83120220BF0BAF8285D0BF020
:1096F0001FF902B0B0BDC0468D050000D80800209B
:1097000080B50248002109F057FE80BDD5960008BB
:1097100070B582B00E48DF4D295C002915D1DB49B8
:109720000978002911D001212954D94EA85D009152
:10973000094A00242146234605F05AFAA85D7D21F6
:10974000CA012146234605F045FC02B070BDC04663
:109750008F0500008E050000AD9A000810B5CD4AB7
:10976000CD49535C0021FF2B20D0C84B1B78002B28
:109770001CD0E423D45C002C18D001780902447872
:10978000A41D0C430B21090321432324E40011539E
:109790008D2149004488545240680421D154472106
:1097A00089005050D820002111500121084610BDD9
:1097B000D80800208C05000080B582B001AB59703C
:1097C0001870080A987003480322194609F020FA15
:1097D00002B080BD21F00000F0B581B0AF49AD4AC4
:1097E000535C0021FF2B00D196E0A84B1B78002B87
:1097F00000D191E02221535CFF2800905AD0002B29
:1098000062D03121515C00295CD0931C0024204699
:10981000264604E0002026469B1C8C4276D217196F
:1098200035257D5D641CFD2DF6D11F88002FF3D0FA
:10983000FD07EFD1BD0721D47D0721D43D0721D4F9
:10984000FD0621D4BD0621D47D0621D43D0621D4B8
:10985000FD0521D4BD0521D47D0521D43D0521D4AC
:10986000FD0421D4BD0421D47D0421D40125ED03C0
:109870002F4000D00F20002FCDD1CDE70120CAE727
:109880000220C8E70320C6E70420C4E70520C2E79A
:109890000620C0E70720BEE70820BCE70920BAE79A
:1098A0000A20B8E70B20B6E70C20B4E70D20B2E79A
:1098B0000E20B0E7002B05D03020032313540026E0
:1098C000565422E0002620E0012353543121535CFA
:1098D000002B0FD0941C002503E0A41C6D1C9D429E
:1098E00008D256193527F65DFD2EF6D100232380C8
:1098F000535CF2E768215054302100265654094940
:10990000516609490968566291623046F1B2C2B2A5
:10991000009800F00BF80121084601B0F0BDC046E8
:10992000D808002007300180B815002080B582B02B
:1099300001AB9A705970187003480322194609F058
:1099400067F902B080BDC04619F000004F480178A9
:10995000012901D1012141707047C046F0B581B0A5
:109960004A4C6078002819D02078012814D10025AD
:1099700025704748474E305C012105F097F846486E
:10998000305CFF2801D00AF073FD4448305CFF28AA
:1099900001D00AF06DFD657001B0F0BD3C483D4D51
:1099A000285C7D21C9010024224605F009FB3B48C3
:1099B000285CFF281CD02320285C002813D13848BD
:1099C0000068016A097802290DD1C0690078002871
:1099D00009D030200321295484202C546C620120AA
:1099E0000002688404E0284624300021FFF7E6FCEA
:1099F000294FE85DFF2804D02846D8300121FFF721
:109A0000DDFC2326A85D002806D025480068006AF2
:109A10000078022809D0AC552048285CFF2804D0E3
:109A2000284624300021FFF7D1FAE85DFF2804D052
:109A30002846D8300121FFF7C9FA1848285CFF28CA
:109A400011D0A95D00290ED184216A5C22216B5CB2
:109A5000002B00D0134B294684310AF095FF0F48A4
:109A6000285C0AF0EFFFE85DFF2809D02721C90034
:109A70006A5C69180C4B0AF087FFE85D0AF0E2FFA8
:109A800002F0BCFA288401B0F0BDC046900400206A
:109A90008E050000D80800208C0500008D05000010
:109AA0004804002001970008C596000880B50248C8
:109AB000002109F097FC80BD5D9900087047000007
:109AC00010B51248124941611248017804220A4334
:109AD0000270FF20000410490A6882430A60C449EA
:109AE0000878002803D1EFF3108072B60878684A2E
:109AF0001368764C2340403313600870116821408E
:109B00001160002800D010BD62B610BD1C190020E5
:109B1000750F0108581100200CE400E0F0B55A4917
:109B200000254D718400594B5C61E34801780029A0
:109B300004D1EFF3108172B65C6901784A1C02709F
:109B4000544E77690122100484420BD85D613819A4
:109B500083B273614C484079144A136000280FD0D7
:109B600010230EE05004844212D86008221A5A6171
:109B7000381883B27361002AECD00C4803600DE002
:109B80002023203A1068514C0440E018106005E092
:109B9000064807604D48201871305861C64801706A
:109BA000002900D0F0BD62B6F0BDC0463C2C01409B
:109BB000F0B5354900264E71800034494861BE48F1
:109BC0000278002A03D1EFF3108172B6027830498F
:109BD0000B460C3B0824E5431D600B46103B1D68FB
:109BE00025431D60B4480B68384C234040330B605C
:109BF000531C03708A68274D6A61DCB29C4204D012
:109C0000EFF3108272B66A6903785C1C04701F4F10
:109C10007C690125280484420CD87E61101982B227
:109C20001C484261A44C184840790A62002811D0AF
:109C3000102210E06804844213D86008241A134DDF
:109C40006C61101882B213484261002C9A4CEAD021
:109C50000A620DE0202208681C4D2840104308606D
:109C600006E00A6219480019713008494861924CAF
:109C70002370180601D162B62378581E20700006A2
:109C800000D0F0BD62B6F0BD5C1100206411002070
:109C90001C2C01407C11002010B587490878002851
:109CA00003D1EFF3108072B60878074A13680824CE
:109CB000A343136008701169044B0B401361002823
:109CC00000D010BD62B610BD0C2C01408FFFFEFF0E
:109CD00010B5EF4CE078042824D8C04678440079C9
:109CE00040008744022007301B001E48002109F075
:109CF00063FB10BD2079002802D1E068406C8047EA
:109D0000E1685F20085C0A465F32527880186E2254
:109D1000101A896A88470320E07010BD114800219D
:109D200009F04AFB10BDE068006C8047E1685E20E6
:109D3000085C0A465E3252788018F030896A88479B
:109D40000220E07010BD6079012802D1E068C06C8B
:109D50008047E1686020085CE130896A8847042018
:109D6000E07010BDF5A20008704780B501460020E4
:109D700001220AF0E9FB80BD70B5584B1C689D6953
:109D800025605C68002525605A6125604A4C26786C
:109D900005221207494D002E04D0267014682C406D
:109DA000146009E0EFF3108672B616682E40166054
:109DB0002278002A00D162B6DA7A5C7AA400404D9B
:109DC000625114CB15462435A560E06061608020A7
:109DD0002060812020605960D069800603D5506AD8
:109DE000D0698006FBD461208001906070BDC046C0
:109DF000B514002039484369816904220A43002BC5
:109E000009D0437A012B08D802680123DB021362D0
:109E1000054A114305E0114603E0264901230B7072
:109E20001146006801607047040000042B48016877
:109E300082690A6040680021016001607047C04685
:109E4000F0B51C4A00231370244A146895692560F4
:109E50005468236013612360174D2F780123DC04BD
:109E600005231B07154E002F05D02F701D683540A8
:109E700025431D600AE0EFF3108772B61F68374074
:109E800027431F602B78002B00D162B6937A547A57
:109E9000A4000B4D6351136852681C46283494602B
:109EA000D060516090201060912010603120C0017E
:109EB0009860F0BD08190020B5140020FFFFF3FFE3
:109EC00000080240044801210170044881694822C9
:109ED0000A4300680260704711190020A4010020A5
:109EE000F0B5FF22D2438218042A06D8344A8018DB
:109EF0008F38007808700120F0BD154A80180428BA
:109F000024D84200134B9C1865789C5C0C702A0284
:109F10001219114D2A406D1C4E7836022E40B5188C
:109F20002D0A4D7040255D5D40339E78DF785B786B
:109F30000C701B025B193C02A4192404E318C340F3
:109F4000D8038018000A48700220F0BD0020F0BD40
:109F500000FEFFFF98070020FF7F0000F0B51749C3
:109F6000174AD388002B02D00C465B0001E00C4658
:109F70008B889EB213490F68134B5F430121CD03B9
:109F80007F193A0C72438F03D119C90B0F4E7143DD
:109F9000C90C01700A49CA88002A01D0510000E0AA
:109FA000A18889B2074A126853435A19120C4A43CE
:109FB000D119C90B4E43F10E4170F0BD440F002082
:109FC00088060020B0050020CDD50400CDCC0000CF
:109FD00070B50446D04D0026AE706E70AE60E8607D
:109FE000006A8047A16B0948884701202870E8680B
:109FF000006B8047EE70E868C36B2846253024214B
:10A00000C64A9847E868006C804770BD886E0108B2
:10A0100080B5C1490878012810D18868002804D08B
:10A020005D4A1268101A632809D9002048708A789E
:10A03000904203D08870C968496A884780BD4878D3
:10A040008A789042FAD0F5E780B52520B2490856C3
:10A050008206120F022A0BD0012A10D0002A0DD13D
:10A06000002810D44006C00FC9680969884780BD20
:10A070002620085C001FC9688969884780BDC868B8
:10A080004069804780BD0220C9680969884780BD52
:10A09000F003002010B504469F48C1685E20085CAC
:10A0A0000A465E32527810184B22101AC96A884745
:10A0B0000248214609F080F910BDC046C1A0000841
:10A0C000F0B581B00546944EF07800282FD1A81F36
:10A0D0001E282CD8344625346019401E0778691E86
:10A0E000204609F08FF8874221D12520305C810776
:10A0F0001DD12621715CA94219D10127F7700021D9
:10A10000717125490968B1602721715C07220A40F5
:10A11000B2718906490FF1718006000F022817D02D
:10A1200001281DD0002824D1F068006D12E0F068ED
:10A13000006B80470020F070F068C36B304625301C
:10A140002421764A9847F068006C804701B0F0BD42
:10A15000F068806D00280CD0314628312A1F06E0B7
:10A16000F068406D002804D0314628311422FDF7F4
:10A1700071F80A480025294609F0F0F8707800289F
:10A1800000D177703571F068C36B2521044A2046F1
:10A19000984701B0F0BDC046B815002049A000089E
:10A1A000A5A1000880B501465B4801220271024862
:10A1B00009F002F980BDC046BDA10008F0B581B02C
:10A1C000554DE978022928D1152826D139202C5C53
:10A1D00028462530142109F015F884421DD1252088
:10A1E0002F5C03203840012817D12C46113414214C
:10A1F0002046FDF78CF802262E74B80804285FD894
:10A20000784400794000874402192A344400687871
:10A21000012855D00020687052E0E868006B804744
:10A220000020E870E868C36B2846253024213B4AAB
:10A230009847E868006C804701B0F0BD062028749C
:10A24000E8685C21415C697401465C314978A97415
:10A25000C0688047E874000636D16E7034E06878D4
:10A2600002282DD10A202874E86881682046884792
:10A270002AE06878022823D10E202874E88C6874BC
:10A28000010AA974E9680A68294614319047E874FC
:10A290001AE06878002813D012202874E88C6874BB
:10A2A000010AA9742821695CEA6853682A462932A0
:10A2B0009847E874E879072806D1A879072803D1D8
:10A2C0000020687101B0F0BD2C46103414212046E6
:10A2D00008F098FF2421685401206871E868826CB6
:10A2E00015212046904701B0F0BDC046C448007813
:10A2F0007047C04610B5084CE068006B80470020EE
:10A30000E070E068C36B204625302421034A98475B
:10A31000E068006C804710BDF003002095A00008A5
:10A3200010B5B6490870B6480078002800D010BDB6
:10A330001148124C9B4A214608F0E6FD71219748CE
:10A34000415C4900625A0E490A807222825C5200C6
:10A35000A25A4A807322825C5200A25A8A807422D6
:10A36000825C5200A25ACA807522805C4000205A4A
:10A37000088105F049FA10BD4406002004060020BB
:10A38000C405002010B590B09D480178FE220A4017
:10A390000270880720D482486C46824A214608F021
:10A3A000B3FD71217D48415C4900625A7E490A80B3
:10A3B0007222825C5200A25A4A807322825C52004E
:10A3C000A25A8A807422825C5200A25ACA807522E4
:10A3D000805C4000205A088110B010BD10B590B0CC
:10A3E00087480178FD220A400270C80720D16C48D6
:10A3F0006C466C4A214608F087FD71216748415C34
:10A400004900625A68490A807222825C5200A25A4C
:10A410004A807322825C5200A25A8A807422825C33
:10A420005200A25ACA807522805C4000205A0881DE
:10A4300010B010BDF0B593B0FF23DB43C318042B5D
:10A4400010D80020012900D09BE011781F2900D9E5
:10A4500097E0524DE8187126825D8A4243D101206F
:10A4600013B0F0BD484BC3180020042B00D988E07E
:10A47000022900D085E011785478240266184349F7
:10A4800031407ED019242401A1427AD88C1FA4B275
:10A490002C2C76D340203E4D01902C5C2846403039
:10A4A00045782D022C198578C7783F027D192D0437
:10A4B0002C1902945C00364F3D5D3C19009467787E
:10A4C0003F027F19012425469D408F4234D1029BD3
:10A4D0002B405F425F41E3035E40F30B9F422BD171
:10A4E000022013B0F0BD81554548007880071ED189
:10A4F0002B4803AC2B4A214608F006FDA85D40001E
:10A50000215A294801807221695C4900615A4180C1
:10A510007321695C4900615A81807421695C49003A
:10A52000615AC1807521695C4900615A01811A49EB
:10A530000120087013B0F0BD029BAB43019E144F85
:10A54000BB55009F3970090A7970190EC170190C3A
:10A550008170190A4170115709021278891809D5BA
:10A56000029A2A430A498A55110EC170110C817052
:10A57000110A41700748002108F0F0FE06480470F7
:10A58000022013B0F0BDC04600FEFFFFFF7F0000B9
:10A5900098070020650F010890070020880600201A
:10A5A00082080020CC13002042080020B0B5022809
:10A5B00009D0002809D11148022101701048032157
:10A5C0000170104C02E00C4C00E00A4C0E4D0822C9
:10A5D00028462146FCF711FE00280AD003CC03C50B
:10A5E000083CA088401E09490860E088401E0849D0
:10A5F0000860B0BD986E0108A86E010838080020F8
:10A60000E0130020B06E0108C00E0020C80E00202C
:10A61000B80E002010B50146DF204000F84C20188D
:10A6200000F058FA0020E07210BDC04610B5FF20BF
:10A63000D230F34C201801F065FB0020E07210BD11
:10A6400080B507480078012808D108F009FEEC48D9
:10A65000017C02220A43027408F00EFE80BDC0464F
:10A6600092040020F0B58BB00590E548807A002870
:10A6700006D00E78FF2E019105D0B006470F03E0FB
:10A6800000200BB0F0BD002707210E400598C01C2C
:10A69000039002921578069104E07F1C00250028A3
:10A6A00000D0A3E1F1B20020072903D1FAB2012AB8
:10A6B00000D1A2E1072905D13A0603D1D04A1446B8
:10A6C000683419E0072908D0FAB2072A05D1062014
:10A6D0004843FF4A14186E340EE0FAB2072A00D13C
:10A6E0008BE1072900D188E1062048432A21514304
:10A6F000F74A51180C189834069B107E00210A91D5
:10A700000028089301D00A99089168210491525CAD
:10A7100011460F31C9B2072909930FD301230993B9
:10A72000072906990DD2002807910ED10790F13A1A
:10A73000237800280DD1FF2B7CD0D7E0072906997C
:10A74000F1D30A9100280791F0D0F13A237800283C
:10A75000F1D0FF2B00D0C9E0F0B2F9B2072814D134
:10A7600000290A98099B2ED001290898079B2AD016
:10A770000726F8B2C01F45424541F4B2E11F481E0A
:10A7800081410020002D3CD037E1F4B20620604327
:10A79000CF4B18186E23C05CFBB2072B05D0F138E5
:10A7A000884208DD7B1C30460DE00F30C0B2072820
:10A7B00001D20027DDE70720A242034600DC012387
:10A7C000A24200DD701CDEB2F11F4D424D41C4B209
:10A7D000E11F4F1EB941072C0DD0072E0BD10621CA
:10A7E0006143BB4B5C186E21635C0721FF2B79D161
:10A7F00006460F46C9E71F4606460020002D00D03A
:10A80000FBE0002900D1F8E006206043F9B22A23DA
:10A810004B43F849C9180C189820235CFF2B9BD098
:10A820009834002562E0F34C68340726002723782B
:10A83000FF2BF6D1F9B2F4B2072C06D100290A9801
:10A84000099B28D00129EED012E006206043E94B95
:10A8500018186E23C05C072905D0F138884212DD34
:10A860007B1C304617E00F30C0B207280BD2002700
:10A87000F8B2C01F45424541E11F481E81410020FA
:10A88000002D22D0B9E00720A242034600DC0123BC
:10A89000A24200DD701CDEB2F11F4D424D41C4B238
:10A8A000E11F4F1EB941072C09D0072E07D1062101
:10A8B0006143F64B5C186E3407270646B7E71F4620
:10A8C00006460020002D00D097E0002900D194E03A
:10A8D00006206043F9B22A234B43EC49C9180C18EF
:10A8E0009834A4E76E34002506460F46E8B2217975
:10A8F000C140C90718D0059A5370F90031439170CF
:10A90000000161780A1A102A00D3102205990A70F2
:10A910006188DE4B59180818FF21D6314118039879
:10A92000FCF798FC012000E0002061786D1CEAB281
:10A930001201914200D9B2E6FAB2F1B2072910D160
:10A94000002A27D0012A3DD1D049097E07270025BA
:10A9500000293E4600D02E46002900D09FE60F4633
:10A960009DE606234B43C94CE3186E241B5D072A62
:10A9700021D0F13B934200DD8FE6C44A049BD25CB8
:10A98000F13A07238A421F4600DC01278A4229DC6C
:10A990001E4683E6BD49049A895C0F31CAB207217D
:10A9A000072A0F4600D301270025072A2E4600D28A
:10A9B00075E60E4673E60F33DAB20025072A04D295
:10A9C0002F466CE60025072669E6B04A049BD25C58
:10A9D000F13A07238A421F4600DC01278A4203DC42
:10A9E0001E465CE6761C59E6761C58E6F8003043B5
:10A9F000019908700298057001200BB0F0BDC046A7
:10AA0000D8080020B0B501469F4802780020012AEE
:10AA100017D19E4BDA7A002A13D10C78DF2252002C
:10AA20009C549A184D8855702D0A9570097849B232
:10AA3000002907D43F21214007290CD1197E002984
:10AA400009D0B0BDC9B24906FBD10021104600F0C3
:10AA500041F80120B0BD07212140A206520F07296D
:10AA600006D1002A04D16821595CFF2911D1E8E7F9
:10AA7000072911D0072A0FD168229A5C0F32D2B26F
:10AA8000062ADED806224A4399186E22895CFF29DD
:10AA9000D7D00120D872B0BD0729D2D0072AD0D094
:10AAA00068241C5D0F34E4B2062CCAD806244C433B
:10AAB00019196E25495D0F31C9B20629C1D82A215D
:10AAC0005143591809199822895CFF29E1D1B8E747
:10AAD000D808002080B50346CA1C0248194608F071
:10AAE00097F880BD26F00000F0B585B0664909787A
:10AAF00000297CD1654E00243476C10707D1810737
:10AB00000CD4410712D4000718D403941DE03A492D
:10AB100000227254012434768107F2D53119364A65
:10AB200001238B54641C34764107ECD53119324A29
:10AB300002238B54641C34760007E6D530192E4965
:10AB400003224254641C039434760023B38173813E
:10AB50002948315C05200291401A049030724C481B
:10AB60000068016820251F460BE00A784978090231
:10AB70008918D9400F220A40D7196D1E2346014675
:10AB80000BD05C1D072C03D80846072CEDD902E03A
:10AB9000481C072CE9D9DC1EE7E701233A4803707B
:10ABA000F81DC008306003980028049819D0049359
:10ABB00038490122029809F0C7FC307E02280ED3E2
:10ABC00000240E4F334D3019C05D0122294609F093
:10ABD000BBFC601CA11C327E91420446F3D3307A48
:10ABE000049B0093C0B200212B4A04F001F805B089
:10ABF000F0BDC046D8080020D5050000D6050000ED
:10AC0000F0B581B0204C217800293BD16721EA4B77
:10AC100000225A541A7658729A815A810521091ACB
:10AC2000197262701A4909680C68202316460BE0F5
:10AC30002578647824026419D4400F2222409619A2
:10AC40005B1E3A460C460BD0571D072F03D82146F2
:10AC5000072FEDD902E0611C072FE9D9D71EE7E7DE
:10AC6000012409490C70F11DC908D34D2960094917
:10AC7000224609F069FC287A00940021064A2346FE
:10AC800003F0B6FF01B0F0BD92040020D808002008
:10AC9000480400208B6E010829BD000870B5C64C21
:10ACA000207B052800D0D2E0207E002806D0E17E5F
:10ACB00007200840072804D100211BE02046093066
:10ACC00002E02018BD494018007809F031FC00214D
:10ACD00015280FD15220205C03220240022A09D1FC
:10ACE0006620255C20465230142108F08BFA281A81
:10ACF00041424141A07A042800D9A8E07844007973
:10AD00004000874402273D466B00607B401C607317
:10AD1000C0B20A2800D29AE001F06AF9207E002829
:10AD200000D1E2E09221FF2262546E216254103879
:10AD30006821605420466E308277027682740273F6
:10AD400082712046683000210171C943418002218F
:10AD50004170CDE000297AD05220205CFC210140D6
:10AD6000042974D15520205C072870D8002800D110
:10AD7000C9E0672101226254217C0143217470BD26
:10AD8000607CA27C002A63D1072861D12546683502
:10AD900073E0002939D05220205CFC2101400C29AD
:10ADA00033D1FF200146C031625C61184978090245
:10ADB00089185322A25C234653335B781B029A18EE
:10ADC0008A4222D15521655C002D24D0C230201842
:10ADD000214656312A46FCF73DFA1DE0002924D0D1
:10ADE0005220205CFC21014010291ED1E9204000A6
:10ADF000205A5321615C2246533252781202511874
:10AE0000814212D15520205C16E0607B401C6073AB
:10AE1000C0B20A281BD300256A48294608F09EFACA
:10AE2000002060730220A07270BD607B401C6073C4
:10AE3000C0B20A280BD300207521890060546048F5
:10AE40000025294608F08AFA65730220A07270BDB9
:10AE5000072A06D1072804D006224243A5186E35DA
:10AE60000BE00025072A08D0072806D00623434315
:10AE70002A2050432018C5189835002926D0522082
:10AE8000205CFC210140082920D1002666736888D7
:10AE9000C8498842DBD020186978112903D353228E
:10AEA000A25C0326164032018018FF23D633C01857
:10AEB0008A1A102A00D3102253342146FCF7CAF90B
:10AEC0000120B04029790143297170BD607B401C8D
:10AED0006073C0B20A28BAD3FF20287000F076F859
:10AEE0000020607301F084F870BD6820FF212154B8
:10AEF000002060730121A172334921616061FF204C
:10AF00000830E08170BDA17BE27B002A04D10729D3
:10AF100002D12046683014E0072A06D1072904D060
:10AF20000620484320186E300BE00020072A08D086
:10AF3000072906D0062048432A21514361180818E2
:10AF400098305321615C01705422A25C002303718C
:10AF500042700F31C8B2062829D8E17BA07B0728B0
:10AF60000DD100290BD19220FF2121546E202154B4
:10AF70006E34A1772176A1742173A17117E007299E
:10AF800015D1062141436018C222FF218154982225
:10AF90008154EC2281548B2252008154052292016B
:10AFA0008154B5225200815465229200815400F0F0
:10AFB0000DF801F01DF870BDD8080020D50500007F
:10AFC0002DA6000815A6000800070100F0B589B0FD
:10AFD0006820AE49085C04900F30C3B200210722FC
:10AFE000072B039100D303920120072B0646029002
:10AFF00000D302910498F1380490A44B187E01907C
:10B000006833587800906C4C00E0089AD3B2072B54
:10B010000CD1F2B2002A0FD00723012A13D100234A
:10B020000198002814D01846984E7AE0F3B21046E2
:10B030000D463746954EABE00D460298039A934E67
:10B04000C10754D15FE00D461A4637468F4E82E065
:10B050006C2000228D4E325400980D18A5420846EF
:10B0600000D354486A22B052A54200D30D4602983C
:10B07000039AC1073BD146E005461E466E27D75DC1
:10B08000F0B2072812D10F37F8B2072816D20023E2
:10B090000898037008782F462818A04200D3454F1F
:10B0A000079E3780A042E7D32846E5E7F13F9F425D
:10B0B0000DDD3746771C059A744E2AE00499069AEE
:10B0C00091420DDC0020714E91420DDD17E0049994
:10B0D000069A91426D4E0FDC0020914204DD0EE095
:10B0E00001206A4E91420ADC0722C1070BD00727D4
:10B0F000D0B207280BD00CE001209142F4DD059975
:10B100004A1CC107F3D10127D0B2072801D1002979
:10B110004ED0D3B2072B1ED0F8B2072810462946CE
:10B1200019D1074606205843301872220023835451
:10B130006F22825C8D18A5420A4600D31D4A7023F7
:10B14000C252A54200D30D46F8B20723072838465D
:10B150001F461A461CD10892062058432246344600
:10B160003E46F9B22A234B43E1180B189C200021DC
:10B1700019549920185C291891422C4600D30D4C83
:10B180009A201C529142144600D23EE729463CE7E1
:10B190000590C1B2062006914843321810469C30F3
:10B1A000089010469A300790114699313E4665E75F
:10B1B00009B0F0BDFFFF000001040000F0B581B050
:10B1C000324C207E002819D0E17E3F220A403F2ADF
:10B1D00017D100262E4F35460AE06019C05D214682
:10B1E0003D31152209F0D0FB6D1C207E854214D222
:10B1F000401E85420A4BF0D03346EEE72046093028
:10B2000004E00720014060182149401800783D34CF
:10B210001522034B214609F0B7FB01B0F0BDC04633
:10B2200095B2000810B51948017B02290FD17D2184
:10B230008900074A127892008A1A007A002421466F
:10B24000234603F0C7FE0348214608F0B5F810BDB9
:10B25000ED750108BDB1000880B582B00B49087ECC
:10B26000002808D0CA7E0720104007280CD00818F4
:10B27000074A801801E0084609300078002300934F
:10B280005231152209F0ECFA02B080BDD808002036
:10B29000D505000080B50248002108F08DF880BD7A
:10B2A00059B20008F0B593B0FB4C2078012806D1C4
:10B2B0006078002805D0F94D287B00281ED013B0F7
:10B2C000F0BDF74800780028F9D0F44C207B002826
:10B2D000F5D1204619300D902421FCF718F8277C71
:10B2E000F80717D12268101D0B90A076B80724D458
:10B2F00000266676EB480568A96826E000262670D9
:10B30000287A012103F0D2FB687A09F0B1F866705F
:10B3100013B0F0BD18200B90A07604266676FE20B0
:10B3200007402774DF480568296820461C3014222E
:10B33000FBF790FF78070ED414E008266676FD2010
:10B3400007402774D7480568696920461C30FBF719
:10B3500081FF780706D5002060610120E074FB20A2
:10B3600007402774286A0078002806D0314640310B
:10B370006176022801D1C036667627463D377E1CAD
:10B3800014213046FBF7C3FF3D220123A354A17AC9
:10B39000481E02280C931ED2E07A002822D00021F9
:10B3A000617302286CD11120A054FF200146D231D4
:10B3B00062181D46D35A7B530423A372615C3F235A
:10B3C0000B40E376D278B270C2302118381DFBF7FB
:10B3D00041FF0D9EF3E2002902D1A3543F20E07605
:10B3E0000D9EECE2E07C00285CD06069002807D06C
:10B3F0001546AD4A1268101A2A4680087D2851D396
:10B400001120A05403208003F8523F20E0763D46EF
:10B410000EAF8020B8700920B070384603F06AFF84
:10B420008120B8700F986871F8782871384603F059
:10B4300061FF8220B870F878A871384603F05AFF8F
:10B440008320B870F8780F9909020818F080384600
:10B4500003F050FF8420B870F8780F99090208189B
:10B460003081384603F046FF8F4800686061F87805
:10B470002F460F99090208187081A07E0D9E9FE249
:10B480000D20A054DF20400021184A788978090255
:10B490008918F9520321A172205C3F210140E17615
:10B4A0000D9E8CE20692E67B30465840A37B072532
:10B4B0001A4609956A40024350425041002A0CD175
:10B4C0006268794C2468A21A744C92087D2A04D3CD
:10B4D000FF200830E081227E3CE0227E0792002A95
:10B4E0001FD09222A25CFF2A1FD122466E326E2408
:10B4F0006A4D2C5D95792540684CFF2D15D1147B44
:10B50000957C2540654CFF2D0FD1147E927F224003
:10B51000624CFF2A09D1079A501E984212DD099900
:10B520001BE06822A25CFF2A10D0891E4A1E9141AE
:10B53000014300D06EE16725605D002800D1B5E0D1
:10B5400019465AE1FF200830E08103E0FF2008306F
:10B55000E08100220C9E09990B46059700200A9075
:10B56000002A089101D00A9808906820275C384684
:10B570000F30C0B2072875D30121072874D2002AE2
:10B5800000D109920792F13F0CE006256543D4B241
:10B590002A266643414CA419641998341646227829
:10B5A000FF2A66D0F4B2D8B2072808D1002C0A9B33
:10B5B0000A4641D0012C0FD1089B099E13E00622B8
:10B5C0004243364DAA186E25525D072C06D0F13A3B
:10B5D000A24220DD761C06E0072304E00F32D2B23F
:10B5E000072A21D200262D48C6738373012070409C
:10B5F00007221C4654400443E4B260426041DCB27E
:10B60000072C06D1340604D1244C68340026134696
:10B61000C5E7324619E007248742224600DC0122B2
:10B62000874208DC234607E007248742224600DCE5
:10B6300001228742F6DD5B1C1848C2738373DCB2BB
:10B640000020072C01D1012A23D0DCB2072C9CD08A
:10B65000D5B2072D99D106226243104CA4186E343E
:10B6600007269CE707288AD309980A90002A88D0E1
:10B6700088E70028094C059F00D0C8E005200699FE
:10B6800060540120A072072003407007800EC0188C
:10B69000A5E6024C059FBAE092040020D8080020DD
:10B6A0004504002048040020B8150020072200208F
:10B6B000099007990029029201D009980290682008
:10B6C000205C0A900F30C0B207280892039500D280
:10B6D00087E001250895039D072800D384E0002911
:10B6E00000D10A4601920A98F1380A90002900D147
:10B6F00010E20597D8B2072809D1F2B2002A0999B9
:10B70000089846D0012A3BD10299019E39E0F1B256
:10B71000DDB20620024604956A43A5182F469837E5
:10B720006E242C5DF2B2072A0CD10F34E1B2072946
:10B730000BD20021F84CE173A3733A78FF2A0E462E
:10B74000EED156E0F13C8C4247DC0A99049A9142D2
:10B75000F14C1BDD5B1CA3730726E673DAB2504382
:10B760002018072A01D06E3002E0DF21490040187E
:10B770000078FF283ED00721072A0E46C8D100E0F6
:10B780000721E673A1732546059F0DE001200721DF
:10B79000059FE073A173072904D1012806462546B9
:10B7A00002D120E206462546C8B206234343F4B23E
:10B7B0002A226243AA18D2189832072C01D01346C5
:10B7C00001E0EB186E332C460728039D00D1134689
:10B7D0001878FF280B468DD10FE0761C1946CE4C09
:10B7E000CFE7072800D27AE70992002900D178E74D
:10B7F00078E70E461946059F039D00206055F0B27C
:10B80000012800D011E1C8B2072800D00DE1F948A5
:10B8100000686060607B00280D9E079902D0A27CC2
:10B82000617CC1E007200022089200290A9009905B
:10B8300001D0089809906820225C10460F30C0B2F1
:10B8400007280A9B049300D2A1E001230493072850
:10B8500000D39FE0002900D10A91F13A0392A27C23
:10B86000607C002900D1EBE00597C1B2072908D11F
:10B87000D3B2002B089904985DD0012B62D0072128
:10B8800062E0D1B2C5B206273B4607956B43E61886
:10B89000334698336E24345DD5B2072D0CD10F3466
:10B8A000E1B207291CD20021D14CA17460741A782E
:10B8B000FF2A0A46EED073E0F13C8C4262DC039929
:10B8C000079A9142CA4C0D9E32DD401C0722A27499
:10B8D0006074C3B25F43E119072B12D06E3114E0DC
:10B8E0000399079A9142C24C22DD401C0722A274A0
:10B8F0006074C3B25F43E119072B0D9E0AD06E310D
:10B900000CE0DF2464000919FD4C059F0978FF292C
:10B9100009D063E1DF2464000919F94C059F097817
:10B92000FF2900D05AE10721072B0A46AAD10BE0D4
:10B9300001200721059FA0746174072920D10128E7
:10B94000024603D109990A9AA2746174CDB22646BF
:10B9500006246C43D0B22A234343F3181B199833AF
:10B96000072D01D11C4601E034196E340D9E0728C5
:10B9700000D01C462078FF280846E14C14D174E71B
:10B980000246E3E7521C0146DD4C059FDCE7072831
:10B9900000D25FE70A980890002900D15CE75CE7D5
:10B9A0000A4601460D9E059F0920069BE054022091
:10B9B000A072072008405107890E0818E0760B98FE
:10B9C000C0B2411E304607F01DFCA17E8919491EF8
:10B9D00008701421384607F015FC51216054207E70
:10B9E000002814D00024854F2546C54E09E0701963
:10B9F000C05DB27E0D9908F0C7FF6D1C307E854298
:10BA00000BD2401E85427C4BF1D02346EFE7A27E4D
:10BA1000607A794B314608F0B7FFB9480C99017349
:10BA2000007A03F0E1FB13B0F0BD0520069AA054A4
:10BA30000120A072072001407007800E4018CEE45C
:10BA400001460CE0062454432A225A43AC4B9A1870
:10BA50001319AB4C983302461878FF28A4D1C8B20A
:10BA6000072809D1D0B201283AD0002808990498B3
:10BA70002FD00721104614E0D0B2CDB206236B437D
:10BA8000E3186E241B5DD4B2072C04D0F13B834233
:10BA90000ADD501C04E00F33D8B207280FD2002073
:10BAA000F44CA074617425E00722039BAB4210465E
:10BAB000F04C00DC0120AB420ADC114609E0072211
:10BAC000039BAB421046EB4C00DC0120AB42F4DDA3
:10BAD000491CA0746174CAB2072A0BD1012809D18C
:10BAE0000A9AA27409996174234668331878FF286A
:10BAF000B5D059E7CAB2C3B2072BA3D1072AA1D048
:10BB00000620504320186E22825C0720FF2A02463E
:10BB1000B3D049E719460DE0D80800200622424379
:10BB2000F0B22A234343E018801898300078FF28A9
:10BB300000D162E6C8B2072809D1F1B2012908D0C4
:10BB400007200029099A089B01462ED01FE0F2B277
:10BB500009E0019EE6730299A173204668300078DF
:10BB6000FF28E7D149E6C8B206234343E3186E2411
:10BB70001B5DF4B2072C04D0F13B93420ADD761C26
:10BB800004E00F33DAB2072A04D20026B94CE67378
:10BB9000A17313E007220A9B83421346B54C00DCD5
:10BBA00001230A9E864200DD4A1CE373A273D0B2D1
:10BBB000072801D1012B13D011461E46CAB2072A0D
:10BBC000ACD0F2B2072AA9D106224243A0186E22B5
:10BBD000805C0722FF281646C5D10EE60146E3E643
:10BBE0000721012609E6072101262C4604E6C04666
:10BBF000D8080020B815002025B20008D50500009F
:10BC0000F0B583B005469A4801780020012928D173
:10BC1000984FF97A002924D102902878FF210C4608
:10BC2000D23438553E19688801220192B0526878A2
:10BC3000F070C23178186A78291DFBF70BFB287861
:10BC400041B200290AD4395D387E00280BD03F204C
:10BC50000840072807D1029803B0F0BD40060298BB
:10BC600026D003B0F0BD072008408906490F0728F9
:10BC700007D1002905D16820385CFF28029812D12D
:10BC8000EFE707281ED007291CD16821795C0F3106
:10BC9000C9B20629DFD80621414378186E21405CDD
:10BCA000FF280298DDD00220F872019803B0F0BDA1
:10BCB0007520800000213954304600F023F80198A7
:10BCC00003B0F0BD0728C6D00729C4D06822BA5CEB
:10BCD0000F32D2B2062ABED806224243B8186E23CB
:10BCE000C05C0F30C0B20628B5D82A2048433818A7
:10BCF00080189821405CFF280298D4D1B1E7C04653
:10BD0000D808002080B501460248042206F080FFD2
:10BD100080BDC04625F0000055480178012901D1B9
:10BD2000012141707047C04670B551480078012824
:10BD30000ED1504D287B05280AD8C046784400799A
:10BD4000400087440206192C3844287A03F060F832
:10BD500070BD287A03F05CF8287E00283DD00024CE
:10BD6000454E2819805D08F06DFE641C287E8442D3
:10BD7000F7D30220287370BD287E002833D0E87ED8
:10BD80003F2101403F2956D100243B4E2819805DB8
:10BD900008F058FE641C287E8442F7D353E0287EC6
:10BDA000002823D0E97E07200840072823D0281840
:10BDB000314940181CE0287E002829D0E97E072060
:10BDC0000840072829D028182B49401822E00020D5
:10BDD0002873287A03F01CF870BD687A08F032FEE8
:10BDE0000220287370BD2846093029E02846093012
:10BDF000007808F09DFD7D20C00021490978890068
:10BE00000918287A002203F0DBF80420287370BD9B
:10BE100028460930007808F0ABFD287A5F218900B8
:10BE20000024224603F0CCF805202873134821464D
:10BE300007F0C2FA70BD0721084028180E494018C3
:10BE4000007808F0FFFD0E4800780E490978081ABE
:10BE500080007321C9004118287A002203F0B0F84D
:10BE60005220295CFC220A402A540320287370BD0A
:10BE700092040020D8080020D50500009DAC0008E1
:10BE8000EC750108EE750108F0B58DB003920291D2
:10BE90000546594A11780CA8017050780BAA107009
:10BEA0005248006840220492865C06A8C01C00909C
:10BEB000FF24A0000590019501E0002857D1012042
:10BEC000C0434AB2824237DC06A8817003F012FAFE
:10BED0000CA909780022002812D00B46813B032BC5
:10BEE0000FD8C0467B441B795B009F4420010101B1
:10BEF00006ABDF781B791B02DB19059FBB4200D123
:10BF00001046491C0CAA1170384A12684123D35CB0
:10BF10007F270F409F42D0D3002D1AD00BA90023BA
:10BF20000B700CA90C7000282146C8D01FE006AB8E
:10BF3000DB78FF2BE5D1E3E703980028324648D1B0
:10BF4000022D0AD0012D44D106A80CA90BAAFDF799
:10BF50003FF93246002808D13BE006A80CA90BAAFD
:10BF6000FEF780FB3246002833D020480268049850
:10BF7000105C06A90978C91C814223D8039B002BB9
:10BF800009D106AB5B7807271F40526ADB08D25CF9
:10BF9000FA40D20716D032468E4221D3029B197046
:10BFA00006A841785970817899700778DE1C304670
:10BFB000009915463A46FBF74DF9F0190290E81B37
:10BFC000019DC61E0B980C4A50700CA80178117088
:10BFD00075E7802008490870044800680499405CAF
:10BFE000101A411E88410DB0F0BDC0464804002023
:10BFF00001488021017070479C040020444800687B
:10C0000080B27047B0B501218A04144B1C691443F7
:10C010001C611C6814431C601C6894431C60104B1A
:10C020001C460C3C002222605A61DA603F24DC612D
:10C030000C4C1C6299601C68022525431D604B4B0B
:10C040001A60094B18604A480260FF200004074A42
:10C0500013688343880518181060B0BD3010024083
:10C060000C480140FFFF00001819002014E400E014
:10C070003F49086001221304984207D800220A6051
:10C080003A490A68101880B2086010E052049042E1
:10C0900008D84208801A086034490868801880B2BD
:10C0A000086004E0334A801808603048006814498A
:10C0B00048620220C04308607047C046B0B52C49B2
:10C0C0000860144A1268294B1A6001242504A8420A
:10C0D00004D8101882B21A6000200AE06404A0425A
:10C0E00005D84408121992B21A60001B01E0214BD6
:10C0F000C018034B5A6208600220C0431860B0BDEC
:10C100001048014002480068024908607047C04674
:10C1100024480140D40E0020F0B51B490B680122D1
:10C1200093430B600223DB430B61104E0025356007
:10C130000F4C20604A611704B84203D885B23560BD
:10C14000002009E05704B84204D84708BDB2356062
:10C15000C01B01E0074E80194D6320600B61900504
:10C16000054B1860086810430860F0BDD00E002031
:10C17000CC0E00200000FFFF00E100E00248016853
:10C18000012291430160704700480140F0B589B039
:10C19000C04E3078002849D0B078012803D104F08F
:10C1A00019FB002842D00025B570717804292ED8DB
:10C1B000880001A21058874631C20008CDC100088E
:10C1C0003BC2000861C20008CDC1000802207070A7
:10C1D000307805281CD8C046784400794000874450
:10C1E000254D025B768AF521AB48425C002A00D1DE
:10C1F0009CE30269A94B1B689B1AF622825CD41E41
:10C20000012C00D919E2642B00D294E21DE23078AF
:10C2100000280BD0FFF7B2FF0024204604F0D0F82E
:10C2200001203080B4706420FFF776FF09B0F0BDC4
:10C230009B48FFF71DFF09B0F0BD032575703078EE
:10C240000528E5D878440079400087440217037236
:10C2500017A2EBE79048806AFFF70AFF09B0F0BD2C
:10C260000127777030780528D2D8C0467844007905
:10C27000400087440203A3D803F2D7E7FFF77EFF0D
:10C280000024204604F09CF801203080B470642023
:10C29000FFF742FF09B0F0BD012900D00BE14D24AA
:10C2A0007D49085D52228A5C4B68DD682D7A002D3D
:10C2B00009D0002A07D0401C0855C5B2DF683F7A74
:10C2C000BD4200D396E2000600D0F7E0A1E25A207A
:10C2D000714C0027275220465A3047800120089091
:10C2E0007070256808202856002800D52CE1A97A0E
:10C2F00020465E3031E131216748425C002A0BD094
:10C300004268664B1B689A1A2323DB00DB339A4290
:10C3100000D8A0E100224254A42100224250A021D2
:10C32000604B435033214254026201217170D34368
:10C330009EE15220584F385C00280FD0FF20163065
:10C34000395C491C39547868C068007A002805D0E7
:10C350004D21795C401E884200DCE2E201207070D1
:10C36000384624300068FFF783FE4F4800242146FA
:10C3700007F00AF838680068002800D156E7E8019D
:10C380003C50381844604948214606F0E7FF09B0A0
:10C39000F0BD414CA069FFF76BFE3020205CFE2110
:10C3A0000140082900D041E73520215C4A1E622A5D
:10C3B00000D93BE7491C215409B0F0BDF5213648AE
:10C3C000415C002900D1E0E0F621425C002A00D166
:10C3D000DBE0F723C15C002900D1D6E0D11E0229A1
:10C3E00005D341684968097A002900D1CDE00021D0
:10C3F000C1548368F824035173685B68FC240351BB
:10C40000022A01D100F004FC032A01D100F007FC4C
:10C41000042A01D000F009FC42685268531C52689B
:10C42000042400F008FC1C4D6868C0686221079174
:10C43000405C012800D0C7E23320C0002B183F2009
:10C44000C100685C40001A5A6818447864001C5B9C
:10C45000944200D9F6E10022F5E10F4C2046373036
:10C4600020210890FAF753FF3020205C401E092855
:10C4700000D9B0E34000C04678448088400087443B
:10C48000170076037A037D0386038A038E039203E3
:10C490009503A10390030020580F0020B815002039
:10C4A00088130000A5DA0008CDD30008E1D1000808
:10C4B000372027548FE35220E8490A5C002A19D01C
:10C4C000E6488168E64A1268511A826C13795279FB
:10C4D0001202D21891420DD352220021815401221E
:10C4E000120281548018FF22920042608260DD486F
:10C4F00006F034FF4D25D94C6068C068007A0028EA
:10C5000006D0605D002803D1D748002106F03CFF2B
:10C51000E020D64921505220205C002800D1C1E003
:10C520006168C9680A7A002A04D0635D521E9A4283
:10C5300000DC40E1E42100220792625021460028FD
:10C5400000D1BCE01C31BBE05E200021215220461E
:10C550005E304180A97A20466230FAF7D8FEE06862
:10C5600021699422A05098202150297A0F20084058
:10C5700002280FD0032822D16068A168401C88429D
:10C58000089B00DB384660601BE0C069FFF770FD68
:10C5900009B0F0BD5621605C401C60545722A25C7B
:10C5A000C3B2934206D3002060545821625C012339
:10C5B00053406354C0B240002018808A00E0606895
:10C5C000089B9C216050287A000703D10020C043BB
:10C5D000902160508821002060505822A15C594071
:10C5E000A1542A7A9206920F04D0012A01D1014661
:10C5F00000E019462046AC30417007202856000262
:10C60000A9794018A0216050287A4006C00FAC21BB
:10C610006054E87E012806D1AE2000212154232059
:10C62000C000A82160500120B070204659308834E5
:10C63000214603F0E9FE09B0F0BD2324E400DB3419
:10C64000A34278D9022A00D06EE18948002106F081
:10C6500085FE09B0F0BDA421864A4250A021864A39
:10C66000425033220021815401620369CA43633A74
:10C67000AC240251A8228350BE2281543221415C55
:10C68000BD2281540121B1700246AC3211747B4944
:10C690000023C46854609360D160A03003F0B0F907
:10C6A00009B0F0BDE421764A6250216C4942EC2287
:10C6B000A150002107912146002800D042E73431E3
:10C6C0000968E822A150F421002262504F21635CE6
:10C6D0005B1C6354655D002D0890254601D0143520
:10C6E00000E010352D68F027E5515025655DDBB27F
:10C6F000AB4202D25121615C06E062545123E55CF9
:10C7000001216940E15413465A00A36C9A189579A7
:10C71000D779012251405120215438024019F8257F
:10C720000695605149201D5C4833002D0ED0012D27
:10C730000BD100210AE02B21CA0000218150552293
:10C740009200504B8350026AFBE01146FD27E155F1
:10C750000899484248411978FE23E054FC25615568
:10C76000B2702046E03003F04BF90798002803D060
:10C770004548002106F0F2FD20680068002800D13D
:10C7800054E565208000002121540698205831226C
:10C79000D200A050632080002150605DFF219631BF
:10C7A0006054E05DCB214900605419200001E1692B
:10C7B000215009B0F0BD64310A78002A0AD04E2217
:10C7C000A25C921F531E9A4149784B1E9941914297
:10C7D00000D1ECE0E1692268536832338B4200D328
:10C7E000DBE0E423294FE7505268FA2A00DCFA2202
:10C7F000891A5CE700200855DC686425645D002C1C
