:020000040800F2
:100000004808002081020008970200089F020008AB
:1000100000000000000000000000000000000000E0
:10002000000000000000000000000000A70200081F
:100030000000000000000000AF020008B702000846
:10004000BF020008C5020008CB020008D102000868
:10005000D7020008DD020008E3020008E9020008F8
:10006000EF020008F5020008FB0200080103000887
:10007000070300080D030008130300081903000814
:100080001F030008250300082B03000831030008A4
:10009000370300083D030008430300084903000834
:1000A0004F030008550300085B03000861030008C4
:1000B000670300086D0300087303000800F002F8EE
:1000C00000F030F80CA030C8083824182D18671E2E
:1000D000A246AB4654465D46AC4201D100F022F840
:1000E0007E460F3EB6460FCC0126334200D0FB1AA7
:1000F0003343A246AB461847E8170000F817000044
:100100000023002400250026103A01D378C1FBD833
:10011000520700D330C100D50B6070471FB51FBD1B
:1001200010B510BD00F0CEFA1146FFF7F7FF01F051
:10013000BDF800F04FF803B4FFF7F2FF03BC00F086
:1001400055F8000070B505460C46164602E00FCC87
:100150000FC5103E102EFAD2082E02D303CC03C5D1
:10016000083E042E07D301CC01C5361F03E02178D9
:100170002970641C6D1C761EF9D270BD10B5202A42
:1001800004DB0846203AD040002110BD0B46202455
:10019000D340D040A21A91400843194610BD4343B2
:1001A000514330B55C18010C130C0D4692B25D43FF
:1001B00080B251432C19054655430A0C09044D19C8
:1001C00062415843010C00044019514130BD704751
:1001D0007047704710B50446C046C0462046FFF73A
:1001E000AAFF10BD00487047800000200149182078
:1001F000ABBEFEE72600020070477047970043C180
:100200000A0101000001800100010000000100005E
:1002100001020000000000000000000000000000DB
:1002200000000000000000000000000000000000CE
:1002300000000000000000000000000000000000BE
:1002400000000000000000000000000000000000AE
:10025000000000000000000000000000000000009E
:10026000000000000000000000000000000000008E
:10027000000000000000000000000000000000007E
:100280004448804744480047444A1268002A00D145
:1002900000470968084742484249F5E7FEE74248F7
:1002A0004249F1E7FEE742484249EDE7FEE74248AE
:1002B0004249E9E7FEE742484249E5E7FEE74248AE
:1002C0004249E1E742484349DEE743484349DBE727
:1002D00043484449D8E744484449D5E74448454958
:1002E000D2E745484549CFE745484649CCE7464827
:1002F0004649C9E746484749C6E747484749C3E72B
:1003000047484849C0E748484849BDE7484849493F
:10031000BAE749484949B7E749484A49B4E74A482A
:100320004A49B1E74A484B49AEE74B484B49ABE72E
:100330004B484C49A8E74C484C49A5E74C484D4927
:10034000A2E74D484D499FE74D484E499CE74E482E
:100350004E4999E74E484F4996E74F484F4993E732
:100360004F48504990E7504850498DE7504851490F
:100370008AE75148514987E7FEE7514800688546BA
:1003800050480068004700004F485049504A514BC0
:1003900070470000FB010008BD0000087C00002041
:1003A0009D02000808600008A50200080C60000813
:1003B000AD0200082C600008B50200083860000893
:1003C000BD0200083C600008790300084060000896
:1003D00079030008446000087903000848600008B9
:1003E000790300084C600008790300085060000899
:1003F0007903000854600008790300085860000879
:100400007D0900085C60000879030008606000084E
:100410007903000864600008790300086860000838
:10042000790300086C600008790300087060000818
:1004300079030008746000087903000878600008F8
:10044000790300087C6000087903000880600008D8
:1004500035120008846000087903000888600008ED
:10046000790300088C600008790300089060000898
:100470007903000894600008FD11000898600008E6
:10048000790300089C60000879030008A060000858
:1004900079030008A460000879030008A860000838
:1004A00079030008AC60000879030008B060000818
:1004B00079030008B460000879030008B8600008F8
:1004C000006000080460000848020020480800207E
:1004D0004804002048040020FEB5044610460D469E
:1004E000184373D0A6468C460020A41A01469D41AD
:1004F00067D36646002701243D46B61A9D4102D3C4
:1005000013463A462124654676462F04360C3E4370
:100510002D0CB61A9D4104D3150C1B042B43120459
:100520001034654676462F06360A3E432D0AB61A23
:100530009D4104D3150E1B022B431202083465465D
:1005400076462F0736093E432D09B61A9D4104D33E
:10055000150F1B012B431201241D65467646AF077C
:10056000B6083E43AD08B61A9D4104D3950F9B00D3
:100570002B439200A41C65467646EF0776083E435F
:100580006D08B61A9D411AD392185B41641C16E09F
:100590000018764665464941B71A9D410191009081
:1005A00009D36046B11A98418E4684460098019955
:1005B0000025401C6941DD0752082A435B08641E80
:1005C000E6D57246634603B0F0BDFFE720462843F8
:1005D00007D00020C0430146C046C04622462B46F5
:1005E000F1E700200146F7E7034610B50B439B07F0
:1005F0000FD1042A0DD308C810C9121FA342F8D086
:1006000018BA21BA884201D9012010BD0020C04388
:1006100010BD002A03D0D30703D0521C07E00020EE
:1006200010BD03780C78401C491C1B1B07D10378B4
:100630000C78401C491C1B1B01D1921EF1D118469D
:1006400010BDF8B5042A2CD3830712D00B78491CAF
:100650000370401C521E83070BD00B78491C03709B
:10066000401C521E830704D00B78491C0370401CA9
:10067000521E8B079B0F05D0C91ADF002023DE1BFB
:1006800008C90AE0FFF75EFDF8BD1D4608C9FD4038
:100690001C46B4402C4310C0121F042AF5D2F308A4
:1006A000C91A521EF0D40B78491C0370401C521E0C
:1006B000EAD40B78491C0370401C012AE4D4097861
:1006C0000170F8BD7546FFF78DFDAE460500694621
:1006D0005346C008C000854618B020B5FFF754FE49
:1006E00060BCB64600260027C0C5C0C5C0C5C0C591
:1006F000C0C5C0C5C0C5C0C5403D490849008D46FC
:1007000070470000BFF34F8F034804490160BFF3F7
:100710004F8F00BFFDE7C0460CED00E00400FA0576
:1007200010B5924BDA78032A48D8411C7A441279E2
:100730005200974401253241C21D01240470D8683B
:1007400003680B701C0ECC701C0C8C701B0A4B7059
:10075000837D002B33D0838A0B711B0A4B71416858
:1007600011700B0ED3700B0C9370090A51708068D6
:100770001071010ED171010C9171000A507110BD00
:10078000022202701A690A70140ECC70140C8C705C
:10079000120A4A701979417110BD032202701A6958
:1007A0000A70140ECC70140C8C70120A4A705979AD
:1007B000FF2910D0417110BD0521017010BD00202E
:1007C000D071907150711071D07090705070107025
:1007D0004871087110BD1979002902D0FF214171BB
:1007E00010BD0021417110BD70B504463B48006842
:1007F0005E4DA860A878012804D0022804D03848AB
:1008000000F080F90220A870012068702178491E4C
:10081000042919D87944097949008F44020516152D
:100820002C000020E87070BDE978012926D161789C
:10083000A27812025118E27823791B029A18120446
:1008400051182A698A4223D170BDE978022923D13F
:100850006178A27812025118E27823791B029A1863
:10086000120451182A698A4220D16E796179884030
:100870003042E9D123E00320E87070BD6178A278AE
:1008800012025118E27823791B029A1812045118A7
:10089000A871E870296170BD6178A27812025118C0
:1008A000E27823791B029A18120451182961022157
:1008B000E97000266E71617988403042C4D1C0B2BF
:1008C00006436E7148012C490818A11D2022FFF72C
:1008D000B8FEFF2EB8D10220A87170BD40020020E2
:1008E00080180008214EF06000F09CFB00F01AFA1E
:1008F0001F4800F023F91F4800F004F90027B771E2
:100900007771B770012460023080642005E0377190
:10091000B470B77102207070204600F083F9B0798E
:100920000028FCD000F09CF9F0683169E2079142A0
:100930000ED1C568B07901280FD0B0790228E6D170
:1009400000F0CAF8220228460B4900F06DF809E0D1
:1009500000694518B0790128EFD100F0BDF82846AC
:1009600000F020F8307100F053F8D1E7E8000020E3
:10097000710C0008881800080401002080B50121CE
:1009800007484268D20402D50903416080BD02686D
:10099000D20503D50902016000F054FA80BDC046BB
:1009A0000C18024070B50121CA06474B1B681B0694
:1009B0009B0B9A18824225D905221404444A1368D5
:1009C0002342FCD11568414B1D4000D015601568CD
:1009D0002542FCD11F25ED064019C00AC0000A4D72
:1009E00045195560094E0643566010682042FCD1F7
:1009F000072085431068556008401168194000D0F1
:100A0000116070BD002070BD0200000102000101F4
:100A10002F480521090402680A42FAD10121C907B9
:100A200042680A4342607047F0B581B0D31D072287
:100A300093431A180126F406234D2D682D06AD0B9D
:100A40002C19A2423AD20096002B39D00522140468
:100A50001F4E0F684A68009232682242FCD1326809
:100A60001A4D2A4000D0326032682242FCD1194A25
:100A700072600760009A426032682242FCD132689C
:100A80000025D2072A4608D00268BA422A4604D175
:100A90004268009FD71B7A427A410127009737604E
:100AA00075603568094F3D4000D03560002A05D09B
:100AB000083B08300831002BCBD101E0002000902A
:100AC000009801B0F0BDC046E075FF1FFB83000039
:100AD00010200240010000010748C168002900D42D
:100AE00070470521090482680A42FAD1034901606E
:100AF000034901607047C046082002402301674552
:100B0000AB89EFCDB0B50446094D082228462146F1
:100B1000FFF76AFD00280AD003CC03C5083CA08873
:100B2000401E04490860E088401E03490860B0BDCB
:100B3000280200203002002020020020B0B5012150
:100B40008A04134B1C6914431C611C6814431C6009
:100B50001C6894431C60454B00221A601A629A611B
:100B60003F249C620B4CDC625961DC680225254302
:100B7000DD60384B1A60084B186037480260FF2070
:100B80000004064A13688343880518181060B0BD36
:100B900030100240FFFF00004402002014E400E097
:100BA00080B52D49086000F00BF880BD80B52A495A
:100BB00008601B4800682749086000F001F880BD04
:100BC0002549086801221304984205D800220A60CA
:100BD00020490A68101808E05204904208D84208D8
:100BE000801A08601B490868801880B2086004E019
:100BF000054A8018086017480068044948620220C6
:100C0000C04308607047C0460000FFFF1048014025
:100C100002480068024908607047C0462448014005
:100C20003C020020B0B5114C21680125A943216088
:100C30000221C9432161074900220A600649086070
:100C40006561FFF7BDFFA8050449086020682843D7
:100C50002060B0BD380200203402002000E100E036
:100C60000248016801229143016070470048014039
:100C7000B0B5284C2078012803D100F07DF9002878
:100C80001ED000252570607800281AD001280CD0CD
:100C9000022815D165702248FFF782FF01202070DD
:100CA000A07802281CD0E9431CE0022060704B2091
:100CB00080001230FFF774FF0120207000F02AF945
:100CC000B0BDA06814490968081A0721C901673135
:100CD000884211D9E078032810D1FFF713FDB0BD89
:100CE0000721C9016161801E411E884120761434AC
:100CF000204600F089F8B0BD012004E0A570074847
:100D0000FFF700FF022060704B208000FFF748FFD4
:100D1000B0BDC046E800002040020020881800084E
:100D20003102000070B5BB4E0020307000F0D6F8E4
:100D30007D20C500284600F055FA0124204600F029
:100D4000CDF8284600F04EFA00F0C2F80028FBD19A
:100D50002C4D681C0021022200F0B8F900F0B8F810
:100D60000028FBD1281D0021022200F0AFF900F07D
:100D7000AFF80028FBD1E81D0021032200F0A6F9FE
:100D800000F0A6F80028FBD128460B3000210922EC
:100D900000F09CF900F09CF80028FBD128461530A3
:100DA0000021022200F092F900F092F80028FBD115
:100DB000284618300021042200F088F900F088F855
:100DC0000028FBD128461D300021042200F07EF9C6
:100DD00000F07EF80028FBD12235002103222846AE
:100DE00000F074F900F074F80028FBD100252846C3
:100DF000C046C0462846C046C046284600F078F89F
:100E0000747070BDA7180008B0B58249486003250A
:100E10000D700B4800240822214600F057F9534872
:100E200021462A4600F052F9514821462A4600F050
:100E30004DF950480122214600F048F9B0BDC046A6
:100E4000CD18000870B58CB000242046C046C046BE
:100E5000704E307804281ED1FFF7DAFE1B4801AD32
:100E60000422294600F032F9E87840061AD4192005
:100E70000001FFF79BFE347001AC802060701B20E6
:100E8000207029222046214600F020F9E01CFFF7BF
:100E9000ABFC0CB070BD62480021022200F016F9D4
:100EA0000CB070BD706800790028F2D03048002482
:100EB0000322214600F00AF90220C046C0465648E7
:100EC0000422214600F002F90CB070BD9818000809
:100ED000A3480068C004C00F7047C0460121002825
:100EE00001D0480200E04806094908607047C04642
:100EF0000121002801D00A0500E0CA0404490A6063
:100F0000002801D0082000E0102008607047C0468B
:100F100018040050F0B585B03E4801240470124812
:100F200000250822294600F0D1F86E4675701A2077
:100F30003070B01CFFF7F4FB0C48032729463A46F3
:100F400000F0C4F811223046294600F0BFF80848E6
:100F500029463A4600F0BAF806482946224600F0EB
:100F6000B5F805B0F0BDC046D51800089C180008BB
:100F7000FC010008FF01000870B5264E70780124BE
:100F800001283ED13078401E03283AD878440079B1
:100F90004000874401121628022030706F20800024
:100FA000FFF7FEFD0120C046C0461C480024042275
:100FB000214600F08BF8204670BD0020307020469E
:100FC00070BD04253570706800682230FFF7E8FDB9
:100FD0000220C046C0461048002421462A4600F0A0
:100FE00075F8204670BD70680068401C0BD00C4836
:100FF00000250222294600F069F82846C046C0466E
:101000003570204670BD0120C003FFF7C9FD0020E8
:1010100070BDC046E00000209F180008A31800081B
:1010200006020008B0B503200202052001070B6884
:101030009343012004021B190B608B6813438B60E0
:101040000B6A1B4C1C400C623F239B028C681C43A8
:101050008C600C689C431523DB02E3180B600303D0
:10106000144C25691D43256125681D4325602568AD
:101070009D4325600C32104B1A60172212025A60F1
:101080001A68402414431C6010228A610B49112401
:101090000C600C330A4C23604A606361FF2109062F
:1010A000084A13688B431360C00207490860B0BD4B
:1010B000FFFF0F00301002400030014010080240D6
:1010C0006000024008E400E000E100E0F0B5244BDD
:1010D0001C68E404FCD4012424059C60002924D06D
:1010E000002A3AD003256C02EE021E4D17462B68EB
:1010F0003340B34203D003782B717F1E401C2B6812
:10110000234203D02B790B70521E491C002FEED1C5
:10111000002A134B21D028682042FCD0287908707F
:10112000521E491C002AF6D117E00E49002A0BD0A6
:101130000324E4020D682540A542FBD005780D711B
:10114000521E401C002AF5D108680006FCD400E0BD
:1011500008790868C007FBD1086810209860F0BDC6
:10116000100000500830014070B5002936D0002230
:10117000D3431B4A04785C40012365081C40644249
:1011800014406C40640826461E40764216401D40BE
:101190006D42154065406C08664075082E461E403D
:1011A000764216401C40644214406C40640866401D
:1011B00075082E461E40764216401C40644214407C
:1011C0006C406408664075081C40634213406B40E5
:1011D000491E401C0029CDD1D84370BD002070BDF0
:1011E0002083B8EDC00204490A680B68D31A1B02B9
:1011F0009842FAD87047C04618E000E080B50A4827
:101200000168890708D50221C943016007480068C1
:10121000002802D0FFF7D4FC80BD054800680028F4
:10122000FAD0804780BDC0461048014034020020FB
:1012300044020020B0B516490868C00727D0012035
:10124000C2430A6013490A68521C0A6012490978AD
:1012500001291CD1114A11684B1C13601049CC881C
:10126000A34214D3002313608D880E4A1468641CB3
:10127000AC4200D31C4614600968E140C90703D0A2
:10128000800509490860B0BD074840210160B0BD34
:1012900010100040400200201C020020200200200C
:1012A000280200203002002018080050F0B58BB052
:1012B0000125680700210791C167052104910C04ED
:1012C00005900068DE4FE049884244D105984068A7
:1012D000DC4988423FD100260A9609960896DB48E9
:1012E00008A9602200F000FA7869002806D538695C
:1012F0002042FCD1D648B860D648B860D648FFF73F
:1013000051FB08A90C22D448FFF78EFB3869204214
:10131000FCD101200390C1077869069108437861E8
:101320007869002806D538692042FCD1C848B860E1
:10133000C848B860C948FFF735FB38692042FCD17E
:1013400005980399C1670660466078690699084365
:101350007861FFF712F8C24907980860C148C2498E
:101360004160016829430160C049086C2843086452
:101370002B07C86B1843C8633868BD4E0640BD4A8A
:10138000B018386008682043086068040C6804429C
:10139000FCD02C060E68A6430E606C060E68264232
:1013A000FCD1B54ECE60079E8E60AF4E761C0F68A6
:1013B00037430F60CE681E43CE600B682342FCD0DB
:1013C00003958B6802241C43049B9C438C608B68B0
:1013D00038241C40102CFAD14B6B2F2423434B6331
:1013E000032306935B02A54E33608F6B039D2F434F
:1013F0008F634F6B27434F6333608B6B2B438B6340
:10140000CB6B10242343CB63CB6A2343CB62CB6AE1
:10141000A343CB629A4904230B60CD603F238B62C8
:101420004D61E532CA620A682A430A60FF220292CD
:101430001202944CE3689343069FBA039A18E26041
:10144000914A10604869284348619048904901607A
:10145000079C44608F4981600498060730688E4974
:101460000840283030602831F0680840690540188D
:10147000F060A806B061380388490A6882432803EF
:10148000019010180860864805704020049088611B
:101490008448FFF737FB8448FFF734FB3068834903
:1014A000084030600598C4602F023069C00500D440
:1014B00092E0214607917F4C7F488049E16020619E
:1014C0007F4921607F4B1A685F498A4233D15A684D
:1014D0005C498A422FD199687B4A91422BD8FFF709
:1014E00043FE0090774880687349425C7249431814
:1014F0005978090289189A7812048918DA786E4B9B
:1015000012068918009A8A4215D1079900297ED0BF
:101510006060A5756B498889A0828868C15CC01825
:10152000427812025118827812048918C078000695
:101530000818A06001E00020A0755C4B06988104AB
:10154000664C22688A43039DA90451182160010654
:1015500032688A433260216819402160264660491A
:101560008A6E2A43FE239A438A665E4A13683B4387
:1015700013600B683B430B604B68BB434B60CB6E07
:1015800002988343CB661368019C234313600A6867
:10159000A2430A604A6822434A60002405990C600D
:1015A0004C60384B1968304A1140AA0789181960F5
:1015B0008021354801603268049802438A433260D2
:1015C0000698010232688A433A4332603948FFF78D
:1015D00089F920460BB0F0BD214B186834493269B7
:1015E0003A4205D11A68121A4B1C9A421C4BF6D388
:1015F0001A68121A8A42294600D95BE71968081A44
:10160000642800D255E701200599C86051E7059983
:1016100009682E4A914205D1059949682C4A9142A0
:1016200000D175E705980849016006494160BFF39C
:101630004F8F284828490160BFF34F8F00BFFDE757
:1016400000200240A07E0192CC5172C89075FF1F0D
:1016500023016745AB89EFCD005000080048000822
:101660004002002010E000E0FFFFFF0000100240F9
:10167000F8F4FEFF020300000310044000000140E4
:101680000010004004E400E000E100E00030004011
:1016900055550000C4090000D7FFCFFF00080050D7
:1016A0001C0200207818000890180008FFFFFCFFBB
:1016B0000F27000004020020006000080058000806
:1016C0000A010100806F0008FB9F0100C911E81AA0
:1016D000AC94557F0CED00E00400FA0500040050C6
:1016E0000018024080180240F7B58CB006460D98ED
:1016F00007900E98470942D000213468524A0B46A1
:1017000020460191FEF74BFD5049401845076D0FEB
:1017100000D102254E4A4F4B20460199FEF73FFD6E
:101720004D4B4E4AC0185141002D1DD0EA0707D03D
:101730004B4A4C4BFEF733FD4B4B4C4AC0185141C2
:101740006C0811D0464A474BFEF729FD464B474AE5
:10175000C0185141424A434BFEF721FD424B434AD8
:10176000C0185141641EEDD12A46FEF707FD0799C6
:10177000361D08600798001D07907F1EBCD10D988C
:101780000A9002680E9900200E0902920390002E22
:1017900058D0C8080B90364A00230A9C0399029837
:1017A000FEF7FDFC334B0022C01851410B9A002577
:1017B000039102902B46921EFEF78EFE1719787841
:1017C000397800020843294604461F4A0023019540
:1017D000FEF7E5FC1D49401845076D0F00D10225B5
:1017E0001B4A1C4B20460199FEF7D9FC1A4B1B4A99
:1017F000C0185141002D1DD0EA0707D0184A194BD7
:10180000FEF7CDFC184B194AC01851416C0811D095
:10181000134A144BFEF7C3FC134B144AC018514132
:101820000F4A104BFEF7BBFC0F4B104AC01851413A
:10183000641EEDD12A46FEF7A1FC3870000A7870CC
:10184000761EA8D10FB0F0BDE72B2D8B531E72234F
:10185000276C9DF3085D6720A37A2F98DE2F780E02
:101860005B4D51C266F3714A63971A637B21266709
:10187000FF74EA0D539A9A0BAA0200000F0064004D
:101880002A0000000A0064002A0000000A00C800C4
:101890000200000002006400150000008F0080823A
:1018A00000000083000000028001029601038F0007
:1018B00080098D0043004300000000028A03048673
:1018C000BED89D048B450000038E0080008C700400
:1018D00010002620088C700410000F200800000063
:1018E000F018000880000020C80700000001000870
:020000040800F2
:04480000C1E2465873
:04000005080000BD32
:00000001FF
