:020000040800F2
:10600000C01E002061700008697000086B700008F5
:106010000000000000000000000000000000000080
:106020000000000000000000000000006D7000088B
:1060300000000000000000006F7000087170000890
:106040004DCB00080000000065CB0008737000080D
:10605000737000087370000873700008E986000808
:10606000000000007370000873700008ED730008F2
:10607000737000087370000869B200080000000027
:106080007370000831CA000873700008737000084C
:106090001DB5000873700008918400087370000833
:1060A0007370000873700008737000082DCC00082E
:1060B00099CC000805CD000800F002F800F0A4FF1C
:1060C0000CA030C8083824182D18671EA246AB460D
:1060D00054465D46AC4201D100F096FF7E460F3E2D
:1060E000B6460FCC0126334200D0FB1A3343A246FA
:1060F000AB461847240000004400000000230024A1
:1061000000250026103A01D378C1FBD8520700D3EE
:1061100030C100D50B607047386100088000002056
:10612000400200008AD7000830620008C002002048
:10613000001C0000FC600008022A1DA4409C4523AE
:1061400096430325484404323CFF46130C07822043
:106150001A140C32403258722613B8041420C005A9
:10616000142089061B2008041AA90C1AEA081AAA86
:10617000041AA80C1A88081A60081AAA041A5840A7
:106180001B580850320119041A5C1411220713B16C
:10619000A01408F9A2140819A314082DAE1B085561
:1061A000041AED04132DAF2A0860135C091B204864
:1061B00048695813B0011B207C1439483163E80347
:1061C000A9886DFE6E01083041298801183988318F
:1061D000135DB29208124C134044071002401D0395
:1061E0003938397712441B401C2005151C01353401
:1061F00012482B4030400C13023736401D38014006
:106200000820121B03143332128E1280180E4160C4
:1062100001089D630108155F01085D0441180E1512
:10622000CD5B07B91B0108511201082D0881000040
:020000040800F2
:046F8000CC5172C8B6
:020000040800F2
:046F8400A07E019258
:020000040800F2
:046F880078563412F1
:020000040800F2
:046F8C0008010000F8
:020000040800F2
:106F900000000000000000000000000000000000F1
:106FA00000000000000000000000000000000000E1
:106FB00000000000000000000000000000000000D1
:106FC00000000000000000000000000000000000C1
:106FD00000000000000000000000000000000000B1
:106FE00000000000000000000000000000000000A1
:106FF0000000000000000000000000000000000091
:020000040800F2
:107000001FB51FBD10B510BD00F07FF91146FFF789
:10701000F7FF01F01FFD00F097F903B4FFF7F2FF4F
:1070200003BC00F09DF9000070B505460C461646FD
:1070300002E00FCC0FC5103E102EFAD2082E02D35C
:1070400003CC03C5083E042E07D301CC01C5361F6F
:1070500003E021782970641C6D1C761EF9D270BD86
:107060000748804707480047FEE7FEE7FEE7FEE7E0
:10707000FEE7FEE704480549034A054B7047000058
:107080006DCB0008B9600008C01A0020C01E0020A7
:10709000C01A002010B5202A04DB0846203AD04050
:1070A000002110BD0B462024D340D040A21A9140AD
:1070B0000843194610BD4343514330B55C18010CD9
:1070C000130C0D4692B25D4380B251432C19054614
:1070D00055430A0C09044D1962415843010C000440
:1070E0004019514130BDFEB5054610460C461843C7
:1070F00073D0AE468C460020AD1A01469C4167D342
:107100006646002701243D46B61A9D4102D3134628
:107110003A462124654676462F04360C3E432D0C14
:10712000B61A9D4104D3150C1B042B4312041034D2
:10713000654676462F06360A3E432D0AB61A9D410D
:1071400004D3150E1B022B43120208346546764603
:107150002F0736093E432D09B61A9D4104D3150F5A
:107160001B012B431201241D65467646AF07B60866
:107170003E43AD08B61A9D4104D3950F9B002B43A7
:107180009200A41C65467646EF0776083E436D08DC
:10719000B61A9D411AD392185B41641C16E0001880
:1071A000764665464941B71A9D410191009009D341
:1071B0006046B11A98418E46844600980199002590
:1071C000401C6941DD0752082A435B08641EE6D56E
:1071D0007246634603B0F0BDFFE700200146C0469B
:1071E000C0462A462346F5E7034610B50B439B07E6
:1071F0000FD1042A0DD308C810C9121FA342F8D01A
:1072000018BA21BA884201D9012010BD0020C0431C
:1072100010BD002A03D0D30703D0521C07E0002082
:1072200010BD03780C78401C491C1B1B07D1037848
:107230000C78401C491C1B1B01D1921EF1D1184631
:1072400010BDF8B5042A2CD3830712D00B78491C43
:107250000370401C521E83070BD00B78491C03702F
:10726000401C521E830704D00B78491C0370401C3D
:10727000521E8B079B0F05D0C91ADF002023DE1B8F
:1072800008C90AE0FFF7D0FEF8BD1D4608C9FD4059
:107290001C46B4402C4310C0121F042AF5D2F30838
:1072A000C91A521EF0D40B78491C0370401C521EA0
:1072B000EAD40B78491C0370401C012AE4D40978F5
:1072C0000170F8BD01E004C0091F0429FBD28B073F
:1072D00001D50280801CC90700D0027070470029C8
:1072E0000BD0C30702D00270401C491E022904D3F0
:1072F000830702D50280801C891EE3E70022EEE7A7
:107300000022DFE7704770477047754600F024F8A9
:10731000AE46050069465346C008C000854618B011
:1073200020B5FFF7A7FE60BCB64600260027C0C503
:10733000C0C5C0C5C0C5C0C5C0C5C0C5C0C5403D2D
:10734000490849008D46704710B50446C046C046FE
:107350002046FFF762FE10BD00487047C0020020C3
:1073600001491820ABBEFEE726000200704700006E
:107370000B48C1884800002901D10848808880B2A4
:1073800008490968084A4A430121CB03D218120C64
:10739000424388031018C00B7047C0460C070020FA
:1073A000AC0400202C030020CDD504000B4840681D
:1073B000122141430A4A42430120C303D218120C4E
:1073C0005118094A13895A00002B01D1054AD28865
:1073D00092B24A4380031018C00B70472C03002060
:1073E0005F8400000C070020AC04002010B557207B
:1073F000C0431F490A58012043041A421DD053229A
:10740000D2438B501B4A1278002A30D11A4A136893
:1074100080242342FBD10303184C236000230B601C
:107420000B600321C94317231B02535000E011795D
:1074300011680142FBD1106810BD4305920216D5B8
:107440005322D2438B500C4A136880242342FBD131
:1074500000030A4B1860BFF34F8F002008600860DC
:10746000486148610320C04317210902115010BD33
:10747000580002403403002008380040180400502F
:10748000F0B581B00093BFF34F8F174C00232360FA
:107490000124A503154E37682F42FCD12707B7609A
:1074A000134EF0607260134800290DD0124B1C700F
:1074B00090233360912333603162B2618221716124
:1074C00083217161401C05E00B490B7092213160F2
:1074D0009321316009490D600099034A1160084900
:1074E000086001B0F0BDC046380300201004005011
:1074F0005800024002170000340300201018024018
:1075000004380040F0B583B002912D4B00241C607C
:107510002C4F0723DB43FB580124A5032B42F8D152
:1075200023073B60029900292CD0002A43D0009009
:1075300003235D02DB020193234E1146019B376852
:107540001F409F4205D0009807783771491E401CA4
:10755000009037682F4205D0377902980770521E85
:10756000401C02900029EAD1002A164F029922D02D
:1075700030682842FCD030790870521E491C002A1D
:10758000F6D118E01049002A0BD00323DB020D6866
:107590001D409D42FBD005780D71521E401C002AF3
:1075A000F5D1086880221042FBD100E00879086814
:1075B0002042FBD108682003386003B0F0BDC0460C
:1075C000380300201804005008380040F0B587B098
:1075D000D24E6821317075200490002268460292D4
:1075E000026004AA01242046234600F0C9FE0028B8
:1075F0000AD0317868460460002003AD2A4623464D
:1076000000F0BEFE2878FFE77E27074003A90F7031
:107610002E2F2BD0682F29D0C0B20F2826D06A2158
:10762000317004AA57700125157068460560022460
:107630002846234600F0A4FE0F20049031786846C7
:10764000029A026004AA28462B4600F099FE002800
:1076500009D0317868460560002003AF3A462B46D2
:1076600000F08EFE3F786A2F00D0C7E05C20AC4966
:107670000C54022C00D1C7E0012C00D0B6E003A8C6
:107680008025057004AAAC481080317801206B4633
:107690001860022300F074FEA84F38683968411A58
:1076A0000902890B7D29F9D36B2004903178684653
:1076B000029A026004AA01242046234600F060FEDC
:1076C0000028284609D0317868460460002003ADC0
:1076D0002A46234600F054FE28788025054003A85A
:1076E0000570002DD9D104AD9548288031786846C1
:1076F0000460022720462A463B4600F041FE19203E
:10770000288031786846046020462A463B4600F0CF
:1077100037FE8D204000288031786846046020467E
:107720002A463B4600F02CFE864828803178684681
:10773000046020462A463B4600F022FE824828800C
:1077400031786846046020462A463B4600F018FE21
:107750007E48288031786846046020462A463B46A9
:1077600000F00EFE03A804702720C00028803178A6
:107770006846046020462A463B4600F001FE55203C
:10778000674E3454562034522120C00069490818ED
:107790007061FF200230081830605031B16524203C
:1077A0003071684602990160351D512120462A46F4
:1077B000234600F0E5FD002813D068460460002051
:1077C000512110232A4600F0DBFD002809D0706803
:1077D000102806D134690C2128460EF00BFA844299
:1077E0000AD00020B081B06007B0F0BD56204C49EF
:1077F000029A0A5455200A5407B0F0BD5C2048494B
:107800000C5C022C00D037E704AD01242C803178C9
:1078100068460460022720462A463B4600F0B0FD39
:107820004048288031786846046020462A463B4616
:1078300000F0A6FD3C482880317868460460204668
:107840002A463B4600F09CFD7F20C04301901C303F
:1078500068701120287031786846046020462A46F6
:107860003B4600F08DFD3148288031786846046041
:1078700020462A463B4600F083FD2D48288031787B
:107880006846046020462A463B4600F079FD019890
:1078900041306870172028703178684604602046AF
:1078A0002A463B4600F06CFD55201D4E34545620B0
:1078B0003452204801465031B165FF210231411850
:1078C00031602121C9004018706124203071684660
:1078D00002990160351D512120462A46234600F0B9
:1078E0004FFD002814D06846046000205121102369
:1078F0002A4600F045FD00280AD07068102807D1FC
:1079000034690C2128460EF075F9844200D173E7E2
:107910000020B081B06007B0F0BDC0469C030020DD
:107920003C0300200A3E0000107F0000130200000C
:1079300015620000AC0400206B80000018E000E03D
:107940006B0900001C1800001B18000037300000F5
:10795000F0B587B004465C22A648805C02286CD053
:10796000012800D0CDE004920394029105A80025DF
:1079700085700580752006909F4C217868460560CB
:1079800006AA012738463B4600F0FAFC002809D039
:10799000217868460760002005AE32463B4600F07D
:1079A000EFFC35787E20284005A908702E2804D0E9
:1079B000682802D00F2D00D0E2E056208D4D285CC3
:1079C000002801D1FFF702FE47200690217800260B
:1079D0006846066006AA38463B4600F0D1FC05AA78
:1079E0003A43002806D02178684607600020022329
:1079F00000F0C6FC05A8817840780002084303998E
:107A0000002900D18FE00299022900D2B2E07B4A1E
:107A100013785C007A4F3853581CC3B28B4200D3A2
:107A20003046107008463A8812B2B618BF1C401E85
:107A3000F9D130460EF0E0FE9CE00492029105A8D8
:107A40000025857005800F2006906B4E31786846C2
:107A5000056006AA012738463B4600F091FC002845
:107A600053D00394317868460760002605AC304651
:107A700022463B4600F084FC20787E2101402170A4
:107A80006A2945D156205B4D285C002801D1FFF7BB
:107A90009DFD26200690584C21786846066006AA6F
:107AA00038463B4600F06CFC05AA3A43002806D055
:107AB0002178684607600020022300F061FC05A8D9
:107AC00041788078000208430399002964D0029924
:107AD000022900D287E0494A13785C00484F3853A6
:107AE000581CC3B28B4200D33046107008463A8807
:107AF00012B2B618BF1C401EF9D130460EF07CFE03
:107B000071E0FFF763FD07B0F0BD05A8002101702B
:107B1000562038490D5404980D5455200D543948B9
:107B2000088307B0F0BD354A13785C003449085328
:107B3000581CC4B20023212C00D8034613700D88B2
:107B400028B202222C468E5E2BB2B342334600DCB2
:107B50002B4625B2B542374600DB27468019921CDA
:107B6000442A1D463C46EED139B2401A19B2401A99
:107B70004009204D552101226A54288307B0F0BDE9
:107B8000562000211B4A11540498115455201154B9
:107B90001C48108307B0F0BD184A13785C001849E0
:107BA0000853581CC4B20023212C00D8034613707C
:107BB0000D8828B202222C468E5E2BB2B342334689
:107BC00000DC2B4625B2B542374600DB274680193C
:107BD000921C442A1D463C46EED139B2401A19B2D5
:107BE000401A4009034D552101226A54288307B0E9
:107BF000F0BDC0463C0300209C030020B4030020DD
:107C0000B6030020FF7F0000F0B58BB0204C10269B
:107C10006660201D0C2105900DF0ECFF20614920CD
:107C2000840006A8401C0190029606A804900470E7
:107C30000F2020400299081AB042354600D8054668
:107C4000019805992A46FFF7FCFA01276846076064
:107C500003956B1C200A5030C5B238462946049A59
:107C600000F08EFB002811D068460760002006AAAD
:107C700029463B4600F084FB0028F5D00399761A8C
:107C80000598401805900C19002ECED10BB0F0BD10
:107C90003C030020F0B58DB0E14F787F252178546A
:107CA000387F24217854F87E23217854B87E22210D
:107CB0007854B87BF97B09020143387C7A7C120244
:107CC000024310040843B97CFA7C12020A43397D4E
:107CD0007B7D1B020B43190411430FF04BF8B87660
:107CE000010E7977010C3977010AF9763D78022681
:107CF000354219D02124395D2922B9542025795DD6
:107D00002822B954F97F2722B954B97F2622B954C1
:107D100039467E3100F088FA010E3955010C79554B
:107D2000B877000AF8773D78E8070C9500D0B9E0FD
:107D30002E4038461A3039461E310996002E00D0A2
:107D400008460178427812020A438178C07800021E
:107D5000084304041443B878F9780A0202433879D6
:107D60007979090201430904114320460EF0AAFF64
:107D70002E23F854010E3122B954010C30260B96F3
:107D8000B955000A2F217854102005420892079314
:107D90000A9100D0BBE03846223039462631099A94
:107DA000002A00D008460178427812020A438178FE
:107DB000C078000208430104114320460EF0DAFFA8
:107DC00042217854010E4522B954010C4422B95481
:107DD000010A4322B954A90600D4C3E051210C91F1
:107DE000795C4D22B95450210991795C4C22B954E7
:107DF0004F210691795C4B22B9544E210591795C53
:107E00004A22B95455217A5C039259220492BA5CF1
:107E10007A5454217A5C02925826BA5D7A545321DE
:107E20007A5C01925722BB5C7B545223FC5C562146
:107E30007D5CFD540C9B039DFD54099B029DFD54EC
:107E4000069B019DFD54059BFC545D23FB5C049C3B
:107E50003B555C23FB5CBB555B23FB5CBB545A224C
:107E6000BA5C7A543946663100F0DEF9462178541E
:107E7000010E4922B954010C4822B954000A472185
:107E800078543846463079788900425C4018417809
:107E9000090211438278C0780002104300040843AD
:107EA0003C7860E0A80700D55BE12A20385C2B21F4
:107EB000795C090201432C20385C2D22BA5C120245
:107EC000024314040C43B87EF97E09020143387F53
:107ED0007A7F1202024315040D43284621460EF014
:107EE0004CFE002800D18BE10120C0074440284609
:107EF00021460EF02AFE00280C9D00D018E7BC7623
:107F0000200E7877200C3877200AF87610E7B87CB6
:107F10000990FD7C290201433E7D7C7D2002304397
:107F200000040843B97DFA7D12020A43397E7B7E44
:107F30001B020B43190411430EF01CFF422178541D
:107F4000010E4522B954010C4422B954010A4322BE
:107F5000B9547C763E76FD750C9D0999B975A906D4
:107F600000D53BE72C46B97AFA7A12020A43397BEC
:107F70007B7B1B020B43190411430EF0A3FE3E2131
:107F80007854020E41217A54020C40217A5409900F
:107F9000000A3F217854B87EF97E09020143387FF8
:107FA0007A7F1202024315040D430C94200739D442
:107FB0002020385C2121795C090201430904BA7F41
:107FC000F87F0002104308430C99890700D5054645
:107FD000B879F9790A020243387A797A09020143B9
:107FE0000904114328460EF06DFE01463225785DE6
:107FF00033220692BA5C120202433426B85D35245D
:108000003B5D1B020343180410430EF0C1FD78557D
:10801000010E3955010CB955000A0699785421E032
:10802000800000203620385C3721795C090201434A
:108030003820385C3922BA5C1202024316040E431F
:10804000284631460EF099FD04460120C00731460E
:108050000EF090FE0146002CAAD128460EF080FDBD
:108060000028A5D03226B85D3321795C090201438E
:108070003423F85C35243A5D1202024315040D43A3
:108080000C98400721D506960C933A20385C3B218A
:10809000795C090201433C20385C3D22BA5C120243
:1080A000024316040E43284631460EF059FD0028BF
:1080B00000D08DE006983E54300E3855300C0C99A7
:1080C0007854300A332178543546089A079BF85C77
:1080D0000A99795C090201430B98385CBA5C120278
:1080E00002431004084329460EF052FD0146099848
:1080F0000EF04EFD04465E200C903C54200E612193
:108100000B917854200C6026B855200A5F217854D2
:108110006220385C6321795C090201436420385C89
:108120006522BA5C1202024315040D43204629461B
:108130000EF00BFD002808D10120C0074540204665
:1081400029460EF0F7FC002809D10C983D54280E62
:108150000B997854280CB855280A5F2178540DB033
:10816000F0BD2A20385C2B21795C090201432C20C8
:10817000385C2D22BA5C1202024314040C43202006
:108180000B90385C21210A91795C090201430804B3
:10819000B97FFA7F15020D430543284621460EF0AC
:1081A000ECFC002835D00120C00744402846214679
:1081B0000EF0CBFC00280C9D00D0B9E5200E0A99EA
:1081C0007854200C0B997854BC77200AF877AFE5E7
:1081D0000120C0074640284631460EF0ABFC00287F
:1081E000089A079B00D072E706983E54300E385527
:1081F000300C0C997854300A33217854354666E7B0
:10820000BC76200E7877200C3877200AF8760C9D03
:108210008EE5200E0A997854200C0B997854BC777F
:10822000200AF8770C9D83E5F0B585B00C462072E6
:10823000070EE772010C0391A172010A02916172AB
:108240004A4A11686429049052DB49490EF03AFD0C
:108250003D4607462079617909020143A079E27918
:108260001202024316040E43424930460EF02AFD24
:10827000014638460EF08CFC0746207861780902EA
:108280000143A078E27812020243100408433849FF
:108290000EF018FD014638462F460EF079FC0546D3
:1082A000207C617C09020143A07CE27C1202024333
:1082B00010040843304901900EF004FD01462846A1
:1082C0000EF066FC0546207B617B09020143A07B22
:1082D000E27B120202431004084328490EF0F2FC2C
:1082E000014628460EF054FC21461031221D19E0AB
:1082F000491C1160227C617C09021143A37CE27C51
:1083000012021A4312040A43019222796179090286
:108310001143A379E27912021A4316040E4321464F
:108320001031221D26702075330EE370330CA370BC
:10833000330A6370030EE375060CA675050A6575AE
:10834000D770039F9770029F5770049F1770019F0B
:108350003A0EE2733A0CA2733A0A62732773CB7037
:108360008E704D70087005B0F0BDC04680040020CE
:108370002A3AE43C2A3A643D8BDCBC3F5B4016BFA2
:10838000F0B586B005930126B5020024002800D17F
:108390002C4649002143039173060B99002900D113
:1083A0000B460091394C059F01930496FF21FF2F46
:1083B0003E4600D30E46BF1B01210D060297002F3B
:1083C0001F4600D02F46059D2D0A1D4600D03D4674
:1083D0003704039B1F432F43049BDB0709D0012372
:1083E0005B031F431325ED43675167591F42FCD1BF
:1083F00002E01323DB43E750256810231D420BD016
:1084000038E0256804273D4208D0E568157001E092
:1084100015782561761E521C002E08D027681F4251
:108420001BD10028EDD0C2252F42F7D0F0E72368FA
:10843000E0252B42FBD00026029F002F019BB4D1E8
:108440000098002813D0206820221042FBD0202062
:10845000606022680242FCD109E0216820200142CC
:10846000FBD030216160226800210242FBD1084626
:1084700006B0F0BD216820200142FBD030216160B0
:10848000226800210242FBD1F1E7C04618540040A7
:10849000F0B581B01848026802210A422AD0C943C7
:1084A0000160164A1368002B0AD0154DAC1CA3427C
:1084B0000DD2154E3468E4182C403460002316E0C9
:1084C00012480068002815D0804701B0F0BD012493
:1084D0006404A34207D85E080B4F3C68A4192C40E3
:1084E0003C609B1B03E0074C1B19074C246813607E
:1084F0004462016001B0F0BD1048014084040020D6
:10850000FFFF00000000FFFF8C0400208804002013
:108510000148006880B270472448014010B5154AF0
:1085200000211160144A1060144801600120820487
:10853000134B1C6914431C611C6814431C601C68A9
:1085400094431C600B22D2430E4B99505961D96061
:108550003F21D9610C4919629860196802220A43C7
:108560001A60FF210904094A13688B4380051843E8
:10857000106010BD8C0400208804002084040020BA
:10858000301002400C480140FFFF000014E400E0FE
:10859000B0B512490860124B9A1C904206D2124C98
:1085A000226812181A40226000200FE001225204B3
:1085B000904207D844080C4D2A6812191A402A60C4
:1085C000001B03E0074A8018074A12680860074842
:1085D00042620221C9430160B0BDC046840400204C
:1085E000FFFF00000000FFFF8C0400201048014046
:1085F000B0B511490860114A1268114B1A60114C4C
:10860000A51CA84204D2121822401A6000200BE0D8
:1086100001256D04A84205D84508521922401A6068
:10862000401B01E0084BC018086008484262022164
:10863000C9430160B0BDC0468404002090040020FE
:108640008C040020FFFF00000000FFFF10480140E5
:1086500002480068024908607047C046244801404B
:1086600090040020F0B516490B68012293430B607B
:108670000223DB430B614A61124C2060124D00263D
:108680002E60124EB71CB84203D23040286000253D
:108690000BE05704B84205D847083E402E60C51B82
:1086A000304602E00A4D45190020256048630B6101
:1086B0009005084B1860086810430860F0BDC0467C
:1086C00000480140840400208C040020FFFF0000CB
:1086D0000000FFFF00E100E0024801680122914331
:1086E000016070470048014080B501218A030A48B3
:1086F0004368134208D042600849086800280AD03D
:1087000000220A60804780BD490302680A4202D005
:1087100001600BF097F880BD0C1802403803002070
:10872000B0B582B014466D4669702870080AA8700A
:10873000032028431946FEF784FDE21C024829461F
:108740000DF070F802B0B0BD22F0000080B582B02C
:1087500001AB59701870080A987003480322194633
:108760000DF060F802B080BD21F0000080B582B04D
:1087700001AB597018709A700348032219460DF026
:1087800051F802B080BDC04619F0000080B5034624
:10879000CA1C024819460DF045F880BD26F00000BD
:1087A00080B50146024804220DF03CF880BDC04669
:1087B00025F0000070B584B0044601A808F0ECFF75
:1087C000A17880390020062900D98BE07944097905
:1087D00049008F4403363D442A4C760045484649BB
:1087E000CB885A00002B00D1828893B23F4A12688E
:1087F000434D55430126F203AA18120C5343B50307
:108800005B19DE0B3D4B5E43F60CE670CE887100C3
:10881000002E00D1818888B250434019C00B4343D9
:10882000D80E20710221002059E0FF208200039918
:10883000FC20914202D0029B93424AD1E070032176
:108840004AE00198E0700320C043801C012146E00B
:108850000298E070000A20710221FC203FE003989A
:10886000E070000A20710320C043401E36E01F481C
:108870004068122141431E4A42430123D803101885
:10888000000C40181B491C4A16897500002E00D1A7
:10889000CD88AEB246439D037319DE0B174B5E4382
:1088A000F60CE67016897200002E00D1CA8891B2CB
:1088B00041434819C00B4343D80E207102210320C5
:1088C0000DE00948017EE170407E20710221042004
:1088D00005E0C91AE170090A2171801E0221217088
:1088E0006070012004B070BD3C0300202C03002008
:1088F0005F8400000C070020AC040020CDCC0000F9
:10890000CDD504007047704702280BD0012811D044
:1089100000280ED1012081070A4A116080060A4909
:108920000860704701208107064A116080020649ED
:108930000860704701208106034A116080030149E5
:10894000086070471808005018000050024800687E
:10895000810B01200840704710040050012251068D
:108960005202002800D01146014801607047C046FD
:1089700018000050F0B58BB0482034490591085CD0
:10898000411E02290CD2314C21464931304D002282
:1089900028460CF0A5FC5D340122284621460EE055
:1089A00000280ED1294805462946D431284C0022FA
:1089B00020460CF095FC2946E831012220460CF0B7
:1089C0008FFC2120C000214D68800C3028801120B0
:1089D0000401284621460DF00DF9285106A8401C37
:1089E0000290261D002506A8049005700F2028403F
:1089F0001021081AB042344600D80446029805995E
:108A00002246FEF71EFC0127684607600394631C9C
:108A1000280A5030C4B238462146049AFFF7B0FC09
:108A2000002811D068460760002006AA21463B4670
:108A3000FFF7A6FC0028F5D00399761A0598401890
:108A400005904D19002ECED10BB0F0BDAC04002026
:108A5000C0050020F0B5ABB0A44800220270A448C5
:108A60000260EB20C043A34BA3491950EF20C04341
:108A70001958012529431950A04F78692843786176
:108A8000290738692491084338610F202290C14397
:108A90009B4843589B4C1C404B23DB001093AA334C
:108AA000234343502B21CB43F9582C0425942143D5
:108AB000F9506904FC580C42FCD0FC582E06B44313
:108AC000FC501E956E06FC583442FCD11F24E54331
:108AD0008D4C7C512324E4433A51FA588648401C7B
:108AE0001B900243FA507A59249802437A51FA585B
:108AF0003242FCD03A5907202190824302231A9334
:108B00001A433A513A5938231340102BFAD1BA6814
:108B10002F231A43BA60032675027C4A1560FC684D
:108B20001E980443FC60BC681C43BC600295156041
:108B3000FA680243FA603A6910231A433A613A68C4
:108B40001A433A603A6823939A433A60704A04237E
:108B50000C931360D0603F23936250617D23079391
:108B6000DB0018935B1ED362136803431360694DE7
:108B70002B69694C23401696B4031C432C615D4E4F
:108B80003160536903435361644B654A1A600024A2
:108B90005C60644A9A60644A209414702A68FF23D7
:108BA0001F939A43C02313432B6030602A685F4BA6
:108BB0001A40C30519931A432A600C983060504C30
:108BC0002269D2B2AA2A00D081E0259B22681A42EB
:108BD000FCD16268002A239D219804DAC243544BD9
:108BE000A350544BA3500126B0076268024205D03F
:108BF000169AD243504BA350504BA3502268259B4A
:108C00001A421BD01D9030464D4B259E3C4A14689D
:108C10000122344209D13A4C22682A421AD12268F0
:108C2000D209012414400C9A121B5C1E002B02D0A6
:108C3000012A2346EAD0631C314C0CE022682A4208
:108C400039D12268D209012313400C9AD21A012A81
:108C5000D8D004E01A9A002B06461D982BD0042A7F
:108C600029D12269BB231343236162680A436260EE
:108C70002168259A114215D032492268259B1A4253
:108C8000324608D122682A4210D12268D209012333
:108C900013400C9AD21A4B1C002907D0012A1946FE
:108CA000EBD003E02168294200D121680121490469
:108CB00062688A4362600121CA0663681343636085
:108CC000626802436260C90762680A4362601E48C4
:108CD00026AC602521462A460DF064FE1B490C2275
:108CE0002046FEF781FA002832D0FEE78D0B0020E7
:108CF000880B002000E100E0FFFFFF002C10024085
:108D000010200240F8F4FEFF031004400000014070
:108D10000010004000E400E0FF00FFFF00300040D2
:108D200055550000C40900008C0B0020FFFF00FF18
:108D300023016745AB89EFCD3B2A19087F6E5D4C57
:108D4000FFFF0A000100F5FF9075FF1F00500008AB
:108D50000395169988040A46052101910D07296893
:108D600081431E9CA00408432860C9480168C94B80
:108D700019400160910602688A430260C649CA6EC2
:108D8000C64B1A40AF235B001D935E3B13931A43FF
:108D9000CA6680200A5863031A430A500A681A43B5
:108DA0000A604A689A434A60CA6EBD4B1A40259BC6
:108DB0001A43CA660A58A3031A430A500A68B94EEE
:108DC00032400A604A6817931A434A60B6490A4615
:108DD0005168B64B1940A307194351601190B4492B
:108DE00008601493591E2A680A402A60B1490A682B
:108DF000A8480240249802430A6016980005296892
:108E0000814320051590014329602868AA4908403C
:108E10001B9E3043286020031C951290A861A74830
:108E20000470A74DA749082228460B92FEF7DCF9EB
:108E3000002809D0A448A54929606860A4480E21EB
:108E40000160A44863210160914C20689A49084060
:108E50003043206016980006A1680143A160229863
:108E60000002216A8143139801432162606A8B49A1
:108E70000840019E310201436162A06896490143A6
:108E8000A1602068954901409548084320603869F1
:108E90001799084338613868084338603868814951
:108EA000084038601098B4308E49086017200002DE
:108EB00048600A6840201B9002430A601298A06133
:108EC000894A1323139313600C31884B19601225C0
:108ED0005560596174490A469168744B1940916014
:108EE0001E9DE9020591724A11608149209B0B6029
:108EF000616A1F9A914366220A43626222980104C2
:108F000022688A4371041143216069053A690A4362
:108F10003A613A680A433A603A688A433A60754966
:108F20000A68AA430A60B2020A60734A0A610A68C0
:108F30002A430A6071490B7071490B7001031C9B35
:108F40001A680A431A607969159A11437961796838
:108F5000114379607968914379606A490A682A42C5
:108F6000239B10D00A680C9C224205D00A681A4341
:108F70000A600A681A42FCD10A681A9B1A430A60FE
:108F80000A682A42FCD10A68249B1A430A60E72235
:108F9000D243474EB358B4581C1B2402A40B7D2C5B
:108FA000F9D3EA070B6813430B600A68002AFCDB5D
:108FB0000A682A430A600A682A430A60209B219CA7
:108FC000E2438A582A42FBD0149A8D328A601B9859
:108FD00008621698C8604B604B480570E8034B491F
:108FE000097800291B9000D0A7E07969059A114300
:108FF00079617968114379607968914379601D9A44
:109000001E3A434E3262B363F3632299B162B36195
:10901000F361259C1946631EF362726C024372640D
:109020002148C2681E480240199802431E48C26087
:109030001F48179A02607A6922437A617A6822434C
:109040007A607A68A2437A60324A112414625163CA
:109050009163229890629161D362536C1B9C23436D
:109060005364114F7B691F9CA343119C23437B6175
:10907000159B0F4C2360284B1980284F3B78002B01
:109080004ED0012474615461346014603B7052E02E
:1090900000040050FFFFFFCF00180240FF00FFFF59
:1090A000FFFF00FFFFBFFFFF00E400E0FFFFFF0046
:1090B00000E100E000080050FFFFFFFC94040020E6
:1090C000A0040020B46E01080F006400AA02000092
:1090D000A8040020980400203000F000CFFF0FFF0C
:1090E0002000A0000038004010080240600002404C
:1090F00038030020005400406638C70021030020D8
:10910000220300200824014020030020700B0020CF
:10911000002C0140004001403A0B00208D0B002044
:1091200072B63B78012474615461346014603B7002
:10913000002B00D162B6F2490D70FEF747FA5E20AF
:109140002C46F04D25902C54EF480470EF48002732
:109150000770EF480760EF480770EF480760EF4877
:109160000770EF480770EF480760EF480770EF4857
:1091700040263146FEF7C4F8ED4822963146FEF708
:10918000BFF8FE48FE490860FE4AF02024901070A7
:1091900068462097076051212046219123461446B6
:1091A000FFF7EEF8002816D068461E9901600020EF
:1091B000512110232246FFF7E3F800280BD0206846
:1091C000102808D1FE48C4680C21FD480CF012FD9F
:1091D0008442FB4C03D00020FA496160A06000F09B
:1091E000FFFEF9480168F94A5160808810816720C4
:1091F000C443F74F3859002801D100F0F0FD00F0CA
:10920000EFFE00263E607E604824F2480655EF4897
:109210000BF0FAFEF04806700126E0480670EF48B1
:109220000670EF4FEF4908223846FDF7DDFF0028B2
:1092300008D0ED481A9939607860EC480660EC482F
:1092400063210160EB480BF09BFED44A10780028A4
:10925000DA49E94B03D00B6010780028FBD1D648DF
:1092600000780028E54E01D000F06BFED94A105D71
:10927000411E022901D2E24806E0002806D146201C
:10928000115CE048229A815409F044FE26A8401C53
:10929000229007988000049002200890C54F02E0B9
:1092A000C648D5490160D8480078002811D0D74871
:1092B000007800280DD1D6480068B021C54A50502A
:1092C0001E98BA490870CF4809F024FE0020CE4904
:1092D0000870B6480078012804D10020B34908700E
:1092E000FFF748FBB248007801282BD12E46239C7B
:1092F000B34D2C600020AE4908700C2128460CF0BC
:1093000079FCE86026AF24983870229829462246D6
:10931000FDF797FF01246846046051211123204680
:109320003A46FFF72DF8002809D06846046000206F
:10933000512126AA2346FFF723F80028F5D09D4F98
:109340003546AE4E9848006800281BD00BF064FEEE
:10935000002817D02098944908600822A04C204685
:10936000AC49FDF741FF002809D0AA202060AA4897
:1093700060600B209D49086063209D490860A748F4
:109380000CF066FB87480078012805D10BF044FEFD
:10939000002801D000F0D3FD81480078002815D1C5
:1093A0007E480078002811D11C9800691B9908425A
:1093B00002D00020386009E0306839680029F9D00F
:1093C000401A9749884201D300F0E4FC286C3168C8
:1093D000814200D164E7306828642598285C002821
:1093E00003D06969C978490801E000200146FEF709
:1093F000AFFA219C5520285C00280FD0285D012859
:1094000033D1532002212954A88B6881688B28818D
:10941000FEF7FAFB0020285500F0ADFCA88BA884CD
:10942000688B68845220285C012801D000F0A3FCDE
:10943000542016992954694800780822684C00285D
:1094400000D125E120467749FDF7CEFE002800D166
:109450002EE101206549086008982060724860602C
:109460001898401E6249086022E15221685C012878
:1094700060D11820285E6D4A128813B21A1AC31AD6
:109480001E2B00DD80E01F2A7EDA54270124EC55D4
:10949000674A13461A6810181860AA6A521CAA6212
:1094A000059B313B9A4201D800F065FC00266E54C2
:1094B000AE625E490E80079909010DF09DF9A88101
:1094C000FEF7A2FB0220E855444800780822002855
:1094D00000D125E342485349FDF786FE002801D11B
:1094E00000F049FC414804603D48089901604E493C
:1094F00041601898401E3E49086000F03CFCC046A0
:10950000700B00203C0300201C0700201D070020DA
:109510002007002024070020280700200406002040
:109520002C07002030070020340700200806002008
:10953000480600200A27E95F1C201390285E2B684C
:109540009A1D1F921A939A79920700D574E01D9A7A
:109550008B188342109E189C00DA74E0354A8A18F2
:10956000834200DC74E0824200DB71E02A6B521C13
:10957000A24200D26BE0224669E0C046CCCC00009B
:10958000003000400C07002081B254220123AB546C
:10959000264A118026490860AB62ECE31C070020D4
:1095A0001D070020240700202807002004060020B3
:1095B0002C07002030070020340700200030004036
:1095C0000C070020008000800058000818010020CF
:1095D00074000020AC0400207C0A002088060020D3
:1095E000A0040020846E010802006400A80400208A
:1095F00098040020006F0108AAAA0000880B002030
:10960000C001002038010020360700205E0D002038
:1096100038070020A46E01080C0064003C070020FD
:10962000B80B0000946E01080200E8039E030020BE
:10963000A0030020A2FEFFFFED4A8A188242109E7E
:10964000189C00DC8AE050220123AB5400222A63DC
:109650001F9A127892070FD41D9A8A183446C8347C
:109660002B6B824201DDA3420FD33446C734A342A1
:109670002AD9824225DC27E0DD4A8A183446C834DC
:109680002B6B824217DAA34215D2502203231AE031
:109690002046D849FDF7A8FD002809D00020D6496A
:1096A00008606320D54908601E982060D448606037
:1096B0000020A8625FE33446C734A34204D9824243
:1096C00002DA50220223AB54C94A8A181D9BC918DA
:1096D00081420ADD824208DA502100226A54696B15
:1096E0004A1CB24202D3324600E000226A631F994C
:1096F00009784EB224990F3149B28E4206DD80B20C
:10970000A8840020E863688B688434E306920A9793
:10971000A889298B091ABB48179101801A9F78796B
:109720008003642111910DF045F804467006000F86
:109730001AD03879800364210DF03CF801460B986B
:109740002E5E1A202B5EB8783F7862421292B342A6
:1097500015911EDAA1191C46F21A1DE01D9BCB18AB
:10976000834200DDFFE673E71994387980036421B2
:109770000DF020F801460B982E5E1A202A5E484212
:109780001590B8783F78B2420BDA89191446B21AAC
:109790000BE0891B1C469A1B50430DF02DF83946EF
:1097A00009E01999891B1446921B50430DF024F8C7
:1097B0003946199A12920F911D9971181994A14264
:1097C0001E9900DC20998A4AB218199B9A421E9C65
:1097D00000DB209C09960C401199081A4743384633
:1097E0000DF00AF8012C209904D1A96B4A1C189994
:1097F0008A4200D90A460021834E71733173F17297
:109800001491B1720D92AA6340B203F031FF7F4907
:109810000DF058FA7E4903F031FE0746B770380E56
:109820007071380C3071380AF07050200E90285C3E
:10983000811E022904990F9B0AD3012807D0002812
:1098400008D174480088002804D0411E00E000219F
:10985000704801801F9802780C98024251D00D98F0
:10986000C9284ED36B4800880026311A41410C406C
:10987000012C46D11196179C20460F3080B21E282D
:1098800002D800245F48048058B20128624E19991A
:1098900000DA57E1686C3168081A012800D86AE1DB
:1098A00030686864E86B17942104491544188D20CA
:1098B000C005394603F0E2FD03F090FE844200DC6F
:1098C00020461A905548394603F0D8FD03F086FE2D
:1098D0000746BC4200DB1A9FEF631D98963006993D
:1098E00081420F9A00D86DE1112F00DA95E1012134
:1098F000002A00D01146029840300CF05BFF391A64
:1099000099E158B2012842DB3F481499417401742F
:10991000C173817317990846103080B2202802D88D
:109920000021384801801F98067817910FB27842BD
:1099300003F09EFE0446384603F09AFE01210E42D3
:1099400000D00446304EB474200E7075200C307573
:10995000200AF074FEF79EF92598305C5F21715C57
:10996000090201430398305C6122B25C1202024397
:109970001004084303F032FEC00329490CF03CFFF9
:109980000F900B982E5E1A20285E199002E019980D
:109990000F90099E1498E863A96D012400292046C0
:1099A00000D108462599695C002900D10C46044085
:1099B0001998801B012C07D169690978490864311D
:1099C000484364210CF018FF374680192A689379C0
:1099D0007821199319401A92921D1F92002921D0C3
:1099E000129EB04225DB159EB04221DD21E0C0462B
:1099F000A2FEFFFF9C6E0108A8040020980400202E
:109A000001006400A403002080000020000020402A
:109A10000000C842A6030020880B0020000080C67A
:109A200010270000159EB04203DB129EB04200DCFE
:109A30000646002C2FD068694278002A2BD0807807
:109A4000002828D00D90F84800680446301AC31743
:109A5000C01858400123012800DC1846002900D115
:109A60008EE0BC42274600DC98E0159B5A439042AA
:109A700000DD8DE0119C604319460CF0BDFE0D9990
:109A8000611A884200DB014649100229179C00DD5B
:109A9000B4E00899B2E0E4480F9901607118E34E10
:109AA000E34F179C159B199AE24801605006000F7E
:109AB00007D0129881420BDB994200DC0B46184616
:109AC00006E09942184603DB1298814200DC084602
:109AD00068842599695C002900D120E1A96D0029DD
:109AE00000D11CE11F990978490700D517E11A2117
:109AF0006A5E01B20B4632339B1A652B00D2F3E04B
:109B00008A4222DACC4B1B881BB293421DDDC91A54
:109B1000332929DA3222D243914200DCDDE0E3E04E
:109B2000C648C749FDF760FB002800D123E1C548BE
:109B300006606320C44908601E98C0490860C34895
:109B4000486018E1BA4F159BAEE78A4200DCCBE0D3
:109B5000B94B1B881BB2934200DBC5E0C91A322205
:109B6000D243914200DDB6E000213970F64A117807
:109B7000491C1170BAE0AF480168AD4F159B95E7DD
:109B8000BC422746159B1FDD12994A43904226DDB1
:109B90000F983018C01B0011179C38E012994942E9
:109BA0004A43904215DC119C60430CF025FE0D9950
:109BB000611A884200DB014649100529179C1DDC0B
:109BC00001991BE0394637E0194649424A43904221
:109BD00005DD0F983018C01B0011179C16E0119C72
:109BE00060430CF009FE0D99611A884200DB0146C2
:109BF000491005200529179C00DC01460F983018F4
:109C0000C01B0011484311990CF0F6FD159BC119BA
:109C1000EE480160CD4EF04F45E72398C0438742A0
:109C2000119908DC0121002A00D011460298403029
:109C30000CF0C0FDC119E9631F980478084603F0D1
:109C400017FDE107DF4CE44F0FD1A073010E6174E3
:109C5000010C2174000AE073179800B203F008FDAC
:109C600001460120C00748400DE0A073010C21749B
:109C7000010AE1730121C9074140080E6074179879
:109C800000B203F0F5FCA074010E6175010C2175A2
:109C9000000AE074FDF7FEFF2598205C5F21615CFF
:109CA000090201430398205C6122A25C1202024374
:109CB0001004084303F092FCC003C3490CF09CFD60
:109CC0000B99695E4118286882791A90801D1F904F
:109CD000179C159BE8E6332906DB0021BD4A11706D
:109CE0003978491C397006E0BA4A1178C9B202299C
:109CF000114606D83978C9B201221492032939468F
:109D000004D3169A0A705D21149A6A54A96C3268B9
:109D1000511A042903D3AE4908803068A8640E980C
:109D20002E5C032E01D1A88B24E020B21A99497829
:109D3000414348244C430798C10020460CF05CFD89
:109D40004142A64A944200DB014613982A5E012E46
:109D50000A9B08D11F980078800706D4E85E511A44
:109D6000814207DB05E0104604E0E85E8918814285
:109D700000DC0846A8845720295C0129734E784FDF
:109D800001D0FFF78DFA00212954A960FDF73CFFAF
:109D9000FFF786FA744876490160744941606C4C5B
:109DA000844908222046FDF71FFA002809D082487E
:109DB00016992160606008986649086063206649CA
:109DC00008601C991B9A08691042FCD0BFF34F8FA2
:109DD0007A487B490160BFF34F8F00BFFDE73868C9
:109DE0006349884205D178686049884201D1FFF70C
:109DF00008FA00F0F5F800280FD05E480127077038
:109E00000020564908705C49087048205B4C265C6D
:109E1000701E02281CD25A4821E03859002801D06F
:109E2000FFF7EDF9FFF7EDF9A8030020880B0020FC
:109E3000B3030020AC030020B0030020A0040020E6
:109E40009C6E0108A8040020980400200100640012
:109E5000002E08D14620215C4A48229A815409F0FC
:109E600059F84820265C701E02282CD2384C4649EE
:109E700008222046FDF7B8F9002809D04348444994
:109E800021606060334813990160334863210160A9
:109E900038480770022E49D0012E2C4E01D0FFF712
:109EA000F5F968460760032000243C4A21463B46FA
:109EB00001F0BAFC3A4920463A4603F023F803F091
:109EC000F9FEFFF7E3F9002E2FD12148354908228A
:109ED000FDF78AF90028189E09D033481A991C4AC0
:109EE000116050601B480760701E1B4908601D48C8
:109EF0000BF08AF82D480BF067FB0BF071F850213E
:109F0000615C32464A43002900D01646142242437F
:109F1000104631460CF04EFC282128280B4E00D369
:109F2000084623490860FFF7B1F9FEE7194816997A
:109F30000170194804F0B2FC044EFFF7A7F902F0D3
:109F40004FFE02F07FF9C046B2030020880B0020CC
:109F5000A0040020A8040020980400201C07002072
:109F6000300700201801002074000020490D2188CE
:109F7000FE78B4C18806002035070020AC0400201C
:109F8000C001002038010020BC6E010814006400EC
:109F900000FC0B00710B0020206F0108D9BC0008E9
:109FA000876F0108946E01080200E8037C0100201D
:109FB000580900208C6E0108030064000CED00E0DD
:109FC0000400FA058000002010270000A8030020EC
:109FD000B0030020B2030020B303002019FCFFFFF0
:109FE000F0B583B02F4C002020702F4908706946CF
:109FF000086050210125284622462B46FEF7C0F96D
:10A00000002835D068460560112738010290031DED
:10A010000026502130462246FEF7B2F92121C90020
:10A020000A460C32002823D0208892B290421FD1D9
:10A03000608889B288421BD138012758204602998E
:10A040000BF0D8FD874213D14820205C411E022925
:10A0500017D220464930154D002229460BF086FDC7
:10A060005D3401262046294632460BF07FFD05E08F
:10A07000452081000B48FDF743F90026304603B028
:10A08000F0BD0028FAD12046D430084E00223146D7
:10A090000BF06CFDE834204631462A460BF066FD95
:10A0A0002E46EBE7AC04002004060020C00500208B
:10A0B000F0B583B00C4687490978002901D003B078
:10A0C000F0BD212806D189480121017008F012FF56
:10A0D00003B0F0BD5021804D695C002907D0AD214F
:10A0E000AC22AA5C002AEAD0695C0029E7D03038AB
:10A0F0000E28E4D878440079400087440841560788
:10A1000007070707070707070707BD00D7E72078F6
:10A11000617809020143A078E27812020243100438
:10A120000843B0216958814213D0714E307800281D
:10A130000FD12078617809020143A078E2781202F9
:10A140000243100408436B49086009F011F901202B
:10A150003070FD202A5C217901268A4204D02954DE
:10A1600009F0FAF86148067060793040FC21695CBA
:10A170008142A4D0FC2168545C48067003B0F0BD55
:10A18000FF2002302D18072228462146FDF72CF823
:10A19000002800D193E7072228462146FDF751F811
:10A1A00052480121017003B0F0BD207802904100B7
:10A1B0004C48425C431859780E0216434A4D2946D2
:10A1C000FF39A27812020A40617811430022B1429D
:10A1D00003D01970090A597001229978DE78370284
:10A1E0000F43A178E67836020E43710829409E1C81
:10A1F000B94203D03170090A7170012219795E7970
:10A2000037020F43E178267936020E43B108294020
:10A210001E1DB94203D03170090A7170012299796B
:10A22000DE7936020E43217967793F020F43F90840
:10A2300029409B1DB14203D01970090A59700122AF
:10A2400001924023C15C4125455D02462802084336
:10A250004225515D4326975D3F020F433F0407436C
:10A260003846029AD0400F210840A479A0421CD160
:10A270000198002826D122E720786178090201435D
:10A2800016480840164D2880A0780121A8700020AB
:10A290006960A86028460C30E11C0522FCF7D1FF5C
:10A2A00028460BF00FFA03B0F0BD944091408F4365
:10A2B00027430C48C754390E8155390C4155390A8A
:10A2C0004122815409F048F808480121017003B087
:10A2D000F0BDC0461C070020AC040020FFBF0000FA
:10A2E000800A0020C0050020FF01000004060020B5
:10A2F000360700203807002080B5064A1378002270
:10A30000002B01D0104680BD09F05AF802461046D5
:10A3100080BDC0461C070020F0B587B00D4604463E
:10A320001448204011381E2843D8400078448088C3
:10A330004000874421002E0039003E0050003E00BE
:10A340003E003E005E007300A400D100E400F20075
:10A350000F013E001D01470162013E008301920191
:10A36000AD01CA01DB0129027E028902A3023E007F
:10A37000B202C046FF0F0000F2480078002801D06A
:10A3800000F016FDF0480121017008F0B3FD07B0A0
:10A39000F0BDEC480078002801D000F009FDEA4843
:10A3A0000121017007B0F0BDE7480121017007B03D
:10A3B000F0BDE00401D400F0FBFC01A90C800720F3
:10A3C00000030440E148401E204380B202220BF00B
:10A3D00029FA00F0EDFC002A00D140E301A90C802D
:10A3E000DB480443DB48204002220BF01BFA07B095
:10A3F000F0BD012A00D083E2287804F0A1F80028FB
:10A4000001D000F0D5FC01A90C80D1480443D1480B
:10A41000204002220BF006FA07B0F0BD012A00D05E
:10A4200079E22878CC490A78824201D100F0C0FC58
:10A430000870C44A1378002B01D100F020FC0028DA
:10A4400001D100F0B5FCC54800230370012515704B
:10A450000D70C34CC34908222046FCF7C5FE0028F6
:10A4600008D0C148022121606060C0480560C04832
:10A4700063210160BF480AF083FD07B0F0BD202AC8
:10A4800000D053E2BC4EB436202230462946FCF7B9
:10A49000ABFE00280BD0202230462946FCF7D1FE27
:10A4A000A8480078002802D1A748012101700021A6
:10A4B00020460A460BF0B6F9A8480178A14A12785E
:10A4C000002A01D100F074FC042901D000F070FCD6
:10A4D0000521017007B0F0BD1C2A00D0EBE3A748AE
:10A4E0001C222946FCF7ADFE002120460A460BF04F
:10A4F00099F9A3480068A349086007B0F0BD002A95
:10A5000000D1B3E201A90C80914804439148204056
:10A5100002220BF087F907B0F0BD072A00D010E245
:10A52000FF20023094490E18072230462946FCF7D6
:10A530005BFE002807D0072230462946FCF781FE43
:10A54000814801210170002120460A460BF06AF97A
:10A5500007B0F0BD002A00D192E201A90C807C482E
:10A5600004437C48204002220BF05CF907B0F0BDA8
:10A57000072A00D999E201209040B021084200D179
:10A5800093E2287801AE30706878A978FD32727055
:10A59000090201437180301DE91CD2B2FCF751FE63
:10A5A000304603F09FFF002801D000F001FC06A90F
:10A5B0000C80674804436748204002220BF032F9C0
:10A5C00007B0F0BD032A00D0C6E1297801A80170C8
:10A5D0006978AA7812020A43428003F049FD0028F4
:10A5E00000D0E5E306A90C805948044359482040AF
:10A5F00002220BF017F907B0F0BD032A00D0B6E134
:10A600005D4E3146FE3103222846FCF7EDFD002861
:10A610000DD001273802A97831546878FF21705491
:10A620002878FE21705408F09FFE474807700021EB
:10A6300020460A460BF0F6F807B0F0BD101F1028B0
:10A6400000D29FE101A90C804148044341482040C9
:10A6500002220BF0E7F807B0F0BD032A00D0B1E109
:10A66000297801A801706978AA7812020A43428009
:10A6700004F0B2FC002800D09AE306A90C8034480C
:10A6800004433448204002220BF0CCF807B0F0BD60
:10A69000042A00D0A1E12B480078002800D15FE215
:10A6A0002878697809020143A878EA7812020243FF
:10A6B00010040843B021304A50502848017803293B
:10A6C00000D070E2042101706DE2152A03D12878D0
:10A6D000022800D2F4E101A90C801D4804431D4862
:10A6E000204002220BF09EF807B0F0BD012A00D0F6
:10A6F0007EE1FD2020490B5C2D7800221F2D00D823
:10A700002A46104D2E78002E01D19A4208D00A54C4
:10A710002878002804D108F01FFE0B4801210170A1
:10A72000002120460A460BF07DF80C4801782A7873
:10A73000002A00D13CE3002900D039E30121017057
:10A7400007B0F0BD1C070020040600200280FFFFB8
:10A750000280000002F00000880600207C0A002031
:10A76000A0040020846E010802006400A8040020F8
:10A7700098040020006F0108AC0400203C07002072
:10A78000880B002028070020012A00D03BE1FC2094
:10A79000EF4F3A5CEF4E33782978002B01D191428C
:10A7A00006D039543078002802D1EB4801210170DD
:10A7B0000025204629462A460BF034F8E748007861
:10A7C0003178002900D1F3E2052800D0F0E201241D
:10A7D0002002FB498A783A544878FF22B854087816
:10A7E000FE2178540232B818F6490722FCF729FDF9
:10A7F000432080003D502120C0003D505720F249A9
:10A800000C54F24805703570F14EF249082230467A
:10A81000FCF7EAFC002807D0EF4834607060EF488E
:10A820000560EF4863210160E4480121017007B031
:10A83000F0BDE1480078002802D1E0480121017014
:10A8400008F058FB07B0F0BD082A00D0E6E02878F1
:10A85000697809020143A878EA78120202431004D9
:10A860000843411C00D1C3E1002800D0C9E1D14810
:10A870000021C180DB48808840082FE2012A00D0F7
:10A88000D7E028787F2800DD55E1002800D1CCE111
:10A89000012800D0CEE15420C8E1082A00D0D3E03E
:10A8A0002120C600C34FB81908222946FCF79CFC9A
:10A8B00000281ED02879697909020143A879EA792C
:10A8C0001202024310040843A9780091EA782B7819
:10A8D0006D7839464327BF00C8510F4628021843F8
:10A8E000120200990A4311040143B951B3480121EE
:10A8F0000170002120460A460AF094FF07B0F0BD1F
:10A9000001A90C80B8480443B848204002220AF04C
:10A9100089FF07B0F0BD01A90C80B3480443B348D8
:10A92000204002220AF07EFF07B0F0BD01A90C8092
:10A93000AD480443AD48204002220AF073FF07B03F
:10A94000F0BD01A90C80A8480443A8482040022279
:10A950000AF068FF07B0F0BD01A90C80A2480443CB
:10A96000A248204002220AF05DFF07B0F0BD01A915
:10A970000C809D4804439D48204002220AF052FF6B
:10A9800007B0F0BD287801AE30706878A978FD3244
:10A990007270090201437180301DE91CD2B2FCF7CC
:10A9A00050FC304605F00CFC002800D000E206A95F
:10A9B0000C808D4804438D48204002220AF032FF6B
:10A9C00007B0F0BD01A90C80FA480443FA482040C2
:10A9D00002220AF027FF07B0F0BD01A90C80F5485C
:10A9E0000443F548204002220AF01CFF07B0F0BDE6
:10A9F00001A90C80EF480443EF48204002220AF0EE
:10AA000011FF07B0F0BD01A90C80EA480443EA48F1
:10AA1000204002220AF006FF07B0F0BD01A90C8019
:10AA2000E4480443E448204002220AF0FBFE07B059
:10AA3000F0BD01A90C80DF480443DF48204002221A
:10AA40000AF0F0FE07B0F0BD01A90C80D94804431C
:10AA5000D948204002220AF0E5FE07B0F0BDF249D5
:10AA6000202220460AF0DEFE07B0F0BD002120467D
:10AA70000A460AF0D7FED9480121017007B0F0BD9F
:10AA8000DD4801680191028901A98A808289CA8012
:10AA9000008A2122D2004A810881D84888810E226A
:10AAA00020460AF0BFFE07B0F0BD01A90C80C148E6
:10AAB0000443C148204002220AF0B4FE07B0F0BDB2
:10AAC00014214143BD484618D4366F1CCC48007849
:10AAD000002806D1142238463146FCF785FB0028B1
:10AAE00012D0142230463946FCF7ABFB2A78CD4908
:10AAF00030460BF03BF8C2480078002804D108F03B
:10AB00002BFCAF4801210170002120460A460AF0C3
:10AB100089FEBB480078002800D149E1B948017896
:10AB20002A78002A00D125E1022900D040E1032142
:10AB3000017007B0F0BD812800D182E0802879D172
:10AB40005120A74901220A5401A8027072E0C046B0
:10AB5000AC0400201C070020040600207C0A002012
:10AB60002878697809020143A878EA78120202433A
:10AB700010040843B021914A5158884213D0A74E7F
:10AB8000307800280FD12878697809020143A87825
:10AB9000EA781202024310040843A149086008F051
:10ABA000E7FB01203070002120460A460AF03AFEF9
:10ABB00007B0F0BDAC0400201C07002004060020F4
:10ABC000F46E0108F76E01083C030020880600209F
:10ABD000A00400209C6E010801006400A80400206D
:10ABE000980400200C0700200280000002F0000002
:10ABF0007248C18873488088400800296ED0084692
:10AC00006CE06E4BDF8801218A03DA806E4A12689D
:10AC10006E4B5343CE039919090C80030BF0CAFD08
:10AC2000B04253D96A48654A57E053206C49085CE2
:10AC300001A9087001A9012220460AF0F3FD07B01E
:10AC4000F0BD55216648415C002900D198E05221B1
:10AC50000122425401A80270624D6349082228462D
:10AC6000FCF7C2FA0028E5D060480A212960686034
:10AC70005F48072101605F4863210160DAE702282D
:10AC800000D195E001287FD0002814D1554C6149AE
:10AC900008222046FCF7A8FA002800D188E05E4888
:10ACA0000121216060605248002101605148632108
:10ACB000016007B0F0BD01A90C803E4804433E4846
:10ACC000204002220AF0AEFD07B0F0BD410B00D0DB
:10ACD00007460029394A00D10846D78001A90880D3
:10ACE0002879697909020143A879EA7912020243B5
:10ACF00010040843411C08D000280FD12F48002120
:10AD000001813048C088400829E02C4801892D483D
:10AD1000C0884008002922D0084620E0274B1E8921
:10AD200001218A031A81284A526812235343294F6A
:10AD30005743CD037919090CCA18274911408003DC
:10AD40000BF038FDA84202D921481C4A06E0410B0D
:10AD500000D006460029194A00D108461681184934
:10AD600001220A7001A94880042220460AF05AFDF7
:10AD700007B0F0BD01291BD10221017007B0F0BD61
:10AD800001A80321017055E7164C1F4908222046EF
:10AD9000FCF72AFA00280BD01C48022121606060D1
:10ADA00013480121016013481949016007B0F0BD43
:10ADB00007B0F0BD0280000002F00000AC040020EB
:10ADC000040600200C0700202C030020CDD5040031
:10ADD000FFFF00005F840000FFFF01002407002048
:10ADE0003C030020A0040020CC6E01080800640091
:10ADF000A8040020980400200002000801030000BD
:10AE00001C0700207C0A0020946E01080200E80361
:10AE1000E70300009C6E0108010064003607002073
:10AE200038070020C0050020D46E01080022002948
:10AE300001D01046704701884288054B9A83598398
:10AE4000598C9A8C42800180012210467047C0467E
:10AE50003C030020F0B581B019480078002801D0EB
:10AE600001B0F0BD1748006817490860174800781E
:10AE70000090002804D0174E154D184C164F03E0D3
:10AE8000134E144D144C154F402238462146FCF702
:10AE9000D8F9202228463146FCF7D3F910488660BD
:10AEA000C4601048056247620120009A4240074989
:10AEB0000A700D49087008F0F7F901B0F0BDC046FE
:10AEC0001C070020880B00202007002035070020E9
:10AED0005C090020890600204806002008060020A2
:10AEE000380100207C0100201D07002080B50028CB
:10AEF00017D0AD210C4AAC23D35C002B09D0515C98
:10AF0000002906D0012107F0D9FF2321002806D10E
:10AF100007E0002107F0D2FF2221002801D0C8B2AB
:10AF200080BD3F21C8B280BDAC04002080B50B4875
:10AF3000006800280ED00849097800290AD008497D
:10AF40000968081A07490968884203D3064800219E
:10AF50000AF0DEFE80BDC0461D070020200700204D
:10AF6000880B00205809002055AE0008F0B583B0CA
:10AF700000282DD048279E4EF05D411E022945D362
:10AF8000C51E022D5DD2A64800210170A54CAC491A
:10AF900008222046FCF728F9002809D0A9482A21D0
:10AFA00021606060A24809210160A248632101601C
:10AFB0000020F0803081F16CA34881804921715CD0
:10AFC0008171691E8D41457209F0FCFF03B0F0BD2F
:10AFD0009E48002101709248012505708F48057038
:10AFE000904C9B4908222046FCF7FEF8002808D028
:10AFF00098480221216060608D4805608D4863217A
:10B000000160954809F0BCFF03B0F0BD84480024FE
:10B01000047009F0EFFF304649307C4D2946224646
:10B020000AF0A4FD30465D30012229460AF09EFD5B
:10B03000F15D0220012900D108468049087003B063
:10B04000F0BD002800D09EE06A486B496B4A00249E
:10B0500014706B4A026241625027F05D7D21CD0081
:10B0600000280ED0AD20AC214922B25C012A00D0CC
:10B07000A7E0715C002900D1A3E0305C002800D17A
:10B080009FE0019702953B205F4A115C1F292046F3
:10B0900000D80846FD2170543C20105C0127384040
:10B0A000FC2170543546D43511463D3128222846BE
:10B0B0000092FCF7C6F8554928460D4622460AF08C
:10B0C00055FD3046E83029463A460AF04FFD5049D2
:10B0D0000878FE22B0544A78FF2032543A02897828
:10B0E000B1546521484B595C66229A5C12020A43AE
:10B0F0006721595C1D466823EB5C1B020B43190456
:10B100001143B022B1500230301842490722FCF7F7
:10B1100098F84320800034502120C000345057203C
:10B120003D490F543D4807703D4804703D4C3E4931
:10B1300008222046FCF758F80028029D08D03B481A
:10B140000221216060603A480760681E3949086042
:10B150003948077027480AF037FA09F041FF01998A
:10B16000725C29465143002A00D00D461421414308
:10B17000084629460BF01EFB282800D300982149D9
:10B18000086003B0F0BD314800210170244801255A
:10B19000057022480570234C2D4908222046FCF7F3
:10B1A00023F8002808D02B48022121606060204845
:10B1B0000560204863210160274809F0E1FE03B0E3
:10B1C000F0BD09F00DFFF25D29465143002A00D081
:10B1D0000D4614214143084629460BF0EBFA28217D
:10B1E000282800D308460749086003B0F0BDC046D0
:10B1F000AC0400207C010020080600203507002058
:10B200008906002058090020D00A0020C00500202F
:10B21000F46E0108F76E01083C0300208806002048
:10B220001C070020A0040020946E01080200E8031F
:10B23000A804002098040020040600203407002001
:10B24000AC6E01080A006400040200207C0A0020A1
:10B25000846E010802006400006F010801480121AA
:10B26000017070472C070020F0B581B0604D286850
:10B270000321C943695801404E080F2030405D4901
:10B280000C7802210E4205D0024622400C4235D1F4
:10B29000002A33D0410700D4A8E0204004210C420A
:10B2A00002D1002800D0A1E00820C0432860524A03
:10B2B0001368002B54D051480178002902D172B68E
:10B2C000017813684C1C04704D4C26684D4FB81C17
:10B2D000834256D200201060F2183A4022604C4857
:10B2E0000078EA6220221023002800D01A4647483E
:10B2F0007138EB6803401343EB6062E00820C04301
:10B30000001D28600D2006403B484368002B30D0CC
:10B310003A4F3978002902D172B639784368481C0F
:10B32000387037484068374A971CBB4236D20027EE
:10B330000090314847600098C0181040304A506073
:10B340002E4F334A5378A862012250031203002B78
:10B3500000D01046AA682F4B13400343AB603DE07A
:10B360002D480268002A41D000202146904701B0B4
:10B37000F0BD29484268002A34D001202146904778
:10B3800030E02148834218D258081B1A1360321843
:10B390003A402260002BA2D0EA6212E01A4FBB4270
:10B3A00016D25F08DA1B144B5A60C019154B1840AF
:10B3B000134B5860002A0FD1C2E7144818181060C8
:10B3C000EE620E480170002910D162B601B0F0BDE6
:10B3D0000E4FDB19084A5360A862084F39700029E4
:10B3E00000D162B63046410700D556E701B0F0BD46
:10B3F000102C01403A0B00203C0B00208D0B00204C
:10B400005C0B0020FFFF0000010002000000FFFFB6
:10B410006C0B0020FF8FFFFE4C0B0020F0B5354970
:10B420000A78002A01D172B60A78531C0B70860084
:10B43000314B9C19314FBD199B59BF59304EB11C2E
:10B440008F4210D200212960DB1933402360294E3E
:10B450002E49095C02240125002900D02C46002534
:10B4600003281BD940E027498F420BD279087F1A65
:10B470002F605B183340236000240125002F1D4EF0
:10B480000AD1E5E720497C1871342C600125002C95
:10B4900000D125460024174E032825D8784400798A
:10B4A0004000874401170C151B484362002D1BD137
:10B4B0004168154B0B4021011943416014E01448C9
:10B4C000C361002D10D101680F4B0B40210109E031
:10B4D0000F4800E010480362002D05D101680D4BB4
:10B4E0000B402103194301603270002A00D0F0BDE7
:10B4F00062B6F0BD8D0B00205C0B00203C0B0020E1
:10B50000FFFF0000010002008FFFFEFF6C0B002018
:10B5100018400140FF8FFFFE182C0140F0B583B0AA
:10B520000720C7436A4AD0590B21C94351580140EB
:10B530004D080320284067494C780126354205D044
:10B5400001462140344237D1002935D0810700D44B
:10B55000BCE0204002210C4202D1002800D0B5E01E
:10B560000420C043D0515C4AD368002B59D05B48BB
:10B570000178002902D172B60178D3684C1C04709E
:10B58000574CE568574FB81C83425FD20020D0600B
:10B59000EA183A40E2605648C0784D4B1A6272038E
:10B5A0003303002800D01A46494804462068524B0D
:10B5B00003401343236071E00420C043801CD0513A
:10B5C0000220054044488368002B33D0434A117859
:10B5D000002902D172B6117883680291481C10705C
:10B5E0003F4881683F4A921C93423DD200223A482C
:10B5F0008260C8183B4908403949886002993C4A32
:10B600009378334AD06120201022002B00D01046BE
:10B61000364A713A2E4B1B6813402D4A0343136080
:10B620004BE03448C268002A50D00320214690479E
:10B6300003B0F0BD2F488268002A02D002202146C4
:10B6400090472846224A810740D582E72648834210
:10B650001FD258081B1AD3602A183A40E260002B08
:10B6600099D01B48026219E001911F4A93421CD2F3
:10B670005A08991A184B99600B4601988018194975
:10B68000084017498860002B0299B8D0104AD06151
:10B6900013E016481818D0600D4805620F48017075
:10B6A000002913D162B603B0F0BD104A9A180A4BB4
:10B6B0009A60074A0198D0610299084801700029F0
:10B6C00000D162B62846810700D542E703B0F0BD3D
:10B6D000184001403A0B00203C0B00208D0B00204D
:10B6E0005C0B0020FFFF0000010002000000FFFFD4
:10B6F0006C0B00204C0B0020FF8FFFFE70B53E4A04
:10B700001378002B01D172B613785C1C14700328D7
:10B710004CD8840001A56459A746C0462DB700083F
:10B7200049B7000867B700088BB70008374C256990
:10B73000354E2E40266125680826B5432560002930
:10B7400034D1032109032DE0304CE5682C4E2E4006
:10B75000E66025680426B5432560002926D12949DD
:10B760000C6803250EE0254CE568274E2E40E66068
:10B7700025680226B5432560002917D10521090750
:10B780000C683025AC430C6010E01C4CE5681C4E86
:10B790002E40E66025680426B5432560002905D1C2
:10B7A00003218907174C25688D4325608100184CBB
:10B7B000002565501749095C01248C401649095C35
:10B7C000164D6E5CA6436E54002E0FD114490856D8
:10B7D0000321C40088431349455818262640FF24F6
:10B7E000B440A5438024B4402C4344501370002B34
:10B7F00000D070BD62B670BD8D0B00200C400140C2
:10B80000FF8FFFFE000400508FFFFEFF0C2C014055
:10B810004C0B0020A4760108A07601083A0B00200A
:10B82000A876010800E400E0F0B581B08400584D2E
:10B830002A51584A125C012500959540564E365CB7
:10B84000564FBC5DAC4393402343BB55DAB2002353
:10B850009B1A5341DA01524B1D56EB0018241C4031
:10B86000A240FF26A64003239D434E4C2F59B743C9
:10B8700017432F5104260522002900D016464A49B5
:10B880000A78002A01D172B60A78541C0C70032879
:10B8900020D8069D7844007940008744012139551D
:10B8A00046484468444F3C4036012643466044685D
:10B8B0003C404460002D63D10F2000063D4C256ABA
:10B8C0008543009E30062843206218032368834383
:10B8D000700353E00A70002A55D162B601B0F0BD82
:10B8E00036480468324F3C403603264306600468FD
:10B8F0003C400460002D43D12E48046A0F25AC4320
:10B9000002252C43046204689C432C43046037E006
:10B9100026480368284C234036011E43066003680E
:10B9200023400360002D2BD10F20000205231C07AC
:10B93000256A8543180228432062206830239843F3
:10B940002023034323601BE018480468184F3C4041
:10B9500036032643066004683C400460002D0FD186
:10B960000F200007134C656A854305200007284314
:10B9700060629807236883430098C00718432060DB
:10B980000A70002A01D001B0F0BD62B601B0F0BD6E
:10B990004C0B0020A4760108A07601083A0B002089
:10B9A000A876010800E400E08D0B0020184001405B
:10B9B000FF8FFFFE000400508FFFFEFF182C014098
:10B9C000F0B518490A78002A01D172B60A78531CDA
:10B9D0000B70154B1C460C340425ED4303281BD873
:10B9E000124EC0467844007940008744010F060C8F
:10B9F0002D1F1C4610340F4E08E0AD1C0C4B1C468E
:10BA00000C340C4E02E00A4B1C460C3418682840DB
:10BA100018602068304020600A70002A00D0F0BD15
:10BA200062B6F0BD8D0B00200C2C0140FF8FFFFE95
:10BA30000C4001408FFFFEFF0021022805D30328A0
:10BA400001D0022803D1044800E00248016888B20E
:10BA50007047C046242C014024400140F0B581B01D
:10BA60008400314D2A51314A00251551304A135472
:10BA7000304A1378002B01D172B613785C1C147015
:10BA800004240525002900D02C4603281AD881005B
:10BA900001A549598F46C046A9BA0008CFBA000887
:10BAA000D7BA0008F3BA00080425E9430E1F254958
:10BAB0004E600E68082737430F600F69204E3E40E6
:10BAC000103122E01370002B2AD001B0F0BD042504
:10BAD000EE431C4910E00425E9438E1C16494E60D4
:10BAE0000E68022737430F60CF68154E3E400C3179
:10BAF0000BE00425EE4310494E600E682E430E60A5
:10BB0000CD680E4E2E400C310C25AC4034430C60F9
:10BB10001370002B00D162B6FFF780FC01B0F0BDBE
:10BB200062B601B0F0BDC0465C0B00203C0B0020AB
:10BB30006C0B00208D0B00200C400140FF8FFFFE9E
:10BB40008FFFFEFF0C2C014010B58300034CE15029
:10BB500003490A54FFF762FC10BDC0463C0B0020AD
:10BB60006C0B002070B58400314D2A51314A1354BA
:10BB700004220523002900D01A462F4C21780029E1
:10BB800001D172B621784B1C237003281CD8810088
:10BB900001A3CB589F46C046A9BB0008D3BB0008F1
:10BBA000DBBB0008F7BB00080423DB431D1F264B4B
:10BBB0005D601D6808262E431E601D69214E2E40C3
:10BBC000120132431A6123E0217000292CD162B6A0
:10BBD00070BD0425EE431C4B10E00423DB439D1C89
:10BBE000164B5D601D6802262E431E60DD68154EF3
:10BBF0002E4012010AE00425EE43104B5E601E68E1
:10BC00002E431E60DD680E4E2E4012033243DA6072
:10BC100018331A680D4B5A50FFF700FC2078401E6D
:10BC20002070FF21084200D070BD62B670BDC046D2
:10BC30003C0B00206C0B00208D0B00200C400140C1
:10BC4000FF8FFFFE8FFFFEFF0C2C01405C0B0020DE
:10BC5000B0B51D490A78002A01D172B60A78531C82
:10BC60000B708300194C0025E550032825D8C046E9
:10BC7000784400794000874401090D180420C0432E
:10BC8000001F144B5860186808240AE00420C343BE
:10BC9000104C0DE00420C043801C0D4B5860186808
:10BCA0000224204318609C6007E00420C343084C32
:10BCB0006360236803432360A0600A70002A00D0F9
:10BCC000B0BD62B6B0BDC0468D0B00205C0B00203D
:10BCD0000C4001400C2C014080B501F081FD80BD7D
:10BCE00080B502F08FFD80BD0020704770B512480E
:10BCF000124AD4886300002C00D183889CB2104B78
:10BD00001B68104D5D430126F303EB181B0C5C43CD
:10BD1000B5036419E60B0C4C6643F60C0E70D6881E
:10BD20007200002E00D1828890B258434019C00B97
:10BD30004443E00E487070BD0C070020AC040020A6
:10BD40002C030020CDD50400CDCC0000F0B581B08F
:10BD50007121494E725C0F2109020D2A009107D80A
:10BD60005200835C8218527817020F401F4312E082
:10BD700006235343C2185023DB43D35CF0242340F3
:10BD80005225ED43555D2D091D434E23DB43D25C07
:10BD9000224017012F43394A974200D31746384CA7
:10BDA000A74200D82746374D6F4337497B180F46C7
:10BDB0001B0C36490B807223F35C0E2B0AD2590000
:10BDC000465C411849780B0200990B40334393427B
:10BDD00016D216E006265E4383195026F6439E5D72
:10BDE000F0273E405221C943595C090931434E2690
:10BDF000F6439B5D3B40244F1B010B43934200D312
:10BE00001346A3421C4E00D823466B43D919090C94
:10BE10001E4B59807321735C0E2B0AD25900435C70
:10BE2000401840780002009908401843904215D20B
:10BE300015E00621594340185021C943415CF023C5
:10BE400019405226F643865D36090E434E21C943FA
:10BE5000405C184000013043904200D31046A0429D
:10BE600000D820464543E819000C0849888007F0AF
:10BE70001BFA01B0F0BDC046AC040020CA080000A7
:10BE8000EE0200009CC42000F0FDFF3F08060020E9
:10BE9000704700207047C046B0B5C11E022903D3C9
:10BEA000022806D0002806D10F48032101700F4C4C
:10BEB00002E00C4C00E00A4C0D4D082228462146B9
:10BEC000FBF792F900280AD003CC03C5083CA088F0
:10BED000401E08490860E088401E07490860B0BD60
:10BEE000846E0108C46E0108710B0020BC6E01084D
:10BEF000A0040020A804002098040020F0B52349E5
:10BF00000025CD708400224BDC6022480178002996
:10BF100002D172B60178DC684A1C02701E4EF768C6
:10BF20001E4A901C844215D2DD603B191340F36019
:10BF30001648C0781B4A13600124630324030028B9
:10BF400000D023461F20C0431458174D25401D43E1
:10BF5000155013E00120400484420AD86008241AD6
:10BF6000DC603B181340F360002CE1D00D48036007
:10BF700004E00B482018D8600A48076005480170A3
:10BF8000002900D0F0BD62B6F0BDC0466C0B0020A9
:10BF90003C0B00208D0B00205C0B0020FFFF0000FD
:10BFA0000000FFFF38400140FF8FFFFEF0B582B078
:10BFB000354900220192CA708000344FF860344E37
:10BFC0003078002801D172B63078411C31700720DA
:10BFD000C0430422D4432F4B1C500B20C0431C5899
:10BFE00014431C5018682C4A104001229403044347
:10BFF0001C60DD682948C560FF24214202D172B669
:10C00000C5683178481C3070F868254EB71CB842B6
:10C0100016D2019F00941D4CE760009C2D183540FE
:10C020001E48C5601848C6781D6250031203002ED2
:10C0300000D010461A68184D2A4002431A6013E0D7
:10C040005704B8420BD84708C01B104EF060ED19DA
:10C05000134E3540114EF560002804D1E2E7114A35
:10C0600080180A4AD0601D62094A1170214201D12C
:10C0700062B61178481E1070204201D002B0F0BDA7
:10C0800062B602B0F0BDC0466C0B00203C0B002035
:10C090008D0B002018400140FF8FFFFE5C0B00203D
:10C0A000FFFF00000000FFFF10B50A4801780029DB
:10C0B00001D172B60178084A13680424A3431360BF
:10C0C000D368064C1C40D4600170002900D010BD1C
:10C0D00062B610BD8D0B00200C400140FF8FFFFEAB
:10C0E000F0B51D4B5A619A691C6822605A68002499
:10C0F0001460146005221407184A1578002D05D025
:10C1000026680327BE432660157009E072B61578CD
:10C1100026680327BE4326601570002D00D162B645
:10C12000DA7A5C7AA4000E4D625114CB15462435A0
:10C13000A560E060616059608020206081202060FF
:10C14000D1692020014203D0516AD1690142FBD15B
:10C15000612080019060F0BD100200208D0B002056
:10C16000000802400C484369816904220A43002BFD
:10C1700009D0437A012B08D802680123DB0213623D
:10C18000074A114305E0114603E0044901230B70FF
:10C19000114600680160704710020020960B0020D5
:10C1A00004000004F0B51C4A002313611B4C2370EB
:10C1B000946915682C6054682360236005231C076C
:10C1C000174B1D78002D07D026680327BE43022792
:10C1D000374327601D700BE072B61D782668032771
:10C1E000BE430227374327601D70002D00D162B681
:10C1F000937A547AA4000B4D6351136852681C461D
:10C2000028349460D06051609020106091201060BC
:10C210003120C0019860F0BD10020020960B002074
:10C220008D0B0020000802400448012101700448E1
:10C23000816948220A430068026070478E0B002023
:10C240001002002080B5B021074AFF235350482137
:10C250005054FCF78FFBBFF34F8F04480449016033
:10C26000BFF34F8F00BFFDE7AC0400200CED00E0F2
:10C270000400FA0580B507F06FF880BDF0B581B015
:10C280000022030A3AD081235B00984207D8204A53
:10C2900010188E22D243805C087001222EE0194BC8
:10C2A000C01883B2022B29D84200174B9C5C9A1805
:10C2B000527812022243154D2A400E784F783F02E1
:10C2C00037436D1C3D4015430D702D0A4D704225BE
:10C2D0005D5D009543269E5D4027DF5D41255B5DEA
:10C2E0000C701B023B433402009D2C4324041C436E
:10C2F000C440E0031043000A48700222D0B201B0EB
:10C30000F0BDC04600FEFFFFC0050020FF7F00001B
:10C31000AC040020F0B599B00024030A00D1B1E0CC
:10C32000FF273B46043398422ED2FB43C318012912
:10C3300000D0A7E010781F2800D9A3E0584DE918D5
:10C3400071268A5D0124824200D19BE088555548C0
:10C350000078800714D1544809AC544A214609F0AA
:10C3600087FBA85D4000205A514908807220285C54
:10C370004000205A48807320285C4000205A888062
:10C380004648012404707DE0404D4519A8B20228BA
:10C3900078D8022976D110785178090201433C4EB1
:10C3A0000E40002E6ED0B01F0890B0B28D339BB2FD
:10C3B0000790984266D8089880B22C2862D3402013
:10C3C000344C0590205C41230293E35C1C0204433F
:10C3D000422004902F4B185C0890432303932D4870
:10C3E000C35C1B02089803431B0423436800294CC9
:10C3F000245C0894274C2018019040780002089C87
:10C40000204301240894AC400694079CA0420BD121
:10C410001846069C20400024251A4541C80B08995F
:10C420004840022485422DD001990E70300A487090
:10C43000F843FF30069948401840164C059D60555A
:10C44000010E039FE155010C049EA155000A0299BB
:10C45000605408981056000211780143002909DA47
:10C46000069803436355180EE055180CA055180A9A
:10C47000412160540848002109F04AFC0748089906
:10C4800001700224E0B219B0F0BDC04600FEFFFF0B
:10C49000FF7F0000C005002075C2000804060020D0
:10C4A000AC040020710B0020EA060020720B002073
:10C4B000AA06002070B51249124AD4886300002CE5
:10C4C00000D18B889CB2104B1B68104D5D43012638
:10C4D000F303EB181B0C5C43B5036419E60B0C4C1F
:10C4E0006643F60C0670D6887200002E00D18A884A
:10C4F00091B259434919C90B4C43E10E417070BDCB
:10C500000C070020AC0400202C030020CDD5040033
:10C51000CDCC0000014800787047C046710B002068
:10C5200010B51049087010480078002800D010BDE0
:10C530000E480F4C0F4A214609F09AFA71200E4915
:10C54000085C4000205A0D4A10807220085C4000B0
:10C55000205A50807320085C4000205A908006F0DA
:10C56000A3FE10BD88060020710B00208906002064
:10C5700048060020720B0020AC04002008060020B2
:10C5800010B590B010480178FE220A4002700220D7
:10C59000014216D10D486C460D4A214609F068FA51
:10C5A00071200C49085C4000205A0B4A1080722010
:10C5B000085C4000205A50807320085C4000205ADC
:10C5C000908010B010BDC046710B0020EA0600201C
:10C5D000720B0020AC040020AA06002010B590B019
:10C5E00010480178FD220A4002700120014216D154
:10C5F0000D486C460D4A214609F03AFA71200C4963
:10C60000085C4000205A0B4A10807220085C4000F1
:10C61000205A50807320085C4000205A908010B04F
:10C6200010BDC046710B0020EA060020720B0020EE
:10C63000AC040020AA0600207047C04680B582B036
:10C6400001236846036003200021024AFFF7ECF84B
:10C6500002B080BDE1BC0008B0B5022809D00028B6
:10C6600009D1114802210170104803210170104CBA
:10C6700002E00C4C00E00A4C0E4D082228462146F0
:10C68000FAF7B2FD00280AD003CC03C5083CA08805
:10C69000401E09490860E088401E08490860B0BD96
:10C6A000846E0108C46E010888060020710B00200A
:10C6B000BC6E0108A0040020A804002098040020FB
:10C6C000F0B523490025CD708400224BDC60224860
:10C6D0000178002902D172B60178DC684A1C027028
:10C6E0001E4EF7681E4A901C844215D2DD603B192D
:10C6F0001340F3601648C0781B4A1360012463039B
:10C700002403002800D023461F20C0431458174D8F
:10C7100025401D43155013E00120400484420AD8EF
:10C720006008241ADC603B181340F360002CE1D051
:10C730000D48036004E00B482018D8600A480760E1
:10C7400005480170002900D0F0BD62B6F0BDC046BA
:10C750006C0B00203C0B00208D0B00205C0B00209C
:10C76000FFFF00000000FFFF38400140FF8FFFFE89
:10C77000F0B582B0354900220192CA708000344F72
:10C78000F860344E3078002801D172B63078411C00
:10C7900031700720C0430422D4432F4B1C500B2080
:10C7A000C0431C5814431C5018682C4A10400122E6
:10C7B000940304431C60DD682948C560FF242142BE
:10C7C00002D172B6C5683178481C3070F868254EC1
:10C7D000B71CB84216D2019F00941D4CE760009C24
:10C7E0002D1835401E48C5601848C6781D62500394
:10C7F0001203002E00D010461A68184D2A4002433A
