:020000040800F2
:10300000B815002061400008694000086B400008C6
:1030100000000000000000000000000000000000B0
:103020000000000000000000000000006D400008EB
:1030300000000000000000006F4000087140000820
:10304000B9C9000873400008CFB9000873400008F0
:1030500073400008C9A20008E5A2000873400008F8
:103060007340000873400008B9A1000873400008CD
:1030700073400008734000086DC800082DC900089F
:10308000734000087DC9000800000000734000087C
:1030900073400008734000083DC8000873400008F2
:1030A0007340000873400008734000087340000834
:1030B00073400008000000007340000800F002F8B0
:1030C00000F0A2FF0CA030C8083824182D18A24622
:1030D000671EAB4654465D46AC4201D100F094FFFA
:1030E0007E460F3E0FCCB6460126334200D0FB1A77
:1030F000A246AB46334318472400000044000000BA
:103100000023002400250026103A01D378C1FBD803
:10311000520700D330C100D50B6070473C31000826
:1031200080000020B001000056450008F83100087A
:10313000300200208813000000310008016CA764F1
:10314000643232646413B8031B20680413A8021BA2
:1031500020E80413A9041420CA081B208A041AA812
:103160000C22CF1B2060081AAA041B8A060412072F
:103170001220320119041A5C14116206A944133496
:10318000CE6A084441294401183944318B10052482
:103190001A180C322C2DFEFFFFFF044113DDC11461
:1031A0000805C41408C9BB1B08B90C1389C31B0844
:1031B000910C1A850C29C41AC8781A280869781342
:1031C000E401142019B282082A8A6029B831031256
:1031D000E803128E128013799A1408E99D140821CD
:1031E000991B087D04411715CD5B07DD5C14083D74
:0831F000531B084908410000CF
:020000040800F2
:043F8000CC5172C8E6
:020000040800F2
:043F8400A07E019288
:020000040800F2
:043F88007856341221
:020000040800F2
:043F8C000E01000022
:020000040800F2
:103F90000000000000000000000000000000000021
:103FA0000000000000000000000000000000000011
:103FB0000000000000000000000000000000000001
:103FC00000000000000000000000000000000000F1
:103FD00000000000000000000000000000000000E1
:103FE00000000000000000000000000000000000D1
:103FF00000000000000000000000000000000000C1
:020000040800F2
:104000001FB51FBD10B510BD00F073FA1146FFF7C4
:10401000F7FF08F0F9FC00F08BFA03B4FFF7F2FFAA
:1040200003BC00F091FA000070B505460C46164638
:1040300002E00FCC0FC5103E102EFAD2082E02D38C
:1040400003CC03C5083E042E07D301CC01C5361F9F
:1040500003E021782970641C6D1C761EF9D270BDB6
:104060000748804707480047FEE7FEE7FEE7FEE710
:10407000FEE7FEE704480549034A054B7047000088
:1040800039C80008BD300008B8110020B81500205C
:10409000B811002010B5202A04DB0846203AD04091
:1040A000002110BD0B462024D340D040A21A9140DD
:1040B0000843194610BD4343514330B55C18010C09
:1040C000130C0D4692B25D4380B251432C19054644
:1040D00055430A0C09044D1962415843010C000470
:1040E0004019514130BDFEB5054610460C461843F7
:1040F00073D0AE468C460020AD1A01469C4167D372
:104100006646002701243D46B61A9D4102D3134658
:104110003A462124654676462F04360C3E432D0C44
:10412000B61A9D4104D3150C1B042B431204103402
:10413000654676462F06360A3E432D0AB61A9D413D
:1041400004D3150E1B022B43120208346546764633
:104150002F0736093E432D09B61A9D4104D3150F8A
:104160001B012B431201241D65467646AF07B60896
:104170003E43AD08B61A9D4104D3950F9B002B43D7
:104180009200A41C65467646EF0776083E436D080C
:10419000B61A9D411AD392185B41641C16E00018B0
:1041A000764665464941B71A9D410191009009D371
:1041B0006046B11A98418E468446009801990025C0
:1041C000401C6941DD0752082A435B08641EE6D59E
:1041D0007246634603B0F0BDFFE700200146C046CB
:1041E000C0462A462346F5E7034610B50B439B0716
:1041F0000FD1042A0DD308C810C9121FA342F8D04A
:1042000018BA21BA884201D9012010BD0020C0434C
:1042100010BD002A03D0D30703D0521C07E00020B2
:1042200010BD03780C78401C491C1B1B07D1037878
:104230000C78401C491C1B1B01D1921EF1D1184661
:1042400010BDF8B5042A2CD3830712D00B78491C73
:104250000370401C521E83070BD00B78491C03705F
:10426000401C521E830704D00B78491C0370401C6D
:10427000521E8B079B0F05D0C91ADF002023DE1BBF
:1042800008C90AE0FFF7D0FEF8BD1D4608C9FD4089
:104290001C46B4402C4310C0121F042AF5D2F30868
:1042A000C91A521EF0D40B78491C0370401C521ED0
:1042B000EAD40B78491C0370401C012AE4D4097825
:1042C0000170F8BD01E004C0091F0429FBD28B076F
:1042D00001D50280801CC90700D0027070470029F8
:1042E0000BD0C30702D00270401C491E022904D320
:1042F000830702D50280801C891EE3E70022EEE7D7
:104300000022DFE7002203098B4273D3030A8B42AA
:1043100058D3030B8B423CD3030C8B4221D312E0C6
:1043200003460B437FD4002243088B4274D3030916
:104330008B425FD3030A8B4244D3030B8B4228D3B7
:10434000030C8B420DD3FF22090212BA030C8B42DD
:1043500002D31212090265D0030B8B4219D300E07D
:10436000090AC30B8B4201D3CB03C01A5241830B02
:104370008B4201D38B03C01A5241430B8B4201D3B2
:104380004B03C01A5241030B8B4201D30B03C01ADB
:104390005241C30A8B4201D3CB02C01A5241830A55
:1043A0008B4201D38B02C01A5241430A8B4201D384
:1043B0004B02C01A5241030A8B4201D30B02C01AAE
:1043C0005241CDD2C3098B4201D3CB01C01A524115
:1043D00083098B4201D38B01C01A524143098B429E
:1043E00001D34B01C01A524103098B4201D30B0187
:1043F000C01A5241C3088B4201D3CB00C01A5241AC
:1044000083088B4201D38B00C01A524143088B4270
:1044100001D34B00C01A5241411A00D20146524109
:10442000104670475DE0CA0F00D04942031000D328
:104430004042534000229C4603098B422DD3030A7D
:104440008B4212D3FC22890112BA030A8B420CD38D
:10445000890192118B4208D3890192118B4204D3B6
:1044600089013AD0921100E08909C3098B4201D336
:10447000CB01C01A524183098B4201D38B01C01A70
:10448000524143098B4201D34B01C01A52410309E7
:104490008B4201D30B01C01A5241C3088B4201D396
:1044A000CB00C01A524183088B4201D38B00C01A43
:1044B0005241D9D243088B4201D34B00C01A52411A
:1044C000411A00D20146634652415B10104601D3A7
:1044D0004042002B00D54942704763465B1000D331
:1044E000404201B50020C046C04602BD704770473B
:1044F0007047754600F024F8AE46050069465346FD
:10450000C008C000854618B020B5FFF7B3FD60BCF9
:1045100000274908B6460026C0C5C0C5C0C5C0C5ED
:10452000C0C5C0C5C0C5C0C5403D49008D46704727
:1045300010B50446C046C0462046FFF76EFD10BDCC
:10454000004870471C09002001491820ABBEFEE757
:1045500026000200704770B58C180578401C6B0768
:104560005B0F01D10378401C2A1106D10278401C50
:1045700003E00678401C0E70491C5B1EF9D12B0726
:1045800005D40023521E0DD40B70491CFAE70378A2
:10459000401CCB1A921C03E01D780D70491C5B1C5B
:1045A000521EF9D5A142D8D3002070BDF0B589B014
:1045B0000190354C20684021405C039004A8C01C49
:1045C000009032480778FF208500012601E02F483F
:1045D000077004A8877007F085F90021002813D020
:1045E000FAB2813A032A30460FD8C0467A4412798B
:1045F000520097443901010104A8C27800790002F1
:104600008018A842304600D1084621687F1C002847
:1046100005D141228A5C7F233B409342D9D340316C
:10462000002827D0087804A90978C91C8142039A78
:10463000CDD88A4223D3019B197004A841785970C0
:104640008178997000780290D81C019000990392AB
:10465000029AFFF7F6FD029901984018019003981D
:10466000401AC01E0390B2E704A8C078FF28304665
:10467000CBD1C9E78020054A10700878039A101A38
:10468000411E884109B0F0BD9C0A00207A0B002031
:10469000F0B589B0C04E3078002849D0B0780128F4
:1046A00003D103F07BFC002842D00025B57071785F
:1046B00004292ED8880001A21058874635470008E3
:1046C000D14600083F47000865470008D14600086A
:1046D00002207070307805281CD8C04678440079D4
:1046E00040008744254D025B768AF521AB48425C49
:1046F000002A00D19CE30269A94B1B689B1AF62291
:10470000825CD41E012C00D919E2642B00D294E201
:104710001DE2307800280BD006F076FD00242046FC
:1047200003F024FA01203080B470642006F04EFDBE
:1047300009B0F0BD9B4806F005FD09B0F0BD0325AA
:10474000757030780528E5D87844007940008744B2
:104750000217037217A2EBE79048806A06F0F2FC9A
:1047600009B0F0BD0127777030780528D2D8C0464F
:1047700078440079400087440203A3D803F2D7E7C6
:1047800006F042FD0024204603F0F0F901203080BD
:10479000B470642006F01AFD09B0F0BD012900D004
:1047A0000BE14D247D49085D52228A5C4B68DD682F
:1047B0002D7A002D09D0002A07D0401C0855C5B21B
:1047C000DF683F7ABD4200D396E2000600D0F7E0F2
:1047D000A1E25A20714C0027275220465A304780C8
:1047E000012008907070256808202856002800D500
:1047F0002CE1A97A20465E3031E131216748425CE4
:10480000002A0BD04268664B1B689A1A2323DB00F0
:10481000DB339A4200D8A0E100224254A4210022B6
:104820004250A021604B4350332142540262012187
:104830007170D3439EE15220584F385C00280FD04E
:10484000FF201630395C491C39547868C068007AFA
:10485000002805D04D21795C401E884200DCE2E250
:104860000120707038462430006806F06BFC4F4819
:104870000024214604F074FF38680068002800D145
:1048800056E7E8013C50381844604948214604F096
:104890004FFF09B0F0BD414CA06906F053FC302039
:1048A000205CFE210140082900D041E73520215C31
:1048B0004A1E622A00D93BE7491C215409B0F0BDC9
:1048C000F5213648415C002900D1E0E0F621425C48
:1048D000002A00D1DBE0F723C15C002900D1D6E03B
:1048E000D11E022905D341684968097A002900D1FF
:1048F000CDE00021C1548368F824035173685B68DC
:10490000FC240351022A01D100F004FC032A01D146
:1049100000F007FC042A01D000F009FC426852684C
:10492000531C5268042400F008FC1C4D6868C068E1
:1049300062210791405C012800D0C7E23320C0000B
:104940002B183F20C100685C40001A5A6818447850
:1049500064001C5B944200D9F6E10022F5E10F4CA3
:104960002046373020210890FFF7C8FC3020205C1B
:10497000401E092800D9B0E34000C0467844808832
:1049800040008744170076037A037D0386038A0379
:104990008E0392039503A103880A00207C0B00205C
:1049A0000002002088130000DD5F0008F5580008B1
:1049B000E9560008372027548FE35220E8490A5C63
:1049C000002A19D0E6488168E64A1268511A826CBA
:1049D000137952791202D21891420DD3522200213A
:1049E00081540122120281548018FF2292004260F9
:1049F0008260DD4804F09CFE4D25D94C6068C0689B
:104A0000007A002806D0605D002803D1D748002135
:104A100004F0A6FEE020D64921505220205C002858
:104A200000D1C1E06168C9680A7A002A04D0635DD8
:104A3000521E9A4200DC40E1E421002207926250BB
:104A40002146002800D1BCE01C31BBE05E200021E3
:104A5000215220465E304180A97A20466230FFF71D
:104A60004DFCE06821699422A05098202150297AB9
:104A70000F20084002280FD0032822D16068A168C7
:104A8000401C8842089B00DB384660601BE0C06920
:104A900006F058FB09B0F0BD5621605C401C605424
:104AA0005722A25CC3B2934206D30020605458211F
:104AB000625C012353406354C0B240002018808AD6
:104AC00000E06068089B9C216050287A000703D1B1
:104AD0000020C0439021605088210020605058225F
:104AE000A15C5940A1542A7A9206920F04D0012A5F
:104AF00001D1014600E019462046AC304170072044
:104B000028560002A9794018A0216050287A400652
:104B1000C00FAC216054E87E012806D1AE200021F0
:104B200021542320C000A82160500120B0702046ED
:104B300059308834214603F03DF809B0F0BD2324F4
:104B4000E400DB34A34278D9022A00D06EE1894820
:104B5000002104F0EDFD09B0F0BDA421864A4250C9
:104B6000A021864A42503322002181540162036908
:104B7000CA43633AAC240251A8228350BE22815416
:104B80003221415CBD2281540121B1700246AC3218
:104B900011747B490023C46854609360D160A030D5
:104BA00002F00AFB09B0F0BDE421764A6250216CA4
:104BB0004942EC22A150002107912146002800D053
:104BC00042E734310968E822A150F4210022625002
:104BD0004F21635C5B1C6354655D002D0890254686
:104BE00001D0143500E010352D68F027E55150252F
:104BF000655DDBB2AB4202D25121615C06E06254DA
:104C00005123E55C01216940E15413465A00A36C2D
:104C10009A189579D77901225140512021543802B0
:104C20004019F8250695605149201D5C4833002D38
:104C30000ED0012D0BD100210AE02B21CA0000214A
:104C4000815055229200504B8350026AFBE011467E
:104C5000FD27E1550899484248411978FE23E05460
:104C6000FC256155B2702046E03002F0A5FA0798A5
:104C7000002803D04548002104F05AFD2068006850
:104C8000002800D154E565208000002121540698B9
:104C900020583122D200A050632080002150605D56
:104CA000FF2196316054E05DCB214900605419200A
:104CB0000001E169215009B0F0BD64310A78002A91
:104CC0000AD04E22A25C921F531E9A4149784B1E75
:104CD0009941914200D1ECE0E16922685368323396
:104CE0008B4200D3DBE0E423294FE7505268FA2AD5
:104CF00000DCFA22891A5CE700200855DC6864258C
:104D0000645D002C07D04E240D5D6D1CEFB2062FA4
:104D100000D828460855886C047845782D022C194F
:104D20008578C078000240190004001900D147E6D8
:104D300004227270DA68127A002A01D0896B401856
:104D400006F000FA09B0F0BD01220892825C520020
:104D50009A5A847864001C5B94421BD8089C1AE021
:104D60007C0B0020000200208D6D0008F558000823
:104D7000116200085D57000885580008DD5F0008D3
:104D800080E5F9FF41570008615F0008F55200080F
:104D9000315700080224025D52009A5AC078400040
:104DA000185A904200D903247F2080002A5CFF2AF1
:104DB00000D18BE006902046A0242C595200049488
:104DC0009C52089028180390405C01904200985A29
:104DD000059006982A5CAC183B22D0000294225C15
:104DE000FF2A4BD00692059C049AA2426DD90590E9
:104DF000029A1018FF22027090000022D5431F3D36
:104E000003E010469B1C6D1C58D2DD4A5219525CBF
:104E1000FF2AF7D11A88904201D92C4620349042BB
:104E2000EFD80246EDE738462C301DE5002242540B
:104E30002B21C9000022425055218900D24B4350FA
:104E400001217170D24357239B00C250B9225200F6
:104E500081542D21C90000224250592292008369B9
:104E600083500122B27041180A81C84A4A60552114
:104E70008900401802F0A0F909B0F0BD039A059B23
:104E8000049C9C4221D251182A18FF2301981354E4
:104E900006982B5C0B70285C089C145416E0E421E7
:104EA00000226250012107912146002800D0CBE565
:104EB00087E6532100226254E421BFE5069AB04DF3
:104EC000A8184454281905994254089C5321685C39
:104ED000002860D00691089457202B5C7F22194649
:104EE0000392114029543F2101910B406A68D46814
:104EF0006321645CE407640EE3182B545F241C40B8
:104F0000D36864255B5DDB079B0E1B199C4C235407
:104F10006F241C40D36865255B5D994DDB07DB0E74
:104F20001B192B54D06840682B4657330593D85132
:104F3000D068405C002802D070684068E865842032
:104F400000210491295029468431E868C860286A04
:104F500008614F20285C02904000AC6C009025183E
:104F6000A879ED792D02281848614620205C254655
:104F70004635EB571B0218188861A878804D24230A
:104F8000C854049B4920245C012C14D0002C11D15E
:104F900051202B5C0FE06868C0680799405C0128CD
:104FA00003D17F208000FF212954E86B06F0CAF866
:104FB00009B0F0BD3B46A92004902B54D068079A55
:104FC000805C0128059C29D103988000029A2A540C
:104FD000A8183B22D200825C2320C000FF2A08D000
:104FE000009AAA183323DB00D25AFF231A339A42BD
:104FF0000ED3089AAA18019BDB00D25C5200AA18B3
:105000003323DB00D25A824200D30246002301E060
:1050100002230246A4202A50AA202B540127B7704D
:10502000204602F0C7FD2868006800281CD02D200B
:10503000C1006C50A86C4A22805CA822AA5CFF23A5
:105040007E33EA54049AAA5CBF235B00EA546918D1
:105050000F759822AA589C23EB58AC69091D1DC1F5
:105060004B48002104F064FB00200699685409B005
:10507000F0BD3720022121542FE03720032101E029
:105080003720042121543420205C402825D3606A35
:1050900022E03720052121541FE03720062121542A
:1050A0001BE037200721215417E03720082101E0B9
:1050B0003720092121543520205C64280DD3362067
:1050C000205C3821605408E037200A212154A06A6E
:1050D000E16A0322089B99522087A5652948E0666A
:1050E000A06860666069A06620680421415E21674F
:1050F00081797C22A154007A002801D13220255CDC
:105100007D202554B77058340898214602F052FD8E
:1051100009B0F0BD3C22825E43685B6851330124D4
:105120000BE042685268531C5268022405E03C229E
:10513000825E43685B6851330C461B782525ED0081
:10514000435547239B00C25001221302C45411242B
:10515000240145690551FF242A3401552324E40024
:105160000A4D05514524A400456A0551B270C21884
:105170005160111DF83002F01DFD09B0F0BDC046B0
:105180007C0B002080E5F9FF615F0008D055F3FF3C
:105190000D570008F0B59BB00D46364E317800290A
:1051A00065D0009006F030F80024204602F0DEFCC6
:1051B000F620314F3C54F5203C543C6381204000A4
:1051C0003080B470009821C768686821083FFFF7F5
:1051D00097F82A4DA98901A881810ECD019128490E
:1051E00001800393029210A901220C3D02F0B0FA53
:1051F00005A92846224602F0ABFA089B3233BB6170
:105200000A98C83038620C9D284664300B9E3218CC
:105210006432B862FA62079900915B18099FDB1942
:10522000179F1699C919109FC9199631CB1A00D228
:105230002346114F7B627119059C0D19C8351399CE
:10524000129E7118149E8E193236AE4204D9711B0B
:105250008A180818B862FA62642078610099C9183F
:105260000919069A89186431F96105F0AFFF1BB07E
:10527000F0BDC046880A00207C0B002020CF00082B
:105280002709000010B519480078022828D1184CC9
:10529000A168886800690279531E042B03D209684B
:1052A0000120884710BD002A14D18179C91E4170A0
:1052B000A06880680069C179C91E8170A068816892
:1052C0000969097B00290CD00268E068216904F0B3
:1052D0005FFC10BD00F0D8FCA06801680020884782
:1052E00010BD01680120884710BDC046E00A0020BB
:1052F000680F0020F0B581B00E480078032816D161
:105300000D4D6E68F0686321415C002901D00927CA
:1053100000E00527C07839182C4657342046FEF7A0
:10532000EDFFE0197168884753200121295401B02D
:10533000F0BDC046880A00207C0B0020F0B589B083
:105340000746E2480078032800D0BDE1E04B187E14
:10535000002805974ED1187F002800D0E7E0D87EBE
:10536000002800D039E15C7F002C00D13DE19A7F1C
:10537000500098770121154608910D409107CE0FF6
:10538000AD195607F60FAD191607F60FAD19D6066B
:10539000F60FAD199606F60FAD195606F60FAD19B4
:1053A000EEB29D682D692D78AE4223D24726F600D5
:1053B0009E598F27BF00DF59B742059F0AD1012CA4
:1053C00008D04B24A4001C5D1C194926B600A45D1E
:1053D000002C0FD022241C5DFF2C0BD0022D02D8F4
:1053E000002904D006E0042D01D8D20702D1089983
:1053F00008439877B74A3878797809020818B97855
:1054000009044018114620310140080CDA7FB870B9
:105410001007800D08433870020A7A702024195D45
:105420007A703870B9701A7E002A1D4600D0C3E029
:10543000AA7FD20700D1BFE06A7F012A00D1DCE059
:10544000232007902A5C4B20800004902B5CD0180E
:105450000721069108402E184921039189000891DF
:105460000296765C714271412226AF5D3E46D6407F
:10547000F60700D1DAE00294C80735D1521CD018E3
:10548000069C224007996A5420402E182C46089901
:10549000755C694269413D46D540ED072546EBD133
:1054A000089AB218029C002900D1C5E04721CE001D
:1054B000A9598F239B00EB588B4245D9591AAB68E9
:1054C0001B699F78B94200D80F461770A9596A68BE
:1054D000126851184001281824303A46FEF7B1FEF0
:1054E000A859C019A851A7E07B49002068547B4AFD
:1054F000A854089BE8508F229200A8504722D2005F
:10550000A850049AA854039AD200A854687769183E
:10551000C871887148710871C87088704870E9183E
:105520004860059F2B46187F002800D117E7387880
:10553000C0210140481C3870986800690078F870F4
:105540000020187709B0F0BD43D203965F1A69684E
:10555000AB684E68F6191B699B789E4200D83346AB
:105560001370039FEE594A680196921B9A42029368
:105570001E460B4600D816461A680199511840017C
:1055800028180090243032460193FEF75AFE019B02
:10559000E8598019E8515968884200D30020E85141
:1055A0000298821B48D0009880192430196816464A
:1055B000FEF747FEEE513FE0A8688168F81C884777
:1055C0003F2101403878C02202405018387009B09D
:1055D000F0BD0020079968542EE03878022101437D
:1055E000C2200840387009B0F0BD3878042101436A
:1055F000C4200840387009B0F0BD80B209044018DA
:10560000010A7970010CB97036490140C81C387024
:1056100000202855212168542221685423216854F0
:10562000FF20E8830220687709B0F0BD089A029B4A
:105630009A18002900D039E70798285C2121695C75
:1056400009180F220A40059E317873781B025918F9
:10565000B3781B04C9182F239943511810220A4309
:105660000499695C3270130A73702F462D5D737054
:105670003270B57092B22B04D218164B1A40130C2C
:10568000FD7FB3702D07AD0D154335702A0A72707A
:105690004018069908403C180899625C3570B37050
:1056A0000F4B2B409206120C9A18120A7270625C11
:1056B000400139182431F01CFEF7C3FD0799785CCE
:1056C000401C069A1040785409B0F0BDE00A002052
:1056D000680F00201FFCFF002D02000035020000B3
:1056E000DF03FF00C0FFFF0080B5064800780328F5
:1056F00006D10320C00104490818096809688847D1
:1057000080BDC046880A00207C0B002080B506487A
:105710000078032806D12D20C00004490818096824
:105720000968884780BDC046880A00207C0B00209D
:1057300080B50248002103F0FBFF80BDF552000850
:1057400080B504480078032803D10348002104F001
:1057500007F880BD880A0020F558000870B50A488F
:1057600040680568094E307800280BD005F04CFDE4
:105770000024204602F0FAF901203080B470642041
:1057800005F024FDA84770BD7C0B0020880A00208E
:10579000F0B59BB00546364F3878002865D005F047
:1057A00033FD0024204602F0E1F93220314E34541A
:1057B0003486FF2006303880BC703560687A002857
:1057C0000CD1786800680021C17281724172017247
:1057D00029490A0AC271817142710171274DA98953
:1057E00001A881810ECD0191254901800393029288
:1057F00010A901220C3D01F0ABFF05A92846224665
:1058000001F0A6FF089D32350A98C830F560306176
:105810000C9A104664300B9B19186431B061F16129
:10582000079FED19099FED19179F169EF619109FF6
:10583000F6199636751B00D225460E4E75619A18DC
:10584000059BD218C832139B129CE318149C1B1999
:1058500032339342344604D99A1A51181018A06171
:10586000E1616420A06005F0B1FC1BB0F0BDC04652
:10587000880A00207C0B00200080FFFF30CF00084A
:1058800020200000B0B53324074D285D411FC9B268
:105890000F2905D801F024FC296A08182862285D20
:1058A000401C2855B0BDC0467C0B002001210902D8
:1058B000044A5358036051188A68826049684160FD
:1058C0007047C0467C0B002008480078032809D1A7
:1058D0000748806C4621415C463040780002401801
:1058E00000B27047002000B27047C046880A00200E
:1058F0007C0B0020F0B583B0D0480078032800D09E
:105900009AE1FF2108461630CD4E305C202800D2A7
:105910008FE1029145208000345C8B204500775D4B
:10592000F0192321C9004454002C019112D04320C6
:1059300080000095351830582146FEF7E3FC7900C9
:105940006E18B0836868009D2146FEF7DBFCB087C7
:10595000BB4E05E0780030182521C900029A42525A
:1059600043208100002070507A1CD3B20F2B0346D5
:1059700000D813467355711808814860029F384655
:105980001830315C0F2904D84A1C32540F2900D03A
:105990004FE12520C000325A0198315C0025FF2AD2
:1059A0002C4600D00BE1FF2A284600D00CE1FF2A4C
:1059B00004D02922D200B25A51430D469521490004
:1059C000715AFF290AD03A461A32B25CA5235B000D
:1059D000F35A53435D19A418514308184B21890009
:1059E000715AFF290AD08D225200B25C53239B00CA
:1059F000F35A53435D19A4185143081897214900DD
:105A0000715AFF290AD03A461C32B25CA7235B00C8
:105A1000F35A53435D19A41851430818132109017F
:105A2000715AFF290AD047229200B25C15231B014C
:105A3000F35A53435D19A41851430818992149009A
:105A4000715AFF290AD03A461E32B25CA9235B0084
:105A5000F35A53435D19A418514308184D21890086
:105A6000715AFF290AD08F225200B25C55239B0045
:105A7000F35A53435D19A418514308189B21490058
:105A8000715AFF290AD03A462032B25CAB235B0040
:105A9000F35A53435D19A418514308182721C9002C
:105AA000715AFF290AD009225201B25C2B23DB0074
:105AB000F35A53435D19A418514308189D21490016
:105AC000715AFF290AD03A462232B25CAD235B00FC
:105AD000F35A53435D19A418514308184F21890004
:105AE000715AFF290AD091225200B25C57239B00C1
:105AF000F35A53435D19A418514308189F214900D4
:105B0000715AFF290AD03A462432B25CAF235B00B7
:105B1000F35A53435D19A41851430818052189010C
:105B2000715AFF290AD049229200B25C0B235B0113
:105B3000F35A53435D19A41851430818A121490091
:105B4000715AFF290AD03A462632B25CB1235B0073
:105B5000F35A53435D19A418514308185121890081
:105B6000715AFF290AD093225200B25C59239B003C
:105B7000F35A53435D19A41851430818A32149004F
:105B8000715AFF2926D13746002C31D02146FEF725
:105B9000B9FB064628462146FEF7B4FB811B7A6C0A
:105BA000891ACA179143A02900DBA021254A525C1B
:105BB0000839992927D31146202C27D227E00C46F3
:105BC000FF2A284600D1F2E610464843FF2A00D0BB
:105BD000EFE6F3E63A462832B25CB3235B00374681
:105BE000F35A53435D19A41851430818002CCDD122
:105BF0000120000200213E463954381802998900DC
:105C00004160816015E01421202C00D31146CAB2F6
:105C10001E2A03D80A46402C03D203E01E22402C41
:105C200000D30A46012109027A5479184E603E4693
:105C3000886070688068804703B0F0BD880A0020E3
:105C40007C0B00207CCE000810B50C48007803289F
:105C500013D10B4CE07E00280CD020696169094A01
:105C60001268101A884205D900F00EF82168002049
:105C7000884710BDA068C068804710BDE00A0020BA
:105C8000680F002000020020B0B5084D28780028D9
:105C90000BD005F0B9FA0024204601F067FF01207F
:105CA0002880AC70642005F091FAB0BD880A00200D
:105CB00080B5084900228A7001220A8048600C30B1
:105CC00001F03AFA044805F009FA642005F07EFA7A
:105CD00080BDC046880A002091460008F0B585B016
:105CE00004469B480078032800D0C3E0002C0AD06B
:105CF000984EB07E002837D10120B076307E002843
:105D000014D002202FE0934C2068002806D0FFF723
:105D1000BBFF21680020884705B0F0BD0020A076B9
:105D2000A1680A680146904705B0F0BD8A4A002084
:105D3000B0548A4970544923990070508F25AD00A2
:105D400070514725ED0070514B25AD007055DB00BB
:105D5000F054B218D071907150711071D070907071
:105D600050707118486070772078617809020818BF
:105D7000A1780904401830210140102943D1307E18
:105D8000002877D1707F022874D3204600F0F6FAFD
:105D900000286FD02078617809020818A1780904DA
:105DA0004218F07F101A0F2301461940072961D8C5
:105DB0001204920E60D0039320250192725D01239C
:105DC0008B40D9B21143009171556449715C4718F9
:105DD00007200290074078013018FF212E310491EE
:105DE0004018E11C019AFEF72CFAF0195A4C01995F
:105DF00001550098C00748D1B068426800200146AC
:105E0000904705B0F0BD3F252840032815D0012854
:105E10001AD1307E00282DD1E078B1680969087068
:105E200001203077F07E002824D00024F4763168F9
:105E300001208847346005B0F0BD307E002819D1BC
:105E40000120707705B0F0BD307E3168002906D0A2
:105E5000002804D00120884700203060307E0028D0
:105E600002D1204600F08AFA20782840B1680A68FA
:105E7000E11C904705B0F0BD0029FBD0307E002822
:105E800032D00220707705B0F0BD344BF05CC0B268
:105E90003118095D002920D040013018049A80187B
:105EA000B268526827461C4690470028E2D0234635
:105EB0003C46F05C30180021C155715D48087055B2
:105EC000F05C401C029A1040F054F27F521C039F79
:105ED0003A40F2778907DAD4CCE7307E002818D030
:105EE0000220707705B0F0BD1B4A0020B0541B495A
:105EF00070544923990070508F24A40030514724D6
:105F0000E40030514B24A4003055DB00F054B218AB
:105F100011E000203055F0544922910070508F2339
:105F20009B00F0504723DB00F0504B239B00F054C4
:105F3000D200B0543219D071907150711071D0707C
:105F40009070507071184860707705B0F0BDC04611
:105F5000E00A0020680F00202D020000350200003A
:105F6000F0B581B00446F520194E305C00280ED003
:105F70002078617809020818A178E2781202511895
:105F800009040818B168884205D001B0F0BD262088
:105F9000205CFF2817D0F06A05F0DCF80D4F0320D5
:105FA00078700025284601F0E1FDBD70FF202E30FD
:105FB000301827222146FEF744F90748294603F006
:105FC000B7FB01B0F0BD01F015FA01B0F0BDC0465D
:105FD0007C0B0020880A00209D640008F0B581B089
:105FE0000146884D284680302022FEF72AF9E869CC
:105FF00005F0B0F83120012100912954824E032789
:106000007770824800686860286A08300009286252
:106010000024204601F0AAFD3246B4708020285C9E
:10602000401E092800D977E02E46C0467844007902
:10603000400087440443516509737B8EA30E3020D2
:106040000099315401B0F0BD30200521315401B028
:10605000F0BD3020315C0A295ED0322174540A210F
:10606000315403F0C5FF054684243059401BB0620B
:106070003746843703F0B8FF634A03467868C01A8E
:10608000F0623168487A002846D13059C0030E4684
:10609000294614461D46FEF735F961680C682071E3
:1060A000000A60717868C0032946FEF72BF9A071D9
:1060B000000AE0713068804701B0F0BD3068407A76
:1060C000002804D18120305C51680968C8723020F2
:1060D0000221315401B0F0BD3020315C03296AD176
:1060E0003421705C3F2817D8421C7254316A726A9E
:1060F000511871623F280FD18809706201B0F0BD5C
:106100003020315C04295ED13068407A002863D0A9
:106110003421705C3F2868D901B0F0BD30200621E1
:1061200031543068407A0028F6D109E032200099D5
:1061300031543020072131543068407A0028EBD1A7
:1061400081203056010A526812685172107201B0F3
:10615000F0BD3020315C082907D036217454352138
:10616000745432217454082131548120305C002849
:10617000D2D13520315C6329CED814E03020315C97
:10618000092908D036217454352174543221009ADB
:106190007254092131548120305C0028BCD1352053
:1061A000315C6329B8D8491C31543620315C491C14
:1061B000315401B0F0BD3754342000993154306A65
:1061C000706201B0F0BD3421745404213154746202
:1061D0003068407A00289BD18120305C5168096882
:1061E00088723421705C3F2896D8421C7254316A00
:1061F000726A511871623F288ED18809706201B0AD
:10620000F0BDC0467C0B0020880A00200002002060
:10621000F0B583B0014600784A78120213181806C8
:1062200046D551484568E8686322875C5A06D20F14
:1062300097423DD10446633462789B06DB0F02929D
:106240009A4235D18B1C1E785A78120292199E7888
:106250000195DD782D02AD19434E2D04AA1845682D
:10626000AA42019D24D1002F0CD0029A002A0BD003
:10627000A278002A08D01A7A5C7A2402A2189C7AA2
:10628000DB7A07E006221FE01A795C792402A21863
:106290009C79DB791B021B191B049A18334B5B6832
:1062A0005B689A4204D1029A002A0CD00E220BE0BD
:1062B00052202D49085C002801D003B0F0BD01F048
:1062C00099F803B0F0BD0A22807812183446AC3435
:1062D0002046FDF7B6FFAC20305A1F2101404F2267
:1062E000B1544104490F4E22B1540005000F4D2115
:1062F0007054E968097A002904D0491E814206DCFD
:10630000032505E0304628300125374608E0012501
:10631000814202DC3046303001E030462830124FF6
:10632000006804F017FF114E75700025284601F033
:106330001DFCB5700E48294603F0FAF90D482946B0
:1063400003F00EFA386800680028B6D00320C001B8
:106350003C503818B96C4B22895C416006480021DA
:1063600003F0E6F903B0F0BD7C0B0020880A0020A2
:1063700041670008F5580008E9560008F0B582B0FA
:10638000212643498A5D037844782402E3188478FF
:1063900024041B199C09A51A0F221540082D1FD98A
:1063A000087E00283FD13B4B0020C8543A4A88540D
:1063B0004924A20088508F25AD0048514725ED00A3
:1063C00048514B25AD004855E4000855CB18D8710D
:1063D000987158711871D870987058708A1851E077
:1063E000002D2FD0009201964B2294000E5D01E00B
:1063F0006D1E1DD0F2B28A184927BE00935D002B96
:106400000ED09219002313700A5D521C0726164005
:106410000E5523228F5C002FEAD07B1E8B54E7E7BA
:10642000087E002816D002204877002002B0F0BD78
:10643000027843781B029A1883781B04D2189409B7
:10644000019E009A14408C558078222288540120A5
:1064500002B0F0BD0F4A002088540F4BC854885139
:106460008F239B00C8504723DB00C8500855FB0012
:10647000C8548A18D071907150711071D07090709A
:1064800050708A1950604877002002B0F0BDC046B5
:10649000680F00202D02000035020000F0B581B029
:1064A000F525A44C605D00281ED101206055F62121
:1064B000002262542263A04909682161FF210A4633
:1064C0005232A35CA21810560002C018E0602E31B0
:1064D000605C61184A78120210188A78C97809023B
:1064E000891809040818A060FF273E465436A05DAD
:1064F0000146FB39042920D87944097949008F44A1
:106500000202494C5900A9204000235C032B00D310
:10651000C4E0012528469840218E01432186606809
:1065200040683237E119022B5DD129302022FDF776
:1065300088FE208E07285FD096E0F623E15C0229D2
:1065400000D1ABE041B2002902D4062800D9A5E071
:10655000002904D5FC220240802A00D09EE0764A21
:10656000126822610029009364D4394632316118DF
:106570004001C122121A202A00D3202220183430D0
:10658000FDF75FFEA05D0121814089B2208E0843A6
:10659000208667E0F620042101E0F6200321215443
:1065A00000F01CFBF72001212154634800682061A2
:1065B00001B0F0BDF620215C00296FD03237E15DDB
:1065C000E21953781B0259189378D2781202D21824
:1065D00012045118594A5268526891425ED1812181
:1065E00049002152E1E714225343C018401CFDF733
:1065F00028FE208E072837D1A05DFC2801D0062078
:1066000000E00520F621605400F0E8FA60680668B2
:106610004A4F387800280AD004F0F6FD00242046BE
:1066200001F0A4FA3D80BC70642004F0CFFDB047B7
:1066300001B0F0BD80214840A05539463231611883
:1066400042012068006880186A239A1A202A00D321
:106650002022FDF7F6FDA05D01218140608E0843F8
:106660006086208EC10701D101B0F0BD21463431D2
:106670004A78012A12D13422A25CC12A0ED189782B
:1066800000290BD17F28EFD13920265C002E0CD0B9
:106690009920205CC1070AD1002010E0002060553D
:1066A00026480121417001B0F0BD012002E0022125
:1066B00008404008618E0F2901D00028D4D11F4B1B
:1066C00059680989002904D0628F002A01D08A42C2
:1066D0000CD1002810D0206800684178012905D12C
:1066E00001786A2902D18078002805D00020605501
:1066F0000120587001B0F0BD1D4600F06FFA002E69
:1067000004D002370098275201B0F0BD60680768D6
:10671000287800280BD004F077FD0024204601F0F3
:1067200025FA01202880AC70642004F04FFDB847A2
:1067300001B0F0BD7C0B002000020020880A002080
:1067400010B582B01F4800681F4CA0605220215C29
:1067500000290BD101212154432080000022225026
:106760000902FF236354201842608260684600F0EB
:10677000D5FC432080002158009A89182150FF2120
:106780001631625C521C625420184168019A8918C3
:106790004160017A491C01726168C8686322825CA9
:1067A0000968002A05D063304078002803D00E2005
:1067B00002E0062000E00A202018AC30884702B032
:1067C00010BDC046000200207C0B0020F0B5A9B02F
:1067D000FD4C2278002A36D00F460C9004F014FDB0
:1067E0000026304601F0C2F94C20F84D2E54F968CD
:1067F0004F202E54FF231A4604322280A6700C9894
:1068000028600C976F600A460932AA642F228C5CBC
:10681000C87B0B90087C0A462F3257781A461632EE
:10682000AE54012212020D93AB545223EE54512365
:106830000E96EE543B021B1904020B9824189C423E
:1068400005D0202304E00025284629B0F0BD102300
:106850005020DE4F05903B54BB180D9882005A60C3
:106860009A600C9BDB6862241B5D5331012B44D181
:106870007F239B0000250C95D44CE5543323DD0089
:10688000D34BD24C63513B24E600D24FCF4CA7519F
:10689000F5246400CD4F3855CC484519CB488619AE
:1068A0000C98C7437760B760F760CB4C3482AA84FA
:1068B0006B60AB60EB602B616B61AB61EB612B627A
:1068C0000D9CEC34C1480D9B0355DF204000BF4CAC
:1068D00022523F20C000BD4C1346BE4A2250A02089
:1068E000BA4C23507761B761F761B84FB848A862D6
:1068F000E86228636863A863E863087B4A7B120246
:1069000012180FA882810A7A4B7A1B029A188B7A86
:10691000CC7A2402E3181B049A1811920A794B7955
:106920001B029A188B79CC792402E3181B049A185D
:1069300010920A784B781B029A188B78CC78240234
:10694000E3181B049A180F924A7802700978417074
:106950001EA9012200F0FCFEB86C4A3013A90E9A61
:1069600000F0F6FE64200D903225149A16980A90D5
:106970003230189BC8331A990E466436FE620D9C5D
:10698000FC600790386108957D610492BA610393B9
:10699000FB6133460E460E9838627B62209A219C3A
:1069A000A418019432341E9A3846A71819990991EF
:1069B000643102918D1917990B9100954D19FA3593
:1069C000AF42194602D9FF18791B4162069141680E
:1069D0000D91CD682D7A002D01460BD0229D2C19EA
:1069E00009983518139EAD19C835AC4202D9E31881
:1069F0005B1BCB62886C047845782D022C19857856
:106A00000C90C7783F027D192D042C192BD00A98C1
:106A10008863089808610B9E3046963014463234DD
:106A200084420D4603D9901B3238089028610D9995
:106A3000C868007A002838D015980A99401858225A
:106A40000C998A5C0A245443249A1219259C14191F
:106A500064343222844202D9201A0E9028620898A7
:106A60000790144638E00D98C168097A00292DD0A6
:106A70002499511858220C98825C0A24544309190D
:106A8000259A8A1896320A980B990918159C0C19A0
:106A900096343226A2424D4D0398029900D88EE0DA
:106AA000121B0E922A62344618E0089C6C61009A10
:106AB000643201989042029900D882E0801A1B1833
:106AC0006B62EB6207940693039807E03F4D069BC9
:106AD000EB6232242C610794039802995A182A63B6
:106AE000069F7A18AA62099D2A180B9E9219D2193C
:106AF00014190D99C968097A0029089411D04A1E01
:106B00006243049F64373C186419A419E3189A1867
:106B100007981018139A831815981B180E9C1D19A6
:106B200005E02546049F64371598139A0E9CBA1801
:106B3000101800190C9EB278F37834787778234EC9
:106B4000F063380200191B029A1812041018002969
:106B5000294601D00A996918002800D00D181B4E4B
:106B60000598305C441C0D9FF868017A00291AD002
:106B70002046FDF7C7FB0146694371630C9E3278DE
:106B800073781B029A18B378F6783602F3180F4E12
:106B90001B049A185118FA68127A4243A01A089AEC
:106BA00050430C1801E06C43089A74631D983264DA
:106BB0007064642004F00AFB284629B0F0BD344616
:106BC0008CE70794039889E7880A00207C0B002053
:106BD000FC03FC0300010203FFFF0000B0B5F62038
:106BE0004E4C205C411F022907D304280DD00328F6
:106BF00021D16068406803210AE0052800D188E0BF
:106C00000220616849680870B0BD6068406804216E
:106C10000170FF205030215C2018012280560002B4
:106C20004018616849684860A7204000205C61689E
:106C300049684870B0BD3520205C6168496848707B
:106C40003720205C6168496888703820205C616862
:106C50004968C8703920205C61684A6810724868C9
:106C6000A168416065686868216C0A0E02730A0CAD
:106C7000C2720A0A827241724420205A69684873BB
:106C8000000A88736868214646310F304022FDF7BC
:106C9000D8FA8620205A69684F228854000A4F315A
:106CA00048708820205C6968512288548920205CC3
:106CB000696852228854686821468A3153300E220E
:106CC000FDF7BFFA9820205C6968612288543E2055
:106CD000205C6968622288543F20205C69686322D6
:106CE00088549920215C01220A4069686423CA54AF
:106CF000205C8007C00F696865228854686853214A
:106D0000425C034653335B784354686854214254D1
:106D1000B0BD0120616849680870B0BD7C0B0020DF
:106D20000A490978042907D003290ED1084949687E
:106D3000C968522288547047054909680A7ACF23E6
:106D400013408007800E181808727047880A0020C8
:106D50007C0B002005490978032906D10449896C78
:106D600046228854000A463148707047880A00203D
:106D70007C0B002010B504F047FA0024204600F0F8
:106D8000F5FE0148847010BD880A002080B50348D4
:106D9000406801680020884780BDC0467C0B002009
:106DA000F0B59FB00446954D2878002800D122E127
:106DB00004F02AFA0026304600F0D8FE5820904F02
:106DC0003E5454203E52412080002880AE703C60EA
:106DD000E07A002801D10120E072207A0F210246DA
:106DE00003910A4051425141A37B0125AB435B18FB
:106DF00002211943A173002A04D0E27E521E53429D
:106E000053419E00FB2211403143A17340B2002840
:106E100001D4052100E00921A27A5118217300282C
:106E200001D4062000E00A20627A82186273207E74
:106E3000637E1B021B1805A88381237B657B2D02C3
:106E4000EB18A57BE67B360275192D04EB1805932C
:106E500042700170217D627D12025118A27DE37D96
:106E60001B029A18120451180791217C627C1202AD
:106E70005118A27CE37C1B029A1812045118069147
:106E800009A90126324600F063FC38680C3014A9C9
:106E90003D4600273A4600F05BFC2A68107A039BC7
:106EA0001840022804920AD2107851780902081872
:106EB0009178D2781202511809040F180CE008D109
:106EC000562000274E490F54E07E012807D010219C
:106ED00006E01C984A498860494D6F601BE02021FC
:106EE0005724474A1155012800D11F231C9800043C
:106EF000444940181946FDF705FA414D2946143119
:106F00003A46F303FB181B0C0B803F182B5D891CC2
:106F1000521C9A42F5D364200C9CE8602C610F98B7
:106F2000109909180E46C8360E9830180D9F3A462B
:106F3000963203928018049AD37A43430294181924
:106F400028610197C919AF235B00C918179B169CCC
:106F5000E7183237149C3B198B4205D9591AD37A5A
:106F60005B1E4B431818286109997118189BDB198F
:106F70008B4204D9591A0818214E306100E0204E86
:106F8000049D29796B791B02591817D03234039963
:106F90008C4204D90199611A081896383061029A16
:106FA0000B998918AA7E0A2353431A9AD2181B9B5D
:106FB000D21864328A4214D9511A10E01A99611811
:106FC000AB7E0A245C4309191B9BC9189631029AAF
:106FD000039B9A180B9BD218914202D9891A081860
:106FE000306129796A791202511801D04018306154
:106FF000642004F0EBF81FB0F0BDC046880A002002
:107000007C0B00200000FFFF80B5FDF7CFFA80BDAC
:107010007047000010B5044C60600F2001F044FA86
:107020000120207010BDC046980A00207047000063
:10703000F0B581B0184B187801280BD10121597097
:10704000164800789A78002A06D0002804D100203B
:107050009870187001B0F0BD5868C2680023104CD9
:10706000104D114E04E0BF1907819B1C402B0FD01F
:10707000D05E7D27BF014743C80338180714BD42BF
:1070800000DB2F460448C018A742ECDB2746EAE79E
:1070900001F050FA01B0F0BD980A0020E80A002083
:1070A000B80B000048F4FFFF7017000080B50348DC
:1070B0000078012801D101F029FB80BD980A002049
:1070C0007047000010B5044C2078012803D101F06E
:1070D000EFFB0120A07010BD980A0020012070472E
:1070E000B0B582B00B4DA878002802D0002002B0C5
:1070F000B0BD094801AC0322214605F039FA686A9F
:10710000016802228956C068A27852001018401AFD
:1071100002B0B0BD280A00204CCF000810B50446CC
:1071200005F0AAFA0348816CC06C2160606005F02C
:10713000ADFA10BD280A0020F0B581B01C4A00212C
:1071400051705062084604F035FC7D20C500284689
:1071500005F084FA0124204604F02CFC284605F0B2
:107160007DFA04F01FFC0028FBD1124D681C00269C
:10717000022731463A4605F0FBF9281D31463A46CA
:1071800005F0F6F9E81D31463A4605F0F1F92846D2
:107190000A300322314605F0EBF90E350922284664
:1071A000314605F0E5F90248047001B0F0BDC04673
:1071B000280A00205ECF0008F0B583B0524E317827
:1071C000012933D13061B078002803D000F03AF9BA
:1071D000002860D004F0E6FB002829D0B0680C211C
:1071E0007170817805220A40FF201030042A00D1F6
:1071F0007030326912698018890700D5643003F055
:10720000A1FF424881693269906809185369C91819
:10721000B1615168002938D0D268F2613162401CF6
:1072200004D0002004F0C6FB0120B07003B0F0BD14
:1072300002AC032222702046214605F099F92078FD
:10724000FF28CBD00028C9D002A88178B068C278C6
:107250009142C4D10725757030690069963003F0FA
:1072600071FFB768F8780190787800903446583408
:10727000601C391D2A46FCF7E4FF58208C2131544C
:10728000019801282FD000992FE00022F26131628D
:10729000401CC6D1CAE70C207070B0688178052206
:1072A0000A40FF201030042A00D170303269126980
:1072B0008018890700D5643003F044FF13488069C3
:1072C00031698A6880184A698018B0614868002866
:1072D00004D0C968F161306203B0F0BD0021F161F2
:1072E000306203B0F0BD0099091DF878032801D081
:1072F000E01C00E0601D017000210822044B2046C4
:1073000005F0F4F803B0F0BD280A0020180B0020A7
:107310001573000810B51C480169896900290AD451
:10732000836AC26A5208994207D2036B59435118C3
:10733000174A891807E0494205E0C91A036B4B4315
:10734000D118124A8918426A12680323D256382388
:107350008624C4540A23534359184A080D4B4B43FF
:107360000121C9045918090D51180B4A89183830E0
:10737000C1700A0A8270090C417000210422074B77
:1073800005F0B4F810BDC046280A002030CE060033
:10739000204E0000E31000008A9DB800A173000891
:1073A00080B506480069407F04F00EFB04480021C8
:1073B0000322044B05F09AF880BDC046280A00203D
:1073C0004FCF0008C973000880B50348002103228D
:1073D000024B05F08BF880BD3ECF0008E17300083A
:1073E00080B50348012200210B4605F07FF880BDDF
:1073F00052CF000880B50B480178012910D181785F
:1074000000290DD141780A290AD1092141700220B1
:1074100004F0DCFA044800210322044B05F066F86E
:1074200080BDC046280A00203ECF00083174000805
:1074300080B50348042200210B4605F057F880BDB3
:1074400053CF0008B0B5304DA87804280CD304F011
:10745000A9FA002807D00024204604F0ABFA012046
:10746000A8702046B0BDA878401E042810D8C04699
:107470007844007940008744020D141A2C0004F06F
:1074800091FA002400282AD00220A8702046B0BD1E
:107490000120B0BD012004F08DFA0320A870002067
:1074A000B0BD04F07FFA00281BD00020B0BD5020F2
:1074B0008A21295428465030A968C978417000248F
:1074C0000222124B214605F011F80520A870204633
:1074D000B0BD0024204604F06DFA0120A8702046BB
:1074E000B0BD0B486863401C00240222094B2146B2
:1074F00004F0FCFF686B01780422AA700818401C95
:1075000068632046B0BDC046280A002045750008C3
:107510005ECF00081975000810B5084C606B027842
:10752000002A09D0401C0021054B04F0DFFF606BEE
:1075300001780818401C606310BDC046280A00206E
:107540001975000880B5502108488B224254816883
:107550005030CA7A42700A7B8270497BC170002128
:107560000422034B04F0C2FF80BDC046280A00205D
:10757000757500080148002181707047280A0020B5
:1075800010B50E4C207801280FD1002004F01EFA0F
:10759000607809280AD103F00FFE0A2060700848BD
:1075A00000210222074B04F0A1FF10BD0448022273
:1075B00000210B4604F09AFF10BDC046280A0020A7
:1075C00057CF0008C975000880B504494031044808
:1075D0000422044B04F08AFF80BDC046280A002024
:1075E00041CF0008E975000880B543201149085CC7
:1075F000400606D4403112480722124B04F076FFB1
:1076000080BD0869807F0028FAD008780128F7D16A
:1076100088780028F4D148780A28F1D109204870E8
:10762000022004F0D3F9044800210322034B04F0A4
:107630005DFF80BD280A00203ECF0008317400089D
:1076400045CF00084976000810B51E48802181709A
:107650001B2141701C4CA168CA78012A01D0032269
:1076600000E0072249785218401C184B014604F0EC
:107670003DFFA068C07803280DD1606A016802222E
:1076800089564322A25C5200C0681018401AA064B8
:107690006069E06410BD606A016802228956422276
:1076A000A25C5200C0681018411AA16443202256FF
:1076B0008818202A04D36269511A202900D3104661
:1076C000E06410BD7C0D0020280A0020D17600085F
:1076D000B0B51B4CA068C178012911D14178194877
:1076E000001D425C43185D782D02AA189D782D0478
:1076F0005219DB781B06D51801F086FF854205D1AB
:10770000206901680F48001D8847B0BD2069807F4F
:107710000028FAD020780128F7D1A0780028F4D1E9
:1077200060780A28F1D109206070022004F04EF937
:10773000054800210322054B04F0D8FEB0BDC04629
:10774000280A00207C0D00203ECF0008317400087C
:10775000F0B583B006465C480078012800D0A4E06C
:1077600013460C46002A00921ED157498E6001AF85
:107770008A203870FF2080008864C864F0787870B0
:10778000002502223846294604F0F2FE8B2038708C
:10779000F07A7870307BB870707BF87004223846CD
:1077A000294604F0E5FE009B3178484841430A0C25
:1077B00011468D312160002B01D1434BD963B37841
:1077C000B82121615D0747239B00002D02D51D468E
:1077D000383500E0E425AA182260B278920700D577
:1077E00019468222A26100223223A260E360216155
:1077F00077787843000C3D30E061F5783078012DE2
:1078000000D1001DC1B2304600F072F86060012D59
:1078100000D13F1DF9B2304600F06AF86061032DD7
:107820000DD1F17A06202C4EA92911DDAA2914D0F8
:10783000C72922D0EB29354624D10C201EE0307B0D
:1078400034280DD026280ED018280FD1214D0EE057
:10785000692915D08629354614D10C20204E10E018
:107860007F20050103E07F20450100E0184D032043
:10787000684346080D20C04304E01020174E00E086
:107880000A2035466662A0621648401B3146FCF766
:1078900039FD471C1448401B3146FCF733FDC01925
:1078A000401C20620098002801D003B0F0BD0648BB
:1078B0008762C56206630D480ECC0EC02ECC2EC06A
:1078C0002ECC2EC003B0F0BD280A0020ABAA0000C9
:1078D0007A3F0000BE1F0000E02E0000B80B000041
:1078E0007017000030510600D0660500180B00200C
:1078F000F0B583B00E460546C078032813D1287929
:1079000010380421C841401E062816D30820697A81
:10791000302917D0202945D0102914D1761CE979B7
:10792000002913D113E0E87A50380421C841411EE0
:10793000052307291DD31F461CE080000C30697AFF
:107940003029E7D1F61CE979002900D0B61CEC7A81
:10795000B9217C4A7C4BA92C1CDDAA2C27D0C72C32
:107960002BD0EB2C33D1FF211031B2317D4A7E4B2D
:107970002DE0471D687B811E0020052933D8C046B5
:107980007944097949008F4402303336383A062168
:10799000029137E0692C17D0862C18D1F6216D4A58
:1079A0006D4B14E0B61CE9790029CFD1CFE71F2138
:1079B0000B04FF211031664A09E031210B04FF213D
:1079C00010317E31614A02E0C921644A644B5E4352
:1079D0000123DB03F418240C61185043C018000C79
:1079E000081803B0F0BD02930CE00721029109E0F2
:1079F0000821029106E0029303E0062000E008203F
:107A000002900120E979F400002920D1B91E0A2F43
:107A10000B4621D96A79002A019622D0002836D057
:107A2000009302984443072F3E4600D30E46B10010
:107A30006018401E80B289B2FCF764FC082841D36C
:107A4000F000C04300990818A20880181CE0103408
:107A5000B91E0A2F0B46DDD83B466A79002A0196EB
:107A6000DCD1B900072F00D208311C3900281CD006
:107A700007208143601A00D20020029948439900F0
:107A80000818401E80B289B2FCF73CFC19E0B8002F
:107A9000072F00D208300838201A00D200209900A1
:107AA0000818401E80B299B207E0601A00D2002088
:107AB00099000818401E80B289B2FCF723FC029995
:107AC000484308302A790F2111401209921C914035
:107AD000072F00D20831019B800044181134287B05
:107AE000342805D0262805D0182805D1012104E026
:107AF000032102E0022100E000217800C01CB84010
:107B0000029A121D5B001B1D5343181879184D1F54
:107B1000A8403421FCF7F6FB08A1495D41186E31FD
:107B2000A800074A135A6343101840886043000CAA
:107B30001818C01C8008081803B0F0BD0408101FF6
:107B400076CF0008ECC4000066260C00B1130300D9
:107B50004FEC0100D98901009A99180027F600001E
:107B6000713D0F009ED80300A4B03D0070B50446DF
:107B70000E4D287801280DD1A87800280AD104F0EC
:107B80007BFD6E780020687004F080FD002E01D02F
:107B90000A2E00D170BD0648002502222946234640
:107BA00004F0A4FC284603F011FF70BD280A002051
:107BB00057CF0008F0B583B00446804E30780128D6
:107BC00036D17160B0688078C00702D17C484068C7
:107BD0008860B078002803D0FFF734FC002852D02A
:107BE00003F0E0FE002825D0B7680C207070B8784C
:107BF00005210140042901D0572000E0C720F16B86
:107C00007268D2688918081803F09CFA7268906844
:107C100011690918B161116800292ED05268F2610A
:107C20003162401C04D0002003F0C4FE0120B0707B
:107C300003B0F0BD02AD03222A702846294604F0A5
:107C400097FC2878FF28CFD00028CDD002A88578CF
:107C5000B768F8788542C8D138780090391D304629
:107C600058300190401C0722FCF7EBFA58208C2179
:107C70003154012D2BD0009A2BE00022F2613162A9
:107C8000401CD0D1D4E70C207070B06880780521FA
:107C90000140042901D0572000E0C720F16B726831
:107CA000D2688918081803F04DFA716888680A6963
:107CB0001018B0610868002804D04968F16130628A
:107CC00003B0F0BD0021F161306203B0F0BD009A55
:107CD000121DF878032802D00198C11C01E0019818
:107CE000411D0A7000210822364B04F0FFFB344D81
:107CF0001A20A885B7683A782E3528462146FCF721
:107D0000A0FAF878012821D13978284601F07CFCC6
:107D1000B1680A78A8540978284601F075FCB16862
:107D20000A78AA18000A50700978284601F06CFCFD
:107D3000B1680A78AA18000C90700978284601F0FA
:107D400063FCB76839786918000EC870F16B706809
:107D5000C2688C18B97805220A40042A25D104216A
:107D60007170FF218900C1612630012141708C347E
:107D7000007802281CD11248456801F06DFCC0B2A1
:107D80006843C00A322800D83220F06071680A685F
:107D9000002A0DD049680A1A01D9322A03D3401AA1
:107DA00006D9312804D8F16002E0012070703C341B
:107DB000204603F0C7F903B0F0BDC046280A0020F2
:107DC000180B0020C97D000810B51C48416849699E
:107DD00000290AD4836AC26A5208994207D2036B07
:107DE00059435118174A891807E0494205E0C91A52
:107DF000036B4B43D118124A8918426A1268032355
:107E0000D25638238624C4540A23534359184A08A7
:107E10000D4B4B430121C9045918090D51180B4A48
:107E200089183830C1700A0A8270090C417000212B
:107E30000422074B04F05AFB10BDC046280A00205C
:107E400030CE0600204E0000E31000008A9DB800EE
:107E5000557E0008B0B51A4C606A61688969194A94
:107E6000914200D141688268891A02680123D35681
:107E70001B0212789A188918483100694542A942B4
:107E800000DB0D46002D12D4002003F09EFD7C2D5A
:107E900000DB7C25A81CC117890F401881080A48FF
:107EA000417000210322094B04F020FBB0BD0120EA
:107EB00003F08BFD606A006945197C2DEADBE8E779
:107EC000280A0020FF7F000004020020D17E000865
:107ED00080B5064840682521405C03F075FD0448E4
:107EE00000210322034B04F001FB80BD280A00207F
:107EF0004FCF0008F97E000880B50D488068817872
:107F0000C90704D1C178012908D0022107E0094836
:107F100000210322084B04F0E9FA80BD0621007815
:107F20000A1806482C300021054B04F0DFFA80BD0A
:107F3000280A00203ECF00085D7F0008180B0020B3
:107F4000457F000880B5034800210322024B04F05E
:107F5000CDFA80BD3ECF00085D7F000880B50C489B
:107F60008068807805210140042909D10A4804224B
:107F700000210B4604F0BAFA022003F027FD80BD71
:107F80000448012200210B4604F0B0FA80BDC0462F
:107F9000280A002052CF000853CF0008F0B583B064
:107FA0000B4E30780124012800D06BE27278501E0D
:107FB0000C2800D966E2C046784400794000874426
:107FC0001C2B5461676D7D9E0909A6ABBB00C046A2
:107FD000280A002031698868431C00D1B8E00028D5
:107FE00000D1C3E04B68002B00D1BFE0CA68002A73
:107FF00000D5C5E100228A6039E270682421405C26
:10800000411E884103F0E2FCB0688078C00700D0D0
:10801000D3E0EA480422D2E070688068401C00D1B6
:10802000ECE000257570B0688078C00700D129E2C7
:10803000B078002800D025E204F01EFB7778757038
:1080400004F024FB002F00D11CE20A2F00D119E21A
:10805000F8480222002529462B4604F047FA284614
:1080600003F0B4FC204603B0F0BD022070707068CD
:1080700081680069401803F065F8706800688047FF
:108080000024FFE1B078002800D1B9E00022C6E06A
:10809000B078002800D1F1E00020FEE0F1687068BF
:1080A0004268914200D09AE00225757087680469A1
:1080B000B178002900D183E1002192E1022003F090
:1080C00085FCF648042200242146234604F00EFADB
:1080D000B0688078800700D588E009207070316929
:1080E0004868002800D19BE18A68C868C517431911
:1080F0006B4018462230551C7BD0D21AF0E0092084
:108100007070B078002800D1F9E0002006E100206E
:108110007070204603B0F0BDB169002900D1B1E113
:10812000F0690024002800D135E10D227270C217D9
:10813000801850400A1A30E1B069002800D1A1E14E
:10814000306A8047F169002900D52CE1B06932E13D
:10815000CA684968CF480029014602D0D317D11810
:108160005940002A00DB82E1084680E1092A17D144
:10817000B078002814D104F07FFA74780020707071
:1081800004F084FA002C0BD00A2C09D0BF4802223C
:1081900000242146234604F0A9F9204603F016FCEA
:1081A000BB48806931694969081802F0CBFF0B2090
:1081B00070700024204603B0F0BDBA4801220021AF
:1081C0000B4604F093F971680868002800D1B5E007
:1081D0000320707048688A68121A8A603BE10523A0
:1081E00073708C1A8168091B81600FE10820707020
:1081F000862002F0A7FF204603B0F0BDA5482BE182
:10820000A54802AC0322214604F0B2F9706A016865
:1082100002228956C068A27852001018421A71686A
:10822000C869824200D2CA61084624300B6A9A4269
:1082300001D20022C2708278022A0FD10868002879
:1082400000D1F9E0F0684A68824200D9F5E00620E2
:1082500070708868801A88601046F9E0012A7CD026
:10826000C178002979D18948022200242146234679
:1082700004F03CF9204603F0A9FB79E0864802AC03
:108280000322214604F074F9706A016802228956BB
:10829000C068A27852001018401A7168CA699042EA
:1082A00000D2C8610A6A904202D2272000220A54F2
:1082B00076480225002421462A46234604F016F972
:1082C000204603F083FB7168086800280ED04868D8
:1082D000F26890420AD903237370801A8A68121ACE
:1082E0008A6002F02FFF204603B0F0BD75708868E9
:1082F0000969081802F026FF204603B0F0BD664861
:1083000002AC0322214604F033F9706A01680222AC
:108310008956C068A27852001018401A70613169FD
:108320004868002813D08A68C868C317C018584026
:10833000531C00D190E0121A8A608DE00220707008
:108340008868421C00D185E00969401883E088688C
:10835000411C00D080E04F487EE00078411E8841FB
:1083600003F034FB4E48042200210B4604F0BEF813
:1083700071680868002866D00320707048685EE065
:10838000D317D2185A40904200D80246831A322B93
:1083900068D31C4667E022460846B26102F0D2FE6E
:1083A000204603B0F0BD3220421A4842824202D831
:1083B000B269511800E00021B1614DE059CF0008C9
:1083C0003548019402AC0322214604F0D1F8706ACA
:1083D00001684957C068A278019C52001018411AE0
:1083E0007068C269914200D2C161026A914202D2B0
:1083F000272100224254E41924480222002529465C
:108400002B4604F073F8284603F0E0FA204602F009
:1084100099FE7068006880470024204603B0F0BDD4
:108420008868411C00D11B48223002F08BFE204698
:1084300003B0F0BD57CF0008F068052272708A685B
:10844000121A8A6004E002207070886809690818AE
:108450003B3001E00F481B3002F074FE0024204640
:1084600003B0F0BD00248C60322B00D3104602F024
:1084700069FE306940680024002803D08047204608
:1084800003B0F0BD204603B0F0BDC04657CF000892
:10849000180B0020881300004CCF000853CF0008B1
:1084A00059CF00085DCF0008B0B582B01F4D68609D
:1084B00000242C7000F034F96868C10709D18107E5
:1084C00012D441071BD4000724D40120687002B0E5
:1084D000B0BD0094164A20462146234602F036FFDE
:1084E0002C7268688107ECD500940120104A21465F
:1084F000234602F02BFF6C7268684107E3D50094B5
:1085000002200B4A2146234602F020FFAC72686825
:108510000007DAD500940320054A2146234602F0DD
:1085200015FFEC720120687002B0B0BDE80A0020AF
:10853000D5890008F0B583B06F4F7878012821D134
:108540003878002820D078680121014002D03A7A9A
:10855000022A17D1022502462A4003D0664B5B7AD5
:10856000022B0FD1430703D5634B9B7A022B09D112
:108570000307614B00D493E05F4BDB7A022B5E4B29
:1085800000D18DE003B0F0BD0024E0430290012053
:108590000090C003019008260AE013610320B8553B
:1085A0000022284603F0C0F8241D761C0C2EE9D0CA
:1085B0003546083D7868E840C007F5D04F48006868
:1085C000016A097802290AD1016909787118083904
:1085D000C906890E8269515A494A9142E4D0B95D6F
:1085E000002923D0022933D00129DDD1C1680069D7
:1085F000007830180838C006800E085EB91909796D
:1086000006224A43404989188A8842430198101833
:108610000014498841187D207D2900D801463A1967
:10862000136A5B1A7D2BB8D80346B6E70298401C44
:1086300005D1284602F088FF324940180290009B7D
:108640002D4FBB5500212846029A03F009F8ABE7ED
:10865000C1680069007830180838C006800E085ECE
:10866000B919097906224A43274989188A88424359
:10867000019810180014498842187D207D2A00D8DE
:10868000024639190B6A9B1A7D2B00D803460B61F1
:108690000320B85501210023284603F053F883E74F
:1086A00000245C70002907D00020014602F0BAFDCA
:1086B000114B586805402A46002A05D001200021A8
:1086C00002F0B0FD0C4B5868410704D400070AD4EF
:1086D0001C7003B0F0BD0220002102F0A3FD064B88
:1086E00058680007F4D50320002102F09BFD024BDF
:1086F0001C7003B0F0BDC046E80A00209C0A0020B0
:1087000001800000204E0000A2CF000880B5034881
:108710004078012801D100F003F880BDE80A00206C
:10872000F0B581B0192007015D4D6868C10708D117
:10873000810731D441075BD4000700D585E001B043
:10874000F0BD59480068416800690078C006800E95
:108750000A5C0818407800028118481E042805D8D1
:1087600006204843514A145ACEB20CE0322900D8B0
:108770003221B94200D3394648084A4A1043FBF730
:10878000C1FD0446002603F077FF2E732C6203F030
:108790007DFF68688107CDD543480068416800695E
:1087A0000078401CC006800E0A5C08184078000261
:1087B0008118481E052805D2062048433B4A145A12
:1087C000CEB20CE0322900D83221B94200D339466A
:1087D0004808344A1043FBF795FD0446002603F091
:1087E0004BFF6E736C6203F051FF68684107A3D5BD
:1087F0002D480068416800690078801CC006800E22
:108800000A5C0818407800028118481E052805D225
:1088100006204843254A145ACEB20CE0322900D82B
:108820003221B94200D3394648081E4A1043FBF7AB
:1088300069FD0446002603F01FFFAE73AC6203F02F
:1088400025FF6868000700D479E717480068416889
:1088500000690078C01CC006800E0A5C08184078C9
:1088600000028118481E052805D2062048430F4AF9
:10887000145ACEB20CE0322900D83221B94200D3CA
:1088800039464808074A1043FBF73CFD04460026DA
:1088900003F0F2FEEE73EC6203F0F8FE01B0F0BDFF
:1088A000E80A002000093D009C0A0020A2CF000831
:1088B00003484178012901D1012101707047C04668
:1088C000E80A0020F0B581B03E4A1418217A3E4BE8
:1088D0001B68042926D1D9681B691B781B18DB0685
:1088E0009B0EC95E237B06255D43394B5B199D8832
:1088F0004D430121C903691809145B88C9187D23F8
:108900007D2900D8194685005219156A6D1A7D2DEA
:1089100000D81D461561002202F006FF03212172D6
:1089200001B0F0BD5D684026AE5D40356F783F0216
:10893000BE19AF78ED782D02ED192D04AE191D6921
:108940002D782F181F253D40EE40F6070DD0052944
:108950001ED00329E3D1810051180969002202F0D9
:10896000E3FE0521217201B0F0BD167803290BD179
:10897000002E09D081005118096A002202F0D4FEAD
:108980000621217201B0F0BD062907D1002E05D0C5
:1089900002F0A4FD0221217201B0F0BD196A09782C
:1089A000022905D169009B69595A084B9942EFD0B9
:1089B000810051180969012202F0B6FE04212172DA
:1089C00001B0F0BDE80A00209C0A002001800000F0
:1089D000A2CF000880B50146014800F0D9FE80BD55
:1089E000C5880008B0B504460D4D2878002815D07C
:1089F00001F0E6F90B480C4941606168096B816040
:108A00000460022129706168084AC260C96938316E
:108A100011610834011D204600F0D6FEB0BDC046ED
:108A2000900A0020B40D00200D98000808020020D4
:108A3000B0B50446054D2878002806D001F0C0F9ED
:108A400005202870204600F07BFFB0BD900A002072
:108A500080B504480078032802D100F081FF80BD72
:108A6000002080BD900A002080B5034901220A70D1
:108A7000486000F0CDFF80BD900A002080B500F076
:108A8000D1FF80BD80B50D480078032813D10A4975
:108A9000886800280FD0CA68094B1B689A1A836837
:108AA0009A4208D34C220123835400228A604168F1
:108AB000022900D3884780BDB40D0020900A002011
:108AC00000020020F0B58AB004920C460790012005
:108AD00003908003019003204003009000273B4651
:108AE000059708973E4603E0099BBF1C402F72D0B4
:108AF000099333462246761D072E05D8144607985B
:108B0000C55F072E05D805E0541C0798C55F072EE2
:108B100000D9DE1E1078517809020A18DA400F23B6
:108B20001340022BE0D30694A8B2314C611E89B2E7
:108B3000884204D1581E039A8240069C25E0A04238
:108B400007D1062B05D3581E039981404A1C069C69
:108B50001BE0102002400198069C00D00098029073
:108B6000E917681848400299884200DB0846002A45
:108B7000204900D020495A00895A414303984003B4
:108B80000818820B002D00DA524208995D18002067
:108B9000C043984082438A4009980243082D11D36C
:108BA0000498027029460839130A089108290CD341
:108BB00043700599891C0591103D801C0490130C8D
:108BC000089592E7089513468FE70599491C05918A
:108BD000401C049089E70898002805D00498037089
:108BE0000598401C0AB0F0BD05980AB0F0BDC0461B
:108BF0000180000048D5000868D50008F0B582B0B3
:108C000000910028019233D0002116460A4602E066
:108C10002946401E2DD0347875782D022C19CC4071
:108C20000F252540AC182746072C0CD83A46072FAD
:108C30000DD84D1D072D0ED8072C0FD8072F10D893
:108C4000072DE5D910E0083F3A46072FF1D9083A39
:108C50004D1D072DF0D9761C072CEFD95B1C072F73
:108C6000EED95B1C072DD3D9C91E401ED3D100E01D
:108C70000022019801780F200840022859D3304C77
:108C8000009DA54203D1441E0121A14027E0641CA0
:108C9000A54206D1062804D3411E01248C40611C44
:108CA0001DE010240125214002D00324660300E0CA
:108CB000AE03009CE717E4197C40B44200DB344665
:108CC000002901D0204900E01E494600895B61432C
:108CD0006C030919890B009C002C00DA49428518A5
:108CE0000024E4438440A1439140E0439040C243C8
:108CF000082D15D318781040084318702E46083EEA
:108D0000100A0C0A082E16D35E78304020435870A3
:108D1000103D9B1C100C0C0C2E46002E05D108E0BB
:108D20002E4610460C46002E03D0197808402043EA
:108D3000187002B0F0BD5B1C002EF6D1F9E7C046FA
:108D40000080FFFF48D5000868D50008F0B583B063
:108D500015460A460446142102921046FBF7CEFA45
:108D60000095002D0194204600D0203000210F46B0
:108D7000029A0B4602E03B46891C1778465C441871
:108D800065782D02AD19DEB2B5403D431570455CE6
:108D9000647824026419B44055782D0225432C0AC6
:108DA00054700933DFB2083FFBB2072B03D8521CC3
:108DB0001E2903D106E0921C1E2903D0072BDAD905
:108DC000083BD9E70098002801D1019A01E0019AF7
:108DD000921C4020105C0299887440325078C8740C
:108DE00003B0F0BDF0B589B01F4616460E9C0023B7
:108DF00023708F4A0240103A02251B2A00D90FE146
:108E00005200C0467A449288520097441B003200B8
:108E10004D0065006F0009010901090109010901FF
:108E200009010901090109010901090109010901F2
:108E3000090109017C000901090109010901090170
:108E400009018500142E7BD11D467A4C6068C069EB
:108E50001422FBF7F6F92068002800D1A2E06D206B
:108E6000215C002900D0DBE001212154284609B013
:108E7000F0BD704C6268D7693920385CB0425FD170
:108E80001D4614372068002800D18FE0384632464E
:108E9000FBF7D7F96D20215C012900D0C0E0022149
:108EA0002154284609B0F0BD022E49D1614802681C
:108EB000002A00D1AAE00C784A78120211194268FF
:108EC000D26991866D21425C022A35D10322425437
:108ED0001D46284609B0F0BD022E31D10125485764
:108EE000000209784018FDF735FF99E0002E27D1E0
:108EF0001D46FCF7E9FC3870000A787002202070EB
:108F0000284609B0F0BD012E1AD108781D4600F0A0
:108F100053FF284609B0F0BD012E11D10D781F2D49
:108F200000D9FF25434801684068C46900290BD176
:108F30003621615CA94207D11D46284609B0F0BD23
:108F40000325284609B0F0BD009336216554876A91
:108F5000C66A2146143101A82022FBF772F9FF2DC1
:108F600005D0354901AB28462246FFF747FE01AD43
:108F7000202238462946FBF764F928463146224626
:108F800000F080FA2B4A116800290BD06D20105C8C
:108F90000328009D44D100251560012088472846FC
:108FA00009B0F0BD0125284609B0F0BD0092384651
:108FB0000C463246FBF718F9002831D021463846D6
:108FC0003246FBF73EF90099CC693620275C8E6A61
:108FD000CD6A2146143101A82022FBF732F9FF2F78
:108FE00005D0154901AB38462246FFF707FE01AF11
:108FF000202230463946FBF724F9384629462246D6
:1090000000F040FA0125284609B0F0BD0C784A78F6
:10901000120211194068C069828E8A421D4602D12F
:10902000284609B0F0BD81860125284609B0F0BD6B
:10903000FF0F0000B40D002000C0FFFF80B5044901
:109040000978002902D0002100F004F880BDC04654
:10905000900A0020F0B58DB00C460546002901D1DC
:1090600000F0AEFE334F0020386130C70490386006
:109070003148032101700195286A20263146083FB6
:10908000FBF73CF97868C56936216C5C816A02910E
:10909000C06A03902946143105A83246FBF7D1F87F
:1090A000FF2C05D0254905AB20462A46FFF7A6FD33
:1090B00005AC202202982146FBF7C3F8204603990D
:1090C0002A4600F0DFF9386800280DD16C20012114
:1090D0003954049878617868C06938301849086153
:1090E0000198006B00F048FD7868C6693920305C53
:1090F0003936F17A414324242046FBF703F905462B
:1091000071782046FBF7FEF82818041D00F028FCB3
:109110006043C0007968C9693822895C0902FBF79D
:10912000F1F8B8613868002802D06C2004993952EF
:109130000DB0F0BDB40D0020900A002000C0FFFF6C
:1091400008020020F0B589B004462F4800780025B9
:10915000032807D103F090FA2C4EB068002804D001
:1091600003F094FA284609B0F0BD29480078002899
:1091700002D060680028F3D026480068B460F06030
:10918000A068002801D1B069A06003F07FFAB06840
:10919000008840040BD42048002100F0C9FA606820
:1091A00001250028DED1B0680028FCD1DAE76C2068
:1091B000305C0028D6D1208869464870000A887043
:1091C000A278151D7F273D400D70002A05D0684606
:1091D000C01C21460C31FBF734F8691E6D46284649
:1091E00000F02AFA297839404919491E087029786F
:1091F0003940284600F040FD0028D0D10025B56058
:10920000284609B0F0BDC046900A0020B40D0020E9
:10921000FC010020000200201D92000810B582B061
:109220001F4CA368002B36D01888410433D4C104E6
:109230001BD49A78D91C009119460C312C33FFF7B6
:10924000D1FD032818D8C0467844007940008744EF
:10925000080115196368A1688A7808889B680C3131
:109260009847A0684C2100220FE09A7861688C68CA
:109270000C331946A0470EE0A06807E0A0684C2117
:10928000022202E0A0684C21032242540021A16086
:109290004168022901D202B010BD884702B010BD5A
:1092A000B40D0020F0B589B01546064640041DD423
:1092B0002E488468002C35D0072002033046104029
:1092C0000123DB03C71820880240D218BA4229D1F3
:1092D000274A1640022E27D0012E2DD10A78497830
:1092E0000902891881421DD1022633E0002D04D0E5
:1092F0006846C01C2A46FAF7A4FF6C4666702F1D0C
:109300007F20384020700120C0030643300AA0703F
:10931000ED1C2046294600F08FF96055204639465D
:1093200000F0AAFC09B0F0BD0A7849780902891852
:109330008142F7D103260DE01040B042F2D1E57032
:109340000A4884680026002D04D020462C302A4686
:10935000FAF777FF4C2026540020044988606168A2
:109360000229DFD32046884709B0F0BDB40D0020A4
:10937000FF0F0000F0B59BB00C46014603AD202264
:109380002846FAF75EFF334E7068C2690BA928467B
:1093900000F078F87068002C10D000212E4A02E00E
:1093A000891C402908D00BAB5B5E9342F8DC436A12
:1093B0005B5A0BAD6B52F3E7FE2700E0FF27C16954
:1093C00036228D5CFF2D17D06E463046FCF76EFAC4
:1093D00031782348FF2906D0204A4A4301218903D6
:1093E0005118C90B08181B4E69000BAA5052FF2FC9
:1093F00000D03D46706800E03D46C2680BA821469B
:109400009047FE2D0DD000280BD11F2D0FD86800DE
:109410000BA9095E7068C26903AB2846FFF7EEFB33
:1094200005E07068C1690BA803AAFFF74BFB7068E1
:10943000006A03A92022FAF704FF7068406A0BA9AA
:109440004022FAF7FEFE70680069002100F070F912
:109450001BB0F0BDB40D00200180FFFF0AD7A300B0
:1094600000C0FFFFB0B50446054D2878002806D09F
:1094700000F0A6FC04202870204600F0A5FCB0BD3A
:10948000900A0020F0B586B00191032149030091B4
:1094900000242346059403E0A41C402C2B4669D0ED
:1094A0005D1D072D05D80392072D06D9D91E0291FF
:1094B00004E0511C0391072DF8D8029511785278D9
:1094C00012025518DD400F222A40022A04901ED3B2
:1094D0000021C9439140037846783602F318867814
:1094E00036049B19C67836069B19059E33418B437B
:1094F000511E01273E468E40B3421F4908D0062A1E
:1095000021D3711C8B421ED11B49491C00E0002154
:10951000019B1953059952181146072A00D9083999
:109520000498029D072903D80591072A05D805E06C
:109530000B46083B0593072A00D9401C039A0729CC
:10954000AAD9401CA8E71F210D401846304002D080
:109550005942731E0B40A900084D69585943FB033B
:10956000C9180914009B8B4200DC00990028CFD059
:109570004942CDE706B0F0BD0080FFFFC8CF00082C
:10958000F0B583B00092002A029100D0203100246F
:10959000019005462646084603E03E46A41C202CC2
:1095A00020D02F786B781B02DB19F7B2FB400355F4
:1095B00003192A78697809028918F940C905C90F81
:1095C00059700936F7B2083FFEB2072E03D86D1C5A
:1095D000072EE2D902E0AD1C072EDED9083EA41CFE
:1095E000202CDED10098002802D1029A019B02E0D3
:1095F000029A921C019B987C402150544032D87CA6
:10960000507003B0F0BD0000B0B500290FD00022AB
:10961000D243084B0478D5B26540AC001C59120AFD
:109620006240491E401C0029F4D1D043B0BD002047
:10963000B0BDC04648D0000810B5FF22002907D0B1
:10964000044BD2B2047854401A5D401C491EF8D134
:10965000104610BD48D4000803490868034A424335
:1096600003481018086070471C0200206D4EC64168
:109670003930000010B5154C00E0E07020786178BA
:10968000884214D1E078A17888421DD0C00020180B
:10969000416880688847E078401CC1B20329ECD952
:1096A0000020EAE72070C1B262789142EAD0C0B2ED
:1096B000C0002018416A806A88472078401CC1B2E7
:1096C0000729EFD90020EDE710BDC0467C09002036
:1096D000B0B5154C154D00E0E070207861788842F7
:1096E00014D1E078A17888421DD0C00029582818EC
:1096F00040688847E078401CC1B21F29ECD900209F
:10970000EAE72070C1B262789142EAD0C0B2C000EC
:1097100020184168806888472078401CC1B207291A
:10972000EFD90020EDE7B0BDE0090020680E002071
:10973000B0B50C46054602F09FFF08484178CA00C4
:10974000821855629462491CCAB2072A00D90021C6
:10975000417002F09BFF03F063F8B0BD7C0900206C
:10976000B0B50C46054602F087FF08488178CA006C
:10977000821855609460491CCAB2032A00D900219E
:10978000817002F083FF03F04BF8B0BD7C0900202C
:10979000B0B50C46054602F06FFF09488178CA0053
:1097A000084B9D509A185460491CCAB21F2A00D910
:1097B0000021817002F06AFF03F038F8B0BDC046A6
:1097C000E0090020680E002070B504460C4E307889
:1097D000002813D00D46FDF7CDFA0A498D60686860
:1097E000C860A86808610848086002203070A8684E
:1097F0000069001D48602046FBF7CCFC70BDC046E8
:10980000E00A0020680F002085520008F0B58BB0F8
:10981000404B1978022975D100280DD03E4D29689A
:109820004A68D0693C24045D661E042E0FD2096884
