:020000040800F2
:100000004806002081020008970200089F020008AD
:1000100000000000000000000000000000000000E0
:10002000000000000000000000000000A70200081F
:100030000000000000000000AF020008B702000846
:10004000BF02000800000000C5020008CB02000843
:10005000D1020008D7020008DD020008E302000810
:1000600000000000E9020008EF020008F5020008A5
:10007000FB0200080103000807030008000000005D
:100080000D03000813030008190300081F030008EC
:10009000250300082B03000831030008370300087C
:1000A0003D03000843030008490300084F0300080C
:1000B000550300085B03000800F002F800F030F878
:1000C0000CA030C8083824182D18671EA246AB466D
:1000D00054465D46AC4201D100F022F87E460F3E08
:1000E000B6460FCC0126334200D0FB1A3343A2465A
:1000F000AB461847401B0000501B000000230024A3
:1001000000250026103A01D378C1FBD8520700D34E
:1001100030C100D50B6070471FB51FBD10B510BDB5
:1001200000F0B2FA1146FFF7F7FF01F01BF900F0FB
:100130004FF803B4FFF7F2FF03BC00F055F80000DE
:1001400070B505460C46164602E00FCC0FC5103EB2
:10015000102EFAD2082E02D303CC03C5083E042E7B
:1001600007D301CC01C5361F03E021782970641C38
:100170006D1C761EF9D270BD10B5202A04DB08462E
:10018000203AD040002110BD0B462024D340D0405F
:10019000A21A91400843194610BD4343514330B55C
:1001A0005C18010C130C0D4692B25D4380B25143B2
:1001B0002C19054655430A0C09044D196241584350
:1001C000010C00044019514130BD70477047704721
:1001D00010B50446C046C0462046FFF7AAFF10BD32
:1001E000004870478000002001491820ABBEFEE7A0
:1001F0002600020070477047AA0200000F0064004A
:10020000130101000001C100010180010001000093
:1002100001020000000000000000000000000000DB
:1002200000000000000000000000000000000000CE
:1002300000000000000000000000000000000000BE
:1002400000000000000000000000000000000000AE
:10025000000000000000000000000000000000009E
:10026000000000000000000000000000000000008E
:10027000000000000000000000000000000000007E
:100280003E4880473E4800473E4A1268002A00D157
:100290000047096808473C483C49F5E7FEE73C4809
:1002A0003C49F1E7FEE73C483C49EDE7FEE73C48C6
:1002B0003C49E9E7FEE73C483C49E5E7FEE73C48C6
:1002C0003C49E1E73C483D49DEE73D483D49DBE745
:1002D0003D483E49D8E73E483E49D5E73E483F497C
:1002E000D2E73F483F49CFE73F484049CCE7404845
:1002F0004049C9E740484149C6E741484149C3E749
:1003000041484249C0E742484249BDE74248434963
:10031000BAE743484349B7E743484449B4E7444848
:100320004449B1E744484549AEE745484549ABE74C
:1003300045484649A8E746484649A5E7464847494B
:10034000A2E7474847499FE7474848499CE748484C
:10035000484999E74848494996E74948494993E750
:10036000FEE74948006885464848006800470000A5
:1003700047484849464A484B70470000F701000883
:10038000B90000087C0000209D02000808600008F9
:10039000A50200080C600008AD0200082C600008EF
:1003A000B502000838600008BD0200083C60000883
:1003B000610300084060000861030008486000080D
:1003C000610300084C6000086103000850600008E9
:1003D00061030008546000086103000858600008C9
:1003E000410900085C6000086103000864600008BF
:1003F0006103000868600008610300086C60000881
:100400006103000870600008610300087460000860
:10041000610300087860000861030008806000083C
:10042000ED1200088460000861030008886000087D
:10043000610300088C6000086103000890600008F8
:1004400061030008946000087912000898600008B1
:10045000610300089C60000861030008A0600008B8
:1004600061030008A460000861030008A860000898
:1004700061030008AC60000861030008B060000878
:1004800061030008B4600008006000080460000810
:10049000480200204806002048020020FEB504461D
:1004A00010460D46184373D0A6468C460020A41A69
:1004B00001469D4167D36646002701243D46B61A92
:1004C0009D4102D313463A462124654676462F04C1
:1004D000360C3E432D0CB61A9D4104D3150C1B045B
:1004E0002B4312041034654676462F06360A3E43E7
:1004F0002D0AB61A9D4104D3150E1B022B4312027E
:100500000834654676462F0736093E432D09B61A4C
:100510009D4104D3150F1B012B431201241D654679
:100520007646AF07B6083E43AD08B61A9D4104D3E0
:10053000950F9B002B439200A41C65467646EF075F
:1005400076083E436D08B61A9D411AD392185B4156
:10055000641C16E00018764665464941B71A9D416D
:100560000191009009D36046B11A98418E468446A5
:10057000009801990025401C6941DD0752082A4373
:100580005B08641EE6D57246634603B0F0BDFFE724
:100590002046284307D00020C0430146C046C0463D
:1005A00022462B46F1E700200146F7E7034610B547
:1005B0000B439B070FD1042A0DD308C810C9121F83
:1005C000A342F8D018BA21BA884201D9012010BD3F
:1005D0000020C04310BD002A03D0D30703D0521C13
:1005E00007E0002010BD03780C78401C491C1B1B41
:1005F00007D103780C78401C491C1B1B01D1921EAB
:10060000F1D1184610BDF8B5042A2CD3830712D0B7
:100610000B78491C0370401C521E83070BD00B78CB
:10062000491C0370401C521E830704D00B78491CE0
:100630000370401C521E8B079B0F05D0C91ADF00A8
:100640002023DE1B08C90AE0FFF77AFDF8BD1D462E
:1006500008C9FD401C46B4402C4310C0121F042A98
:10066000F5D2F308C91A521EF0D40B78491C037056
:10067000401C521EEAD40B78491C0370401C012A0E
:10068000E4D409780170F8BD7546FFF7A9FDAE46C0
:10069000050069465346C008C000854618B020B51D
:1006A000FFF766FE60BCB64600260027C0C5C0C581
:1006B000C0C5C0C5C0C5C0C5C0C5C0C5403D49084E
:1006C00049008D4670470000BFF34F8F034804492F
:1006D0000160BFF34F8F00BFFDE7C0460CED00E0A7
:1006E0000400FA0510B5924BDA78032A48D8411C69
:1006F0007A4412795200974401253241C21D0124E7
:100700000470D86803680B701C0ECC701C0C8C70C5
:100710001B0A4B70837D002B33D0838A0B711B0A1D
:100720004B71416811700B0ED3700B0C9370090A5A
:10073000517080681071010ED171010C9171000A25
:10074000507110BD022202701A690A70140ECC702A
:10075000140C8C70120A4A701979417110BD032271
:1007600002701A690A70140ECC70140C8C70120A84
:100770004A705979FF2910D0417110BD05210170CF
:1007800010BD0020D071907150711071D0709070B8
:10079000507010704871087110BD1979002902D08D
:1007A000FF21417110BD0021417110BD70B504469B
:1007B0003B4800685E4DA860A878012804D0022854
:1007C00004D0384800F086F90220A8700120687033
:1007D0002178491E042919D87944097949008F44A0
:1007E000020516152C000020E87070BDE97801297B
:1007F00026D16178A27812025118E27823791B027F
:100800009A18120451182A698A4223D170BDE978D6
:10081000022923D16178A27812025118E278237953
:100820001B029A18120451182A698A4220D16E7943
:10083000617988403042E9D123E00320E87070BD3F
:100840006178A27812025118E27823791B029A1873
:1008500012045118A871E870296170BD6178A278FE
:1008600012025118E27823791B029A1812045118C7
:1008700029610221E97000266E7161798840304259
:10088000C4D1C0B206436E7148012C490818A11D9D
:100890002022FFF7B8FEFF2EB8D10220A87170BD4C
:1008A00040020020D41B0008214EF06000F0DEFB67
:1008B00000F04AFA1F4800F029F91F4800F00AF931
:1008C0000027B7717771B77001246002308064200F
:1008D00005E03771B470B77102207070204600F0E7
:1008E0009FF9B0790028FCD000F0CCF9F0683169AC
:1008F000E20791420ED1C568B07901280FD0B079D6
:100900000228E6D100F0D0F8220228460B4900F078
:1009100071F809E000694518B0790128EFD100F0BD
:10092000C3F8284600F020F8307100F053F8D1E702
:10093000E8000020950C0008DC1B000804010020E2
:1009400080B5012107484268520402D589034160FD
:1009500080BD0268920403D54903016000F084FA67
:1009600080BDC0460C18024070B50121CA064A4B32
:100970001B681B069B0B9A18824225D9052214047A
:10098000474A13682342FCD11568444B1D4000D0F0
:10099000156015682542FCD11F25ED064019C00AD7
:1009A000C0000A4D45195560094E0643566010684F
:1009B0002042FCD10720854310685560084011682B
:1009C000194000D0116070BD002070BD0200000110
:1009D00002000101064805210904021F12680A42AB
:1009E000F9D10121C90702680A4302607047C04675
:1009F00014200240F0B581B0D31D072293431A188A
:100A00000126F406244D2D682D06AD0B2C19A242AB
:100A10003AD20096002B3CD005221404204E0F68D9
:100A20004A68009232682242FCD132681B4D2A404B
:100A300000D0326032682242FCD11A4A72600760EC
:100A4000009A426032682242FCD132680025D20707
:100A50002A4608D00268BA422A4604D14268009F5A
:100A6000D71B7A427A410127009737607560356855
:100A70000A4F3D4000D03560002A08D0083B0830BE
:100A80000831002BCBD104E00020009001E00020D1
:100A90000090009801B0F0BDE075FF1FFB830000DF
:100AA00010200240010000010748C168002900D45D
:100AB00070470521090482680A42FAD1034901609E
:100AC000034901607047C046082002402301674582
:100AD000AB89EFCDB0B50446094D08222846214622
:100AE000FFF764FD00280AD003CC03C5083CA088AA
:100AF000401E04490860E088401E03490860B0BDFC
:100B0000280200203002002020020020B0B5012180
:100B10008A04144B1C6914431C611C6814431C6038
:100B20001C6894431C60104B1C460C3C0022226045
:100B30005A61DA603F24DC610C4C1C6299601C68CD
:100B4000022525431D604B4B1A60094B18604A482B
:100B50000260FF200004074A1368834388051818C1
:100B60001060B0BD301002400C480140FFFF000093
:100B70004402002014E400E03F490860012213040D
:100B8000984207D800220A603A490A68101880B2D1
:100B9000086010E05204904208D84208801A0860A9
:100BA00034490868801880B2086004E0334A80182D
:100BB000086030480068144948620220C043086059
:100BC0007047C046B0B52C490860144A1268294BDA
:100BD0001A6001242504A84204D8101882B21A60B1
:100BE00000200AE06404A04205D84408121992B219
:100BF0001A60001B01E0214BC018034B5A620860C9
:100C00000220C0431860B0BD10480140024800688F
:100C1000024908607047C046244801403C02002059
:100C2000F0B51B490B68012293430B600223DB43A1
:100C30000B61104E002535600F4C20604A6117048F
:100C4000B84203D885B23560002009E05704B842A5
:100C500004D84708BDB23560C01B01E0074E8019BB
:100C60004D6320600B619005054B186008681043C8
:100C70000860F0BD38020020340200200000FFFFB1
:100C800000E100E0024801680122914301607047E1
:100C900000480140B0B5284C2078012803D100F06D
:100CA0008FF900281ED000252570607800281AD002
:100CB00001280CD0022815D165702248FFF75CFF8F
:100CC00001202070A07802281CD0E9431CE00220FB
:100CD00060704B2080001230FFF74EFF0120207023
:100CE00000F03CF9B0BDA06814490968081A072152
:100CF000C9016731884211D9E078032810D1FFF784
:100D0000E3FCB0BD0721C9016161801E411E88411D
:100D100020761434204600F089F8B0BD012004E0AC
:100D2000A5700748FFF7D6FE022060704B208000B8
:100D3000FFF722FFB0BDC046E800002040020020BF
:100D4000DC1B00083102000070B5C44E002030707A
:100D500000F0D8F87D20C500284600F081FA012473
:100D6000204600F0CFF8284600F07AFA00F0C2F8EA
:100D70000028FBD12C4D681C0021022200F0DCF978
:100D800000F0B8F80028FBD1281D0021022200F055
:100D9000D3F900F0AFF80028FBD1E81D00210322B1
:100DA00000F0CAF900F0A6F80028FBD128460B3065
:100DB0000021092200F0C0F900F09CF80028FBD1C6
:100DC000284615300021022200F0B6F900F092F812
:100DD0000028FBD1284618300021042200F0ACF98D
:100DE00000F088F80028FBD128461D30002104229D
:100DF00000F0A2F900F07EF80028FBD12235002196
:100E00000322284600F098F900F074F80028FBD17E
:100E100000252846C046C046284600F07DF82846F2
:100E2000C046C046747070BDFE1B0008B0B58B494B
:100E3000486003250D700B4800240822214600F06D
:100E40007BF95C4821462A4600F076F95A4821464B
:100E50002A4600F071F959480122214600F06CF948
:100E6000B0BDC046241C000870B58CB000242046DC
:100E700000F052F8794E307804281ED1FFF7C6FEF4
:100E80001B4801AD0422294600F056F9E8784006D7
:100E90001AD419200001FFF795FE347001AC8020B0
:100EA00060701B20207029222046214600F044F962
:100EB000E01CFFF77BFC0CB070BD6B4800210222E8
:100EC00000F03AF90CB070BD706800790028F2D0DB
:100ED000394800240322214600F02EF9022000F0B8
:100EE0001BF85F480422214600F026F90CB070BDC3
:100EF000EF1B0008024800684004C00F7047C0465E
:100F0000100400500121002801D0480200E04806EA
:100F1000114908607047C04602280BD0012811D043
:100F200000280ED1012081070A4A116080060A4973
:100F30000860704701208107064A11608002064957
:100F40000860704701208106034A1160800301494F
:100F5000086070471808005018000050F0B585B0C0
:100F60003E4801240470124800250822294600F05A
:100F7000E3F86E4675701A203070B01CFFF7B2FBB4
:100F80000C48032729463A4600F0D6F8112230468D
:100F9000294600F0D1F8084829463A4600F0CCF836
:100FA00006482946224600F0C7F805B0F0BDC04605
:100FB0002C1C0008F31B0008EC1B000806020008AC
:100FC00070B5264E7078012401283ED13078401E3D
:100FD00003283AD878440079400087440112162843
:100FE000022030706F208000FFF7C6FD0120FFF760
:100FF00093FF1C4800240422214600F09DF820465F
:1010000070BD00203070204670BD042535707068BA
:1010100000682230FFF7B0FD0220FFF77DFF104887
:10102000002421462A4600F087F8204670BD7068EB
:101030000068401C0BD00C4800250222294600F015
:101040007BF82846FFF768FF3570204670BD012009
:10105000C003FFF791FD002070BDC046E0000020F6
:10106000F61B0008FA1B00080A020008B0B50320AE
:10107000020626490B68934325481B185B1C0B602E
:101080008B6813438B600F2212020B6A9343012279
:1010900014021B190B62FF231B024C6A9C4305239D
:1010A0001B02E3184B628B681A4C1C438C600B6864
:1010B000194C1C40194BE3180B609303184C25691D
:1010C0001D43256125681D43256025689D432560D6
:1010D000C3239C00134B1C60172424025C601C6813
:1010E000402525431D6014038C610F4913240C60B7
:1010F0000C330E4C236012254D6063610C490B6864
:1011000003400B60D0020B490860B0BD00040050E2
:10111000FFFFFF003000F000CFFF0FFF2000A00016
:101120002C100240003800401008024060000240CD
:1011300008E400E000E100E0F0B581B0274B1C4678
:10114000083C24686404FAD401273C071C60002989
:1011500028D0002A3ED0009703246502E702204EE3
:10116000144601E0002C0FD033683B40BB4203D053
:1011700003783371641E401C33682B42F2D03379FC
:101180000B70521E491CEDE7002A144B009F21D022
:1011900030682842FCD030790870521E491C002A61
:1011A000F6D117E00E49002A0BD00324E4020D68A3
:1011B0002540A542FBD005780D71521E401C002A27
:1011C000F5D108680006FCD400E008790868C0077B
:1011D000FBD108683803186001B0F0BD1804005056
:1011E0000838004070B5002936D00022D3431B4A8E
:1011F00004785C40012365081C40644214406C4044
:10120000640826461E40764216401D406D42154039
:1012100065406C08664075082E461E4076421640B2
:101220001C40644214406C406408664075082E46B9
:101230001E40764216401C40644214406C406408D4
:10124000664075081C40634213406B40491E401CB9
:101250000029CDD1D84370BD002070BD2083B8EDEA
:10126000C00204490A680B68D31A1B029842FAD8D4
:101270007047C04618E000E0B0B51748016889071C
:1012800029D50221C9430160144B1A68002A09D0EC
:1012900001242504AA420BD800241C60114B1C68B1
:1012A000A2180EE010480068002814D08047B0BD96
:1012B0006404A24208D85408121B1A60094B1A6829
:1012C000121992B21A6004E0054C12191A60054A0C
:1012D000126842620160B0BD104801403402002033
:1012E0000000FFFF3802002044020020B0B516497C
:1012F0000868C00727D00120C2430A6013490A6862
:10130000521C0A601249097801291CD1114A11683E
:101310004B1C13601049CC88A34214D300231360E4
:101320008D880E4A1468641CAC4200D31C461460BD
:101330000968E140C90703D0000709490860B0BD4A
:10134000000307490860B0BD1010004040020020B3
:101350001C02002020020020280200203002002071
:1013600018000050F0B593B0012250070021C1676A
:10137000D7070C900068044E044C054B98420F921E
:101380000E91089706D005E1FFFFFF0010200240F4
:10139000CC5172C80C984068014B984202D0F9E0D9
:1013A000A07E01920020129011900B901090064D9B
:1013B0002846503810A9602200F044FB05200004A4
:1013C0006168002910D501E0E075FF1F2168014226
:1013D000FCD121460839024A0A60024A0A6003E049
:1013E00023016745AB89EFCD0F99CB062968090624
:1013F000890BC918FF2292020D92FC4A91421CD916
:1014000021680142FCD12168F94A114000D02160D5
:1014100021680142FCD1314653316160F549083100
:10142000616021680142FCD121683146513161601F
:101430002168EF4A114000D02160296889020D9A85
:1014400011401943E94A103291425DD90A93119F24
:10145000109A21680142FCD12168E54B19400B9B91
:1014600000D0216021680142FCD1B11C6160DF4DD8
:101470002A606F6026680642FCD12668F6071E4681
:1014800009D0DA4D2E6896421E4604D1D74A5268DA
:10149000D21B564256410F9A226063602268D44B99
:1014A0001A4000D02260002ED34E089FD34D0A9BD5
:1014B0002AD010AAD768129A26680642FCD126685C
:1014C000CB4B1E4000D0266026680642FCD16160EE
:1014D000C6498A60CF60C94D0A9B21680142FCD190
:1014E0002168C907C44E089F05D0C0498968914248
:1014F00001D1BE49C9680F9921600021616021684E
:10150000BB4A114000D0216021680142FCD16168D2
:10151000394361606168002908D521680142FCD126
:1015200021460839B64A0A60B64A0A602968890223
:101530000D9A11401943B44A91420F9A0B9D1BD347
:1015400021680142FCD12168A94B194000D02160DB
:1015500021680142FCD131464B316160A54961608F
:1015600021680142FCD1216831464931616021681E
:101570009F4B194000D0216021680142FCD10C989A
:10158000C26705604560606838436060FEF7E9FE49
:101590000F9A0E999D4801609D4F381F066038468E
:1015A0000838016811430160FC4B186C1043186443
:1015B0001507D86B2843D863103C2068FB490140CD
:1015C000FB4808182060110418680B910843186044
:1015D000510418680842FCD0100614461A68824369
:1015E0001A60620618681042FCD1F248D8600E9862
:1015F0009860701C1C68059004431C60DC680295B0
:101600002C43DC601C681442FCD09C6802200A90C9
:1016100004430520099084439C609C68382525403C
:10162000102DFAD15C6B2F252C435C6303200D90A9
:101630004402E14804609A6B0F9E32439A635A6BEE
:101640002A435A630460986B30439863D86B102523
:101650002843D863D86A2843D862EA430392D86AF9
:101660001040D862D54B042006901860DE603F2001
:1016700098625E61CE48E530D862186830431860E1
:10168000CF4CE068CF4A10400D9A92038018E0607A
:10169000CD480160586930435861CC48CC4901605D
:1016A0000E994160CB498160CB4B1868CB4A104002
:1016B000310340181860D8681040720301928018F6
:1016C000D860B0059861186830430A9A9043186052
:1016D000D8681043B043D8600B9898610998040704
:1016E000206807952843202290432060E0680492F8
:1016F0001043039A1040E060B0040990A061206894
:10170000B74A10408018401C2060E0681040089ADA
:101710001043E060A2610D9800062268824305989C
:1017200002432260A161AF480670AF4DAF49082265
:101730002846FEF73BFF002809D0AD48AD49296097
:101740006860AD480E210160AC4863210160A64E7F
:10175000AB49082530462A46FEF728FF00280F9A95
:1017600008D0A8480A9931607060A3480260A34875
:10177000632101602068A44908402060E0680840B7
:1017800091030A914018E060206807990843049982
:1017900088432060206840210143802008908143D5
:1017A00021600698A061A5611920800239680E9B0E
:1017B0003A688A1A12029042FAD80C99CB602169D1
:1017C000090627D4216909061D4632D439683A68CA
:1017D0008A1A12029042FAD8206900061D4628D4BF
:1017E0000F980C99C8601D4623E0C04600500008C1
:1017F000FB8300004A000101FFFFFF00E075FF1FAF
:1018000023016745AB89EFCD014800084002002065
:1018100018E000E00999A1610F99C904A161396834
:101820003A688A1A12029042FAD82069C0090F9DBC
:101830008543764F76487749F96038617649396053
:10184000764E314608390968574A914236D1311FE0
:101850000A6854498A4231D13168714A91422DD87F
:10186000FFF7C0FC079030686949425C684943183B
:101870005978090289189A7812048918DA780E9B27
:1018800012068918079A8A4218D1614A002D6BD036
:1018900078600F98B875B088B8823068815C80181D
:1018A000427812025118827812048918C078000612
:1018B0000818B860434B019D474E03E0BB75414B90
:1018C000019D454E0D9FB80421688143099801434D
:1018D00021603168574801403160B90632688A4357
:1018E00032605549CA6E1A400F9E33021343CB66CD
:1018F000524A13682B4313600B682B430B604B68F1
:10190000AB434B60FF231B04CD6E9D430B9B1D43DC
:10191000CD6613680A9D2B4313600A68AA430A60C8
:101920004A682A434A600C990E9D0D604D60244B15
:1019300019681B4A11402A4A521C0A431A6022495C
:10194000089A0A603E490A680240029802430A6007
:101950003805216881433005081820602B48FEF7C0
:10196000A3FF284613B0F0BD0C9909682D4A914297
:1019700005D10C9949682C4A9142254A88D00C9887
:101980000949016007494160BFF34F8F2748284943
:101990000160BFF34F8F00BFFDE7C046001002405B
:1019A000FFFFFF00A07E0192CC5172C8F8F4FEFF49
:1019B000020300000310044000000140001000403A
:1019C00004E400E0FF00FFFF00E100E00030004021
:1019D00055550000C409000000040050FFCFFFFF70
:1019E000FFFFFF3F1C02002028020020F801000832
:1019F0000F006400AA020000300200202002002034
:101A0000E41B000802006400FF3FFFFF0402002007
:101A1000006000080058000813010100886F0008EA
:101A2000FB9F0100C911E81AAC94557F0CED00E052
:101A30000400FA05FFFFFFCF0018024080180240A3
:101A400000080050F7B58CB006460D9807900E9828
:101A5000470942D000213468524A0B462046019182
:101A6000FEF79BFB5049401845076D0F00D102253A
:101A70004E4A4F4B20460199FEF78FFB4D4B4E4A85
:101A8000C0185141002D1DD0EA0707D04B4A4C4BDE
:101A9000FEF783FB4B4B4C4AC01851416C0811D0E8
:101AA000464A474BFEF779FB464B474AC01851411F
:101AB000424A434BFEF771FB424B434AC018514127
:101AC000641EEDD12A46FEF757FB0799361D0860C4
:101AD0000798001D07907F1EBCD10D980A900268E0
:101AE0000E9900200E0902920390002E58D0C808CB
:101AF0000B90364A00230A9C03990298FEF74DFB8F
:101B0000334B0022C01851410B9A002503910290DB
:101B10002B46921EFEF7C2FC17197878397800021E
:101B20000843294604461F4A00230195FEF735FB6A
:101B30001D49401845076D0F00D102251B4A1C4B5B
:101B400020460199FEF729FB1A4B1B4AC018514148
:101B5000002D1DD0EA0707D0184A194BFEF71DFBD0
:101B6000184B194AC01851416C0811D0134A144B34
:101B7000FEF713FB134B144AC01851410F4A104B88
:101B8000FEF70BFB0F4B104AC0185141641EEDD1FC
:101B90002A46FEF7F1FA3870000A7870761EA8D14E
:101BA0000FB0F0BDE72B2D8B531E7223276C9DF3D6
:101BB000085D6720A37A2F98DE2F780E5B4D51C207
:101BC00066F3714A63971A637B212667FF74EA0DF7
:101BD000539A9A0B2A0000000A0064002A000000B1
:101BE0000A00C800020000000200640097004315CC
:101BF0000000008F0080820000008300000002804F
:101C000001029601038F0080098D0043004300000C
:101C10000000028A030486BED89D048B45000003A1
:101C20008E0080008C700410002620088C70041038
:101C3000000F2008441C000880000020C805000098
:041C4000FC0000089C
:020000040800F2
:04480000C1E2465873
:04000005080000B936
:00000001FF
