:020000040800F2
:100000004808002081020008970200089F020008AB
:1000100000000000000000000000000000000000E0
:10002000000000000000000000000000A70200081F
:100030000000000000000000AF020008B702000846
:10004000BF020008C5020008CB020008D102000868
:10005000D7020008DD020008E3020008E9020008F8
:10006000EF020008F5020008FB0200080103000887
:10007000070300080D030008130300081903000814
:100080001F030008250300082B03000831030008A4
:10009000370300083D030008430300084903000834
:1000A0004F030008550300085B03000861030008C4
:1000B000670300086D0300087303000800F002F8EE
:1000C00000F030F80CA030C8083824182D18671E2E
:1000D000A246AB4654465D46AC4201D100F022F840
:1000E0007E460F3EB6460FCC0126334200D0FB1AA7
:1000F0003343A246AB461847341B0000441B0000A4
:100100000023002400250026103A01D378C1FBD833
:10011000520700D330C100D50B6070471FB51FBD1B
:1001200010B510BD00F0CEFA1146FFF7F7FF01F051
:1001300011F900F04FF803B4FFF7F2FF03BC00F031
:1001400055F8000070B505460C46164602E00FCC87
:100150000FC5103E102EFAD2082E02D303CC03C5D1
:10016000083E042E07D301CC01C5361F03E02178D9
:100170002970641C6D1C761EF9D270BD10B5202A42
:1001800004DB0846203AD040002110BD0B46202455
:10019000D340D040A21A91400843194610BD4343B2
:1001A000514330B55C18010C130C0D4692B25D43FF
:1001B00080B251432C19054655430A0C09044D19C8
:1001C00062415843010C00044019514130BD704751
:1001D0007047704710B50446C046C0462046FFF73A
:1001E000AAFF10BD00487047800000200149182078
:1001F000ABBEFEE72600020070477047970043C180
:100200000C01010000018001050100000001000057
:1002100001020000000000000000000000000000DB
:1002200000000000000000000000000000000000CE
:1002300000000000000000000000000000000000BE
:1002400000000000000000000000000000000000AE
:10025000000000000000000000000000000000009E
:10026000000000000000000000000000000000008E
:10027000000000000000000000000000000000007E
:100280004448804744480047444A1268002A00D145
:1002900000470968084742484249F5E7FEE74248F7
:1002A0004249F1E7FEE742484249EDE7FEE74248AE
:1002B0004249E9E7FEE742484249E5E7FEE74248AE
:1002C0004249E1E742484349DEE743484349DBE727
:1002D00043484449D8E744484449D5E74448454958
:1002E000D2E745484549CFE745484649CCE7464827
:1002F0004649C9E746484749C6E747484749C3E72B
:1003000047484849C0E748484849BDE7484849493F
:10031000BAE749484949B7E749484A49B4E74A482A
:100320004A49B1E74A484B49AEE74B484B49ABE72E
:100330004B484C49A8E74C484C49A5E74C484D4927
:10034000A2E74D484D499FE74D484E499CE74E482E
:100350004E4999E74E484F4996E74F484F4993E732
:100360004F48504990E7504850498DE7504851490F
:100370008AE75148514987E7FEE7514800688546BA
:1003800050480068004700004F485049504A514BC0
:1003900070470000FB010008BD0000087C00002041
:1003A0009D02000808600008A50200080C60000813
:1003B000AD0200082C600008B50200083860000893
:1003C000BD0200083C600008790300084060000896
:1003D00079030008446000087903000848600008B9
:1003E000790300084C600008790300085060000899
:1003F0007903000854600008790300085860000879
:100400007D0900085C60000879030008606000084E
:100410007903000864600008790300086860000838
:10042000790300086C600008790300087060000818
:1004300079030008746000087903000878600008F8
:10044000790300087C6000087903000880600008D8
:10045000DD12000884600008790300088860000845
:10046000790300088C600008790300089060000898
:100470007903000894600008691200089860000879
:10048000790300089C60000879030008A060000858
:1004900079030008A460000879030008A860000838
:1004A00079030008AC60000879030008B060000818
:1004B00079030008B460000879030008B8600008F8
:1004C000006000080460000848020020480800207E
:1004D0004804002048040020FEB5044610460D469E
:1004E000184373D0A6468C460020A41A01469D41AD
:1004F00067D36646002701243D46B61A9D4102D3C4
:1005000013463A462124654676462F04360C3E4370
:100510002D0CB61A9D4104D3150C1B042B43120459
:100520001034654676462F06360A3E432D0AB61A23
:100530009D4104D3150E1B022B431202083465465D
:1005400076462F0736093E432D09B61A9D4104D33E
:10055000150F1B012B431201241D65467646AF077C
:10056000B6083E43AD08B61A9D4104D3950F9B00D3
:100570002B439200A41C65467646EF0776083E435F
:100580006D08B61A9D411AD392185B41641C16E09F
:100590000018764665464941B71A9D410191009081
:1005A00009D36046B11A98418E4684460098019955
:1005B0000025401C6941DD0752082A435B08641E80
:1005C000E6D57246634603B0F0BDFFE720462843F8
:1005D00007D00020C0430146C046C04622462B46F5
:1005E000F1E700200146F7E7034610B50B439B07F0
:1005F0000FD1042A0DD308C810C9121FA342F8D086
:1006000018BA21BA884201D9012010BD0020C04388
:1006100010BD002A03D0D30703D0521C07E00020EE
:1006200010BD03780C78401C491C1B1B07D10378B4
:100630000C78401C491C1B1B01D1921EF1D118469D
:1006400010BDF8B5042A2CD3830712D00B78491CAF
:100650000370401C521E83070BD00B78491C03709B
:10066000401C521E830704D00B78491C0370401CA9
:10067000521E8B079B0F05D0C91ADF002023DE1BFB
:1006800008C90AE0FFF75EFDF8BD1D4608C9FD4038
:100690001C46B4402C4310C0121F042AF5D2F308A4
:1006A000C91A521EF0D40B78491C0370401C521E0C
:1006B000EAD40B78491C0370401C012AE4D4097861
:1006C0000170F8BD7546FFF78DFDAE460500694621
:1006D0005346C008C000854618B020B5FFF754FE49
:1006E00060BCB64600260027C0C5C0C5C0C5C0C591
:1006F000C0C5C0C5C0C5C0C5403D490849008D46FC
:1007000070470000BFF34F8F034804490160BFF3F7
:100710004F8F00BFFDE7C0460CED00E00400FA0576
:1007200010B5924BDA78032A48D8411C7A441279E2
:100730005200974401253241C21D01240470D8683B
:1007400003680B701C0ECC701C0C8C701B0A4B7059
:10075000837D002B33D0838A0B711B0A4B71416858
:1007600011700B0ED3700B0C9370090A51708068D6
:100770001071010ED171010C9171000A507110BD00
:10078000022202701A690A70140ECC70140C8C705C
:10079000120A4A701979417110BD032202701A6958
:1007A0000A70140ECC70140C8C70120A4A705979AD
:1007B000FF2910D0417110BD0521017010BD00202E
:1007C000D071907150711071D07090705070107025
:1007D0004871087110BD1979002902D0FF214171BB
:1007E00010BD0021417110BD70B504463B48006842
:1007F0005E4DA860A878012804D0022804D03848AB
:1008000000F086F90220A870012068702178491E46
:10081000042919D87944097949008F44020516152D
:100820002C000020E87070BDE978012926D161789C
:10083000A27812025118E27823791B029A18120446
:1008400051182A698A4223D170BDE978022923D13F
:100850006178A27812025118E27823791B029A1863
:10086000120451182A698A4220D16E796179884030
:100870003042E9D123E00320E87070BD6178A278AE
:1008800012025118E27823791B029A1812045118A7
:10089000A871E870296170BD6178A27812025118C0
:1008A000E27823791B029A18120451182961022157
:1008B000E97000266E71617988403042C4D1C0B2BF
:1008C00006436E7148012C490818A11D2022FFF72C
:1008D000B8FEFF2EB8D10220A87170BD40020020E2
:1008E000CC1B0008214EF06000F0CEFB00F04AFA6D
:1008F0001F4800F029F91F4800F00AF90027B771D6
:100900007771B770012460023080642005E0377190
:10091000B470B77102207070204600F09FF9B07972
:100920000028FCD000F0CCF9F0683169E207914270
:100930000ED1C568B07901280FD0B0790228E6D170
:1009400000F0D0F8220228460B4900F071F809E0C7
:1009500000694518B0790128EFD100F0C3F82846A6
:1009600000F020F8307100F053F8D1E7E8000020E3
:10097000D10C0008D41B00080401002080B501211F
:1009800007484268D20402D50903416080BD02686D
:10099000D20503D50902016000F084FA80BDC0468B
:1009A0000C18024070B50121CA064A4B1B681B0691
:1009B0009B0B9A18824225D905221404474A1368D2
:1009C0002342FCD11568444B1D4000D015601568CA
:1009D0002542FCD11F25ED064019C00AC0000A4D72
:1009E00045195560094E0643566010682042FCD1F7
:1009F000072085431068556008401168194000D0F1
:100A0000116070BD002070BD0200000102000101F4
:100A1000064805210904021F12680A42F9D1012182
:100A2000C90702680A4302607047C04614200240AA
:100A3000F0B581B0D31D072293431A180126F4069E
:100A4000244D2D682D06AD0B2C19A2423AD20096EA
:100A5000002B3CD005221404204E0F684A680092F7
:100A600032682242FCD132681B4D2A4000D03260ED
:100A700032682242FCD11A4A72600760009A4260D2
:100A800032682242FCD132680025D2072A4608D0BB
:100A90000268BA422A4604D14268009FD71B7A42B4
:100AA0007A41012700973760756035680A4F3D40ED
:100AB00000D03560002A08D0083B08300831002BF0
:100AC000CBD104E00020009001E0002000900098CD
:100AD00001B0F0BDE075FF1FFB8300001020024055
:100AE000010000010748C168002900D470470521B2
:100AF000090482680A42FAD103490160034901608E
:100B00007047C0460820024023016745AB89EFCDFE
:100B1000B0B50446094D082228462146FFF764FD7A
:100B200000280AD003CC03C5083CA088401E044915
:100B30000860E088401E03490860B0BD280200201C
:100B40003002002020020020B0B501218A04144B9D
:100B50001C6914431C611C6814431C601C6894438A
:100B60001C60104B1C460C3C002222605A61DA606B
:100B70003F24DC610C4C1C6299601C6802252543F3
:100B80001D604B4B1A60094B18604A480260FF20F9
:100B90000004074A13688343880518181060B0BD25
:100BA000301002400C480140FFFF000044020020CA
:100BB00014E400E03F49086001221304984207D87A
:100BC00000220A603A490A68101880B2086010E0F2
:100BD0005204904208D84208801A086034490868D4
:100BE000801880B2086004E0334A801808603048FA
:100BF0000068144948620220C04308607047C0463C
:100C0000B0B52C490860144A1268294B1A600124B7
:100C10002504A84204D8101882B21A6000200AE005
:100C20006404A04205D84408121992B21A60001B4D
:100C300001E0214BC018034B5A6208600220C043F8
:100C40001860B0BD104801400248006802490860C1
:100C50007047C046244801403C020020F0B51B49C3
:100C60000B68012293430B600223DB430B61104EA0
:100C7000002535600F4C20604A611704B84203D844
:100C800085B23560002009E05704B84204D847080F
:100C9000BDB23560C01B01E0074E80194D63206076
:100CA0000B619005054B1860086810430860F0BDA3
:100CB00038020020340200200000FFFF00E100E0C5
:100CC00002480168012291430160704700480140D9
:100CD000B0B5284C2078012803D100F07FF9002816
:100CE0001ED000252570607800281AD001280CD06D
:100CF000022815D165702248FFF75CFF01202070A3
:100D0000A07802281CD0E9431CE0022060704B2030
:100D100080001230FFF74EFF0120207000F02CF908
:100D2000B0BDA06814490968081A0721C9016731D4
:100D3000884211D9E078032810D1FFF7E3FCB0BD59
:100D40000721C9016161801E411E8841207614344B
:100D5000204600F089F8B0BD012004E0A5700748E6
:100D6000FFF7D6FE022060704B208000FFF722FFC5
:100D7000B0BDC046E800002040020020D41B00089F
:100D80003102000070B5BC4E0020307000F0D8F881
:100D90007D20C500284600F05BFA0124204600F0C3
:100DA000CFF8284600F054FA00F0C2F80028FBD132
:100DB0002C4D681C0021022200F0BAF900F0B8F8AE
:100DC0000028FBD1281D0021022200F0B1F900F01B
:100DD000AFF80028FBD1E81D0021032200F0A8F99C
:100DE00000F0A6F80028FBD128460B30002109228C
:100DF00000F09EF900F09CF80028FBD12846153041
:100E00000021022200F094F900F092F80028FBD1B2
:100E1000284618300021042200F08AF900F088F8F2
:100E20000028FBD128461D300021042200F080F963
:100E300000F07EF80028FBD122350021032228464D
:100E400000F076F900F074F80028FBD10025284660
:100E5000C046C0462846C046C046284600F07AF83C
:100E6000747070BDF31B0008B0B58349486003255A
:100E70000D700B4800240822214600F059F954480F
:100E800021462A4600F054F9524821462A4600F0ED
:100E90004FF951480122214600F04AF9B0BDC04641
:100EA000191C000870B58CB000242046C046C0460E
:100EB000714E307804281ED1FFF7C6FE1B4801ADE5
:100EC0000422294600F034F9E87840061AD41920A3
:100ED0000001FFF795FE347001AC802060701B208C
:100EE000207029222046214600F022F9E01CFFF75D
:100EF0007BFC0CB070BD63480021022200F018F9A1
:100F00000CB070BD706800790028F2D03148002420
:100F10000322214600F00CF90220C046C046574883
:100F20000422214600F004F90CB070BDE41B000857
:100F300002480068C004C00F7047C046100000504F
:100F40000121002801D0480200E048060949086054
:100F50007047C0460121002801D00A0500E0CA04FC
:100F600004490A60002802D0082008607047102059
:100F70000860704718040050F0B585B03E48012461
:100F80000470124800250822294600F0D1F86E4668
:100F900075701A203070B01CFFF7C2FB0C48032795
:100FA00029463A4600F0C4F811223046294600F09E
:100FB000BFF8084829463A4600F0BAF806482946DC
:100FC000224600F0B5F805B0F0BDC046211C00086F
:100FD000E81B0008FC010008FF01000870B5264E60
:100FE0007078012401283ED13078401E03283AD879
:100FF000784400794000874401121628022030709E
:101000006F208000FFF7D6FD0120C046C0461C4877
:1010100000240422214600F08BF8204670BD0020F9
:101020003070204670BD042535707068006822302D
:10103000FFF7C0FD0220C046C046104800242146EC
:101040002A4600F075F8204670BD70680068401CA4
:101050000BD00C4800250222294600F069F82846EA
:10106000C046C0463570204670BD0120C003FFF762
:10107000A1FD002070BDC046E0000020EB1B000871
:10108000EF1B000806020008B0B50320020205208D
:1010900001070B689343012004021B190B608B6846
:1010A00013438B600B6A1B4C1C400C623F239B025A
:1010B0008C681C438C600C689C431523DB02E3188E
:1010C0000B600303144C25691D43256125681D43EE
:1010D000256025689D4325600C32104B1A6017224D
:1010E00012025A601A68402414431C6010228A615C
:1010F0000B4911240C600C330A4C23604A60636175
:10110000FF210906084A13688B431360C002074990
:101110000860B0BDFFFF0F003010024000300140FA
:10112000100802406000024008E400E000E100E036
:10113000F0B5264B1C46083C2468E404FAD401248C
:1011400024051C60002926D0002A3CD003256C020F
:10115000EE021F4D174601E0002F0FD02B683340E1
:10116000B34203D003782B717F1E401C2B682342AF
:10117000F2D02B790B70521E491CEDE7002A134B5D
:1011800021D028682042FCD028790870521E491CC2
:10119000002AF6D117E00E49002A0BD00324E402FE
:1011A0000D682540A542FBD005780D71521E401CEC
:1011B000002AF5D108680006FCD400E00879086828
:1011C000C007FBD1086810201860F0BD180000505F
:1011D0000830014070B5002936D00022D3431B4AA5
:1011E00004785C40012365081C40644214406C4054
:1011F000640826461E40764216401D406D4215404A
:1012000065406C08664075082E461E4076421640C2
:101210001C40644214406C406408664075082E46C9
:101220001E40764216401C40644214406C406408E4
:10123000664075081C40634213406B40491E401CC9
:101240000029CDD1D84370BD002070BD2083B8EDFA
:10125000C00204490A680B68D31A1B029842FAD8E4
:101260007047C04618E000E0B0B51748016889072C
:1012700029D50221C9430160144B1A68002A09D0FC
:1012800001242504AA420BD800241C60114B1C68C1
:10129000A2180EE010480068002814D08047B0BDA6
:1012A0006404A24208D85408121B1A60094B1A6839
:1012B000121992B21A6004E0054C12191A60054A1C
:1012C000126842620160B0BD104801403402002043
:1012D0000000FFFF3802002044020020B0B516498C
:1012E0000868C00727D00120C2430A6013490A6872
:1012F000521C0A601249097801291CD1114A11684F
:101300004B1C13601049CC88A34214D300231360F4
:101310008D880E4A1468641CAC4200D31C461460CD
:101320000968E140C90703D0800509490860B0BDDC
:10133000074840210160B0BD10100040400200206D
:101340001C02002020020020280200203002002081
:1013500018080050F0B591B0012568070022C26757
:1013600005210B910E04E90608910C900068044FCA
:10137000044C0549884207950D9207D01BE1C046F1
:10138000FFFFFF0010200240CC5172C80C9840684B
:101390000149884202D00EE1A07E01920020109007
:1013A0000F9009900E90054F384650380EA96022D4
:1013B00000F040FB6068002814D501E0E075FF1FD5
:1013C00020683042FCD120460838034901600349B7
:1013D0000160034F06E0C04623016745AB89EFCDAE
:1013E000E075FF1F38680006800B08990843FF214D
:1013F00089020A91024B98423A46099F2DD901E091
:101400000050000820683042FCD1206801490840A3
:1014100003D001E0FB830000206020683042FCD153
:1014200003485330606003480830606004E0C04601
:10143000FFFFFF004A00010120683042FCD1206814
:1014400003485130606020680249084005D003E03D
:10145000FFFFFF00FB8300002060106880020A99F4
:101460000840089908431946103188425BD90F9803
:101470000E9D21683142FCD12168024A114004D0FE
:1014800002E0C046FB830000216021683142FCD1AC
:101490000249891C61601D60586001E0FFFFFF0088
:1014A00022683242FCD12268D2073A4607D01A6835
:1014B000AA423A4603D15A68101A424242410120D8
:1014C000206067602568F44B1D4000D02560002A2D
:1014D000079DF24A27D00EAAD2680692109D226874
:1014E0003242FCD12268EC4B1A4000D02260EC4B17
:1014F00022683242FCD161609D600699D960216802
:101500003142FCD12168C907E44A03D09968A94255
:1015100000D1D9682060002060602068DE49084062
:10152000079D00D0206020683042FCD10121CB070C
:101530006068184360606068002809D52068304200
:10154000FCD120460838D74A0260D74A0260D34A05
:10155000106880020A9A1040089A1043D34A9042B9
:101560001BD320683042FCD12068CB4A104000D009
:10157000206020683042FCD1CD484B306060CD48BF
:10158000606020683042FCD12068C9484930606002
:101590002068C14A104000D0206020683042FCD151
:1015A0000C98C16707604760606818436060FEF789
:1015B000E4FEF54F0D9AF7480260F748476001686E
:1015C00029430160F54A106C284310642807D16B49
:1015D0000143D163103C2168F14B0B40A9020A91F1
:1015E0005918FE392160116831431160690413688C
:1015F0000B42FCD02B0614689C4314606B060B9EB8
:1016000014681C42FCD1E74CD4600D9C94607C1C97
:10161000156825431560D4680443D46010681842E7
:10162000FCD09068022301931843B0439060906807
:1016300038230340102BFAD1506B2F2318435063EB
:10164000032670020996D84C2060956B079F3D4396
:101650009563556B1D4355632060906B38439063D1
:10166000D06B102305931843D063D06A1843D0621F
:10167000DB430693D06A1840D062CC48042204921F
:101680000260C7603F22826247610A9B1A461D467C
:10169000193AC26202683A430260FF2202921202C1
:1016A000C34CE3689343B2039A18E260C14A1160E5
:1016B00042693A434261C048C04A02600D9A4260A2
:1016C000BF4A8260BF4B1868BF4A10402843186069
:1016D000D8681040FD024019D860780503909861E1
:1016E0000B9806073268B9480240BC0512193260EF
:1016F000F2680240F8051018F0600898B061306890
:10170000049C2043082290433060F0681043A043BB
:10171000F060B1611868AC4C20400A990843186029
:10172000D868204040193D46D860039C9C613068D1
:1017300005990843202188433060F06808430699E2
:101740000840F060B8040890B0613068A0490840D3
:10175000283030602831F06808400019F060B80681
:10176000B061099800039B490B68834338030A90D2
:101770001818086040200B90886197480770974CB4
:1017800097492046FEF730FF002809D09548964932
:101790002160606095480E210160954863210160D9
:1017A0008E4C944908222046FEF71EFF002808D0E0
:1017B00091480199216060608C4805608C486321E4
:1017C000016030688D4A104030600C980D99C160FE
:1017D0002F023069C00518D46E4C206888493269E0
:1017E0003A4204D12268121A4B1C9A42F7D322685B
:1017F000121A8A422946814A07D82168081A6428A1
:1018000002D301200C99C8600D990D917D4B7E4843
:101810007E49D96018617E4919607E4908390C6893
:101820005B498C4248D17B49091F0C6857498C425F
:1018300042D178490968784CA1423DD80446FFF767
:10184000C9FC744909680A5D0B195D782D02AA1854
:101850009D782D045219079DDB781B06D218694B21
:101860009042664A28D10D98002874D059602246CB
:101870002C469D756749888898820868815C801825
:10188000427812025118827812048918C078000632
:1018900008189860594A12E0FB830000E075FF1FAA
:1018A0000050000823016745AB89EFCD01480008CF
:1018B000FFFFFF004A0001012C4600209875099B9C
:1018C0009804404D2968814308980143296018060F
:1018D0003168814331602868104028605348816E28
:1018E00026462143FE229143816651490A683A43C4
:1018F0000A6002683A4302604268BA434260C26EBC
:10190000029CA243C2660A680A9C22430A600168DC
:10191000A143016041682143416000240C980460A8
:101920004460234A106818490840B1074018106005
:1019300080202049086029680B9A1143814329605F
:10194000180229688143394329602E48FEF7CAFFEF
:10195000204611B0F0BD0C980068304A904205D185
:101960000C9840682E4A904200D17FE70C980849B5
:10197000016006494160BFF34F8F2A482A49016040
:10198000BFF34F8F00BFFDE7FFFFFF00A07E019276
:10199000CC5172C84002002010E000E0001002406C
:1019A000F8F4FEFF03100440000001400010004066
:1019B00004E400E000E100E0003000405555000084
:1019C000C409000000040050FFF3FFFFFFFF3FFFCA
:1019D000D7FFCFFF000800501C0200202802002083
:1019E000C41B00080F006400AA020000300200209F
:1019F00020020020DC1B000802006400FFFFFCFF47
:101A00000F270000040200200060000800580008B2
:101A10000C010100886F0008FB9F0100C911E81A42
:101A2000AC94557F0CED00E00400FA05001802406C
:101A300080180240F7B58CB006460D9807900E98B6
:101A4000470942D000213468524A0B462046019192
:101A5000FEF7A5FB5049401845076D0F00D1022540
:101A60004E4A4F4B20460199FEF799FB4D4B4E4A8B
:101A7000C0185141002D1DD0EA0707D04B4A4C4BEE
:101A8000FEF78DFB4B4B4C4AC01851416C0811D0EE
:101A9000464A474BFEF783FB464B474AC018514125
:101AA000424A434BFEF77BFB424B434AC01851412D
:101AB000641EEDD12A46FEF761FB0799361D0860CA
:101AC0000798001D07907F1EBCD10D980A900268F0
:101AD0000E9900200E0902920390002E58D0C808DB
:101AE0000B90364A00230A9C03990298FEF757FB95
:101AF000334B0022C01851410B9A002503910290EC
:101B00002B46921EFEF7E8FC171978783978000208
:101B10000843294604461F4A00230195FEF73FFB70
:101B20001D49401845076D0F00D102251B4A1C4B6B
:101B300020460199FEF733FB1A4B1B4AC01851414E
:101B4000002D1DD0EA0707D0184A194BFEF727FBD6
:101B5000184B194AC01851416C0811D0134A144B44
:101B6000FEF71DFB134B144AC01851410F4A104B8E
:101B7000FEF715FB0F4B104AC0185141641EEDD102
:101B80002A46FEF7FBFA3870000A7870761EA8D154
:101B90000FB0F0BDE72B2D8B531E7223276C9DF3E6
:101BA000085D6720A37A2F98DE2F780E5B4D51C217
:101BB00066F3714A63971A637B212667FF74EA0D07
:101BC000539A9A0BAA0200000F0064002A0000003A
:101BD0000A0064002A0000000A00C8000200000099
:101BE00002006400150000008F0080820000008366
:101BF000000000028001029601038F0080098D0021
:101C000043004300000000028A030486BED89D04FE
:101C10008B450000038E0080008C7004100026208D
:101C2000088C700410000F20080000003C1C000805
:0C1C300080000020C80700000001000830
:020000040800F2
:04480000C1E2465873
:04000005080000BD32
:00000001FF
