:020000040800F2
:106000009823002001700008097000080B70000838
:106010000000000000000000000000000000000080
:106020000000000000000000000000000D700008EB
:1060300000000000000000000F7000081170000850
:106040008589010813700008714C0108137000085D
:10605000137000081370000813700008BD87000853
:10606000137000081370000813700008ED85000815
:106070001370000813700008217301087D74010873
:10608000717501080D76010813700008137000087F
:106090001370000813700008D5720108137000080F
:1060A000137000081370000813700008297E01089F
:1060B000597E0108897E010813700008034885464F
:1060C00000F006F800480047B58E0108982300202C
:1060D000064C0125064E05E0E36807CC2B430C3C3B
:1060E00098471034B442F7D3FFF7ECFF146100086F
:1060F0003461000802E008C8121F08C1002AFAD162
:1061000070477047002001E001C1121F002AFBD137
:106110007047000038610008800000202002000065
:10612000D678000888620008A0020020F82000004D
:1061300004610008000000008113AC0714205A0617
:106140001420DA05100820BE9E010896081B205670
:1061500004415A4C0801141A4C38411AA83CA9446D
:106160001A990C69441A980C29441A50081A9A046E
:106170001BD818041A17383201190439444206286A
:1061800013803F8BDCBCBF5B40163F2A3AE43C2ABD
:106190003A643D08128E22801AF5411301012AF655
:1061A0000712022AF70712032AF80712041AF9073E
:1061B0001303051AFC071306061B02090E12072A11
:1061C000050712081A08071306092A0E07120A2AD9
:1061D0001415120B1A170713010C2A18071983122A
:1061E000FB82088B8815EC1A900C322C2DFEFFFFD9
:1061F000FF0441181681610108DD6A0108A55001FC
:1062000008B95E010889680108390C1EED5A0108B9
:10621000A8FC1A7A041A1A0469FC130C02180F203D
:10622000C9780108297C01089D770108E504411718
:1062300015CD5B072DFF1408B9F54C08A1FE801B96
:106240004C1E7C19904133E80315380140081402B4
:10625000401B0315333212441B401C2005151C0142
:10626000353412481B40302005101D02373639677F
:10627000124C2B4044200C130339382011030080AA
:086280003F00000000000000D7
:020000040800F2
:046F8000CC5172C8B6
:020000040800F2
:046F8400A07E019258
:020000040800F2
:046F880078563412F1
:020000040800F2
:046F8C0005010000FB
:020000040800F2
:106F900000000000000000000000000000000000F1
:106FA00000000000000000000000000000000000E1
:106FB00000000000000000000000000000000000D1
:106FC00000000000000000000000000000000000C1
:106FD00000000000000000000000000000000000B1
:106FE00000000000000000000000000000000000A1
:106FF0000000000000000000000000000000000091
:020000040800F2
:107000000448804704480047FEE7FEE7FEE7FEE746
:10701000FEE7FEE7D1720108BD60000830B50B46FF
:10702000014600202022012409E00D46D5409D4262
:1070300005D31D469540491B2546954040191546E8
:10704000521E002DF1DC30BDF0B51FB40646002005
:1070500082B005464024019100901BE00199224630
:107060000F46304600F05DF8049A059B801A99415E
:1070700010D310461946224600F095F8361A8F4173
:107080000197224601200021009F00F08CF838185B
:107090004D4100902046641E0028DFDC019B0098D3
:1070A0002946324607B0F0BDF0B51FB486B00020C7
:1070B0000090019002900698069980B2049007987B
:1070C000090C02040014114307900027089D099839
:1070D00006913E463C4603900398A9B20204000C78
:1070E000039004982D0C154348430021224600F0DC
:1070F0005AF8C719714110340E46402CECDB384663
:10710000029A00F050F8009A019B801800905941B3
:1071100002980191103002904028CCDB00980BB00F
:10712000F0BD10B5202A04DB0846203AD0400021EB
:1071300010BD0B46D340D0402024A21A91400843F2
:10714000194610BD03460B439B0703D009E008C94D
:10715000121F08C0042AFAD203E00B780370401C07
:10716000491C521EF9D27047D2B201E00270401C95
:10717000491EFBD270470022F6E710B513460A46B7
:1071800004461946FFF7F0FF204610BD30B504460F
:107190000020034600E05B1C934203D2E05CCD5C20
:1071A000401BF8D030BD10B5202A04DB0146203A40
:1071B0009140002010BD914020239C1A0346E340DB
:1071C0001943904010BDF8B502464A40D40F420022
:1071D0004B0052085B089A4202D20246084611460A
:1071E0004A0023D0C30D4A00DDB2120EAD1A202D85
:1071F00035DA49020126490AF6058A19002C00D021
:10720000524220214F1B1146B9402A411018C20D8D
:107210009A4221D0002C17D0012D08DCDA05801A03
:10722000D20F8019D207DBB200F0F7F9F8BDDA050A
:10723000801A012340001B06C01880185A4280188B
:10724000CA0F1043490007E04908C2071143DA0595
:10725000801A80194008801800F0D7F9F8BD610045
:107260000122511A001BF7E70122D2075140AAE779
:107270000122D2075040A6E7024670B54A40D30F1C
:10728000DB0740002DD04A002AD0010E140E000268
:1072900012020919400A520A8418E50104465443AF
:1072A000000A120A2E045043A4194219200CC543A7
:1072B000AA18120C0125AD03521C521912047F3971
:1072C000240400D0521C104301D44000491EC2B215
:1072D0000C06C0092018401C4008802A02D003E098
:1072E000002070BD40084000002900DA002018434B
:1072F00070BD70B502464A40D50F40004A00ED0708
:1073000040085208002814D0002A12D0C40DD30D12
:1073100041020120C0055202490A520AE41A091822
:1073200012187D34914201D3641C00E04900002C06
:1073300001DA002070BD0023914201D3891A034372
:10734000400849000028F7D100290AD0914202D113
:107350000121C90705E0914201D2012101E001218B
:10736000C943E005C018401900F04FF970BD420054
:1073700005D04200120E52428A4201DB00207047C3
:10738000C905081870470000F0B507460846584080
:1073900087B0C00F049048000E46590040084908C5
:1073A000BC1A884105D2384631461E4617460B4660
:1073B00002465800400810434CD0300D0390400561
:1073C0005900400D490D0590401A0290402872DA8C
:1073D00018030121000B090508430190049800924D
:1073E000002805D001995242002088410092019066
:1073F000029840210A1A01990098FFF7D4FE054629
:107400000C466B4607CB00F0EDF8C0197141039AAA
:107410000E0D0023D71756401A467A40164344D023
:10742000049A002A2DD0029A012A039A15DC12052B
:10743000C01A914101263605001C7141D20F059EEC
:10744000D2070093019202962A46234600F057F98C
:1074500007B0F0BD38463146FAE71605224A0F4616
:10746000B218C01AB74101210905001C4F4100188C
:107470007F41114618187941E20F10436D1964419C
:1074800013E0E2076D0815436408C2071443039A2A
:1074900001261205C01A91413605001C7141CE0724
:1074A000400830434908C01851412A46234600F09D
:1074B00019F9CDE7FFE7049801224000C117121A1D
:1074C00000238B4104983146C417381AA141EEE7D6
:1074D00030B40124E407634030BC55E730B40124E4
:1074E000E407614030BC4FE70000E0FFF0B51FB497
:1074F00088B00B990998002448400999C00F4900A9
:1075000049080991C0070B990090490049080B915F
:1075100009990898A64608431CD00B990A98084375
:1075200018D0099801244000420D4800410D0998E7
:1075300024050003000B204309900B980003000B67
:1075400020430B9050181C4940180022019014460B
:10755000104605E0002001460DB0F0BD032801DA19
:10756000034600E003239C46C11A0AAE0AE05F000E
:1075700008ADED5B4F00F75B7D430027AA187C4107
:10758000491C5B1E6145F2DD410004AB5A522104E7
:10759000120C0A43240C401C0828DFDB01980290DF
:1075A0000099704601910090059B049A07990698EE
:1075B00000F0A5F8D0E700000DFCFFFF0EB5C217E4
:1075C000C10F5040CA0740180021054B0293019299
:1075D00000910A460B4600F092F803B000BD00008F
:1075E0003304000010B5202A06DBCB170846203AEA
:1075F0001041C1170B4306E00B461341D040202435
:10760000A21A91400843194610BD002904DA401C13
:10761000490001D140084000704770B40024050CB7
:1076200005D11024000402D1002921D01124050E17
:1076300001D100020834050F01D10001241D850F7E
:1076400001D18000A41C002801DB4000641C00293B
:1076500008D020252E1B0D46F540A14000D0012169
:107660002943084301061B1B000ADB1D02D500202D
:1076700070BC7047DB05181880180029F8DA401C28
:107680004900F5D170BC40084000704770B5002833
:1076900001DC002070BD410040020126400AF605D1
:1076A000090E8019CA0701D14000491E4D10002261
:1076B00011463F353346CB409B18D418844201D83D
:1076C000001B1A464000491C1729F3DD5100814276
:1076D00002D20021C94300E00021E8058018FFF72D
:1076E00094FF70BD10B5002B08DA0024401C6141E6
:1076F00092185B411A4301D14008400010BDF0B51B
:107700001FB482B005460C0003D0084611F0D0FD2E
:1077100002E011F0CDFD20300246009021462846BF
:10772000FFF741FD049B059A04460F461843114399
:10773000084314D0184610431BD0009840210A1A61
:1077400018460599FFF7EDFC05460E46009A059987
:107750000498FFF728FD084305D0012004E02046E7
:10776000394607B0F0BD0020C11705430E432C4336
:10777000374300990E986305401A7905E40A002200
:107780000C43FD0A0A3002D500200146E9E7010555
:10779000101969410C9C0D9D00196941FFF7A2FF6A
:1077A000DFE770B500242546002801DA01244042B5
:1077B000002901DA01254942FFF730FCAC4200D034
:1077C0004042002C00D0494270BD0122D20700285F
:1077D00000DB101A002900DB511A814201D8012078
:1077E0007047002070470122D207002800DB101AE2
:1077F000002900DB511A814201D20120704700208C
:1078000070470122D207002800DB101A002900DB94
:10781000511A814201D30120704700207047012294
:10782000D207002800DB101A002900DB511A814220
:1078300001D901207047002070470122D20700289B
:1078400000DB101A002900DB511A814201D101200E
:10785000704700207047C217C10F504010B5401844
:10786000CA0796230021FFF7D8FE10BDC20F4100C2
:1078700040020123400ADB05D207090EC0187F2908
:1078800001DA00207047962903DC9623591AC84074
:1078900001E096398840002AF4D040427047CB0F6F
:1078A000DB07490010B5490802460A4307D00A0D14
:1078B00007240903E401090B121B002A01DC002044
:1078C00010BDC900440F0C43C100E018D205801858
:1078D000FFF79BFE10BD70B58C180578401C6B0738
:1078E0005B0F01D10378401C2A1106D10278401C9D
:1078F00003E006780E70401C491C5B1EF9D12B0773
:1079000005D40023521E0DD40B70491CFAE70378EE
:10791000401CCB1A921C03E01D780D70491C5B1CA7
:10792000521EF9D5A142D8D3002070BD10B581B048
:10793000EC480089002804D0FFE7EA4800894000AD
:1079400005E01F488179C07900024018FFE76946C9
:1079500008809148406812224243074B434301206C
:10796000C4031B191B0CD218098851438003081843
:10797000C00B01B010BDC0465F84000081B0D94883
:10798000C088002804D0FFE7D648C088400005E042
:107990000B480179407900024018FFE769460880EA
:1079A0007D480068074A42430120C303D218120CE5
:1079B0000988514380030818C00B01B07047C046C6
:1079C00088150020CDD50400B0B5714800210170A4
:1079D0006D4801703A4801680C221143016005208E
:1079E00000070168C0221143016036480168012286
:1079F00012051143016034480168114301600168B8
:107A00009143016067480068C007002822D0FFE763
:107A100064480068400700280ED5FFE76148016808
:107A2000102211430160FFE75E480068C00600288D
:107A300001D5FFE7F8E7FFE75A4801680222114342
:107A40000160FFE757480068C007002801D0FFE742
:107A5000F8E7FFE7534C2068012529070843206019
:107A60007D20C0000FF016FA2068E9070843206067
:107A7000FFE74C480068C00F002801D0FFE7F8E797
:107A80004848016801221143016001681143016007
:107A9000FFE70E480068C007002801D1FFE7F8E7BC
:107AA0000B480C490160012041023D4A11600A491E
:107AB00003220A60094900220A6032490870B0BDF9
:107AC00000040050401002403010024000240140E9
:107AD000102401408D000040142401400C2401407A
:107AE00028480078002801D1FFE74AE026480078BE
:107AF000002808D1FFE72548006825490978890052
:107B0000244A505009E02148006821490978890039
:107B1000204A535818185050FFE71B4800781F2878
:107B200009D1FFE71A48007880001A490958490925
:107B3000194A1150FFE716480178491C0170007876
:107B4000022810DBFFE71248002101700E4801787F
:107B5000491C01700078202804DBFFE70A48002157
:107B60000170FFE7FFE70A4800780C49085C012133
:107B700081400B4801600B480168042211430160F9
:107B8000FFE77047D0050020D105002040240140C8
:107B9000BE050020C0050020C80500201897010878
:107BA000282401400824014080B54B480078002873
:107BB0001BD0FFE749480078002816D1FFE7484866
:107BC0000178F74AB023D154B032C178D1708178AE
:107BD00091704078507098480121017042480AF035
:107BE000C3FA3D4800210170FFE79348007801285F
:107BF00006D1FFE790480021017000F08BF9FFE704
:107C00003A480078012806D1FFE738480021017082
:107C100000F0CAF9FFE73648006800280FD0FFE7F8
:107C20000DF09AFF00280AD0FFE7314800210160DB
:107C3000304806F071FD30480EF07EFEFFE72F4819
:107C40000078002807D0FFE70DF086FF002802D05B
:107C5000FFE70FF011FB2A480078002838D1FFE732
:107C600039480078002833D1FFE726480068C0056E
:107C7000002804D5FFE724480021016027E02248BE
:107C80000068002805D1FFE7204800681E49086009
:107C90001CE01E4800681C490968401A1C498842BB
:107CA00013D3FFE71B481C4901601C481C490160B5
:107CB0001C4806F031FDFFE712480068C0050028A7
:107CC00001D4FFE7F8E711F0A7F8FFE7FFE7FFE7C8
:107CD00000F0DAFD80BDC0464D0800205E040020A3
:107CE000A50700209C060020C80000209815002051
:107CF00050080020789D0108DC1A0020540800205C
:107D00009A06002010000050D4050020FC1B002023
:107D1000B80B000074000020FE78B4C17800002089
:107D2000490D2188809D010880B507480121017017
:107D300006480022027006480170064806F0ECFC76
:107D400005480DF05DF880BDD8050020D305002062
:107D50004C080020409D0108C49E0108B0B582B0C7
:107D6000354900200870AF492122D20000F0AAFC5A
:107D7000002817D0FFE7AB4800882121C9008842BE
:107D800010D1FFE7A7484088FF210631884209D17A
:107D9000FFE7A4484121890044580FF02FF884429E
:107DA0000CD0FFE79F4C2120C1002046FFF7E3F9EC
:107DB0000020E080208101A9087038E0994848211E
:107DC000405C00280FD1FFE7964C2046D430754D1B
:107DD000002229460EF03EFEE834012220462946C4
:107DE0000EF038FE1FE08F484821405C012806D085
:107DF000FFE78C484821405C02280FD1FFE7894CFF
:107E000020464930674D002229460EF023FE5D349E
:107E10000122204629460EF01DFE03E001A80021A4
:107E2000017004E0FFE701A801210170FFE701A84C
:107E3000007802B0B0BDC046A407002010B5674965
:107E40001F200001102200F03DFC00281FD0FFE79A
:107E5000624801784278120251188278C078000294
:107E6000801800044018102811D1FFE75B48017BFF
:107E7000427B12025118827BC37B1B029A181204A8
:107E800054180C210EF0BAFF84420CD0FFE753487F
:107E90008021417100220271C171827142720272AD
:107EA0008272C272FFE710BD80B584B003A908706A
:107EB0000878002804D0FFE714480EF0A7FAFFE77F
:107EC0000DF00AFE029057485021405C002805D072
:107ED000FFE754485021405C019002E001200190EE
:107EE000FFE7029914204843019A7D21C9005143BC
:107EF000FFF794F8064908600868292804D3FFE7CB
:107F0000034828210160FFE704B080BDB0010020D4
:107F10004808002070B543484821405C00280FD134
:107F2000FFE7404C2146D4311E4D002228460DF07B
:107F300077FFE8340122284621460DF071FF1BE04F
:107F400038484821405C012806D0FFE735484821E1
:107F5000405C02280FD1FFE7324C21464931114DD8
:107F6000002228460DF05CFF5D34012228462146A0
:107F70000DF056FFFFE7FFE72A4C2120C5002580C2
:107F8000FF200630608041208600204631460EF0FA
:107F900035FFA051002021462A4600F0BEFB70BDEF
:107FA0009C060020AC070020B0B50C4C0020E0700F
:107FB000A0706070102525700C2120460EF01EFF69
:107FC000010EE173010CA1732073000A60731F207E
:107FD000000121462A4600F0A0FBB0BD8815002014
:107FE00080B510484821405C002809D1FFE70D48C2
:107FF0004621415C0D48402281540AF0B5F810E05A
:1080000008484821405C012806D0FFE70548482180
:10801000405C022804D1FFE703480AF0A5F8FFE717
:10802000FFE780BD9C06002084000020C8000020DF
:10803000F0B581B0E84F3846ED30E84E3146ED31CD
:1080400096242246FFF77EF8FF25294684317818CA
:1080500071182246FFF776F8E14978187118224620
:10806000FFF770F8DF49781871182246FFF76AF8B1
:10807000DD49781871182246FFF764F8DB49781853
:1080800071182246FFF75EF8D94978187118224610
:10809000FFF758F8D749781871182246FFF752F8B9
:1080A000B87EFFF7D8FBD449FFF7E6F8D34C21465A
:1080B000FFF7E2F8EF217854010E3A46EF32D17023
:1080C000010C9170000A5070F32000263E5438468F
:1080D000F330C67086704670B87EFFF7BCFB214651
:1080E000FFF7CAF8F7217854010E3A46F732D170FB
:1080F000010C9170000A5070F87EFFF7ACFBBE498E
:10810000FFF7BAF82146FFF7B7F8863578557D199D
:10811000010EE970010CA970000A6870EE71AE7171
:108120006E712E71F87EFFF796FB2146FFF7A4F8DB
:10813000010EE972010CA9722872000A6872F87DBA
:10814000FFF789FBAE49FFF797F82146FFF794F850
:10815000AC4978547D18010EE970010CA970000A31
:108160006870EE71AE716E712E71F87DFFF773FB62
:10817000A549FFF781F82146FFF77EF8010EE97265
:10818000010CA9722872000A6872387EFFF763FB3F
:108190009B49FFF771F82146FFF76EF89B49785429
:1081A0007D18010EE970010CA970000A6870EE716B
:1081B000AE716E712E71387EFFF74DFB9249FFF75D
:1081C0005BF82146FFF758F8010EE972010CA9721D
:1081D0002872000A6872787EFFF73DFB8C49FFF732
:1081E0004BF82146FFF748F88A4978547D18010E6C
:1081F000E970010CA970000A6870EE71AE716E71C1
:108200002E71787EFFF727FB7F49FFF735F821466F
:10821000FFF732F8010EE972010CA9722872000A08
:108220006872F87DFFF717FB7549FFF725F82146BF
:10823000FFF722F8784978547D18010EE970010C97
:10824000A970000A6870EE71AE716E712E71F87DC2
:10825000FFF701FB6C49FFF70FF82146FFF70CF819
:10826000010EE972010CA9722872000A6872387E48
:10827000FFF7F1FA6249FEF7FFFF2146FEF7FCFF28
:10828000664978547D18010EE970010CA970000A46
:108290006870EE71AE716E712E71387EFFF7DBFA89
:1082A0005949FEF7E9FF2146FEF7E6FF010EE972A4
:1082B000010CA9722872000A6872787EFFF7CBFA67
:1082C0005349FEF7D9FF2146FEF7D6FF54497854AB
:1082D0007D18010EE970010CA970000A6870EE713A
:1082E000AE716E712E71787EFFF7B5FA4649FEF7D2
:1082F000C3FF2146FEF7C0FF010EE972010CA9720F
:108300002872000A68722920385C800332306424A5
:108310002146FEF783FEE1217854000A3946E13117
:1083200048702C20385C80033121CD43281A214627
:10833000FFF737FAE3217854000A3946E3314870F1
:108340002A20385C800332302146FEF767FEE521A3
:108350007854000A3946E53148702D20385C800396
:10836000281A2146FFF71DFAE7217854000A3946FA
:10837000E73148702B20385C800332302146FEF70D
:108380004DFEE9217854000A3946E93148702E2023
:10839000385C8003281A2146FFF703FAEB21785452
:1083A000000A3946EB3148702320385C39462331C6
:1083B0004A783B4639331A75D8748878CA789A75E2
:1083C0005875087949791976D8753920385CA5210E
:1083D000785401B0F0BDC046BC0800201D970108CC
:1083E00019020000AF02000045030000DB0300009B
:1083F0007104000007050000000020410AD7233C5B
:10840000000020401B020000CDCC4C3FB102000018
:108410000000F04047030000DD030000730400008B
:108420000905000070B584B0039002916D48019079
:1084300003980299020ECA72020C8A720872000A2C
:10844000487269480068642800DA8BE0019E307B3E
:10845000717B09020818B17BF27B120251180904E2
:108460000818029D297A6A7A12025118AA7AEB7AC0
:108470001B029A1812045118FEF7FEFE0446307CC7
:10848000717C09020818B17CF27C120251180904AF
:10849000081829796A7912025118AA79EB791B0216
:1084A0009A1812045118FEF7E7FE01462046FEF71F
:1084B0008AFE0446307D717D09020818B17DF27D87
:1084C000120251180904081829786A781202511802
:1084D000AA78EB781B029A1812045118FEF7CCFE0A
:1084E00001462046FEF76FFE044630797179090295
:1084F0000818B179F2791202511809040818297C78
:108500006A7C12025118AA7CEB7C1B029A18120496
:108510005118FEF7B1FE01462046FEF7A5FE0446BF
:10852000307A717A09020818B17AF27A1202511877
:1085300009040818297B6A7B12025118AA7BEB7B7D
:108540001B029A1812045118FEF796FE01462046A7
:10855000FEF78AFE010EE975010CA9752875000A5F
:1085600068750DE00298017A427A837AC47AC475FC
:108570008375427501751C480168491C0160FFE75D
:108580000298017942798379C479C470837042700A
:1085900001700298017A427A837AC47AC471837135
:1085A000427101710298017C427C837CC47CC4735B
:1085B0008373427301730298017D427D837DC47D84
:1085C000C4748374427401740298017D427D120266
:1085D0005118827DC07D000280180004401804B04C
:1085E00070BDC0460C010020B808002081B02C48A6
:1085F0000068009068468078800700282AD5FFE749
:1086000001204004274908602C480078002820D128
:10861000FFE7FFE7244800680006002801D5FFE7D0
:10862000F8E7224810210160214800210160016023
:108630001720000220490860FFE71B480068C007B8
:10864000002803D0FFE71E480078F6E716480068C8
:10865000FFE723E068468078800600281DD5FFE705
:10866000012040050F490860FFE70F480068000639
:10867000002801D5FFE7F8E70C4810210160BFF39F
:108680004F8F0B480021016001600A4801600160C2
:10869000172000020849086000E0FFE701B07047BA
:1086A0000000024004000240083001401800005061
:1086B000580002406C00024004300140F81A0020CB
:1086C0000C30014080B586B004900391029204986A
:1086D000039908700498000A503001A908700878BE
:1086E00003990122002302F0C7F9002809D0FFE70F
:1086F00001A800780399029A02F094F8002804D1A6
:10870000FFE705A80021017003E005A80121017021
:10871000FFE705A8007806B080BDB0B58CB00A9020
:1087200009910892FFE70898002841D0FFE70A98CE
:108730000F2108401021081A0190019808998842D9
:1087400003D9FFE708980190FFE70A9803AC20706F
:108750000A98000A503002AD2870601C0999019AED
:10876000FEF7F0FC287801994A1C0123214602F00B
:1087700083F9002804D1FFE70BA8002101701BE05A
:10878000FFE702A8007803A9012202F04BF80028B5
:1087900001D1FFE7F5E701980A9908180A900998AE
:1087A00001994018099001980899081A0890BAE7A9
:1087B0000BA801210170FFE70CB0B0BD80B50E48D9
:1087C0000068C004002807D5FFE7012000030A491C
:1087D00008600EF0FDF90DE008480068C0050028AB
:1087E00007D5FFE701200002044908600AF054F9A8
:1087F00000E0FFE780BDC046101802400C180240A0
:1088000080B50E480068C0B2AA2815D1FFE7FFE77F
:108810000B480068C003002801D5FFE7F8E701F026
:10882000A7F901F091F901F067F901F055F901F0AC
:108830005BF901F049F9FFE780BDC0462020024006
:108840001020024010B584B00D4801AC60222146D2
:1088500010F066FC0B490C222046FEF797FC00281E
:108860000CD0FFE7FFE701A806490C22FEF78EFCBB
:10887000002802D0FFE7FFE7FEE7FFE704B010BDE6
:108880009075FF1F00500008B0B51B4800685F4995
:10889000CB228A5CCB314B781B029A188B78C97833
:1088A0000902C91809048918401A022823D3FFE7CE
:1088B00011480068554CCB2160542146CB31020E43
:1088C000CA70020C8A70000A487001F015FB20463D
:1088D000A73021468D310C252A46FEF733FC204671
:1088E000B330993421462A46FEF72CFC05F0F6FBFE
:1088F00000F090F8FFE7B0BDFC1B002010B501F0C0
:10890000DDFE00F01DF8414C20467D30211D302257
:10891000FEF718FC20463930214610312422FEF79C
:1089200011FC3920205CA5216054A620215CF02296
:1089300011402154215C0F221140215410BDC0462A
:1089400010B532492320C0003822FFF7BBFE0028B3
:1089500021D0FFE72D480178427812025118827821
:10896000C0780002801800044018382813D1FFE7AF
:1089700026483421425C034634335C782402A21832
:108980009C78DB781B021B191B049C180EF036FA2E
:10899000844206D0FFE71D4803493822FEF7D2FB88
:1089A000FFE7FFF745FB10BD1D97010870B5174C99
:1089B000201D21467D313022FEF7C4FB20461030B9
:1089C000214639312422FEF7BDFB0020E070A07063
:1089D0006070382525703426204631460EF00EFA98
:1089E000A055010E22463432D170010C9170000A5C
:1089F00050702320C00021462A46FFF78EFE04480F
:108A000005F08AFEFFF714FB70BDC046BC080020CD
:108A1000689D0108F0B591B0002010900F90ED48CE
:108A20003821405C012807D0FFE7EA48A621405CD6
:108A30000009012818D1FFE7E648A621405C00099B
:108A400001280AD1FFE7E348A621425C0F231A4020
:108A500042543A2104224254FFE7FFF7A7FFDD48C2
:108A6000382100224254FFE7DA483B21405C0528C8
:108A700035DBFFE7D748D721415CD730012280564C
:108A800000024018D449884205DCFFE7D148D349A9
:108A90000022425422E0CF48D721415CD730012246
:108AA000805600024018CE49884211DBFFE7C948D2
:108AB000D721415CD7300122805600024018C949B5
:108AC000884205DCFFE7C348C4490122425404E060
:108AD000C048C24902224254FFE7FFE704E0BD4814
:108AE000BE4900224254FFE7BA48BC49425C3C23DD
:108AF000C254405C002809D1FFE7B6490846D93086
:108B0000CF310822FEF71EFB00F0DCFEB1483D210C
:108B1000405C00280AD1FFE7AE48CF21415CCF304E
:108B20004078000240180FA908801FE2A94CCF200E
:108B3000205C2146CF3101254957090208184C21F4
:108B4000615C22464C32525712025118411A492098
:108B5000205C48436421FEF724FE0E900E98E1212C
:108B6000615C2246E132525712025118E322A25CA4
:108B70002346E3335B571B029A1808F0A0FB0DA9AC
:108B800008809648205C022800D0F9E091485821DE
:108B9000405C002831D0FFE78E4DA720295C284695
:108BA000A7308278C3781B029A18120443780124F4
:108BB000E40762408C4C295529194B70130ECB7079
:108BC000120C8A70017E427E12025118827EC07E93
:108BD00000028018000444185B202856FEF73BFE74
:108BE0002146FEF741FBFF216854010EFF35E97075
:108BF000010CA970000A687029E0764DA720285C56
:108C00002946A7314A788B78CC78774EA855A81991
:108C1000C47083704270087E4A7E120210188A7EE9
:108C2000C97E0902891809040C185B202856FEF732
:108C300012FE01462046FEF717FBFF216854010E85
:108C4000FF35E970010CA970000A6870FFE7614CFC
:108C5000654EA05DA519697809020818A978EA7817
:108C600012025118090408186049614A08F0E0FA34
:108C7000A055010EE970010CA970000A68700DA8DA
:108C8000008800B24C21615C4C340122A2561202D1
:108C90005118884224DDFFE70DA8008801B23C206E
:108CA00048434C4CE121615C2246E1320123D2561B
:108CB000120251184C22A25C25464C35EB561B0281
:108CC0009A18891AFEF76DFDFEF7C5FDFB21605469
:108CD000010EFB34E170010CA170000A607023E00A
:108CE0000DA8008801B23C2048433A4C4C21615CFD
:108CF00022464C320123D25612025118E322A25CC2
:108D00002546E335EB561B029A18891AFEF749FDF2
:108D1000FEF7A1FDFB216054010EFB34E170010C54
:108D2000A170000A6070FFE72A4C2046ED300AF07F
:108D30006BFEFF204C3021184A788B78C978205C74
:108D40002C4D60556019C170837042702A482018FC
:108D50000AF05AFE2948215C201842781202511864
:108D60008278C0780002801800044018FEF77EFD6B
:108D7000C0037D21C900FEF714FD0FA90880DFE0C4
:108D800014481649405C012800D0D8E011481C491D
:108D9000002242544118CA708A704A705821405CBF
:108DA000002831D0FFE70B48A721415C0246A732DB
:108DB0009378D4782402E3181B0452780124E40742
:108DC0006340104C015500194270190EC170190C06
:108DD000817028E0BC08002017FCFFFF9E05000002
:108DE00019FCFFFFE70300002B02000000007A439C
:108DF00000007AC327020000190200007702000079
:108E0000E9030000ED030000EB48A721415C0246A6
:108E1000A73253789478D278E84D41554019C27002
:108E200084704370FFE7E44CE44FE05DE519697836
:108E300009020818A978EA781202511809040818DA
:108E4000DF4961180891DF49DF4A08F0F1F9E05580
:108E5000010EE970010CA970000A6870DB48215C02
:108E600020184278120251188278C07800028018C7
:108E700000044518CF20205C2146CF310123C9567C
:108E800009020818E121615C2246E132D256120241
:108E90005118E322A25C2746E337FF563F02BA1877
:108EA0004C27E75D26464C36F3561B02DB19462657
:108EB000A65D009600F0A0FEFEF7CDFC0146284618
:108EC000FEF7DAF9C249FEF714FAC2496054020EFD
:108ED0006518EA70020CAA70000A6870605C697814
:108EE00009020818A978EA7812025118090408182A
:108EF000B949FEF7FEF9010EE972010CA972287258
:108F0000000A687208980AF07FFDB448215C2018B6
:108F10004278120251188278C0780002801800044A
:108F20004018FEF7A3FCC0037D21C900FEF739FC01
:108F30000FA908800D980F9A10180880FFE7FFE727
:108F40000FAC208800B29C4AE121515C1346E1330A
:108F500001255B571B025918E323D35CE3325257B8
:108F60001202D21808F083F92080FFE792483E21D0
:108F7000405C002809D1FFE78F48D221415C0FAA4D
:108F8000D170D121405C90705EE38B4CD120205C8D
:108F90002146D13101254957090208184E21615C4B
:108FA00022464E32525712025118411A4A20205C72
:108FB00048436421FEF7F5FB0C900C98E521615CB9
:108FC0002246E532525712025118E722A25C23468C
:108FD000E7335B571B029A1808F071F90BA9088058
:108FE0007F48205C022800D038E273485921405C59
:108FF000002800D1ADE00BA8008800B26E494E22D7
:109000008A5C4E310123C95609028918884225DD40
:10901000FFE70BA8008801B232204843664CE521E7
:10902000615C2246E5320123D256120251184E22CB
:10903000A25C25464E35EB561B029A18891AFEF79C
:10904000B0FBFEF708FCFF2192316054020E61185C
:10905000CA70020C8A70000A487024E00BA80088CD
:1090600001B21E204843544C4E21615C22464E32D0
:109070000123D25612025118E722A25C2546E73599
:10908000EB561B029A18891AFEF78BFBFEF7E3FBDF
:10909000FF2192316054020E6118CA70020C8A706E
:1090A000000A4870FFE7444DC320285C2946C331BD
:1090B0004A78120210188A78C978090289180904B6
:1090C0000C185C202856FEF7C6FB01462046FEF72A
:1090D000CBF8FF2196316854020E6918CA70020C51
:1090E0008A70000A4870AB20285C2946AB314A7868
:1090F0008B78C9783B4C28552819C1708370427011
:10910000295D4278120251188278C07800028018D6
:10911000000440180021FEF774FB002818D1FFE777
:10912000254D304EA85DAC19617809020818A17868
:10913000E27812025118090408182B49FEF79CF82E
:10914000A855010EE170010CA170000A6070FFE7E4
:10915000CEE00BA8008800B217494E228A5C4E313F
:109160000123C9560902891888423FDDFFE70BA891
:10917000008801B21E2048430F4CE521615C224665
:10918000E5320123D256120251184E22A25C254626
:109190004E35EB561B029A18891AFEF702FBFEF7B2
:1091A0005AFBFF2192316054020E6118CA70020C02
:1091B0008A70000A48703EE0BC080020ED03000001
:1091C000DB03000000007A4300007AC31B020000AA
:1091D0000000C842DD0300000000404039040000E8
:1091E0009E050000C1020000CDCCCC3F0BA800883A
:1091F00001B232204843AA4C4E21615C22464E32D5
:109200000123D25612025118E722A25C2546E73507
:10921000EB561B029A18891AFEF7C3FAFEF71BFBDE
:10922000FF2192316054020E6118CA70020C8A70DC
:10923000000A4870FFE79A4DC320285C2946C331D5
:109240004A78120210188A78C97809028918090424
:109250000C185C202856FEF7FEFA2146FEF704F8AB
:10926000FF2196316854020E6918CA70020C8A7088
:10927000000A4870AB20285C2946AB318A78CB784D
:109280001B029A18120449780123DB075A40854BC8
:10929000E854E8184170110EC170110C8170E95C3E
:1092A0004278120251188278C078000280180004B7
:1092B00040180021FEF789FA002818D1FFE7784D01
:1092C000784EA85DAC19617809020818A178E27897
:1092D00012025118090408187349FDF7CDFFA8556B
:1092E000010EE170010CA170000A6070FFE7FFE75A
:1092F0006B4C6C4EA05DA519697809020818A97815
:10930000EA7812025118090408186849684A07F0F7
:109310008FFFA055010EE970010CA970000A68705A
:10932000FF20843020180AF06FFB5920205C0028B1
:109330001AD0FFE75A4DFF26E236A85DAC196178D6
:1093400009020818A178E2781202511809040818D5
:109350005849574A07F06CFFA855010EE170010CFF
:10936000A170000A607019E04D4DFF26E236A85D3D
:10937000AC19617809020818A178E2781202511834
:109380000904081849494C4A07F052FFA855010E34
:10939000E170010CA170000A6070FFE7404CFF20F3
:1093A000E23021184A788B78C978205C434D6055AB
:1093B0006019C17083704270414820180AF024FB84
:1093C0005920205C002819D0FFE7354D3D4EA85D9F
:1093D000AC19617809020818A178E27812025118D4
:1093E000090408183349324A07F022FFA855010E34
:1093F000E170010CA170000A607018E0284D314E38
:10940000A85DAC19617809020818A178E278120207
:109410005118090408182549274A07F009FFA855DB
:10942000010EE170010CA170000A6070FFE71C489A
:109430002449425C40184178090289188278C07832
:109440000002801800044018FEF710FAC0037D21C6
:10945000C900FEF7A6F90FA94880DFE010481A49B5
:10946000405C012800D0D8E00D4818490022425441
:109470004118CA708A704A705921405C002829D06E
:10948000FFE70748AB21415C0246AB325378947842
:10949000D2780F4D41554019C2708470437030E04E
:1094A000BC080020C1020000CDCCCC3F00007A43B4
:1094B00000007AC30000FA430000FAC3BD020000B6
:1094C000AF0200000D0300009E0500007F040000B5
:1094D00083040000FC48AB21415C0246AB32937828
:1094E000D4782402E3181B0452780124E407634073
:1094F000FA4C015500194270190EC170190C817097
:10950000FFE7F14CF54FE05DE519697809020818AD
:10951000A978EA781202511809040818F04961186C
:109520000791EA49EA4A07F083FEE055010EE97027
:10953000010CA970000A6870EA48215C2018427882
:10954000120251188278C078000280180004451871
:10955000D120205C2146D1310123C95609020818C7
:10956000E521615C2246E532D25612025118E7220B
:10957000A25C2746E737FF563F02BA184E27E75D41
:1095800026464E36F3561B02DB194726A65D00968B
:1095900000F032FBFEF75FF901462846FDF76CFE4E
:1095A000CC49FDF7A6FED0496054020E6518EA705A
:1095B000020CAA70000A6870605C697809020818D9
:1095C000A978EA781202511809040818C249FDF76F
:1095D00090FE010EE972010CA9722872000A6872ED
:1095E00007980AF011FAC148215C2018427812024B
:1095F00051188278C0780002801800044018FEF7E5
:1096000035F9C0037D21C900FEF7CBF80FA94880CA
:109610000B984A8810184880FFE7FFE702200FAC3C
:10962000205EA94AE521515C1346E53301255B57CD
:109630001B025918E723D35CE73252571202D218A3
:1096400007F015FE6080FFE79F483F21405C00283F
:1096500009D1FFE79C48D621415C0FAAD171D521E1
:10966000405C9071FCE0FE4CD520205C2146D53159
:1096700001254957090208185021615C22465032E1
:10968000525712025118411A4B20205C4843642162
:10969000FEF787F80A900A98E921615C2246E932D0
:1096A000525712025118EB22A25C2346EB335B5750
:1096B0001B029A1807F003FE09A908808C480021B4
:1096C00021542018C170817041705A20205C0028FC
:1096D0000FD1FFE7E248AF21415C0246AF32537839
:1096E0009478D278834D41554019C270847043708C
:1096F00016E0DB48AF21415C0246AF329378D47864
:109700002402E3181B0452780124E4076340794CD7
:10971000015500194270190EC170190C8170FFE7D4
:10972000CF4F744D785D7C19617809020818A178D3
:10973000E27812025118090408186F497918069145
:1097400064496E4A07F074FD7855010EE170010C12
:10975000A170000A60706A48395C381842781202B9
:1097600051188278C07800028018000440180290D6
:10977000D520385C3946D5310125495709020818EA
:10978000E9210591795C3A46E93204925257120276
:109790005118EB220392BA5C3E46EB3673571B021C
:1097A0009A185023FB5C3C46503464572402E3185B
:1097B00048243C5D009400F01FFAFEF74CF8014687
:1097C0000298FDF759FD4349FDF793FD4D49785443
:1097D000020E7C18E270020CA270000A6070785CC5
:1097E000617809020818A178E27812025118090478
:1097F00008183949FDF77DFD010EE172010CA172D7
:109800002072000A607206980AF0FEF83E48395C41
:1098100038184278120251188278C07800028018F5
:1098200000044018FEF722F8C0037D21C900FDF7AF
:10983000B8FF0FACE0800998E1880818E0800620A6
:10984000205E0599795C049A525712025118039AC6
:10985000BA5C73571B029A1807F009FDE080FFE716
:109860000F9A7F4801464C314C23C35C4C7824024C
:10987000E318D218D923C254120A0346D9335A70B6
:109880000FAA53888C78CD782D022C191B19DB2454
:1098900003551B0A0446DB346370D2880B7949797F
:1098A0000902C9185118DF228154090A0246DF3221
:1098B0005170D421415CDE228154D321415CDD22F0
:1098C0008154FFE711B0F0BDBC08002000007A43CE
:1098D00000007AC30000C84200004040830400003A
:1098E00071040000B102000073040000CF04000006
:1098F0001505000019050000070500000000C8C29A
:1099000047030000090500006505000070B586B03A
:109910000590049103920293059800780E2801DBCC
:10992000FFE798E001A800210170FFE701A8007897
:109930000C2800DD8EE00598007801A9097807223F
:109940004A434649895C88427ED1FFE7049801A9D1
:10995000097807224A43414989188979891C884234
:1099600072D1FFE70598407801A90A7807231C46C1
:1099700054433A4A1419607008784343D018407829
:10998000012850D1FFE701A8007803284BD0FFE75A
:1099900001AD2878072421464143304E7218907853
:1099A000D17809020818117953791B025918090452
:1099B00008180599891C9279FDF7C4FB287844435F
:1099C000305D012829D1FFE725483A21405C012874
:1099D0000ED1FFE722483A2102224254A621425CDE
:1099E000F0231A40521C42541F4804F095FE13E025
:1099F0001B483A21405C03280DD1FFE718483A2163
:109A000005224254A621425CF0231A4042541548D4
:109A100004F082FEFFE7FFE704E01148382101224D
:109A20004254FFE7FFE701A80178072213464B43A2
:109A30000A49CB18039C2360007842438818807938
:109A4000801C0299087006E0FFE70198401C01A9FC
:109A500008706BE7FFE706B070BDC0462701002025
:109A6000BC080020689D0108489D010881B0684637
:109A70000421017013480068C003002804D5FFE7E3
:109A800068460121017019E00E480068C0060028F0
:109A900004D5FFE76846022101700EE0094800681E
:109AA0000006002804D5FFE768460321017003E0A3
:109AB000684604210170FFE7FFE7FFE7684600788A
:109AC00001B0704710200240304801680122D207DF
:109AD000114301607047C0462C4801680122D2063C
:109AE000114301607047C04628480168012292076F
:109AF000114301607047C046B0B582B001A8BB21D8
:109B000001706C460420207000F048F82070207826
:109B1000042814D1FFE701A800780A490A68024323
:109B20000A601A4C206801214D042843206000F08F
:109B300035F8694608702068A8432060FFE702B046
:109B4000B0BDC046202002401048006840000028F8
:109B500006D5FFE703480449016004490160FFE7B7
:109B60007047C0460C2002403B2A19087F6E5D4CAE
:109B700006480068C00F002806D0FFE704480549E2
:109B8000016005490160FFE77047C04614200240AC
:109B90000820024023016745AB89EFCD10B582B0A4
:109BA0000B20000401906C4604202070FFF75EFF3C
:109BB0002070FFE7684601780020012904D1FFE703
:109BC0000198411E8841FFE7C007002808D0FFE741
:109BD000FFF74CFF694608700198401E0190E9E7C5
:109BE0000198002804D1FFE7684605210170FFE7CE
:109BF0006846007802B010BDB0B588B00C9C07ADC7
:109C0000288006A8018005A8028004A8038003A973
:109C10000C7002A900220A7001A90A70298809B2F1
:109C2000008800B2814212DBFFE707A8008800B27B
:109C300004A9098809B2421A6420504306AA12886E
:109C400012B2511AFDF7ADFD02A9087011E007A884
:109C5000008800B204A9098809B2421A642050435E
:109C600005AA128812B2511AFDF79BFD02A90870CD
:109C7000FFE703A80078042800D918E14000C04697
:109C80007844808840008744040008005400A00005
:109C9000FE0001A8642101700AE102A8007840B228
:109CA0000B21C94388420ADBFFE702A8007840B2D3
:109CB0000C2804DCFFE701A86421017038E002A849
:109CC000007840B20C21C943884214DCFFE702A8A7
:109CD000007840B2FDF772FC834A844BFDF706FC26
:109CE000834A844BFDF750FBFDF7D9FDFDF7BEFD20
:109CF00001A908701BE002A8007840B20D2815DB0E
:109D0000FFE702A8007840B24042FDF757FC764AD0
:109D1000764BFDF7EBFB764A764BFDF735FBFDF70F
:109D2000BEFDFDF7A3FD01A90870FFE7FFE7FFE710
:109D3000BEE002A8007840B20B21C94388420ADB8A
:109D4000FFE702A8007840B20C2804DCFFE701A876
:109D50006421017038E002A8007840B20C21C943A8
:109D6000884214DCFFE702A8007840B2FDF726FC29
:109D70005A4A5B4BFDF7BAFB564A5A4BFDF704FBB8
:109D8000FDF78DFDFDF772FD01A908701BE002A82B
:109D9000007840B20D2815DBFFE702A8007840B23A
:109DA0004042FDF70BFC4D4A4D4BFDF79FFB494AE6
:109DB0004C4BFDF7E9FAFDF772FDFDF757FD01A9E0
:109DC0000870FFE7FFE7FFE772E002A8007840B203
:109DD0000B21C94388420ADBFFE702A8007840B2A2
:109DE0000C2804DCFFE701A8642101704AE002A806
:109DF000007840B20C21C94388421CDCFFE702A86E
:109E0000007840B23B21C943884214DBFFE702A837
:109E1000007840B2FDF7D2FB2C4A2D4BFDF766FBD4
:109E20002C4A2D4BFDF7B0FAFDF739FDFDF71EFD6D
:109E300001A9087025E002A8007840B20D281BDBBC
:109E4000FFE702A8007840B23C2815DCFFE702A833
:109E5000007840B24042FDF7B1FB1C4A1C4BFDF7B5
:109E600045FB1C4A1C4BFDF78FFAFDF718FDFDF76B
:109E7000FDFC01A9087003E001A800210170FFE7C3
:109E8000FFE7FFE714E002A8007840B2002806D5FB
:109E9000FFE702984000643001A9087006E00298CC
:109EA00040006421081A01A90870FFE700E0FFE7FD
:109EB00001A8007840B2002804D5FFE701A80021DE
:109EC0000170FFE701A8007808B0B0BD6ABC7493C8
:109ED000180401409A99999999E95F40FCA9F1D237
:109EE0004D62F23F99B95C40C05B2041F163E23FB3
:109EF000AE47E17A14DE5A40F0B585B0C1485D3016
:109F00000490222001AC0C22214600F00DFC607868
:109F10002178049A50701170E078A178049AD0707A
:109F2000917060792179049A50711171E079A17969
:109F3000049A50721172607A217A049AD0729172E6
:109F4000E07AA17A049A5073117304984921405C15
:109F50000F210840012800D033E104980121415627
:109F6000090202788918112282561202007C101808
:109F7000081A322811DBFFE7049801214156090233
:109F800002788918112282561202007C1018081AD1
:109F90003021C943884200DA13E104980321415675
:109FA000090282788918132282561202807C1018C6
:109FB000081A322811DBFFE70498032141560902F1
:109FC00082788918132282561202807C1018081A8F
:109FD0003021C943884200DAF3E004980521415654
:109FE000090202798918152282561202007D101882
:109FF000081A322811DBFFE70498052141560902AF
:10A0000002798918152282561202007D1018081A4A
:10A010003021C943884200DAD3E07B480188491CDB
:10A020000180049901228A56120209785218774950
:10A030000B689A180A60049A0323D3561B0292787D
:10A040009A184B689A184A60049A0523D3561B0243
:10A0500012799A188B689A188A60049A0923D35641
:10A060001B02127A9A18CB689A18CA60049A0B23BA
:10A07000D3561B02927A9A180B699A180A61049AAD
:10A080000D23D3561B02127B9A184B699A184A610A
:10A09000008800B27D21C900884200DA90E05B4D63
:10A0A00028687D21CC002146FDF77BFB04990A46F8
:10A0B00020322023C854000A507068682146FDF7FA
:10A0C00070FB04990A4622322223C854000A5070B9
:10A0D000A8682146FDF765FB04990A46243224232B
:10A0E000C854000A5070E8682146FDF75AFB0499ED
:10A0F0000A4628322823C854000A5070286921468D
:10A10000FDF74FFB04990A462A322A23C854000A55
:10A11000507068692146FDF744FB04990A462C32C9
:10A120002C23C854000A507004984821405C002831
:10A130000ED1FFE7049801462C312C22835C4C7829
:10A140002402E318324C1B198354180A48702AE081
:10A1500004984821405C01280FD1FFE7049801468C
:10A160002A312A22835C4C782402E3180124240338
:10A170001B198354180A487014E004984821405C65
:10A1800002280ED1FFE7049801462A312A22835C77
:10A190004C782402E3181E4C1B198354180A48708B
:10A1A000FFE7FFE7FFE704984921425CF0231A40EC
:10A1B00042540498425C0F231A4010324254FFE785
:10A1C0000AE01248002141610161C1608160416083
:10A1D00001600D480180FFE704990846103008240B
:10A1E0002246FCF7AFFF0499084618300831224692
:10A1F000FCF7A8FF07480188491C018008B20B281A
:10A200000EDB09E0BC080020EC0E0020F00E002060
:10A2100000F0FFFF080F0020F64800210180FFE753
:10A220000498017842781202511802462032202305
:10A23000C05C5278120210180A1AEE48018809B25E
:10A240004B00ED49CA52049A9378D4782402E3185B
:10A25000144622342225525D64782402A2189A1AE8
:10A2600003881BB25B00CB189A82049A1379547945
:10A270002402E318144624342425525D6478240211
:10A28000A2189A1A03881BB25B00CB181A85049A8D
:10A29000137A547A2402E318144628342825525D90
:10A2A00064782402A2189A1A03881BB25B00CB18A8
:10A2B0009A87049A937AD47A2402E31814462A34AB
:10A2C0002A25525D64782402A2189A1A03881BB2C8
:10A2D0005B00CB1850241A53049A137B547B24023E
:10A2E000E31814462C342C25525D64782402A218FD
:10A2F0009A1A008800B24000081864214252ED48C2
:10A30000002141610161C160816041600160684676
:10A310000170FFE768460078092837DCFFE76946E7
:10A3200008784000E24A135EE2480468E3180360DC
:10A330000B785B00D31814241B5F4468E318436058
:10A340000B785B00D31828241B5F8468E3188360B4
:10A350000B785B00D3183C241B5FC468E318C36010
:10A360000B785B00D31850241B5F0469E31803616A
:10A370000978490051186422895E42695118416187
:10A38000FFE70098401C69460870C3E7C9480068A9
:10A390000A21FDF706FAFDF75EFA0121C907024618
:10A3A0004A4004990B46303330240855000A58704F
:10A3B000100ED870100C987004984821405C00284A
:10A3C00029D1FFE7BB4D68680A242146FDF7E9F96A
:10A3D000FDF741FA04990A4634323423C854010E79
:10A3E000D170010C9170000A5070A8682146FDF7E9
:10A3F000D8F9FDF730FA0121C90702464A4004990D
:10A400000B46383338240855000A5870100ED8709F
:10A41000100C98705DE004984821405C012825D11B
:10A42000FFE7A44D68680A242146FDF7BAF9FDF755
:10A4300012FA04990A4638323823C854010ED170F2
:10A44000010C9170000A5070A8682146FDF7A9F927
:10A45000FDF701FA04990A4634323423C854010E38
:10A46000D170010C9170000A507031E004984821BD
:10A47000405C02282BD1FFE78E4D68680A242146F4
:10A48000FDF78FF9FDF7E7F90121CE07014671408D
:10A49000049A134638333827D055000A5870080EEE
:10A4A000D870080C9870A8682146FDF77AF9FDF776
:10A4B000D2F901467140049A1346343334241055BE
:10A4C000000A5870080ED870080C9870FFE7FFE774
:10A4D000FFE7049E354630353027F05D6978090284
:10A4E0000818A978EA781202511809040818724C61
:10A4F0002146FCF7C1FEF055010EE970010CA97070
:10A50000000A6870049E354634353427F05D69785A
:10A5100009020818A978EA781202511809040818E3
:10A520002146FCF7A9FEF055010EE970010CA97057
:10A53000000A6870049E354638353827F05D697822
:10A5400009020818A978EA781202511809040818B3
:10A550002146FCF791FEF055010EE970010CA9703F
:10A56000000A68705348C0680A21FDF71AF9FDF720
:10A5700072F904990A463C323C23C854010ED1704A
:10A58000010C9170000A507004984821405C00282A
:10A5900029D1FFE7474D28690A242146FDF701F933
:10A5A000FDF759F90121C90702464A4004990B46B3
:10A5B000403340268855000A5870100ED870100C91
:10A5C000987068692146FDF7ECF8FDF744F90499A5
:10A5D0000A4644324423C854010ED170010C9170D4
:10A5E000000A507062E004984821405C012830D194
:10A5F00004E0C046080F00205C0E00202D4D2869A5
:10A600000A242146FDF7CDF8FDF725F90121CE07F3
:10A6100001467140049A134644334427D055000A3A
:10A620005870080ED870080C987068692146FDF7BC
:10A63000B8F8FDF710F901467140049A134640330B
:10A6400040241055000A5870080ED870080C9870F5
:10A650002BE004984821405C022825D1FFE7154DE6
:10A6600028690A242146FDF79CF8FDF7F4F80499BF
:10A670000A4644324423C854010ED170010C917033
:10A68000000A507068692146FDF78BF8FDF7E3F882
:10A6900004990A4640324023C854010ED170010C7F
:10A6A0009170000A5070FFE7FFE7FFE705B0F0BDCB
:10A6B0005C0E0020D40E0020295C8F3DB0B582B026
:10A6C00001AC0020207001252846214600F04CF8FE
:10A6D0000F2021462A4600F027F87D20C0000CF00C
:10A6E000D9FBFFE701A800786A2804D0FFE701A89A
:10A6F00000210170F6E7012001AC214600F034F89A
:10A700007F2020701020214600F02EF87C20207041
:10A710001120214600F028F8C12020701720214682
:10A7200000F022F802B0B0BD80B584B00290019173
:10A7300000926A2002A90122002300F09DF900285E
:10A7400008D0FFE70199009A6A2000F06BF8002812
:10A7500004D1FFE703A80021017003E003A8012151
:10A760000170FFE704B080BDB0B588B006900591D8
:10A7700001240494069801AD2870681C0599049A78
:10A78000FCF7E0FC0498421C6A202946234600F0AE
:10A7900073F9002804D0FFE707A80121017003E046
:10A7A00007A800210170FFE708B0B0BD10B516483A
:10A7B0000168FF2212069143332252068918016074
:10A7C000124802680F2109038A4305214B03D2185E
:10A7D00002600F4A136801204405234313600D4AA9
:10A7E0001368234313601368A34313600A4A136872
:10A7F00083431360890211600849094B0B6011689B
:10A800000143116010BDC0462004005000040050F8
:10A810003C1002402C1002400054004010540040F4
:10A820006638C70080B586B005AB187004910392F6
:10A8300002A8012101701978049A039B0078009006
:10A84000002000F003F806B080BD0000B0B58CB069
:10A85000109C0AAD287009A801700892079306A8F9
:10A86000047005A80121017007980490FFE704987F
:10A8700003900398000A002803D0FFE7FF2003900D
:10A88000FFE703980499081A049009A8007840008B
:10A890000AA909784A4251418902401803990904DA
:10A8A000401801900798000A002804D0FFE7049898
:10A8B000002809D1FFE706A80078411E884140061C
:10A8C00001990143019105E001980121090608431E
:10A8D0000190FFE705A80078002806D0FFE701985F
:10A8E0000121490308430190FFE701985D49086091
:10A8F00005A8007800280CD0FFE705A8002101700A
:10A90000FFE7584800688004002801D5FFE7F8E712
:10A91000FFE755480068C006002817D5FFE7FFE7A6
:10A92000514800688006002801D4FFE7F8E74F4847
:10A9300030210160FFE74C4800688006002801D5FF
:10A94000FFE7F8E70BA80021017087E00398029069
:10A95000FFE70298002856D0FFE7FFE7424800686B
:10A96000009068460078C006002817D5FFE7FFE78B
:10A970003D4800688006002801D4FFE7F8E73B481F
:10A9800030210160FFE7384800688006002801D5C3
:10A99000FFE7F8E70BA8002101705FE0FFE70AA8D6
:10A9A0000078002807D0FFE7012069460978C22215
:10A9B00011420ED0FFE70AA801780020002907D134
:10A9C000FFE7294800680421084041424841FFE769
:10A9D000FFE7C0070028C1D1FFE70AA800780028D8
:10A9E00005D0FFE7089800782249086004E0204875
:10A9F000006808990870FFE70898401C08900298C2
:10AA0000401E0290A5E7FFE7174800680006400FC8
:10AA1000002801D1FFE7F7E7FFE70498002800D0FE
:10AA200025E706A80078002814D0FFE7FFE70E48C6
:10AA300000688006002801D4FFE7F8E70B482021D2
:10AA40000160FFE7084800688006002801D5FFE79D
:10AA5000F8E7FFE70BA801210170FFE70BA80078DA
:10AA60000CB0B0BD04540040185400401C540040C9
:10AA7000245400402854004010B586B005AC207026
:10AA80000491039202A803702178049A039B007832
:10AA900000900120FFF7DAFE06B010BD80B582B04D
:10AAA0000190019881000520002207F05BF802B0B8
:10AAB00080BD80B582B00190019882000520002100
:10AAC0000B4607F063F802B080BD80B5052006F0A4
:10AAD00013FE80BDB0B5724C2078012820D160787B
:10AAE00005281DD8784400794000874402291A3887
:10AAF0003E0222480078032141430D19FFF7E5FF8C
:10AB0000687A811E4842484100F066FB204630309A
:10AB100020211B4A00F038F800F045F80020607052
:10AB2000B0BDA078012801D100F04EF87D200001D1
:10AB3000144909680818FFF7B1FF03206070B0BD21
:10AB4000A078002802D1022000F046FB0D480068E2
:10AB50006421081AFFF7A2FF02206070B0BD6420D4
:10AB6000FFF79CFF04206070B0BD002000F034FBB4
:10AB70006420FFF793FF05206070B0BDBF9C010803
:10AB8000D5AB0008C49C010880B584B00390029145
:10AB900001920399029A01980090002003460DF05B
:10ABA00031FC04B080BD80B500200DF0AFFC80BD4D
:10ABB00080B582B0019000910199009A002003466F
:10ABC0000DF0E4FC02B080BD80B500200DF056FD14
:10ABD00080BD0000F0B58BB00546314E30780128BD
:10ABE00000D090E02F4800687D218900081AFFF707
:10ABF00060FF0024204600F0EFFAB470012272706A
:10AC0000281F1C2869D830200590315CA94264D1E6
:10AC10000692032D08460AD032463132EB1E084612
:10AC20001778C01980B25B1E521C002BF8D1721924
:10AC30003032521E531E1B7812781202D218EA4B81
:10AC400043409A42069A48D1B460F078002800D177
:10AC5000F270347731200290375CFA09E348837848
:10AC6000934252D1E243049203977A06520F072A85
:10AC700000D97CE1920002A39A58049B9746C046F3
:10AC8000A9AC000819AD00087FAD000883AE00082C
:10AC9000B3AE0008DFAD00086FAF000837AE0008A4
:10ACA000B8030020C09C0108042900D05FE10F20F8
:10ACB00003990140039100D159E1F0480078002840
:10ACC00000D154E131460D31CA5C022A00D02FE197
:10ACD000401EC91C0028F7D149E1E848007803214B
:10ACE00041438D19FFF7F1FE687A811E48424841C1
:10ACF00000F072FA304630302021E14AFFF744FF7D
:10AD0000FFF751FF74700BB0F0BD012000F064FA42
:10AD10000320F0700BB0F0BD042900D027E1F74903
:10AD20000A78002A00D122E10F21039C0C400394F1
:10AD300031460E31039F06E0521EC01CC91C002A7A
:10AD40002B4600D113E11D465B185B1E1B78002BC0
:10AD5000F2D04C5DBC42EFD1022B04D0049A521EBB
:10AD600002238B54F370039A1202A14BD218B283C0
:10AD70000278B2774078F07700200870F7E0042975
:10AD800000D0F4E0DD490978002900D1EFE00F247C
:10AD9000039A059422400392451C37460E37002043
:10ADA000039C05E0FF1CED1C401C814200D1DEE04D
:10ADB000DA19521E1278022AF4D1FA5CA242F1D1B9
:10ADC0003A7807AC214600F01DF92D7838780390C9
:10ADD00000011030A84200D9B1E01022B1E0C7480C
:10ADE0000078002800D1C2E00F21039A0A400392A4
:10ADF00035460D35039A04E0ED1C641CA04200D1D9
:10AE0000B5E0E95C0229F7D129789142F4D1718E3D
:10AE100032462032204600F0EDF8002800D1A6E0AE
:10AE20002978728EF283801D090201430D200003F0
:10AE30000843B0839BE0042900D098E00F200399D9
:10AE4000014000D093E0FFF740FEAC4800780028B6
:10AE500005D031460C310C70C91C401EFBD1B470BA
:10AE60007470B460204600F0B7F904203071F470BB
:10AE7000304630302021A24AFFF786FEFFF793FECE
:10AE800075E00F20039C044039D09C4801780029CC
:10AE90006DD032460D32002004E0D21C401C8142AD
:10AEA000049B64D0D35C022BF7D11378A342F4D176
:10AEB00026E092480078032141438C19FFF705FEF4
:10AEC000607A811E4842484100F086F930463030B1
:10AED00020218B4AFFF758FEFFF765FE00207070B7
:10AEE000039840B2002842D40598305C20283ED117
:10AEF0003046323000F006F90220F07037E00020D2
:10AF0000728E31463431009161426141AB1F00F0D5
:10AF100068F900282BD00298305C000727D00598EC
:10AF2000325C30461C3031463031FCF70BF91EE004
:10AF30000698C85403980870306BF06117E0059AC2
:10AF40002A400498385C00021018001D05214903AE
:10AF50000143B18330461E302146FCF7F3F80398D5
:10AF6000401CC1B209018D4200D800203870327FE8
:10AF7000002A00D1C7E6FF21022A0B460FD0032A80
:10AF800001D1FC230BE030461D30D31E144605785A
:10AF9000A4B264195B1E401C002BF8D1E343304679
:10AFA0001C308218049CA218521E1370327FFE239C
:10AFB0001340022B0DD031461D31D31E14460D789F
:10AFC000A4B264195B1E491C002BF8D1A1B2090A76
:10AFD000C9438218049B9954317FFFF7E9FD069815
:10AFE000B0700BB0F0BDC046FFFF0000BC9C010874
:10AFF0000690000083B0029001A80180009200201A
:10B0000003B0704710B584B0039002910192FCF731
:10B01000B5FC074C21464143C80C02990870FCF767
:10B02000ADFC4443E00E0299487004B010BDC04628
:10B03000CDCC0000B0B5FFF748FD304800780028BF
:10B0400006D02D490C3100220A70C91C401EFAD1CD
:10B05000294D0024AC706C70AC60204600F0BCF848
:10B0600004202871EC70284630302021244AFFF754
:10B070008BFDFFF798FD01202870B0BDBF9C010833
:10B08000D5AB0008B0B51C4D287801282DD1E87843
:10B0900000282BD0A968491CA960FA291FD3FFF703
:10B0A00014FD16480078002806D029460C310022ED
:10B0B0000A70C91C401EFAD10024AC706C70AC60E0
:10B0C000204600F089F804202871EC7028463030C2
:10B0D00020210B4AFFF758FDFFF765FDE878297935
:10B0E000884202D0287100F089F8B0BD002029798B
:10B0F0008842FAD0F6E7C046B8030020BF9C01089A
:10B10000D5AB000880B586B0059000200490FFE71D
:10B11000049804284AD8FFE70498264908187121A2
:10B12000405C039003980D280CD8FFE7059803991D
:10B1300049004218405C5178090240181E490840F5
:10B14000029013E00598039906224A4310185338D9
:10B1500001900198017809098278F0231A40891832
:10B1600000791840000108180290FFE7029813497F
:10B17000884203D8FFE71448029008E0029810497B
:10B18000884203D3FFE70F480290FFE7FFE70298EA
:10B190000E4941430E480818000C049949000D4A15
:10B1A0005052FFE70498401C0490B1E707F0A6F95D
:10B1B00006B080BD9C060020FF0F0000ED020000DD
:10B1C000CB080000CA080000EE0200009CC420006A
:10B1D000F0FDFF3FDA05002081B06946087001B03C
:10B1E000704710B584B0069C039002A8017001A8B6
:10B1F00002800093002004B010BD000080B582B032
:10B2000001A90870087804281BD8C0467844007942
:10B21000400087440210130202000E4800900E48BE
:10B22000002101700178012211430170017802228E
:10B230001143017005E00648009002E003480090C9
:10B24000FFE7009803F068FA02B080BD589D01083E
:10B25000409D0108609D0108241A0020F0B581B0CE
:10B26000602200238354027B042A50D804466034B1
:10B270007A44127952009744020E1B1F2D00026877
:10B28000092A08D8F34A12684260744820800426CC
:10B2900000292AD12DE041229200437B1B029A18FB
:10B2A0002280EC4A12688260042600291DD120E029
:10B2B000807B0002684A07E02222E54B9A5C0A4341
:10B2C00027D0807B0002614A0243228004260029A5
:10B2D0000BD10EE040302246E8C8E8C2E8C8E8C218
:10B2E0002678002E13D0002903D0607880210143F6
:10B2F0006170B51E204629460BF0A8FDA1198E1ECF
:10B300003070204629460BF0A1FD000A707001B094
:10B31000F0BD4F480288921C930AE3709208A27015
:10B320004288921C930A6371920822718288921C4F
:10B33000930AE3719208A271C288921C930A637205
:10B34000920822720289921C930AE3729208A272F6
:10B350004289921C930A6373920822738289921C19
:10B36000930AE3739208A273C289921C930A6374CE
:10B3700092082274028A921C930AE3749208A274BF
:10B38000428A921C930A637592082275828A921CE3
:10B39000930AE3759208A275C28A921C930A637697
:10B3A00092082276028B921C930AE3769208A27688
:10B3B000428B921C930A637792082277E278838B00
:10B3C0009B1C9D082E011643E670F02215406679FD
:10B3D0002E4366719B091340E5791D43E571637A3D
:10B3E000C58BAD1CAE0837011F4367721640E37A68
:10B3F0003343E372AB091340657B1D436573E37B05
:10B40000058CAD1CAE0837011F43E7731640637C03
:10B4100033436374AB091340E57C1D43E574637DDE
:10B42000408C801C85082E011E4366751540E37D07
:10B430002B43E37580091040627E02436276054823
:10B4400020802026002900D04FE752E7042000008A
:10B450006804002020400000041000000470000078
:10B46000F0B587B004920390774802780020012A53
:10B4700063D1E522764C0592A35C0E78FF2E00D1B5
:10B4800001269E4259D8029100900398C01C019059
:10B490000498077805E0761C0027D9B2F2B28A42F8
:10B4A0004AD8F1B26518E822AA5CFF2AF3D0F82046
:10B4B000285C0697FFB23B01C21A102A00D3102263
:10B4C0002124E4002C5DFC40E40718D0039F3A706F
:10B4D0005F489830451850242C5DBE707C708901FF
:10B4E0004018C118F4310198FBF72CFE0298067041
:10B4F0000498069F07706020285C002101E001216C
:10B50000069F7F1CFAB213010022984206D9984286
:10B510004F4C07D9B618002908D110E017469842B9
:10B520004B4CF7D80122B618002908D00598235CA7
:10B53000D9B2F2B28A42B4D9009807B0F0BD0298ED
:10B54000067004980770012007B0F0BD10B5F84AE6
:10B55000F649535C0021FF2B18D03B4B1B78002B86
:10B5600014D0E423D45C002C10D001780902084CDC
:10B570000C432321C900545240880421D1548D2109
:10B5800049005052D820002111500121084610BD19
:10B5900006D0000010B586B005AC207004A801806C
:10B5A0000392029305986C46207004986070000A1C
:10B5B000A070E01C0299039AFBF7C4FD0398C21C1B
:10B5C000024821460BF04AF806B010BD22F00000F8
:10B5D000F0B581B01C4C2278002A33D11B4BEF4DC3
:10B5E0000022EA54EC4BE954DD4EA85530230327E2
:10B5F000EF548423EA54E423EA52D823EA50272361
:10B60000DB00EA54CB4B1B68DC27EB51FF280B46D1
:10B6100000D003460527FB1AF64FEB5562702A62ED
:10B620006A62FF2906D00C4B0022084619460CF02E
:10B630003DFDA85DFF2803D0074900220CF036FD30
:10B640000120207001B0F0BDA80400208F0500008B
:10B650000C0F0020FC1B0020C89C0108F0B585B031
:10B660000446FB4A0029019101D1CB4800E0F9488A
:10B67000101800780CF0FAFC02948034039404282B
:10B6800026D30746039D14350120C043049003E0F0
:10B690007F1E6D1C032F1BD92E78301F1C28F7D856
:10B6A000A819049A815C8018407800024418B11EE1
:10B6B00028460BF0CBFB8442EAD1039F384629464B
:10B6C0003246FBF73FFD029E307B042808D920E17B
:10B6D0000020039F3870029E307B042800D918E1B7
:10B6E00032464032784400794000874402142843AF
:10B6F00052003068401C306070688E490968081A32
:10B70000FF21F431491C884200D202E10120B081BE
:10B7100002F0DEFCE7E0707B118C3A888A426CD143
:10B72000401C707302F0D4FC707B3118302200236F
:10B730008B5402223273B073FF200874D3E0019857
:10B74000C103707B02020A437B49114389B23A88E4
:10B75000914200D0A7E0F978491E3F2900D9A2E024
:10B760003018B9780174F978202281540020F073E0
:10B770000120CDE02220B649085C019B184300D18E
:10B78000B1E0B07B311820228A5C112A46D2002514
:10B7900063E051780F230846184000D1B2E0490613
:10B7A000490F032943D0052900D0ABE03D780A2D8D
:10B7B00000D9A7E00121A9400B24E401214200D1D6
:10B7C000A0E07978CC090495019DA542049C00D0A5
:10B7D00098E00B40834200D094E070231940502938
:10B7E00000D08FE079885288914200D08AE0A21F71
:10B7F00033468433FFF7CEFE89E0002873D0012062
:10B80000B0730198002824D12220F049085C002858
:10B810001FD0042030730020306064E0B978032525
:10B820000D4029011031914215D8102215E03888B9
:10B830001188884266D179885488A14262D1C0B209
:10B840000A2853D0082854D007285BD110793A79B8
:10B8500051E0032046E00F210A401C46D9030302B1
:10B860000B43111D1943012673030B4399B23B8807
:10B87000994217D1002C1AD08001D4490818290107
:10B880004018632189004018029F39468231FBF736
:10B8900059FC3146A940B87B3A183023D45C0C439C
:10B8A000D4540DE0029EF07B401CF07331E0400068
:10B8B000C6490818029F39468231FBF743FCB87B22
:10B8C000797B401CC2B28A4200D80646BE730F295B
:10B8D0003E4608D2B068BF490968081A80087D282A
:10B8E00001D3012030730020F07312E0706C7A688D
:10B8F00001E09088BA88824204D17878184000F03C
:10B90000ABF804E03068401C30600A2801D3032003
:10B910003073F07B0A2806D3B07B401E707302F0B0
:10B92000D7FB0120307305B0F0BDC0468C05000088
:10B930000C0F0020FC1B002006100000B0B582B0E8
:10B94000444CA24D285D002300935B2189006918B7
:10B9500020220CF057FD285D0CF0D8FD02B0B0BDE0
:10B960008C05000080B5024800210BF053FC80BD1F
:10B970003DB90008B0B582B0F74CF54D285D002305
:10B9800000932946B83120220CF03CFD285D0CF0D4
:10B99000BDFD02B0B0BDC0468D0500000C0F0020FB
:10B9A00080B5024800210BF035FC80BD75B9000858
:10B9B00070B582B00E48E64D295C002915D1E249E8
:10B9C0000978002911D001212954E04EA85D009189
:10B9D000094A00242146234605F056FDA85D7D2135
:10B9E000CA012146234606F0D1F802B070BDC04618
:10B9F0008F0500008E05000069BD000810B5D44A0F
:10BA0000D449535C0021FF2B20D0CF4B1B78002B57
:10BA10001CD0E423D45C002C18D0017809024478AF
:10BA2000A41D0C430B21090321432324E4001153DB
:10BA30008D2149004488545240680421D154472143
:10BA400089005050D820002111500121084610BD16
:10BA50000C0F00208C05000080B584B003AA107084
:10BA600002A80180039801A9087002984870000A92
:10BA70008870034803220AF0F1FD04B080BDC0467F
:10BA800021F00000F0B581B0B349B14A535C002108
:10BA9000FF2B00D196E0AC4B1B78002B00D191E03E
:10BAA0002221535CFF2800905AD0002B62D0312114
:10BAB000515C00295CD0931C00242046264604E0FB
:10BAC000002026469B1C8C4276D2171935257D5DB9
:10BAD000641CFD2DF6D11F88002FF3D0FD07EFD198
:10BAE000BD0721D47D0721D43D0721D4FD0621D4F3
:10BAF000BD0621D47D0621D43D0621D4FD0521D4E7
:10BB0000BD0521D47D0521D43D0521D4FD0421D4DA
:10BB1000BD0421D47D0421D40125ED032F4000D0A4
:10BB20000F20002FCDD1CDE70120CAE70220C8E7C2
:10BB30000320C6E70420C4E70520C2E70620C0E7CB
:10BB40000720BEE70820BCE70920BAE70A20B8E7CB
:10BB50000B20B6E70C20B4E70D20B2E70E20B0E7CB
:10BB6000002B05D03020032313540026565422E026
:10BB7000002620E0012353543121535C002B0FD0C9
:10BB8000941C002503E0A41C6D1C9D4208D256198C
:10BB90003527F65DFD2EF6D100232380535CF2E7B6
:10BBA00068215054302100265654094951660949EC
:10BBB0000968566291623046F1B2C2B2009800F054
:10BBC0000BF80121084601B0F0BDC0460C0F002063
:10BBD00007300180FC1B002080B584B003AB1870D7
:10BBE00002A8017001A802700398694608700298C3
:10BBF000487001988870034803220AF02FFD04B0B2
:10BC000080BDC04619F000004F480178012901D1DC
:10BC1000012141707047C046F0B581B04A4C607850
:10BC2000002819D02078012814D100252570474814
:10BC3000474E305C012105F05DFB4648305CFF2833
:10BC400001D00CF0A3F94448305CFF2801D00CF07F
:10BC50009DF9657001B0F0BD3C483D4D285C7D21EB
:10BC6000C9010024224605F07DFF3B48285CFF28DF
:10BC70001CD02320285C002813D138480068016AB2
:10BC8000097802290DD1C0690078002809D0302038
:10BC90000321295484202C546C6201200002688402
:10BCA00004E0284624300021FFF7D8FC294FE85D46
:10BCB000FF2804D02846D8300121FFF7CFFC2326E7
:10BCC000A85D002806D025480068006A0078022890
:10BCD00009D0AC552048285CFF2804D028462430E1
:10BCE0000021FFF7BBFAE85DFF2804D02846D830D2
:10BCF0000121FFF7B3FA1848285CFF2811D0A95D8D
:10BD000000290ED184216A5C22216B5C002B00D0BB
:10BD1000134B294684310CF039FC0F48285C0CF099
:10BD2000ADFCE85DFF2809D02721C9006A5C6918CD
:10BD30000C4B0CF02BFCE85D0CF0A0FC02F014FDA9
:10BD4000288401B0F0BDC046A80400208E05000084
:10BD50000C0F00208C0500008D0500006004002001
:10BD6000A1B9000865B9000880B5024800210BF0B0
:10BD700067FA80BD19BC00087047000080B582B02A
:10BD800001230093034A0520002105F07DFB02B04A
:10BD900080BDC0467545010880B582B0019001980C
:10BDA00081000520002205F0DDFE02B080BD80B5D7
:10BDB00082B0019001988200052000210B4605F019
:10BDC000E5FE02B080BD80B5052005F095FC80BD84
:10BDD00010B5F64CE078042824D8C04678440079A1
:10BDE00040008744022007301B001E4800210BF052
:10BDF00011FA10BD2079002802D1E068406C80471C
:10BE0000E1685F20085C0A465F32527880186E2233
:10BE1000101A896A88470320E07010BD114800217C
:10BE20000BF0F8F910BDE068006C8047E1685E2017
:10BE3000085C0A465E3252788018F030896A88477A
:10BE40000220E07010BD6079012802D1E068C06C6A
:10BE50008047E1686020085CE130896A88470420F7
:10BE6000E07010BD15C30008704780B582B0019026
:10BE70000199002001220CF019F902B080BD80B5B3
:10BE800084B00390029101920399029A0198009064
:10BE9000002003460CF0B6FA04B080BD80B5002047
:10BEA0000CF034FB80BD80B500200CF05BFB80BD46
:10BEB00080B582B0019000910199009A002003465C
:10BEC0000CF064FB02B080BD80B500200CF0D6FB06
:10BED00080BD0000B0B587B005AA1080049110881D
:10BEE000FF281ADDFFE705A8008841218900884264
:10BEF00013DCFFE705A80088FF21C9434018029022
:10BF00000498039002982C4908187121405C039909
:10BF1000087006A80121017046E005A800880121EB
:10BF2000490288423CDBFFE705A80088812189009F
:10BF3000884235DCFFE705A800881D4940180090BD
:10BF400004980190009841001A484218415C5278C8
:10BF5000019B5C7824025206520C0125ED032C4013
:10BF6000A2181970110A59704021415C4030427882
:10BF7000120251188278C07800028018000440181C
:10BF80000099C84001990A784B78C0035B065B0CA6
:10BF900018180A70000A487006A80221017003E010
:10BFA00006A800210170FFE706A8007807B0B0BD21
:10BFB00000FEFFFFAC0700209C06002010B582B0F9
:10BFC0000190FBF7DBFC074C21464143C80C01996B
:10BFD0000870FBF7D3FC4443E00E0199487002B0AF
:10BFE00010BDC046CDCC000070B50446D24D002631
:10BFF000AE706E70AE60E860006A8047A16B094861
:10C00000884701202870E868006B8047EE70E86878
:10C01000C36B284625302421C84A9847E868006C3D
:10C02000804770BD309D010880B5C349087801285C
:10C0300010D18868002804D05D4A1268101A63285D
:10C0400009D9002048708A78904203D08870C96866
:10C05000496A884780BD48788A789042FAD0F5E7E7
:10C0600080B52520B44908568206120F022A0BD04B
:10C07000012A10D0002A0DD1002810D44006C00F8C
:10C08000C9680969884780BD2620085C001FC96807
:10C090008969884780BDC8684069804780BD0220A3
:10C0A000C9680969884780BD10B50446A248C168BF
:10C0B0005E20085C0A465E32527810184B22101A35
:10C0C000C96A8847024821460BF0A4F810BDC04653
:10C0D000D5C00008F0B581B00546974EF07800282D
:10C0E0002FD1A81F1E282CD8344625346019401E95
:10C0F0000778691E20460AF099FE874221D1252043
:10C10000305C81071DD12621715CA94219D101271C
:10C11000F7700021717126490968B1602721715CAF
:10C1200007220A40B2718906490FF1718006000F9B
:10C13000022817D001281DD0002824D1F068006DF6
:10C1400012E0F068006B80470020F070F068C36B6D
:10C15000304625302421794A9847F068006C8047A2
:10C1600001B0F0BDF068806D00280CD03146283158
:10C170002A1F06E0F068406D002804D031462831BF
:10C180001422FAF7DFFF0B48002529460BF014F8BC
:10C190007078002800D177703571F068C36B252165
:10C1A000054A2046984701B0F0BDC046080400206B
:10C1B000FC1B002061C00008BDC1000880B501461D
:10C1C0005D480122027102480BF024F880BDC04690
:10C1D000D5C10008F0B581B0574DE978022928D1C2
:10C1E000152826D139202C5C2846253014210AF048
:10C1F0001DFE84421DD125202F5C032038400128DC
:10C2000017D12C46113414212046FAF7B4FF022628
:10C210002E74B80804285FD8784400794000874419
:10C2200002192A3444006878012855D0002068702B
:10C2300052E0E868006B80470020E870E868C36B54
:10C240002846253024213D4A9847E868006C8047FD
:10C2500001B0F0BD06202874E8685C21415C697477
:10C2600001465C314978A974C0688047E8740006CB
:10C2700036D16E7034E0687802282DD10A202874F7
:10C28000E8688168204688472AE06878022823D138
:10C290000E202874E88C6874010AA974E9680A6899
:10C2A000294614319047E8741AE06878002813D0C2
:10C2B00012202874E88C6874010AA9742821695C2A
:10C2C000EA6853682A4629329847E874E8790728CB
:10C2D00006D1A879072803D10020687101B0F0BD0C
:10C2E0002C461034142120460AF0A0FD2421685465
:10C2F00001206871E868826C15212046904701B0E2
:10C30000F0BDC04681B0F6480078694608700098D4
:10C3100001B0704710B5084CE068006B8047002002
:10C32000E070E068C36B204625302421034A98471B
:10C33000E068006C804710BD08040020A9C0000818
:10C3400080B582B001A908700198E6490870E448F8
:10C350000078002801D0FFE71EE010481049364A57
:10C360000AF0FAFA00200090FFE70098042810D89D
:10C37000FFE70098C14909187122895C4900084A01
:10C38000515A4000074A1152FFE70098401C0090A4
:10C39000EBE706F0B3F8FFE702B080BD5A060020D5
:10C3A0001A060020DA05002080B5CD480178FE226B
:10C3B0001140017000F00EF880BDC04680B582B01B
:10C3C0000190C7480178FD221140017000F002F889
:10C3D00002B080BD80B592B0C14800788007C00F20
:10C3E000002806D1FFE7BE480078C007002801D02A
:10C3F000FFE71CE00F48104A02A90AF0ADFA00203E
:10C400000190FFE70198042810D8FFE701989B49A5
:10C4100009187122895C490002AA515A4000074A52
:10C420001152FFE70198401C0190EBE7FFE712B0C3
:10C4300080BDC04696080020101A00205608002033
:10C4400070B588B006AB188005A8017004921888F2
:10C45000FF2838DDFFE706A80088412189008842CF
:10C4600031DCFFE706A80088FF21C943401802908D
:10C470000498039005A80078012805D1FFE70398E8
:10C480000078202804DBFFE707A800210170E7E01F
:10C4900002987A4908187121405C0399097888420A
:10C4A0000DD0FFE7039800780299744A5118712261
:10C4B0008854FFF78FFF704801210170FFE705984E
:10C4C00007A90870CCE006A800880121490288422B
:10C4D00000DAC1E006A8008881218900884200DDD9
:10C4E000BAE006A8008860494018009004980190BE
:10C4F00005A80078022829D1FFE701980178407843
:10C50000000240184004002820D0FFE7019801787D
:10C510004078000240185549084006280ADBFFE72A
:10C5200001980178407800024018504908403228AC
:10C530000CDBFFE7019801784078000240184B4976
:10C540000840FF219231884204DBFFE707A8002161
:10C55000017085E00098400045490A18085C517850
:10C560000902081801990A784978090289183F4A8E
:10C57000114088421ED1FFE73D484021415C4030D8
:10C580004278120251188278C078000280180004A4
:10C5900040180099C8400121084041424841019992
:10C5A0000A78497809028918C90B4A4251418842E0
:10C5B0004ED0FFE7019841780278009843002C485C
:10C5C000C418C2547F2211406170009901228A4030
:10C5D0004023C45C014640314D782D022C198D78E2
:10C5E000CE78360275192D042C199443C454200EAC
:10C5F000C870200C8870200A487001980178407833
:10C6000000024018C00B00281AD0FFE70098012153
:10C610008140174A4023D45C1046403045782D02B3
:10C620002C198578C678360275192D042C190C43FF
:10C63000D454210EC170210C8170210A4170FFE792
:10C640000C4800210AF0B8FD0B4801210170FFE7FA
:10C65000059807A9087003E007A800210170FFE70B
:10C6600007A8007808B070BD00FEFFFFFF7F000044
:10C67000AC07002055450108A40700209C060020B7
:10C6800080B582B001A908700878002806D0FFE7BD
:10C69000012813D0FFE7022813D015E00F480090BF
:10C6A0000F480021017001780122114301700178C7
:10C6B0000222114301700B48027005E00648009009
:10C6C00002E004480090FFE7009802F025F802B06D
:10C6D00080BDC046589D0108409D0108609D01082D
:10C6E000241A00204C08002010B50146DF2040002D
:10C6F000F84C201800F058FA0020E07210BDC04637
:10C7000010B5FF20D230F34C201801F069FB002057
:10C71000E07210BD80B507480078012808D10AF002
:10C72000D1FBEC48017C02220A4302740AF0DCFBD4
:10C7300080BDC046AA040020F0B58BB00590E54846
:10C74000807A002806D00E78FF2E019105D0B00621
:10C75000470F03E000200BB0F0BD002707210E407B
:10C760000598C01C039002921578069104E07F1C86
:10C770000025002800D0A3E1F1B20020072903D151
:10C78000FAB2012A00D1A2E1072905D13A0603D164
:10C79000D04A1446683419E0072908D0FAB2072AAB
