:020000040800F2
:100000004808002081020008970200089F020008AB
:1000100000000000000000000000000000000000E0
:10002000000000000000000000000000A70200081F
:100030000000000000000000AF020008B702000846
:10004000BF020008C5020008CB020008D102000868
:10005000D7020008DD020008E3020008E9020008F8
:10006000EF020008F5020008FB0200080103000887
:10007000070300080D030008130300081903000814
:100080001F030008250300082B03000831030008A4
:10009000370300083D030008430300084903000834
:1000A0004F030008550300085B03000861030008C4
:1000B000670300086D0300087303000800F002F8EE
:1000C00000F030F80CA030C8083824182D18671E2E
:1000D000A246AB4654465D46AC4201D100F022F840
:1000E0007E460F3EB6460FCC0126334200D0FB1AA7
:1000F0003343A246AB4618479C1B0000AC1B0000D4
:100100000023002400250026103A01D378C1FBD833
:10011000520700D330C100D50B6070471FB51FBD1B
:1001200010B510BD00F0C7FA1146FFF7F7FF00F059
:1001300059FD00F04FF803B4FFF7F2FF03BC00F0E5
:1001400055F8000070B505460C46164602E00FCC87
:100150000FC5103E102EFAD2082E02D303CC03C5D1
:10016000083E042E07D301CC01C5361F03E02178D9
:100170002970641C6D1C761EF9D270BD10B5202A42
:1001800004DB0846203AD040002110BD0B46202455
:10019000D340D040A21A91400843194610BD4343B2
:1001A000514330B55C18010C130C0D4692B25D43FF
:1001B00080B251432C19054655430A0C09044D19C8
:1001C00062415843010C00044019514130BD704751
:1001D0007047704710B50446C046C0462046FFF73A
:1001E000AAFF10BD00487047800000200149182078
:1001F000ABBEFEE72600020070479700438F0080E9
:10020000140101000001C100010180010001000092
:1002100001020000000000000000000000000000DB
:1002200000000000000000000000000000000000CE
:1002300000000000000000000000000000000000BE
:1002400000000000000000000000000000000000AE
:10025000000000000000000000000000000000009E
:10026000000000000000000000000000000000008E
:10027000000000000000000000000000000000007E
:100280004448804744480047444A1268002A00D145
:1002900000470968084742484249F5E7FEE74248F7
:1002A0004249F1E7FEE742484249EDE7FEE74248AE
:1002B0004249E9E7FEE742484249E5E7FEE74248AE
:1002C0004249E1E742484349DEE743484349DBE727
:1002D00043484449D8E744484449D5E74448454958
:1002E000D2E745484549CFE745484649CCE7464827
:1002F0004649C9E746484749C6E747484749C3E72B
:1003000047484849C0E748484849BDE7484849493F
:10031000BAE749484949B7E749484A49B4E74A482A
:100320004A49B1E74A484B49AEE74B484B49ABE72E
:100330004B484C49A8E74C484C49A5E74C484D4927
:10034000A2E74D484D499FE74D484E499CE74E482E
:100350004E4999E74E484F4996E74F484F4993E732
:100360004F48504990E7504850498DE7504851490F
:100370008AE75148514987E7FEE7514800688546BA
:1003800050480068004700004F485049504A514BC0
:100390007047000049140008BD0000087C000020E0
:1003A0009D02000808600008A50200080C60000813
:1003B000AD0200082C600008B50200083860000893
:1003C000BD0200083C600008790300084060000896
:1003D00079030008446000087903000848600008B9
:1003E000790300084C600008790300085060000899
:1003F0007903000854600008790300085860000879
:100400000D0B00085C6000087903000860600008BC
:100410007903000864600008790300086860000838
:10042000790300086C600008790300087060000818
:1004300079030008746000087903000878600008F8
:10044000790300087C6000087903000880600008D8
:10045000D51300088460000879030008886000084C
:10046000790300088C600008790300089060000898
:100470007903000894600008890800089860000863
:10048000790300089C60000879030008A060000858
:1004900079030008A460000879030008A860000838
:1004A00079030008AC60000879030008B060000818
:1004B00079030008B460000879030008B8600008F8
:1004C000006000080460000848020020480800207E
:1004D0004804002048040020FEB5054610460C469E
:1004E000184373D0AE468C460020AD1A01469C419D
:1004F00067D36646002701243D46B61A9D4102D3C4
:1005000013463A462124654676462F04360C3E4370
:100510002D0CB61A9D4104D3150C1B042B43120459
:100520001034654676462F06360A3E432D0AB61A23
:100530009D4104D3150E1B022B431202083465465D
:1005400076462F0736093E432D09B61A9D4104D33E
:10055000150F1B012B431201241D65467646AF077C
:10056000B6083E43AD08B61A9D4104D3950F9B00D3
:100570002B439200A41C65467646EF0776083E435F
:100580006D08B61A9D411AD392185B41641C16E09F
:100590000018764665464941B71A9D410191009081
:1005A00009D36046B11A98418E4684460098019955
:1005B0000025401C6941DD0752082A435B08641E80
:1005C000E6D57246634603B0F0BDFFE70020014662
:1005D000C046C0462A462346F5E7034610B50B43FE
:1005E0009B070FD1042A0DD308C810C9121FA342BC
:1005F000F8D018BA21BA884201D9012010BD0020D4
:10060000C04310BD002A03D0D30703D0521C07E01B
:10061000002010BD03780C78401C491C1B1B07D11F
:1006200003780C78401C491C1B1B01D1921EF1D190
:10063000184610BDF8B5042A2CD3830712D00B78C6
:10064000491C0370401C521E83070BD00B78491CB9
:100650000370401C521E830704D00B78491C0370A2
:10066000401C521E8B079B0F05D0C91ADF002023A8
:10067000DE1B08C90AE0FFF765FDF8BD1D4608C985
:10068000FD401C46B4402C4310C0121F042AF5D272
:10069000F308C91A521EF0D40B78491C0370401C91
:1006A000521EEAD40B78491C0370401C012AE4D482
:1006B00009780170F8BD7546FFF794FDAE46050058
:1006C00069465346C008C000854618B020B5FFF7FC
:1006D0005BFE60BCB64600260027C0C5C0C5C0C5CD
:1006E000C0C5C0C5C0C5C0C5C0C5403D490849005A
:1006F0008D46704770B5FF2189021A4A126893022D
:100700000B400122D4061C430021844227D9052135
:100710000904154B1C680C42FCD11D68134C254084
:10072000002D00D01D601D680D42FCD11F25ED0677
:100730004019000A0E4D05400E48284358600E4EE1
:100740002E435E601D680D42FCD10C4908401968BB
:100750005860114018682040002800D018600846F2
:1007600070BDC046E075FF1F10200240FB830000F3
:10077000F8FFFF000200000102000101F8FFFF0185
:1007800006480321C9434158052212041142F8D1F9
:100790000121C90702680A43026070471420024021
:1007A000F0B582B0D31D0722934301931C18FF229A
:1007B0009202264B1B689D0215400123DE062E4344
:1007C0000022B4423FD2019A002A1A463BD00522A9
:1007D00014041F4D1F4E84C9083933682342FCD1CD
:1007E00033682B40002B00D0336033682342FCD1A8
:1007F000194B736002600097476033682342FCD155
:100800003368002501273B422B4609D003689342F9
:100810002B4605D14268009BD21A00239B1A5341F4
:100820003760756032680A4D2A40002A00D0326075
:100830000022002B07D0019A083A083008310192B3
:10084000002A3A46C7D1104602B0F0BDE075FF1F3E
:10085000FB83000010200240010000010748C1682E
:10086000002900DB70470521090482680A42FAD199
:1008700003490160034901607047C04608200240F7
:1008800023016745AB89EFCDF0B581B01848026808
:1008900002210A422AD0C9430160164A1368002B7C
:1008A0000AD0154DAC1CA3420DD2154E3468E41885
:1008B0002C403460002316E012480068002815D050
:1008C000804701B0F0BD01246404A34207D85E084C
:1008D0000B4F3C68A4192C403C609B1B03E0074C69
:1008E0001B19074C246813604462016001B0F0BD1D
:1008F00010480140E0000020FFFF00000000FFFF63
:10090000E8000020E400002010B5154A0021116025
:10091000144A10601448016001208204134B1C69C2
:1009200014431C611C6814431C601C6894431C60C5
:100930000B22D2430E4B99505961D9603F21D961A6
:100940000C4919629860196802220A431A60FF2153
:100950000904094A13688B4380051843106010BDD1
:10096000E8000020E4000020E000002030100240F9
:100970000C480140FFFF000014E400E0B0B512494C
:100980000860124B9A1C904206D2124C2268121830
:100990001A40226000200FE001225204904207D842
:1009A00044080C4D2A6812191A402A60001B03E003
:1009B000074A8018074A1268086007484262022105
:1009C000C9430160B0BDC046E0000020FFFF000049
:1009D0000000FFFFE800002010480140B0B51149B9
:1009E0000860114A1268114B1A60114CA51CA842EC
:1009F00004D2121822401A6000200BE001256D0479
:100A0000A84205D84508521922401A60401B01E04F
:100A1000084BC0180860084842620221C9430160BF
:100A2000B0BDC046E0000020EC000020E80000203F
:100A3000FFFF00000000FFFF10480140024800686F
:100A4000024908607047C04624480140EC0000207D
:100A5000F0B516490B68012293430B600223DB4378
:100A60000B614A61124C2060124D00262E60124E1E
:100A7000B71CB84203D23040286000250BE0570471
:100A8000B84205D847083E402E60C51B304602E0FC
:100A90000A4D45190020256048630B619005084BFD
:100AA0001860086810430860F0BDC0460048014067
:100AB000E0000020E8000020FFFF00000000FFFF32
:100AC00000E100E0024801680122914301607047A3
:100AD00000480140B0B50446094D08222846214689
:100AE000FFF77BFD00280AD003CC03C5083CA08893
:100AF000401E04490860E088401E03490860B0BDFC
:100B0000F800002000010020F400002080B5012141
:100B10000A0307484368134201D0426080BD0902BE
:100B200002680A4202D0016000F0AEFE80BDC046FD
:100B30000C1802400121CA040905002800D00A4609
:100B400004490A6010220823002800D01A460A60CF
:100B50007047C046180400507047C04602280BD0AA
:100B6000012811D000280ED1012041050A4A116048
:100B7000C0060A490860704701204105064A116015
:100B8000C0020649086070470120C006034908609A
:100B900001482021016070471804005018000050DF
:100BA00002480068010B0120084070471000005007
:100BB000012251065202002800D01146014801606E
:100BC0007047C04618040050BFF34F8F03480449D4
:100BD0000160BFF34F8F00BFFDE7C0460CED00E0A2
:100BE0000400FA05F0B58FB0012568070022C2673E
:100BF000052107910E0409900068034C03498842BF
:100C00000B9205D0FAE0C04610200240CC5172C8C9
:100C100009984068FC49884200D0EFE000200E901F
:100C20000D9006900C90F94F384650380CA9602270
:100C300000F036FF6068002808DA20683042FCD1F6
:100C40000720C043F2492150F2492150FF2082027F
:100C5000386881020A9211400120C20608921143AD
:100C6000ED4AEE4B99421CD921683142FCD12168F2
:100C70001140002900D0216021683142FCD1E849AF
:100C800053316160E7490831616021683142FCD12C
:100C90002168E3495131616021681140002900D089
:100CA0002160396889020A9B1940089B1943DB4B74
:100CB0001033994258D90D990C9B27683742FCD1C3
:100CC00027681740002F00D0276027683742FCD1E3
:100CD000D34FBF1C6760D14A136051602768374209
:100CE000FCD127680742069A17460AD0CB4F3F68C7
:100CF0009F42174605D1C94B5B68591A00235F1AFA
:100D00004F41206062602168C34A1140002900D031
:100D10002160002FBD4F27D00F9B0E9927683742C7
:100D2000FCD127681740002F00D027602768374282
:100D3000FCD1BB4FBF1C6760B84FB960FB60236834
:100D40003342FCD123680342B04F05D0B34B9B68BC
:100D50008B4201D1B149C9682060002161602168DE
:100D60001140002900D0216021683142FCD1C10727
:100D700063680B4363606368002B0ADA3A462368B2
:100D80003342FCD10723DB43A14FE750A14FE7508B
:100D900017463B689B020A9A1340089A1343A24ADB
:100DA0009342069B1DD322683242FCD122689A4F9F
:100DB0003A40002A00D0226022683242FCD1984A90
:100DC0004B326260974A626022683242FCD12268EC
:100DD000934A4932626022688F4F3A40002A00D01D
:100DE000226022683242FCD162680A43626009993B
:100DF0000B604B60C867FFF7C0FA0B9AFD480260B2
:100E0000FD49F9484860086828430860FB49086CB8
:100E1000284308642A07C86B1043C8630F20C043E7
:100E20002358F74F1F40F74B1F43275008683043A4
:100E3000086068040B680342FCD02B060C689C43D6
:100E40000C606B060C681C42FCD1EF4CCC600B9C18
:100E50008C60E54C641C0E6826430E60CC6814431D
:100E6000CC600A681A42FCD08A68072306939A432A
:100E700002230A931A438A608A6838231340102B8E
:100E8000FAD14A6B2F231A434A630324620226468F
:100E9000DE4C22608F6B2F438F634F6B1F434F637A
:100EA00022608A6B2A438A63CA6B102305931A4314
:100EB000CA63CA6A1A43CA62CA6A9A43CA62D44AED
:100EC000042104911160D5603F2494625561CD4C9A
:100ED000E534D46214682C431460FF2102910C02A3
:100EE0002B46CC49CF68A74335460895AC033C4315
:100EF000CC601E46F021C04C0391605054693443CD
:100F00005461C54AC54C14600B9C5460C44C946039
:100F10000C22D243079C27073C68144004990C43D9
:100F20003C60F968114008221143F960B861EB4355
:100F30003546BC490868184028430860C8680093D3
:100F400018400A9B1843C860680588613021C9436E
:100F50003C680C40059B1C433C60FB680B40202117
:100F60001943F960A9040491B9613968AE4B19407D
:100F70002C050C433C60F96819400143F960A80650
:100F8000B86108980003A9490B68834328030590BA
:100F900003430B6040268E61A5480570A54CA64909
:100FA0002046FFF71AFB002809D0A448A449216075
:100FB0006060A4480E210160A348632101609D4C3C
:100FC000A24908222046FFF708FB002808D0A048C5
:100FD0000A99216060609B4805609B48632101601D
:100FE00038689C490840386009980B99C1602B0209
:100FF000386918420A9330D17E4C20683A69964984
:101000001A4217D01BE0C046A07E0192E075FF1F78
:1010100023016745AB89EFCDFB830000005000083A
:10102000FFFFFF004A000101014800083A690A9BDE
:101030001A4204D12268121A4B1C9A42F6D3226833
:10104000121A8A42294608D82168081A64280B997E
:1010500003D301200999C86000210B917F4C80487F
:1010600080492160804AE06022610698C0437F4B3E
:1010700018585F49884207963AD1009818585B493A
:10108000884235D119687A48814231D8104600F03B
:10109000C9FC0690754800687349425C7249431860
:1010A0005978090211439A7812040A43D97809063B
:1010B00011436D4A069B8B421AD16C4B0B99002948
:1010C00078D01E462B460121A175B1886060A182AF
:1010D0003068815C8018427812020A4381780904E2
:1010E0001143C07800060843A060029A049C04E003
:1010F0002B460020A075029A049C00210B910998B0
:1011000001604160089DA804464E31688143214337
:101110003160280639688143396030684D4908409C
:101120003060D2435749886E104001931843886657
:1011300080200B580A9C23430B500B6823430B6001
:101140004B68A3434B60CB6E1340CB660A58059B9C
:101150001A430A500A689A430A604A681A434A6066
:101160002C490968204A1140019B9A070A432949E2
:101170000A602149039A88503068C0218843079942
:101180000843306028023168814321433160A8025E
:10119000316881431B48FE3008433060A805396838
:1011A00081439805084338602C4800F03BFA0B98BF
:1011B0000FB0F0BD099909682E4A914206D10999EC
:1011C00049682D4A9142284A00D17AE7099808498E
:1011D000016006494160BFF34F8F284828490160EC
:1011E000BFF34F8F00BFFDE7FFFFFF00A07E01921E
:1011F000CC5172C81C01002010E000E00010024039
:10120000F8F4FEFF02030000031004400000014058
:101210000010004004E400E000300040555500009C
:10122000C409000000040050FFFFCFFF0008005079
:10123000F0000020F8000020381C00080F006400B7
:10124000AA02000000010020F4000020301C000869
:1012500002006400FFFFFCFF0F27000004010020D4
:10126000005800081401010000600008886F0008A1
:10127000FB9F0100C911E81AAC94557F0CED00E00A
:101280000400FA0500180240B0B503200202052050
:1012900001070B689343012004021C430C608B6818
:1012A00013438B600B6A1B4C1C400C623F239B0258
:1012B0008C681C438C600C689C431523DB02234321
:1012C0000B600303144C25691D43256125681D43EC
:1012D000256025689D4325600C32104B1A6017224B
:1012E00012025A601A68402414431C6010228A615A
:1012F0000B4911240C600C330A4C23604A60636173
:10130000FF210906084A13688B431360C00207498E
:101310000860B0BDFFFF0F003010024000300140F8
:10132000100802406000024008E400E000E100E034
:10133000F0B5264B0724E4431D590124260335420A
:10134000F8D125051D60002924D0002A3BD00325B3
:101350006C02EE021E4D17462B683340B34203D099
:1013600003782B717F1E401C2B68234203D02B79FE
:101370000B70521E491C002FEED1002A134B22D0B5
:1013800028682042FCD028790870521E491C002A87
:10139000F6D118E00E49002A0BD00325ED020E68A5
:1013A0002E40AE42FBD006780E71521E401C002A21
:1013B000F5D1086880221042FBD100E00879086866
:1013C0002042FBD1086810201860F0BD18000050C2
:1013D00008300140B0B515490A680120024224D006
:1013E000C2430A6012490A68521C0A60114909780E
:1013F00001291AD1104A11684B1C13600F49CC887F
:10140000A34212D3002313608D880D4A1468641C14
:10141000AC4200D31C4614608205A0400B684021FA
:10142000184200D0114607480160B0BD10100040BE
:101430001C010020F0000020F4000020F800002033
:1014400000010020180800507047C046C00204493F
:101450000A680B68D31A1B028342FAD37047C0464E
:1014600018E000E010B5BC4BDA78032A48D8411CDC
:101470007A4412795200974401253241C21D012459
:101480000470D86803680B701C0ECC701C0C8C7038
:101490001B0A4B70837D002B33D0838A0B711B0A90
:1014A0004B71416811700B0ED3700B0C9370090ACD
:1014B000517080681071010ED171010C9171000A98
:1014C000507110BD022202701A690A70140ECC709D
:1014D000140C8C70120A4A701979417110BD0322E4
:1014E00002701A690A70140ECC70140C8C70120AF7
:1014F0004A705979FF2910D0417110BD0521017042
:1015000010BD0020D071907150711071D07090702A
:10151000507010704871087110BD1979002902D0FF
:10152000FF21417110BD0021417110BD70B504460D
:101530008A480068884DA860A878012804D002284D
:1015400004D03748FFF7C6FA0220A870012068705F
:101550002178491E042919D87944097949008F4412
:10156000020516152C000020E87070BDE9780129ED
:1015700026D16178A27812025118E27823791B02F1
:101580009A18120451182A698A4223D170BDE97849
:10159000022923D16178A27812025118E2782379C6
:1015A0001B029A18120451182A698A4220D16E79B6
:1015B000617988403042E9D123E00320E87070BDB2
:1015C0006178A27812025118E27823791B029A18E6
:1015D00012045118A871E870296170BD6178A27871
:1015E00012025118E27823791B029A18120451183A
:1015F00029610221E97000266E71617988403042CC
:10160000C4D1C0B206436E71480129490818A11D12
:101610002022FFF70FF8FF2EB8D10220A87170BD6D
:10162000401C00084C4EF060FFF72EFE00F09CF8C6
:101630001E48FFF769F94A48FFF74CFA0027B771CF
:101640007771B770012460023080642005E0377143
:10165000B470B771022070702046FFF7F9F9B079C5
:101660000028FCD0FFF72EFAF0683169E2079142BA
:101670000ED1C568B07901280FD0B0790228E6D123
:10168000FFF7ECF8220228460949FFF789F809E03C
:1016900000694518B0790128EFD1FFF7DFF8284637
:1016A000FFF728F83071FFF76BF8D1E7B51600089F
:1016B00044010020B0B5284C2078012803D100F067
:1016C0005BF900281ED000252570607800281AD00C
:1016D00001280CD0022815D165702248FFF74EF979
:1016E00001202070A07802281CD0E9431CE00220D1
:1016F00060704B2080001230FFF740F9012020700D
:1017000000F008F9B0BDA06814490968081A07215B
:10171000C9016731884211D9E078032810D1FFF759
:1017200053FAB0BD0721C9016161801E411E884185
:1017300020761434204600F089F8B0BD012004E082
:10174000A5700748FFF7C6F9022060704B208000A3
:10175000FFF714F9B0BDC046280100201C0100208D
:10176000481C00083102000070B5AA4E00203070FD
:10177000FFF71EFA7D20C5002846FFF767FE01240B
:101780002046FFF715FA2846FFF760FEFFF708FA34
:101790000028FBD12C4D681C00210222FFF7C8FD58
:1017A000FFF7FEF90028FBD1281D00210222FFF7D8
:1017B000BFFDFFF7F5F90028FBD1E81D002103224A
:1017C000FFF7B6FDFFF7ECF90028FBD128460B30F8
:1017D00000210922FFF7ACFDFFF7E2F90028FBD159
:1017E0002846153000210222FFF7A2FDFFF7D8F9A5
:1017F0000028FBD12846183000210422FFF798FD6D
:10180000FFF7CEF90028FBD128461D300021042225
:10181000FFF78EFDFFF7C4F90028FBD12235002128
:1018200003222846FFF784FDFFF7BAF90028FBD111
:1018300000252846C046C0462846FFF78FF92846AF
:10184000FFF778F9747070BD5C1C0008B0B5714981
:10185000486003250D700B48002408222146FFF73D
:1018600067FD424821462A46FFF762FD404821466F
:101870002A46FFF75DFD3F4801222146FFF758FD4C
:10188000B0BDC046821C000870B58CB00024204654
:10189000FFF764F95F4E307804281ED1FFF7CEF8C9
:1018A0001B4801AD04222946FFF742FDE8784006B7
:1018B0001AD419200001FFF791F8347001AC802090
:1018C00060701B202070292220462146FFF730FD42
:1018D000E01CFFF72BFE0CB070BD51480021022226
:1018E000FFF726FD0CB070BD706800790028F2D0BB
:1018F0001F48002403222146FFF71AFD0220FFF7AC
:101900002DF9454804222146FFF712FD0CB070BDA9
:10191000501C0008F0B585B03E4801240470124800
:10192000002508222946FFF703FD6E4675701A2030
:101930003070B01CFFF796FD0C48032729463A4645
:10194000FFF7F6FC112230462946FFF7F1FC084864
:1019500029463A46FFF7ECFC064829462246FFF79F
:10196000E7FC05B0F0BDC0468A1C0008FD01000878
:10197000FA0100080602000870B5264E70780124AE
:1019800001283ED13078401E03283AD878440079A7
:101990004000874401121628022030706F2080001A
:1019A000FEF7ECFF0120FFF7D9F81C4800240422C1
:1019B0002146FFF7BDFC204670BD00203070204658
:1019C00070BD04253570706800682230FEF7D6FFC0
:1019D0000220FFF7C3F81048002421462A46FFF7EB
:1019E000A7FC204670BD70680068401C0BD00C48F6
:1019F000002502222946FFF79BFC2846FFF7AEF898
:101A00003570204670BD0120C003FEF7B7FF0020EF
:101A100070BDC04620010020541C0008581C00085E
:101A20000A02000870B5002936D00022D3431B4AB1
:101A300004785C40012365081C40644214406C40FB
:101A4000640826461E40764216401D406D421540F1
:101A500065406C08664075082E461E40764216406A
:101A60001C40644214406C406408664075082E4671
:101A70001E40764216401C40644214406C4064088C
:101A8000664075081C40634213406B40491E401C71
:101A90000029CDD1D84370BD002070BD2083B8EDA2
:101AA000F7B58CB006460D9807900E98470942D0BE
:101AB00000213468524A0B4620460191FEF76FFB25
:101AC0005049401845076D0F00D102254E4A4F4B33
:101AD00020460199FEF763FB4D4B4E4AC018514119
:101AE000002D1DD0EA0707D04B4A4C4BFEF757FBA1
:101AF0004B4B4C4AC01851416C0811D0464A474BD9
:101B0000FEF74DFB464B474AC0185141424A434BF2
:101B1000FEF745FB424B434AC0185141641EEDD1CC
:101B20002A46FEF72BFB0799361D08600798001D13
:101B300007907F1EBCD10D980A9002680E99002074
:101B40000E0902920390002E58D0C8080B90364A16
:101B500000230A9C03990298FEF721FB334B0022D5
:101B6000C01851410B9A0025039102902B46921EFA
:101B7000FEF7B2FC17197878397800020843294635
:101B800004461F4A00230195FEF709FB1D49401832
:101B900045076D0F00D102251B4A1C4B20460199B9
:101BA000FEF7FDFA1A4B1B4AC0185141002D1DD0FB
:101BB000EA0707D0184A194BFEF7F1FA184B194AF1
:101BC000C01851416C0811D0134A144BFEF7E7FAC4
:101BD000134B144AC01851410F4A104BFEF7DFFA5D
:101BE0000F4B104AC0185141641EEDD12A46FEF732
:101BF000C5FA3870000A7870761EA8D10FB0F0BD13
:101C0000E72B2D8B531E7223276C9DF3085D6720F5
:101C1000A37A2F98DE2F780E5B4D51C266F3714A7E
:101C200063971A637B212667FF74EA0D539A9A0B18
:101C30000200000002006400AA0200000F0064001D
:101C40002A0000000A0064002A0000000A00C80000
:101C500015000000820000008300000002800102E5
:101C60009601038F0080098D0043004300000000AF
:101C7000028A030486BED89D048B450000038E00B3
:101C800080008C700410002620088C700410000F57
:101C900020080000A41C000880000020C8070000E5
:041CA0000001000837
:020000040800F2
:04480000C1E2465873
:04000005080000BD32
:00000001FF
