:020000040800F2
:10600000081F002061700008697000086B700008AC
:106010000000000000000000000000000000000080
:106020000000000000000000000000006D7000088B
:1060300000000000000000006F7000087170000890
:10604000B539010873700008A103010873700008D6
:10605000737000087370000873700008E57700081B
:10606000737000087370000873700008957600085C
:106070007370000873700008512501089D260108FF
:1060800073700008FD270108737000087370000822
:106090007370000873700008ED2401087370000825
:1060A00073700008737000087370000809300108ED
:1060B0006D300108D13001087370000800F002F85B
:1060C00000F0A2FF0CA030C8083824182D18671E55
:1060D000A246AB4654465D46AC4201D100F094FF67
:1060E0007E460F3EB6460FCC0126334200D0FB1A47
:1060F0003343A246AB46184724000000440000008A
:106100000023002400250026103A01D378C1FBD8D3
:10611000520700D330C100D50B60704740610008C2
:106120008000002030020000767300083062000812
:10613000B0020020581C00000061000800000000B0
:106140004113F5C3021808229082201A980C32409D
:106150003258022726181639160108BD1E0108CD2F
:10616000070108E1130108911C01088D0C172D107F
:1061700001081C08142094071420D00614205C0980
:106180001B201C048B200270014429641A10641A1D
:10619000C0BC1314011B200D64696C1A0C041A8115
:1061A000181AC4241A0E0C1BCC12041A11803201C6
:1061B00019041AC01811021206A9506D2A430108C9
:1061C000504129500118395031128E1280180EADED
:1061D0002A0108092E010881290108C9044117155F
:1061E000CD5B0721C81408ADBE140895C739145BF0
:1061F0000818903133E80315380140081402401B99
:106200000315333212441B401C2005151C01353484
:1062100012481B40302005101D0237363967124CDA
:106220002B4044200C1203393820000000000000ED
:020000040800F2
:046F8000CC5172C8B6
:020000040800F2
:046F8400A07E019258
:020000040800F2
:046F880078563412F1
:020000040800F2
:046F8C0001010000FF
:020000040800F2
:106F900000000000000000000000000000000000F1
:106FA00000000000000000000000000000000000E1
:106FB00000000000000000000000000000000000D1
:106FC00000000000000000000000000000000000C1
:106FD00000000000000000000000000000000000B1
:106FE00000000000000000000000000000000000A1
:106FF0000000000000000000000000000000000091
:020000040800F2
:107000001FB51FBD10B510BD00F086F91146FFF782
:10701000F7FF0CF0DBFC00F09EF903B4FFF7F2FF82
:1070200003BC00F0A1F9000070B505460C461646F9
:1070300002E00FCC0FC5103E102EFAD2082E02D35C
:1070400003CC03C5083E042E07D301CC01C5361F6F
:1070500003E021782970641C6D1C761EF9D270BD86
:107060000748804707480047FEE7FEE7FEE7FEE7E0
:10707000FEE7FEE704480549054A064B7047000055
:10708000E9240108BD60000808190020081F00203D
:10709000081B0020081B002010B5202A04DB08462E
:1070A000203AD040002110BD0B462024D340D040D0
:1070B000A21A91400843194610BD4343514330B5CD
:1070C0005C18010C130C0D4692B25D4380B2514323
:1070D0002C19054655430A0C09044D1962415843C1
:1070E000010C00044019514130BDFEB50546104663
:1070F0000C46184373D0AE468C460020AD1A0146AC
:107100009C4167D36646002701243D46B61A9D413F
:1071100002D313463A462124654676462F04360CA0
:107120003E432D0CB61A9D4104D3150C1B042B4372
:1071300012041034654676462F06360A3E432D0A61
:10714000B61A9D4104D3150E1B022B4312020834BC
:10715000654676462F0736093E432D09B61A9D41EE
:1071600004D3150F1B012B431201241D65467646DF
:10717000AF07B6083E43AD08B61A9D4104D3950F3C
:107180009B002B439200A41C65467646EF077608C9
:107190003E436D08B61A9D411AD392185B41641C98
:1071A00016E00018764665464941B71A9D4101919F
:1071B000009009D36046B11A98418E4684460098E3
:1071C00001990025401C6941DD0752082A435B08EC
:1071D000641EE6D57246634603B0F0BDFFE70020AB
:1071E0000146C046C0462A462346F5E7034610B589
:1071F0000B439B070FD1042A0DD308C810C9121FD7
:10720000A342F8D018BA21BA884201D9012010BD92
:107210000020C04310BD002A03D0D30703D0521C66
:1072200007E0002010BD03780C78401C491C1B1B94
:1072300007D103780C78401C491C1B1B01D1921EFE
:10724000F1D1184610BDF8B5042A2CD3830712D00B
:107250000B78491C0370401C521E83070BD00B781F
:10726000491C0370401C521E830704D00B78491C34
:107270000370401C521E8B079B0F05D0C91ADF00FC
:107280002023DE1B08C90AE0FFF7CEFEF8BD1D462D
:1072900008C9FD401C46B4402C4310C0121F042AEC
:1072A000F5D2F308C91A521EF0D40B78491C0370AA
:1072B000401C521EEAD40B78491C0370401C012A62
:1072C000E4D409780170F8BD01E004C0091F042965
:1072D000FBD28B0701D50280801CC90700D0027049
:1072E000704700290BD0C30702D00270401C491E12
:1072F000022904D3830702D50280801C891EE3E79C
:107300000022EEE70022DFE7704770477047000079
:1073100000487047B00200207546FFF7F9FFAE46FF
:10732000050069465346C008C000854618B020B520
:10733000FFF7A0FE60BCB64600260027C0C5C0C54A
:10734000C0C5C0C5C0C5C0C5C0C5C0C5403D490851
:1073500049008D46704710B50446C046C0462046D9
:10736000FFF75BFE10BD000001491820ABBEFEE731
:1073700026000200704770B58C180578401C6B071A
:107380005B0F01D10378401C2A1106D10278401C02
:1073900003E00678401C0E70491C5B1EF9D12B07D8
:1073A00005D40023521E0DD40B70491CFAE7037854
:1073B000401CCB1A921C03E01D780D70491C5B1C0D
:1073C000521EF9D5A142D8D3002070BD10B5644833
:1073D0000069122141430C4A42430120C303D218E1
:1073E000120C5118174A9379D27912021A43A64BFC
:1073F0001C896300002C00D01A4692B24A438003D5
:107400001018C00B10BDC0465F84000010B5544872
:10741000C0680B4941430120C2038918090C094A7D
:107420001379527912021A43974BDC886300002CBF
:1074300000D01A4692B24A4380031018C00B10BD08
:10744000CDD504009000002070B5454C0020607040
:10745000A070284801680C220A430260052000073A
:107460000168C0220A4302600125280522490A69F1
:1074700002430A610A6802430A600A6882430A609A
:10748000384E3068284211D030680421084206D0B6
:10749000316810200143316031680142FCD130680D
:1074A00002210143316030682842FCD1280731684D
:1074B000014331607D20C0000AF044FEE8073168D6
:1074C0000143316030680028FCDB306828433060BD
:1074D0003068284330600720C04330582842FAD033
:1074E0000648B060680230620320F06000207060DF
:1074F000257070BD00040050301002408D00004027
:10750000F0B517490878012829D14A781548856BC4
:107510008B789C000C19261D002A07D037687D192E
:1075200035601F2A03D16D09E56000E035605B1C02
:107530008B70DCB2022C08D300238B70521CD4B2A7
:107540001F2C1C4600D814464C70D9B206A2515CC0
:1075500001228A400262016804220A430260F0BDEF
:10756000100300200824014009030000F0B581B099
:107570002848002505704127BE00321D424C284690
:10758000214600F0D4F8002827D020882121C90006
:10759000884222D13E480088618881421DD1B800CE
:1075A0002758204631460AF091FD874215D14820E0
:1075B000205C411E022919D220464930334E002258
:1075C00031460AF037FC5D340125204631462A4613
:1075D0000AF030FC284601B0F0BD2120C1002A4845
:1075E000FFF790FE0025284601B0F0BD0028FAD133
:1075F0002046D430254E002231460AF01BFCE834E8
:107600000125204631462A460AF014FC284601B0DE
:10761000F0BDC04680000020B0B548201A4C205C68
:10762000411E02290DD221464931184D002228461B
:1076300009F08AFE21465D310122284609F084FEC8
:107640000EE000280CD12146D431104D00222846EE
:1076500009F07AFE2146E8310122284609F074FE3D
:107660000B48008860802120C000208041208500D8
:10767000204629460AF02AFD60512A1D0020214695
:1076800000F074F8B0BDC0461008002010070020BC
:107690008C6F000810B55720C14320484258012183
:1076A0004B041A421FD05322D24383501C4A1278F3
:1076B000002A32D11B4A136880242342FBD11A4B83
:1076C00010241C600023036003600320C0431723C1
:1076D0001B0213501068084203D01079106808424A
:1076E000FBD1106810BD4905920216D55322D24332
:1076F00081500C490A6880231A42FBD10A4A1023A0
:107700001360BFF34F8F002202600260426142614A
:107710000320C043172212020A5010BD5800024035
:107720002403002008300140180000507047F0B5D5
:1077300081B015460E463070000A5030C7B20124A1
:1077400000233846224600F0E1F900280BD03846E5
:1077500031462A46234600F033F9002800D104467A
:10776000204601B0F0BD002001B0F0BDF0B589B0F9
:107770000291064601250392002A2FD004A8401C3E
:10778000019004AD2E700F2030401021081A039F85
:10779000B84200D80746019802993A46FFF753FDD0
:1077A0007A1C300A5030C4B201232046294600F02A
:1077B000ADF90025002811D004A9012520462A464C
:1077C0002B4600F0FDF80028F6D00398C01B029964
:1077D000C9190291BE1903900028D2D1284609B0D8
:1077E000F0BD000080B501210A0308484368134238
:1077F00003D042600AF0C8FB80BD090202680A4259
:1078000002D0016007F04EFA80BDC0460C1802405D
:10781000F0B540480169C9B2AA2979D101221304FF
:1078200001681942FCD14168002905DA0721C943E2
:10783000394C4450394C4450910744680C4205D0AF
:107840000324E443364D0551364D055104681C426E
:107850003BD0354D066801241E420AD10668022439
:1078600010273E420CD10468E40901262640042476
:10787000A41B6E1E002D02D0012C3546EAD0751CCB
:10788000002D39D0042C37D10469BB25254305616F
:10789000540445682543456004681C4222D0234CAB
:1078A00005681D42154609D10568102635421ED1CE
:1078B0000568ED0901262E400425AD1B661C002C31
:1078C00015D0012D3446EBD011E0046810252C4270
:1078D00012D10468E409012525400424641B012C0D
:1078E000B7D0CFE7026810231A4200D10268012204
:1078F00052044368934343600122D30644681C4307
:10790000446043680B434360D10742680A434260C6
:10791000F0BDC0461020024023016745AB89EFCD82
:107920003B2A19087F6E5D4CFFFF0A000100F5FF3E
:1079300010B584B0074801AC602221460CF036FB3C
:1079400005490C222046FFF751FC002800D0FEE735
:1079500004B010BD9075FF1F0050000810B5FF2047
:1079600001061348026A8A43332149061143016222
:107970000F21090302688A4305214B031343036067
:10798000012042050B4B1C6914431C611C68144305
:107990001C601C6894431C60074A1368834313608F
:1079A000890211600549116111680143116010BD20
:1079B000000400502C100240005400406638C700FC
:1079C00010B582B014460A4601466846036000209E
:1079D000234600F003F802B010BD0000F0B587B0F8
:1079E000069304920125AC0200230390002800D1E5
:1079F0002346480018436B060C99002900D10B461A
:107A00000091414C069A02900193FF21FF2A1646ED
:107A100000D30E46921B01210F060592002A1A463A
:107A200000D03A46069F3F0A1F4600D0174633044F
:107A300003433B43E8073AD00120400303431327A5
:107A4000FF43E351059AE3590342FCD12368102018
:107A5000034234D1002E20D0039B002B0ED023688C
:107A6000034237D1C2273B42F9D0049D2B782361D2
:107A7000761E6D1C0495002EF1D10EE023680342A2
:107A800028D1236804273B42F8D0E368049D2B707B
:107A9000761E6D1C0495002EF0D12068E02318425C
:107AA000FBD00025002A0298019BAED11FE01320D5
:107AB000C0432350059A236810200342CAD021688E
:107AC00020200142FBD03021616022680021024267
:107AD000FBD109E0216820200142FBD03021616008
:107AE000226800210242FBD1084607B0F0BD009891
:107AF0000028F9D0206820221042FBD020206060AE
:107B000022680242FCD1EFE71854004010B582B061
:107B100014460A4601466846036001202346FFF7E3
:107B20005DFF02B010BD80B581000320002206F089
:107B300063FA80BD80B58200032000210B4606F069
:107B400065FA80BD80B5032006F032F980BD0000E3
:107B5000B0B56F4C2078012820D1607805281DD859
:107B6000784400794000874402291A383E022248AE
:107B70000078032141430D19FFF7E4FF687A811E65
:107B80004842484100F08AFB2046303020211B4A01
:107B900000F038F800F043F800206070B0BDA07825
:107BA000012801D100F048F87D200001144909683E
:107BB0000818FFF7B8FF03206070B0BDA078002858
:107BC00002D1022000F06AFB0D4800686421081A07
:107BD000FFF7A9FF02206070B0BD6420FFF7A3FF8C
:107BE00004206070B0BD002000F058FB6420FFF757
:107BF0009AFF05206070B0BD42410108457C000835
:107C00004841010880B582B00B46014668460260D3
:107C100000201A4603460BF0D5FC02B080BD80B5AB
:107C200000200BF025FD80BD80B50A4601460020EE
:107C300003460BF051FD80BD80B500200BF09CFD8C
:107C400080BD0000F0B58BB00546314E307801287C
:107C500000D090E02F4800687D218900081AFFF7C6
:107C600069FF0024204600F019FBB47001227270F5
:107C7000281F1C2869D830200590315CA94264D1A6
:107C80000692032D08460AD032463132EB1E0846D2
:107C90001778C01980B25B1E521C002BF8D17219E4
:107CA0003032521E531E1B7812781202D218EA4B41
:107CB00043409A42069A48D1B460F078002800D137
:107CC000F270347731200290375CFA09E348837808
:107CD000934252D1E243049203977A06520F072A45
:107CE00000D97CE1920002A39A58049B9746C046B3
:107CF000197D0008897D0008EF7D0008F37E0008EB
:107D0000237F00084F7E0008DF7F0008A77E000861
:107D1000D804002044410108042900D05FE10F206D
:107D200003990140039100D159E1E9480078002806
:107D300000D154E131460D31CA5C022A00D02FE156
:107D4000401EC91C0028F7D149E1E1480078032111
:107D500041438D19FFF7F6FE687A811E484248417B
:107D600000F09CFA304630302021F94AFFF74AFFF4
:107D7000FFF755FF74700BB0F0BD012000F08EFAD4
:107D80000320F0700BB0F0BD042900D027E1EF49CB
:107D90000A78002A00D122E10F21039C0C400394B1
:107DA00031460E31039F06E0521EC01CC91C002A3A
:107DB0002B4600D113E11D465B185B1E1B78002B80
:107DC000F2D04C5DBC42EFD1022B04D0049A521E7B
:107DD00002238B54F370039A1202A14BD218B28380
:107DE0000278B2774078F07700200870F7E0042935
:107DF00000D0F4E0D5490978002900D1EFE00F2444
:107E0000039A059422400392451C37460E37002002
:107E1000039C05E0FF1CED1C401C814200D1DEE00C
:107E2000DA19521E1278022AF4D1FA5CA242F1D178
:107E30003A7807AC214600F017F92D78387803908E
:107E400000011030A84200D9B1E01022B1E0BF48D3
:107E50000078002800D1C2E00F21039A0A40039263
:107E600035460D35039A04E0ED1C641CA04200D198
:107E7000B5E0E95C0229F7D129789142F4D1718EFD
:107E800032462032204600F0EDF8002800D1A6E06E
:107E90002978728EF283801D090201430D200003B0
:107EA0000843B0839BE0042900D098E00F20039999
:107EB000014000D093E0FFF745FEA4480078002879
:107EC00005D031460C310C70C91C401EFBD1B4707A
:107ED0007470B460204600F0E1F904203071F47051
:107EE0003046303020219A4AFFF78CFEFFF797FE8C
:107EF00075E00F20039C044039D094480178002994
:107F00006DD032460D32002004E0D21C401C81426C
:107F1000049B64D0D35C022BF7D11378A342F4D135
:107F200026E08A480078032141438C19FFF70AFEB6
:107F3000607A811E4842484100F0B0F93046303046
:107F40002021834AFFF75EFEFFF769FE0020707074
:107F5000039840B2002842D40598305C20283ED1D6
:107F60003046323000F0F6F80220F07037E00020A2
:107F7000728E31463431009161426141AB1F00F095
:107F80008EF900282BD00298305C000727D0059886
:107F9000325C30461C3031463031FFF745F81EE088
:107FA0000698C85403980870306BF06117E0059A82
:107FB0002A400498385C00021018001D052149036E
:107FC0000143B18330461E302146FFF73CF9039848
:107FD000401CC1B209018D4200D800203870327FA8
:107FE000002A00D1C7E6FF21022A0B460FD0032A40
:107FF00001D1FC230BE030461D30D31E144605781A
:10800000A4B264195B1E401C002BF8D1E343304638
:108010001C308218049CA218521E1370327FFE235B
:108020001340022B0DD031461D31D31E14460D785E
:10803000A4B264195B1E491C002BF8D1A1B2090A35
:10804000C9438218049B9954317FFFF7EDFD0698D0
:10805000B0700BB0F0BDC046FFFF00003F4101080B
:108060000690000000207047B0B50C46FFF7CEF92F
:10807000044D6843C00C2070FFF7C8F96843C00E78
:108080006070B0BDCDCC0000B0B5FFF75BFD2F48F0
:108090000078002806D02C490C3100220A70C91C37
:1080A000401EFAD1284D0024AC706C70AC602046A4
:1080B00000F0F4F804202871EC70284630302021BC
:1080C000234AFFF79FFDFFF7AAFD01202870B0BDEE
:1080D00042410108B0B51C4D287801282DD1E8781F
:1080E00000282BD0A968491CA960FA291FD3FFF7E3
:1080F00029FD16480078002806D029460C310022B8
:108100000A70C91C401EFAD10024AC706C70AC60BF
:10811000204600F0C3F804202871EC702846303067
:1081200020210B4AFFF76EFDFFF779FDE8782979EA
:10813000884202D0287100F0B5F8B0BD002029793E
:108140008842FAD0F6E7C046D80400204241010830
:10815000457C0008F0B581B071214A4E725C0F2158
:1081600009020D2A00910AD85200835C82185278C5
:1081700017020F401F43444A974216D216E00623C7
:108180005343C2185023DB43D35CF02423405225D1
:10819000ED43555D2D091D434E23DB43D25C224048
:1081A00017012F43384A974200D31746374CA7424E
:1081B00000D82746364D6F4336497B180F461B0CB7
:1081C00035490B807223F35C0E2B0AD25900465CB2
:1081D000411849780B0200990B403343934216D261
:1081E00016E006265E4383195026F6439E5DF0276F
:1081F0003E405221C943595C090931434E26F6439A
:108200009B5D3B40234F1B010B43934200D313461E
:10821000A3421C4E00D823466B43D919090C1E4BB0
:1082200059807321735C0E2B0AD25900435C4018AD
:1082300040780002009908401843904215D215E09A
:108240000621594340185021C943415CF02319408D
:108250005226F643865D36090E434E21C943405CE3
:10826000184000013043904200D31046A04200D88D
:1082700020464543E819000C0749888006F044FA77
:1082800001B0F0BD10080020CA080000EE02000096
:108290009CC42000F0FDFF3F140100207047002027
:1082A0007047000080B5C11E022903D3022808D000
:1082B00000280AD1094803210170094802F0CAFECA
:1082C00080BD054802F0C6FE80BD024802F0C2FE35
:1082D00080BDC046C4410108D4410108900300207C
:1082E000DC410108F0B581B0602200238354027B99
:1082F000042A50D8044660347A44127952009744D4
:10830000020E1B1F2D000268092A08D8EF4A1268C6
:10831000426074482080042600292AD12DE04122A1
:108320009200437B1B029A182280E84A12688260FE
:10833000042600291DD120E0807B0002684A07E066
:108340002222E14B9A5C0A4327D0807B0002614ADB
:1083500002432280042600290BD10EE04030224641
:10836000E8C8E8C2E8C8E8C22678002E13D0002981
:1083700003D06078802101436170B51E20462946F4
:1083800009F0CCFEA1198E1E30702046294609F056
:10839000C5FE000A707001B0F0BD4F480288921C03
:1083A000930AE3709208A2704288921C930A637148
:1083B000920822718288921C930AE3719208A2713A
:1083C000C288921C930A6372920822720289921CDC
:1083D000930AE3729208A2724289921C930A637311
:1083E000920822738289921C930AE3739208A27303
:1083F000C289921C930A637492082274028A921CA6
:10840000930AE3749208A274428A921C930A6375D9
:1084100092082275828A921C930AE3759208A275CB
:10842000C28A921C930A637692082276028B921C6F
:10843000930AE3769208A276428B921C930A6377A2
:1084400092082277E278838B9B1C9D082E011643AD
:10845000E670F022154066792E4366719B09134041
:10846000E5791D43E571637AC58BAD1CAE08370114
:108470001F4367721640E37A3343E372AB0913403C
:10848000657B1D436573E37B058CAD1CAE0837012E
:108490001F43E7731640637C33436374AB09134097
:1084A000E57C1D43E574637D408C801C85082E01AE
:1084B0001E4366751540E37D2B43E375800910402C
:1084C000627E02436276054820802026002900D083
:1084D0004FE752E7042000008805002020400000FC
:1084E0000410000004700000F0B587B004920390FF
:1084F000734802780020012A63D1E522724C05926C
:10850000A35C0E78FF2E00D101269E4259D802911D
:1085100000900398C01C01900498077805E0761C31
:108520000027D9B2F2B28A424AD8F1B26518E822DD
:10853000AA5CFF2AF3D0F820285C0697FFB23B0123
:10854000C21A102A00D310222124E4002C5DFC4022
:10855000E40718D0039F3A705B48983045185024C0
:108560002C5DBE707C7089014018C118F4310198EF
:10857000FEF769FE029806700498069F0770602057
:10858000285C002101E00121069F7F1CFAB2130143
:108590000022984206D998424B4C07D9B6180029B8
:1085A00008D110E017469842474CF7D80122B61878
:1085B000002908D00598235CD9B2F2B28A42B4D916
:1085C000009807B0F0BD029806700498077001206B
:1085D00007B0F0BD10B5F44AF249535C0021FF2BFF
:1085E00018D0374B1B78002B14D0E423D45C002C1C
:1085F00010D001780902084C0C432321C9005452C1
:1086000040880421D1548D2149005052D8200021A6
:1086100011500121084610BD06D00000B0B582B04F
:1086200014466D4669702870080AA8700320284314
:108630001946FEF708FEE21C0248294609F012FA24
:1086400002B0B0BD22F00000F0B581B01C4C227821
:10865000002A33D11B4BEF4D0022EA54EC4BE95476
:10866000DD4BE85430270323EB558427EA55E427F4
:10867000EA53D827EA512727FF00EA55CB4F3F6836
:10868000DC26AF51FF280F4600D00746DB1BF74E14
:10869000AB5562702A626A62FF2907D00C4B002238
:1086A000084619460AF0F4FDCB48285CFF2803D0A1
:1086B000074900220AF0ECFD0120207001B0F0BD56
:1086C000C80500208F0500007C090020AC030020B5
:1086D0004C410108F0B585B00446FB4A00290191E0
:1086E00001D1CB4800E0F948101800780AF0C2FD2B
:1086F000029480340394042826D30746039D14353E
:108700000120C043049003E07F1E6D1C032F1BD982
:108710002E78301F1C28F7D8A819049A815C80187D
:10872000407800024418B11E284609F0F7FC844244
:10873000EAD1039F384629463246FEF784FD029E61
:10874000307B042808D920E10020039F3870029E66
:10875000307B042800D918E1324640327844007951
:10876000400087440214284352003068401C3060A7
:1087700070688E490968081AFF21F431491C884243
:1087800000D202E10120B08102F014FCE7E0707B2E
:10879000118C3A888A426CD1401C707302F00AFC3A
:1087A000707B3118302200238B5402223273B07355
:1087B000FF200874D3E00198C103707B02020A43D2
:1087C0007B49114389B23A88914200D0A7E0F978F9
:1087D000491E3F2900D9A2E03018B9780174F97810
:1087E000202281540020F0730120CDE02220B649E0
:1087F000085C019B184300D1B1E0B07B3118202206
:108800008A5C112A46D2002563E051780F2308467E
:10881000184000D1B2E04906490F032943D0052989
:1088200000D0ABE03D780A2D00D9A7E00121A94096
:108830000B24E401214200D1A0E07978CC09049511
:10884000019DA542049C00D098E00B40834200D0DB
:1088500094E070231940502900D08FE07988528825
:10886000914200D08AE0A21F33468433FFF7D6FE40
:1088700089E0002873D00120B0730198002824D12A
:108880002220ED49085C00281FD00420307300200E
:10889000306064E0B97803250D4029011031914220
:1088A00015D8102215E038881188884266D1798859
:1088B0005488A14262D1C0B20A2853D0082854D0AB
:1088C00007285BD110793A7951E0032046E00F2167
:1088D0000A401C46D90303020B43111D194301260C
:1088E00073030B4399B23B88994217D1002C1AD0DD
:1088F0008001D149081829014018632189004018D6
:10890000029F39468231FEF79EFC3146A940B87B72
:108910003A183023D45C0C43D4540DE0029EF07B13
:10892000401CF07331E04000C3490818029F3946EB
:108930008231FEF788FCB87B797B401CC2B28A4248
:1089400000D80646BE730F293E4608D2B068BC491F
:108950000968081A80087D2801D30120307300209F
:10896000F07312E0706C7A6801E09088BA888242F5
:1089700004D17878184000F0ABF804E03068401C6F
:1089800030600A2801D303203073F07B0A2806D315
:10899000B07B401E707302F00DFB0120307305B0F8
:1089A000F0BDC0468C0500007C090020AC0300200F
:1089B00006100000B0B582B0444C9F4D285D0023E6
:1089C00000935B218900691820220AF0FBFD285DD5
:1089D0000AF04EFE02B0B0BD8C05000080B5024822
:1089E000002109F01DFD80BDB5890008B0B582B039
:1089F000F04CEE4D285D002300932946B83120222B
:108A00000AF0E0FD285D0AF033FE02B0B0BDC046BA
:108A10008D0500007C09002080B50248002109F086
:108A2000FFFC80BDED89000870B582B00E48DF4DB7
:108A3000295C002915D1DB490978002911D00121D1
:108A40002954D94EA85D0091094A002421462346A5
:108A500005F0E6F8A85D7D21CA012146234605F010
:108A6000D5FA02B070BDC0468F0500008E0500002B
:108A7000C58D000810B5CD4ACD49535C0021FF2BB0
:108A800020D0C84B1B78002B1CD0E423D45C002CD6
:108A900018D0017809024478A41D0C430B21090366
:108AA00021432324E40011538D214900448854526A
:108AB00040680421D154472189005050D82000211A
:108AC00011500121084610BD7C0900208C050000D2
:108AD00080B582B001AB59701870080A98700348CD
:108AE0000322194608F0BEFF02B080BD21F000004D
:108AF000F0B581B0AF49AD4A535C0021FF2B00D1E6
:108B000096E0A84B1B78002B00D191E02221535C0A
:108B1000FF2800905AD0002B62D03121515C0029EF
:108B20005CD0931C00242046264604E00020264604
:108B30009B1C8C4276D2171935257D5D641CFD2D5A
:108B4000F6D11F88002FF3D0FD07EFD1BD0721D448
:108B50007D0721D43D0721D4FD0621D4BD0621D4B3
:108B60007D0621D43D0621D4FD0521D4BD0521D4A7
:108B70007D0521D43D0521D4FD0421D4BD0421D49B
:108B80007D0421D40125ED032F4000D00F20002FBC
:108B9000CDD1CDE70120CAE70220C8E70320C6E710
:108BA0000420C4E70520C2E70620C0E70720BEE78F
:108BB0000820BCE70920BAE70A20B8E70B20B6E78F
:108BC0000C20B4E70D20B2E70E20B0E7002B05D053
:108BD0003020032313540026565422E0002620E0C0
:108BE000012353543121535C002B0FD0941C0025DA
:108BF00003E0A41C6D1C9D4208D256193527F65D72
:108C0000FD2EF6D100232380535CF2E768215054F7
:108C100030210026565409495166094909685662AF
:108C200091623046F1B2C2B2009800F00BF8012117
:108C3000084601B0F0BDC0467C0900200730018025
:108C4000AC03002080B582B001AB597018709A70E7
:108C500003480322194608F005FF02B080BDC04654
:108C600019F000004F480178012901D1012141701C
:108C70007047C046F0B581B04A4C6078002819D0E2
:108C80002078012814D1002525704748474E305CD4
:108C9000012104F047FF4648305CFF2801D00AF06C
:108CA00097FA4448305CFF2801D00AF091FA6570C9
:108CB00001B0F0BD3C483D4D285C7D21C901002438
:108CC000224605F099F93B48285CFF281CD0232058
:108CD000285C002813D138480068016A0978022905
:108CE0000DD1C0690078002809D030200321295413
:108CF00084202C546C6201200002688404E0284621
:108D000024300021FFF7E6FC294FE85DFF2804D05E
:108D10002846D8300121FFF7DDFC2326A85D002876
:108D200006D025480068006A0078022809D0AC55B2
:108D30002048285CFF2804D0284624300021FFF773
:108D4000D1FAE85DFF2804D02846D8300121FFF78A
:108D5000C9FA1848285CFF2811D0A95D00290ED156
:108D600084216A5C22216B5C002B00D0134B2946C6
:108D700084310AF0B1FC0F48285C0AF0FDFCE85D84
:108D8000FF2809D02721C9006A5C69180C4B0AF03A
:108D9000A3FCE85D0AF0F0FC02F076F9288401B04B
:108DA000F0BDC046C80500208E0500007C090020EB
:108DB0008C0500008D05000080050020198A000840
:108DC000DD89000880B50248002109F03FFB80BD25
:108DD000758C00087047000080B582B0012368469A
:108DE000036003200021024A04F01AFF02B080BD94
:108DF00005FE000880B581000320002205F0FCF884
:108E000080BD80B58200032000210B4605F0FEF8EE
:108E100080BD80B5032004F0CBFF80BD10B5E34CCE
:108E2000E078042824D8C04678440079400087447C
:108E3000022007301B001E48002109F0F1FA10BD86
:108E40002079002802D1E068406C8047E1685F200B
:108E5000085C0A465F32527880186E22101A896ABE
:108E600088470320E07010BD1148002109F0D8FAAE
:108E700010BDE068006C8047E1685E20085C0A462F
:108E80005E3252788018F030896A88470220E0709C
:108E900010BD6079012802D1E068C06C8047E168AC
:108EA0006020085CE130896A88470420E07010BDCA
:108EB000ED920008704780B50146002001220AF0BB
:108EC000E7F980BD80B582B00B4601466846026076
:108ED00000201A4603460AF075FB02B080BD80B53B
:108EE00000200AF0C5FB80BD80B500200AF0E6FB3B
:108EF00080BD80B50A460146002003460AF0ECFB1F
:108F000080BD80B500200AF037FC80BDF0B581B08F
:108F10000022030A3CD081235B00984209D8214AF1
:108F200010188E22D243805C08700122D0B201B0AA
:108F3000F0BD194BC01883B2022B29D84200174B41
:108F40009C5C9A18527812022243154D2A400E78E2
:108F50004F783F0237436D1C3D4015430D702D0A7D
:108F60004D7042255D5D009543269E5D4027DF5D87
:108F700041255B5D0C701B023B433402009D2C437A
:108F800024041C43C440E0031043000A487002223A
:108F9000D0B201B0F0BDC04600FEFFFF10070020B8
:108FA000FF7F000010080020B0B50446FEF72EFA3F
:108FB000044D6843C00C2070FEF728FA6843C00EC9
:108FC0006070B0BDCDCC000070B50446D04D002619
:108FD000AE706E70AE60E860006A8047A16B0948B1
:108FE000884701202870E868006B8047EE70E868C9
:108FF000C36B284625302421C64A9847E868006C90
:10900000804770BDB441010880B5C1490878012886
:1090100010D18868002804D05C4A1268101A6328AE
:1090200009D9002048708A78904203D08870C968B6
:10903000496A884780BD48788A789042FAD0F5E737
:1090400080B52520B24908568206120F022A0BD09D
:10905000012A10D0002A0DD1002810D44006C00FDC
:10906000C9680969884780BD2620085C001FC96857
:109070008969884780BDC8684069804780BD0220F3
:10908000C9680969884780BD10B50446A048C16811
:109090005E20085C0A465E32527810184B22101A85
:1090A000C96A88470248214609F0BAF910BDC0468E
:1090B000B5900008F0B581B00546954EF0780028CF
:1090C0002FD1A81F1E282CD8344625346019401EE5
:1090D0000778691E204609F011F8874221D1252022
:1090E000305C81071DD12621715CA94219D101276D
:1090F000F7700021717125490968B1602721715C01
:1091000007220A40B2718906490FF1718006000FEB
:10911000022817D001281DD0002824D1F068006D46
:1091200012E0F068006B80470020F070F068C36BBD
:10913000304625302421774A9847F068006C8047F4
:1091400001B0F0BDF068806D00280CD031462831A8
:109150002A1F06E0F068406D002804D0314628310F
:109160001422FEF770F80A480025294609F02AF96A
:109170007078002800D177703571F068C36B2521B5
:10918000044A2046984701B0F0BDC046AC03002019
:10919000419000089991000880B501465C48012281
:1091A0000271034809F03CF980BDC0462805002043
:1091B000B5910008F0B581B0554DE978022928D164
:1091C000152826D139202C5C28462530142108F09A
:1091D00095FF84421DD125202F5C032038400128B3
:1091E00017D12C46113414212046FEF789F80226A7
:1091F0002E74B80804285FD878440079400087446A
:1092000002192A3444006878012855D0002068707B
:1092100052E0E868006B80470020E870E868C36BA4
:109220002846253024213B4A9847E868006C80474F
:1092300001B0F0BD06202874E8685C21415C6974C7
:1092400001465C314978A974C0688047E87400061B
:1092500036D16E7034E0687802282DD10A20287447
:10926000E8688168204688472AE06878022823D188
:109270000E202874E88C6874010AA974E9680A68E9
:10928000294614319047E8741AE06878002813D012
:1092900012202874E88C6874010AA9742821695C7A
:1092A000EA6853682A4629329847E874E87907281B
:1092B00006D1A879072803D10020687101B0F0BD5C
:1092C0002C4610341421204608F018FF242168543D
:1092D00001206871E868826C15212046904701B032
:1092E000F0BDC046BA4800787047C04610B5084C7B
:1092F000E068006B80470020E070E068C36B2046A8
:1093000025302421034A9847E068006C804710BD4F
:10931000280500208990000810B5AC490870AC48B9
:109320000178002900D010BD421C0C480C4C21468D
:1093300008F002FD71209449085C4000205A094A57
:1093400010807220085C4000205A50807320085C16
:109350004000205A908005F0D7F910BDC0000020D1
:10936000D00600201401002010B590B09848017874
:10937000FE220A4002700222114216D1421C83488A
:109380006C46214608F0D8FC71207F49085C4000FB
:10939000205A7F4A10807220085C4000205A50807A
:1093A0007320085C4000205A908010B010BDC04669
:1093B00010B590B086480178FD220A400270012263
:1093C000114216D1421C71486C46214608F0B4FC8B
:1093D00071206D49085C4000205A6D4A108072204F
:1093E000085C4000205A50807320085C4000205ADE
:1093F000908010B010BDC046F0B599B00024030AAB
:1094000000D1B3E0FF273B460433984230D2FB4300
:10941000C318012900D0A9E010781F2800D9A5E0C1
:10942000594DE91871268A5D0124824200D19DE0E0
:10943000885567480178890714D1421C534809AC04
:10944000214608F079FCA85D4000205A5049088068
:109450007220285C4000205A48807320285C40001D
:10946000205A8880474801240470E0B219B0F0BD4A
:10947000404D4519A8B2022878D8022976D1107833
:109480005178090201433C4E0E40002E6ED0B01FB1
:109490000890B0B28D339BB20790984266D8089876
:1094A00080B22C2862D34020344C0590205C4123AC
:1094B0000293E35C1C020443422004902F4B185C8F
:1094C0000890432303932D48C35C1B020898034371
:1094D0001B0423436800294C245C0894274C201863
:1094E000019040780002089C204301240894AC407D
:1094F0000694079CA0420BD11846069C20400024ED
:10950000251A4541C80B08994840022485422DD0B0
:1095100001990E70300A4870F843FF3006994840B0
:109520001840164C059D6055010E039FE155010C36
:10953000049EA155000A0299605408981056000232
:1095400011780143002909DA069803436355180E80
:10955000E055180CA055180A412160540848002114
:1095600008F030FF0748089901700224E0B219B0F2
:10957000F0BDC04600FEFFFFFF7F00001007002087
:10958000F5FD000880000020100800205C09002084
:109590001C09002080B502280BD000280DD10B48F3
:1095A000022101700A48032101700A4801F052FDAE
:1095B00080BD054801F04EFD80BD024801F04AFD26
:1095C00080BDC046C4410108D4410108810000208B
:1095D00090030020DC41010810B50146DF20400067
:1095E000F84C201800F058FA0020E07210BDC04678
:1095F00010B5FF20D230F34C201801F065FB00209D
:10960000E07210BD80B507480078012808D108F045
:10961000A5FDEC48017C02220A43027408F0ACFD6F
:1096200080BDC046CA050020F0B58BB00590E54866
:10963000807A002806D00E78FF2E019105D0B00662
:10964000470F03E000200BB0F0BD002707210E40BC
:109650000598C01C039002921578069104E07F1CC7
:109660000025002800D0A3E1F1B20020072903D192
:10967000FAB2012A00D1A2E1072905D13A0603D1A5
:10968000D04A1446683419E0072908D0FAB2072AEC
:1096900005D106204843FF4A14186E340EE0FAB292
:1096A000072A00D18BE1072900D188E10620484331
:1096B0002A215143F74A51180C189834069B107E02
:1096C00000210A910028089301D00A990891682185
:1096D0000491525C11460F31C9B2072909930FD387
:1096E00001230993072906990DD2002807910ED16D
:1096F0000790F13A237800280DD1FF2B7CD0D7E0DA
:1097000007290699F1D30A9100280791F0D0F13A80
:1097100023780028F1D0FF2B00D0C9E0F0B2F9B2D5
:10972000072814D100290A98099B2ED001290898EE
:10973000079B2AD00726F8B2C01F45424541F4B224
:10974000E11F481E81410020002D3CD037E1F4B2DA
:1097500006206043CF4B18186E23C05CFBB2072B6A
:1097600005D0F138884208DD7B1C30460DE00F3013
:10977000C0B2072801D20027DDE70720A242034636
:1097800000DC0123A24200DD701CDEB2F11F4D425D
:109790004D41C4B2E11F4F1EB941072C0DD0072E19
:1097A0000BD106216143BB4B5C186E21635C072122
:1097B000FF2B79D106460F46C9E71F460646002013
:1097C000002D00D0FBE0002900D1F8E00620604326
:1097D000F9B22A234B43F849C9180C189820235C86
:1097E000FF2B9BD09834002562E0F34C68340726A9
:1097F00000272378FF2BF6D1F9B2F4B2072C06D15B
:1098000000290A98099B28D00129EED012E00620F1
:109810006043E94B18186E23C05C072905D0F13866
:10982000884212DD7B1C304617E00F30C0B207289B
:109830000BD20027F8B2C01F45424541E11F481E28
:1098400081410020002D22D0B9E00720A24203462A
:1098500000DC0123A24200DD701CDEB2F11F4D428C
:109860004D41C4B2E11F4F1EB941072C09D0072E4C
:1098700007D106216143F64B5C186E340727064674
:10988000B7E71F4606460020002D00D097E00029CC
:1098900000D194E006206043F9B22A234B43EC49FF
:1098A000C9180C189834A4E76E34002506460F46F4
:1098B000E8B22179C140C90718D0059A5370F90060
:1098C00031439170000161780A1A102A00D31022E6
:1098D00005990A706188DE4B59180818FF21D631A6
:1098E00041180398FDF7AFFC012000E000206178EB
:1098F0006D1CEAB21201914200D9B2E6FAB2F1B29D
:10990000072910D1002A27D0012A3DD1D049097E4C
:109910000727002500293E4600D02E46002900D00A
:109920009FE60F469DE606234B43C94CE3186E2481
:109930001B5D072A21D0F13B934200DD8FE6C44A2C
:10994000049BD25CF13A07238A421F4600DC0127C0
:109950008A4229DC1E4683E6BD49049A895C0F31A0
:10996000CAB20721072A0F4600D301270025072A7C
:109970002E4600D275E60E4673E60F33DAB20025A6
:10998000072A04D22F466CE60025072669E6B04A6E
:10999000049BD25CF13A07238A421F4600DC012770
:1099A0008A4203DC1E465CE6761C59E6761C58E6C5
:1099B000F8003043019908700298057001200BB03F
:1099C000F0BDC0467C090020B0B501469F48027832
:1099D0000020012A17D19E4BDA7A002A13D10C7885
:1099E000DF2252009C549A184D8855702D0A9570AC
:1099F000097849B2002907D43F21214007290CD119
:109A0000197E002909D0B0BDC9B24906FBD1002199
:109A1000104600F041F80120B0BD07212140A20608
:109A2000520F072906D1002A04D16821595CFF2969
:109A300011D1E8E7072911D0072A0FD168229A5CD3
:109A40000F32D2B2062ADED806224A4399186E2275
:109A5000895CFF29D7D00120D872B0BD0729D2D0A8
:109A6000072AD0D068241C5D0F34E4B2062CCAD873
:109A700006244C4319196E25495D0F31C9B20629D8
:109A8000C1D82A215143591809199822895CFF2904
:109A9000E1D1B8E77C09002080B50346CA1C024822
:109AA000194607F0DFFF80BD26F00000F0B585B055
:109AB0006649097800297CD1654E00243476C107B7
:109AC00007D181070CD4410712D4000718D403949E
:109AD0001DE03A4900227254012434768107F2D500
:109AE0003119364A01238B54641C34764107ECD576
:109AF0003119324A02238B54641C34760007E6D5B0
:109B000030192E4903224254641C039434760023F6
:109B1000B38173812948315C03200291401A04907B
:109B200030724C480068016820251F460BE00A7817
:109B3000497809028918D9400F220A40D7196D1EA9
:109B4000234601460BD05C1D072C03D80846072C82
:109B5000EDD902E0481C072CE9D9DC1EE7E7012318
:109B60003A480370F81DC008306003980028049834
:109B700019D0049338490122029809F089FB307EFC
:109B800002280ED300240E4F334D3019C05D012240
:109B9000294609F07DFB601CA11C327E91420446DF
:109BA000F3D3307A049B0093C0B200212B4A04F017
:109BB00037F805B0F0BDC0467C090020D50500008F
:109BC000D6050000F0B581B0204C217800293BD1AA
:109BD0006721EA4B00225A541A7658729A815A81A8
:109BE0000321091A197262701A4909680C68202346
:109BF00016460BE02578647824026419D4400F22BD
:109C0000224096195B1E3A460C460BD0571D072F73
:109C100003D82146072FEDD902E0611C072FE9D9AF
:109C2000D71EE7E7012409490C70F11DC908D34D7F
:109C300029600949224609F02BFB287A009400216B
:109C4000064A234603F0ECFF01B0F0BDCA05002030
:109C50007C09002080050020B7410108EDAC000818
:109C600070B5C64C207B052800D0D2E0207E0028AD
:109C700006D0E17E07200840072804D100211BE020
:109C80002046093002E02018BD494018007809F04C
:109C9000F1FA002115280FD15220205C0322024046
:109CA000022A09D16620255C20465230142108F092
:109CB00025FA281A41424141A07A042800D9A8E097
:109CC000784400794000874402273D466B00607B62
:109CD000401C6073C0B20A2800D29AE001F06AF911
:109CE000207E002800D1E2E09221FF2262546E2102
:109CF000625410386821605420466E3082770276B4
:109D00008274027382712046683000210171C94358
:109D1000418002214170CDE000297AD05220205CA0
:109D2000FC210140042974D15520205C072870D8FB
:109D3000002800D1C9E0672101226254217C01433F
:109D4000217470BD607CA27C002A63D1072861D198
:109D50002546683573E0002939D05220205CFC216B
:109D600001400C2933D1FF200146C031625C6118EB
:109D70004978090289185322A25C234653335B7841
:109D80001B029A188A4222D15521655C002D24D0ED
:109D9000C2302018214656312A46FDF754FA1DE0FC
:109DA000002924D05220205CFC21014010291ED122
:109DB000E9204000205A5321615C224653325278F8
:109DC00012025118814212D15520205C16E0607BAE
:109DD000401C6073C0B20A281BD300256A4829467C
:109DE00008F0F0FA002060730220A07270BD607B62
:109DF000401C6073C0B20A280BD300207521890073
:109E0000605460480025294608F0DCFA657302209A
:109E1000A07270BD072A06D1072804D0062242434B
:109E2000A5186E350BE00025072A08D0072806D0B4
:109E3000062343432A2050432018C518983500298B
:109E400026D05220205CFC210140082920D1002688
:109E500066736888C8498842DBD020186978112960
:109E600003D35322A25C0326164032018018FF233D
:109E7000D633C0188A1A102A00D310225334214630
:109E8000FDF7E1F90120B04029790143297170BD46
:109E9000607B401C6073C0B20A28BAD3FF202870D0
:109EA00000F076F80020607301F084F870BD68203F
:109EB000FF212154002060730121A17233492161E7
:109EC0006061FF200830E08170BDA17BE27B002A49
:109ED00004D1072902D12046683014E0072A06D1B0
:109EE000072904D00620484320186E300BE00020DC
:109EF000072A08D0072906D0062048432A215143C3
:109F00006118081898305321615C01705422A25CDA
:109F10000023037142700F31C8B2062829D8E17BB3
:109F2000A07B07280DD100290BD19220FF212154BD
:109F30006E2021546E34A1772176A1742173A17112
:109F400017E0072915D1062141436018C222FF21DD
:109F5000815498228154EC2281548B2252008154E6
:109F6000052292018154B52252008154652292004B
:109F7000815400F00DF801F01DF870BD7C0900203F
:109F8000D5050000F1950008D995000800070100EB
:109F9000F0B589B06820AE49085C04900F30C3B2B8
:109FA00000210722072B039100D303920120072BE6
:109FB0000646029000D302910498F1380490A44B15
:109FC000187E01906833587800906C4C00E0089A35
:109FD000D3B2072B0CD1F2B2002A0FD00723012AEB
:109FE00013D100230198002814D01846984E7AE027
:109FF000F3B210460D463746954EABE00D4602983B
:10A00000039A934EC10754D15FE00D461A46374676
:10A010008F4E82E06C2000228D4E325400980D1835
:10A02000A542084600D354486A22B052A54200D344
:10A030000D460298039AC1073BD146E005461E46ED
:10A040006E27D75DF0B2072812D10F37F8B2072874
:10A0500016D200230898037008782F462818A042CB
:10A0600000D3454F079E3780A042E7D32846E5E757
:10A07000F13F9F420DDD3746771C059A744E2AE06A
:10A080000499069A91420DDC0020714E91420DDD3B
:10A0900017E00499069A91426D4E0FDC0020914220
:10A0A00004DD0EE001206A4E91420ADC0722C1075E
:10A0B0000BD00727D0B207280BD00CE0012091422B
:10A0C000F4DD05994A1CC107F3D10127D0B2072856
:10A0D00001D100294ED0D3B2072B1ED0F8B20728E9
:10A0E0001046294619D107460620584330187222D7
:10A0F000002383546F22825C8D18A5420A4600D348
:10A100001D4A7023C252A54200D30D46F8B2072360
:10A11000072838461F461A461CD108920620584385
:10A12000224634463E46F9B22A234B43E1180B1827
:10A130009C20002119549920185C291891422C4622
:10A1400000D30D4C9A201C529142144600D23EE797
:10A1500029463CE70590C1B20620069148433218D3
:10A1600010469C30089010469A300790114699315D
:10A170003E4665E709B0F0BDFFFF000001040000A6
:10A18000F0B581B0324C207E002819D0E17E3F220C
:10A190000A403F2A17D100262E4F35460AE06019A3
:10A1A000C05D21463D31152209F096FA6D1C207ED6
:10A1B000854214D2401E85420A4BF0D03346EEE76A
:10A1C0002046093004E0072001406018214940186A
:10A1D00000783D341522034B214609F07DFA01B089
:10A1E000F0BDC04659A2000810B51948017B0229EC
:10A1F0000FD17D218900074A127892008A1A007ACD
:10A2000000242146234603F001FF0348214608F0BD
:10A2100007F910BD0949010881A1000880B582B085
:10A220000B49087E002808D0CA7E07201040072866
:10A230000CD00818074A801801E008460930007859
:10A24000002300935231152209F0BCF902B080BD01
:10A250007C090020D505000080B50248002108F0E7
:10A26000DFF880BD1DA20008F0B593B0FB4C20784C
:10A27000012806D16078002805D0F94D287B0028F8
:10A280001ED013B0F0BDF74800780028F9D0F44C88
:10A29000207B0028F5D1204619300D902421FDF7B0
:10A2A0002FF8277CF80717D12268101D0B90A07695
:10A2B000B80724D400266676EB480568A96826E02E
:10A2C00000262670287A012103F02CFC687A08F019
:10A2D0007FFF667013B0F0BD18200B90A0760426A7
:10A2E0006676FE2007402774DF4805682968204607
:10A2F0001C301422FCF7A7FF78070ED414E00826C0
:10A300006676FD2007402774D748056869692046AE
:10A310001C30FCF798FF780706D50020606101200B
:10A32000E074FB2007402774286A0078002806D0D4
:10A33000314640316176022801D1C0366676274623
:10A340003D377E1C14213046FCF7DAFF3D22012305
:10A35000A354A17A481E02280C931ED2E07A00284A
:10A3600022D00021617302286CD11120A054FF205B
:10A370000146D23162181D46D35A7B530423A3727F
:10A38000615C3F230B40E376D278B270C230211873
:10A39000381DFCF758FF0D9EF3E2002902D1A354AB
:10A3A0003F20E0760D9EECE2E07C00285CD0606906
:10A3B000002807D01546AD4A1268101A2A468008B0
:10A3C0007D2851D31120A05403208003F8523F2050
:10A3D000E0763D460EAF8020B8700920B070384658
:10A3E00003F06AFF8120B8700F986871F8782871BF
:10A3F000384603F061FF8220B870F878A8713846BB
:10A4000003F05AFF8320B870F8780F9909020818F2
:10A41000F080384603F050FF8420B870F8780F9928
:10A42000090208183081384603F046FF8F4800685B
:10A430006061F8782F460F99090208187081A07E94
:10A440000D9E9FE20D20A054DF20400021184A7885
:10A45000897809028918F9520321A172205C3F21F1
:10A460000140E1760D9E8CE20692E67B3046584034
:10A47000A37B07251A4609956A4002435042504182
:10A48000002A0CD16268794C2468A21A744C920894
:10A490007D2A04D3FF200830E081227E3CE0227E2A
:10A4A0000792002A1FD09222A25CFF2A1FD12246C7
:10A4B0006E326E246A4D2C5D95792540684CFF2DD7
:10A4C00015D1147B957C2540654CFF2D0FD1147E52
:10A4D000927F2240624CFF2A09D1079A501E98426F
:10A4E00012DD09991BE06822A25CFF2A10D0891EA8
:10A4F0004A1E9141014300D06EE16725605D00284E
:10A5000000D1B5E019465AE1FF200830E08103E0B0
:10A51000FF200830E08100220C9E09990B46059728
:10A5200000200A90002A089101D00A98089068201B
:10A53000275C38460F30C0B2072875D301210728A1
:10A5400074D2002A00D109920792F13F0CE006254F
:10A550006543D4B22A266643414CA4196419983441
:10A5600016462278FF2A66D0F4B2D8B2072808D15E
:10A57000002C0A9B0A4641D0012C0FD1089B099E52
:10A5800013E006224243364DAA186E25525D072C71
:10A5900006D0F13AA24220DD761C06E0072304E053
:10A5A0000F32D2B2072A21D200262D48C6738373F8
:10A5B0000120704007221C4654400443E4B260422C
:10A5C0006041DCB2072C06D1340604D1244C683437
:10A5D00000261346C5E7324619E007248742224683
:10A5E00000DC0122874208DC234607E0072487427B
:10A5F000224600DC01228742F6DD5B1C1848C2734C
:10A600008373DCB20020072C01D1012A23D0DCB2F5
:10A61000072C9CD0D5B2072D99D106226243104C4D
:10A62000A4186E3407269CE707288AD309980A9055
:10A63000002A88D088E70028094C059F00D0C8E090
:10A640000520069960540120A0720720034070077E
:10A65000800EC018A5E6024C059FBAE0CA0500208E
:10A660007C0900207D05002080050020AC0300202F
:10A6700007220020099007990029029201D0099829
:10A6800002906820205C0A900F30C0B20728089220
:10A69000039500D287E001250895039D072800D384
:10A6A00084E0002900D10A4601920A98F1380A9004
:10A6B000002900D110E20597D8B2072809D1F2B2DB
:10A6C000002A0999089846D0012A3BD10299019E97
:10A6D00039E0F1B2DDB20620024604956A43A518BE
:10A6E0002F4698376E242C5DF2B2072A0CD10F3416
:10A6F000E1B207290BD20021F84CE173A3733A7839
:10A70000FF2A0E46EED156E0F13C8C4247DC0A9916
:10A71000049A9142F14C1BDD5B1CA3730726E67380
:10A72000DAB250432018072A01D06E3002E0DF2150
:10A73000490040180078FF283ED00721072A0E461E
:10A74000C8D100E00721E673A1732546059F0DE0FF
:10A7500001200721059FE073A173072904D1012877
:10A760000646254602D120E206462546C8B2062303
:10A770004343F4B22A226243AA18D2189832072C13
:10A7800001D0134601E0EB186E332C460728039DD9
:10A7900000D113461878FF280B468DD10FE0761CA8
:10A7A0001946CE4CCFE7072800D27AE70992002954
:10A7B00000D178E778E70E461946059F039D0020F3
:10A7C0006055F0B2012800D011E1C8B2072800D0CE
:10A7D0000DE1F94800686060607B00280D9E0799D4
:10A7E00002D0A27C617CC1E00720002208920029EF
:10A7F0000A90099001D0089809906820225C1046C0
:10A800000F30C0B207280A9B049300D2A1E00123B5
:10A810000493072800D39FE0002900D10A91F13A60
:10A820000392A27C607C002900D1EBE00597C1B2C5
:10A83000072908D1D3B2002B089904985DD0012BC9
:10A8400062D0072162E0D1B2C5B206273B46079528
:10A850006B43E618334698336E24345DD5B2072D2A
:10A860000CD10F34E1B207291CD20021D14CA174C4
:10A8700060741A78FF2A0A46EED073E0F13C8C42ED
:10A8800062DC0399079A9142CA4C0D9E32DD401C4E
:10A890000722A2746074C3B25F43E119072B12D080
:10A8A0006E3114E00399079A9142C24C22DD401C9C
:10A8B0000722A2746074C3B25F43E119072B0D9E97
:10A8C0000AD06E310CE0DF2464000919FD4C059FAD
:10A8D0000978FF2909D063E1DF2464000919F94CE4
:10A8E000059F0978FF2900D05AE10721072B0A4666
:10A8F000AAD10BE001200721059FA07461740729EC
:10A9000020D10128024603D109990A9AA2746174E0
:10A91000CDB2264606246C43D0B22A234343F31813
:10A920001B199833072D01D11C4601E034196E34F0
:10A930000D9E072800D01C462078FF280846E14CD1
:10A9400014D174E70246E3E7521C0146DD4C059F33
:10A95000DCE7072800D25FE70A980890002900D1B9
:10A960005CE75CE70A4601460D9E059F0920069BB1
:10A97000E0540220A072072008405107890E0818F1
:10A98000E0760B98C0B2411E304607F0B7FBA17EBF
:10A990008919491E08701421384607F0AFFB512170
:10A9A0006054207E002814D00024854F2546C54ED3
:10A9B00009E07019C05DB27E0D9908F08DFE6D1C26
:10A9C000307E85420BD2401E85427C4BF1D023461F
:10A9D000EFE7A27E607A794B314608F07DFEB948F8
:10A9E0000C990173007A03F0F1FB13B0F0BD052060
:10A9F000069AA0540120A072072001407007800E23
:10AA00004018CEE401460CE0062454432A225A435F
:10AA1000AC4B9A181319AB4C983302461878FF28A0
:10AA2000A4D1C8B2072809D1D0B201283AD0002851
:10AA3000089904982FD00721104614E0D0B2CDB267
:10AA400006236B43E3186E241B5DD4B2072C04D09D
:10AA5000F13B83420ADD501C04E00F33D8B20728D3
:10AA60000FD20020F44CA074617425E00722039BF0
:10AA7000AB421046F04C00DC0120AB420ADC114630
:10AA800009E00722039BAB421046EB4C00DC01209F
:10AA9000AB42F4DD491CA0746174CAB2072A0BD121
:10AAA000012809D10A9AA27409996174234668336E
:10AAB0001878FF28B5D059E7CAB2C3B2072BA3D183
:10AAC000072AA1D00620504320186E22825C07205E
:10AAD000FF2A0246B3D049E719460DE07C09002061
:10AAE00006224243F0B22A234343E01880189830EC
:10AAF0000078FF2800D162E6C8B2072809D1F1B278
:10AB0000012908D007200029099A089B01462ED068
:10AB10001FE0F2B209E0019EE6730299A17320469C
:10AB200068300078FF28E7D149E6C8B206234343DE
:10AB3000E3186E241B5DF4B2072C04D0F13B934262
:10AB40000ADD761C04E00F33DAB2072A04D20026AD
:10AB5000B94CE673A17313E007220A9B83421346A4
:10AB6000B54C00DC01230A9E864200DD4A1CE373DB
:10AB7000A273D0B2072801D1012B13D011461E4673
:10AB8000CAB2072AACD0F2B2072AA9D106224243A0
:10AB9000A0186E22805C0722FF281646C5D10EE65B
:10ABA0000146E3E60721012609E6072101262C4696
:10ABB00004E6C0467C090020AC030020E9A100089F
:10ABC000D5050000F0B583B005469A48017800200D
:10ABD000012928D1984FF97A002924D102902878A8
:10ABE000FF210C46D23438553E1968880122019263
:10ABF000B0526878F070C23178186A78291DFCF775
:10AC000022FB287841B200290AD4395D387E002819
:10AC10000BD03F200840072807D1029803B0F0BDB1
:10AC20004006029826D003B0F0BD072008408906F0
:10AC3000490F072807D1002905D16820385CFF2873
:10AC4000029812D1EFE707281ED007291CD16821EE
:10AC5000795C0F31C9B20629DFD806214143781843
:10AC60006E21405CFF280298DDD00220F872019826
:10AC700003B0F0BD7520800000213954304600F04B
:10AC800023F8019803B0F0BD0728C6D00729C4D027
:10AC90006822BA5C0F32D2B2062ABED806224243DC
:10ACA000B8186E23C05C0F30C0B20628B5D82A2071
:10ACB0004843381880189821405CFF280298D4D166
:10ACC000B1E7C0467C09002080B501460248042255
:10ACD00006F0C8FE80BDC04625F00000554801784A
:10ACE000012901D1012141707047C04670B551481A
:10ACF000007801280ED1504D287B05280AD8C0467F
:10AD000078440079400087440206192C3844287A98
:10AD100003F04EF870BD287A03F04AF8287E002828
:10AD20003DD00024454E2819805D08F025FD641CA7
:10AD3000287E8442F7D30220287370BD287E002825
:10AD400033D0E87E3F2101403F2956D100243B4EBD
:10AD50002819805D08F010FD641C287E8442F7D31A
:10AD600053E0287E002823D0E97E072008400728EA
:10AD700023D02818314940181CE0287E002829D00B
:10AD8000E97E07200840072829D028182B494018B9
:10AD900022E000202873287A03F00AF870BD687A50
:10ADA00008F0EAFC0220287370BD2846093029E02B
:10ADB00028460930007808F05BFC7D20C00021495E
:10ADC000097889000918287A002203F015F904206F
:10ADD000287370BD28460930007808F06FFC287A87
:10ADE0005F2189000024224603F006F9052028731C
:10ADF0001348214607F014FB70BD072108402818AE
:10AE00000E494018007808F0B7FC0E4800780E494B
:10AE10000978081A80007321C9004118287A002295
:10AE200003F0EAF85220295CFC220A402A5403204D
:10AE3000287370BDCA0500207C090020D5050000DC
:10AE4000619C0008084901080A490108F0B58DB065
:10AE5000039202910546594A11780CA80170507866
:10AE60000BAA10705248006840220492865C06A823
:10AE7000C01C0090FF24A0000590019501E000286F
:10AE800057D10120C0434AB2824237DC06A8817004
:10AE900003F012FA0CA909780022002812D00B4600
:10AEA000813B032B0FD8C0467B441B795B009F443A
:10AEB0002001010106ABDF781B791B02DB19059F1E
:10AEC000BB4200D11046491C0CAA1170384A1268C6
:10AED0004123D35C7F270F409F42D0D3002D1AD04F
:10AEE0000BA900230B700CA90C7000282146C8D0B8
:10AEF0001FE006ABDB78FF2BE5D1E3E703980028E2
:10AF0000324648D1022D0AD0012D44D106A80CA901
:10AF10000BAAFDF7E9FA3246002808D13BE006A863
:10AF20000CA90BAAFEF780FB3246002833D020483C
:10AF300002680498105C06A90978C91C814223D8CC
:10AF4000039B002B09D106AB5B7807271F40526A91
:10AF5000DB08D25CFA40D20716D032468E4221D3AB
:10AF6000029B197006A8417859708178997007780A
:10AF7000DE1C3046009915463A46FCF764F9F01994
:10AF80000290E81B019DC61E0B980C4A50700CA83D
:10AF90000178117075E7802008490870044800683E
:10AFA0000499405C101A411E88410DB0F0BDC046A6
:10AFB000800500200148802101707047D4050020E1
:10AFC000B0B5032000030E490A6882430120030341
:10AFD00013430B6040228A612A4D2870284C09498E
:10AFE00008222046FCF702F9002807D00648074946
:10AFF000216060600E2063216960A860B0BDC0461A
:10B0000000080050BC4101080F006400AA020000C3
:10B0100010B51C480178012919D141684A1C4260C9
:10B020001749CB889A4212D3002343608C888268E8
:10B03000521CA24200D31A46826001239805934015
:10B040000A684021134200D001460148016010BD4A
:10B0500018080050B0B50446094D0822284621467C
:10B06000FCF7C4F8002809D003CC03C5083CA0882D
:10B07000401E04498860E088401E4860B0BDC0465C
:10B08000580F00203C0300203F48006880B2704702
:10B0900010B5544A00211160506091600120820473
:10B0A000104B1C6914431C611C6814431C601C6811
:10B0B00094431C600B22D2430B4B99505961D960C9
:10B0C0003F21D961484919629860196802220A43F0
:10B0D0001A60FF210904054A13688B438005184351
:10B0E000106010BD301002400C48014014E400E034
:10B0F00010B53C4908603C4B9A1C904205D28A68C6
:10B1000012181A408A6000200DE001225204904279
:10B1100006D844088A6812191A408A60001B02E0A7
:10B12000324A80188A680860134842620221C94383
:10B13000016010BD10B52B490860CA688A602A4BAF
:10B140009C1CA04204D212181A408A6000200BE016
:10B1500001246404A04205D8440812191A408A60E8
:10B16000001B01E0214BC018086003484262022125
:10B17000C943016010BDC046104801400248006844
:10B180001849C8607047C0462448014070B51C4942
:10B190000B68012293430B600223DB430B614A617E
:10B1A000104C20600025A5600F4DAE1CB04203D2AC
:10B1B0002840A06000260BE05604B04205D846089F
:10B1C0003540A560861B284602E0084D4619002040
:10B1D000266048630B619005054B186008681043B2
:10B1E000086070BD2C030020FFFF00000000FFFF7F
:10B1F00000E100E0024801680122914301607047CC
:10B2000000480140F0B589B0C04E3078002849D0E0
:10B21000B078012803D104F081FA002842D000253B
:10B22000B570717804292ED8880001A2105887467D
:10B23000A9B2000845B20008B3B20008D9B20008AC
:10B2400045B2000802207070307805281CD8C0462E
:10B250007844007940008744254D025B768AF521C9
:10B26000AB48425C002A00D19CE30269A94B1B68F1
:10B270009B1AF622825CD41E012C00D919E2642BA1
:10B2800000D294E21DE2307800280BD0FFF7B2FF25
:10B290000024204604F038F801203080B470642087
:10B2A000FFF774FF09B0F0BD9B48FFF721FF09B01D
:10B2B000F0BD0325757030780528E5D8784400790D
:10B2C000400087440217037217A2EBE79048806A98
:10B2D000FFF70EFF09B0F0BD012777703078052821
:10B2E000D2D8C04678440079400087440203A3D8EE
:10B2F00003F2D7E7FFF77EFF0024204604F004F8AE
:10B3000001203080B4706420FFF740FF09B0F0BD29
:10B31000012900D00BE14D247D49085D52228A5C51
:10B320004B68DD682D7A002D09D0002A07D0401C1B
:10B330000855C5B2DF683F7ABD4200D396E20006E9
:10B3400000D0F7E0A1E25A20714C00272752204696
:10B350005A304780012008907070256808202856D0
:10B36000002800D52CE1A97A20465E3031E1312158
:10B370006748425C002A0BD04268664B1B689A1AE9
:10B380002323DB00DB339A4200D8A0E100224254A1
:10B39000A42100224250A021604B4350332142544B
:10B3A000026201217170D3439EE15220584F385CF4
:10B3B00000280FD0FF201630395C491C39547868BA
:10B3C000C068007A002805D04D21795C401E884273
:10B3D00000DCE2E201207070384624300068FFF79C
:10B3E00087FE4F480024214607F002F838680068BD
:10B3F000002800D156E7E8013C503818446049481D
:10B40000214606F0DFFF09B0F0BD414CA069FFF70F
:10B410006FFE3020205CFE210140082900D041E76A
:10B420003520215C4A1E622A00D93BE7491C215481
:10B4300009B0F0BDF5213648415C002900D1E0E0BB
:10B44000F621425C002A00D1DBE0F723C15C002931
:10B4500000D1D6E0D11E022905D341684968097A96
:10B46000002900D1CDE00021C1548368F8240351A4
:10B4700073685B68FC240351022A01D100F004FCCC
:10B48000032A01D100F007FC042A01D000F009FCD6
:10B4900042685268531C5268042400F008FC1C4D9A
:10B4A0006868C06862210791405C012800D0C7E24B
:10B4B0003320C0002B183F20C100685C40001A5A9E
:10B4C0006818447864001C5B944200D9F6E10022BD
:10B4D000F5E10F4C2046373020210890FBF710FF94
:10B4E0003020205C401E092800D9B0E34000C0464F
:10B4F0007844808840008744170076037A037D03F0
:10B5000086038A038E0392039503A103C8040020D7
:10B51000CC0F0020AC030020881300001DCB0008D6
:10B5200045C4000859C20008372027548FE3522031
:10B53000E8490A5C002A19D0E6488168E64A1268A0
:10B54000511A826C137952791202D21891420DD39A
:10B550005222002181540122120281548018FF22BC
:10B56000920042608260DD4806F02CFF4D25D94CE8
:10B570006068C068007A002806D0605D002803D1AA
:10B58000D748002106F034FFE020D6492150522050
:10B59000205C002800D1C1E06168C9680A7A002AED
:10B5A00004D0635D521E9A4200DC40E1E421002297
:10B5B000079262502146002800D1BCE01C31BBE05C
:10B5C0005E200021215220465E304180A97A20462B
:10B5D0006230FBF795FEE06821699422A050982024
:10B5E0002150297A0F20084002280FD0032822D1A9
:10B5F0006068A168401C8842089B00DB3846606098
:10B600001BE0C069FFF774FD09B0F0BD5621605C16
:10B61000401C60545722A25CC3B2934206D3002060
:10B6200060545821625C012353406354C0B240000F
:10B630002018808A00E06068089B9C216050287A6E
:10B64000000703D10020C0439021605088210020D2
:10B6500060505822A15C5940A1542A7A9206920F58
:10B6600004D0012A01D1014600E019462046AC3041
:10B670004170072028560002A9794018A021605087
:10B68000287A4006C00FAC216054E87E012806D11C
:10B69000AE20002121542320C000A82160500120A9
:10B6A000B070204659308834214603F051FE09B06D
:10B6B000F0BD2324E400DB34A34278D9022A00D071
:10B6C0006EE18948002106F07DFE09B0F0BDA4219D
:10B6D000864A4250A021864A42503322002181549A
:10B6E00001620369CA43633AAC240251A822835021
:10B6F000BE2281543221415CBD2281540121B170AE
:10B700000246AC3211747B490023C46854609360D4
:10B71000D160A03003F0F4F809B0F0BDE421764A1E
:10B720006250216C4942EC22A15000210791214630
:10B73000002800D042E734310968E822A150F42102
:10B74000002262504F21635C5B1C6354655D002DD9
:10B750000890254601D0143500E010352D68F027FB
:10B76000E5515025655DDBB2AB4202D25121615CEF
:10B7700006E062545123E55C01216940E15413461F
:10B780005A00A36C9A189579D7790122514051201B
:10B79000215438024019F8250695605149201D5C56
:10B7A0004833002D0ED0012D0BD100210AE02B21B2
:10B7B000CA000021815055229200504B8350026AEA
:10B7C000FBE01146FD27E1550899484248411978A8
:10B7D000FE23E054FC256155B2702046E03003F0B2
:10B7E0008FF80798002803D04548002106F0EAFDAD
:10B7F00020680068002800D154E565208000002101
:10B800002154069820583122D200A0506320800095
:10B810002150605DFF2196316054E05DCB214900ED
:10B82000605419200001E169215009B0F0BD643174
:10B830000A78002A0AD04E22A25C921F531E9A4117
:10B8400049784B1E9941914200D1ECE0E1692268B0
:10B85000536832338B4200D3DBE0E423294FE750B7
:10B860005268FA2A00DCFA22891A5CE7002008559F
:10B87000DC686425645D002C07D04E240D5D6D1CD2
:10B88000EFB2062F00D828460855886C0478457812
:10B890002D022C198578C078000240190004001987
:10B8A00000D147E604227270DA68127A002A01D0C9
:10B8B000896B4018FFF71CFC09B0F0BD012208920B
:10B8C000825C52009A5A847864001C5B94421BD8B4
:10B8D000089C1AE0CC0F0020AC030020A9D8000877
:10B8E00045C400084DCD0008B9C20008D1C3000806
:10B8F0001DCB000880E5F9FFA1C20008A5CA000819
:10B9000065BE000891C200080224025D52009A5AE6
:10B91000C0784000185A904200D903247F2080004C
:10B920002A5CFF2A00D18BE006902046A0242C59E7
:10B93000520004949C52089028180390405C019097
:10B940004200985A059006982A5CAC183B22D00019
:10B950000294225CFF2A4BD00692059C049AA242D4
:10B960006DD90590029A1018FF22027090000022F3
:10B97000D5431F3D03E010469B1C6D1C58D2DD4A89
:10B980005219525CFF2AF7D11A88904201D92C46ED
:10B9900020349042EFD80246EDE738462C301DE5C2
:10B9A000002242542B21C900002242505521890017
:10B9B000D24B435001217170D24357239B00C25098
:10B9C000B922520081542D21C9000022425059222F
:10B9D0009200836983500122B27041180A81C84ADB
:10B9E0004A6055218900401802F08AFF09B0F0BD75
:10B9F000039A059B049C9C4221D251182A18FF23CC
:10BA00000198135406982B5C0B70285C089C145406
:10BA100016E0E4210022625001210791214600280E
:10BA200000D0CBE587E6532100226254E421BFE534
:10BA3000069AED4DA8184454281905994254089CBB
:10BA40005321685C002860D00691089457202B5C35
:10BA50007F2219460392114029543F2101910B4046
:10BA60006A68D4686321645CE407640EE3182B54AD
:10BA70005F241C40D36864255B5DDB079B0E1B19AC
:10BA8000D94C23546F241C40D36865255B5DD64D8B
:10BA9000DB07DB0E1B192B54D06840682B4657334D
:10BAA0000593D851D068405C002802D07068406887
:10BAB000E865842000210491295029468431E868F2
:10BAC000C860286A08614F20285C02904000AC6C76
:10BAD00000902518A879ED792D0228184861462094
:10BAE000205C25464635EB571B0218188861A8785C
:10BAF000ED4D2423C854049B4920245C012C14D010
:10BB0000002C11D151202B5C0FE06868C0680799A8
:10BB1000405C012803D17F208000FF212954E86B7D
:10BB2000FFF7E6FA09B0F0BD3B46A92004902B547C
:10BB3000D068079A805C0128059C29D10398800071
:10BB4000029A2A54A8183B22D200825C2320C0000B
:10BB5000FF2A08D0009AAA183323DB00D25AFF2309
:10BB60001A339A420ED3089AAA18019BDB00D25CC2
:10BB70005200AA183323DB00D25A824200D3024675
:10BB8000002301E002230246A4202A50AA202B54BD
:10BB90000127B770204603F0DBFB28680068002807
:10BBA0001CD02D20C1006C50A86C4A22805CA822B9
:10BBB000AA5CFF237E33EA54049AAA5CBF235B008D
:10BBC000EA5469180F759822AA589C23EB58AC695F
:10BBD000091D1DC14B48002106F0F4FB0020069909
:10BBE000685409B0F0BD3720022121542FE03720DE
:10BBF000032101E03720042121543420205C402817
:10BC000025D3606A22E03720052121541FE0372028
:10BC1000062121541BE037200721215417E037204B
:10BC2000082101E03720092121543520205C6428B7
:10BC30000DD33620205C3821605408E037200A21DB
:10BC40002154A06AE16A0322089B99522087A565C6
:10BC50002948E066A06860666069A06620680421E3
:10BC6000415E216781797C22A154007A002801D1AC
:10BC70003220255C7D202554B77058340898214621
:10BC800003F066FB09B0F0BD3C22825E43685B684E
:10BC9000513301240BE042685268531C526802245D
:10BCA00005E03C22825E43685B6851330C461B789A
:10BCB0002525ED00435547239B00C2500122130266
:10BCC000C4541124240145690551FF242A34015527
:10BCD0002324E4000A4D05514524A400456A05517A
:10BCE000B270C2185160111DF83003F031FB09B079
:10BCF000F0BDC046CC0F002080E5F9FFA5CA0008C2
:10BD0000D055F3FF75C20008F0B59BB00D46654EE7
:10BD10003178002965D00090FFF76CFA00242046A6
:10BD200003F0F2FAF620604F3C54F5203C543C639B
:10BD3000812040003080B470009821C76868682175
:10BD4000083FFBF7DFFA294DA98901A881810ECDB3
:10BD50000191274901800393029210A901220C3D11
:10BD600003F0A2F805A92846224603F09DF8089B97
:10BD70003233BB610A98C83038620C9D2846643063
:10BD80000B9E32186432B862FA62079900915B1810
:10BD9000099FDB19179F1699C919109FC919963168
:10BDA000CB1A00D22346404F7B627119059C0D19B6
:10BDB000C8351399129E7118149E8E193236AE42F0
:10BDC00004D9711B8A180818B862FA626420786175
:10BDD0000099C9180919069A89186431F961FFF7A1
:10BDE000D5F91BB0F0BDC046CC0F0020A842010819
:10BDF0002709000010B519480078022828D1184CEE
:10BE0000A168886800690279531E042B03D209686F
:10BE10000120884710BD002A14D18179C91E4170C4
:10BE2000A06880680069C179C91E8170A0688168B6
:10BE30000969097B00290CD00268E068216906F0D5
:10BE4000BFFE10BD00F0C2FCA0680168002088475A
:10BE500010BD01680120884710BDC046CC050020F8
:10BE6000BC150020F0B581B00E480078032816D12B
:10BE70000D4D6E68F0686321415C002901D00927EF
:10BE800000E00527C07839182C4657342046FBF7C8
:10BE900037FAE0197168884753200121295401B00D
:10BEA000F0BDC046C8040020CC0F0020F0B589B01A
:10BEB0000746E2480078032800D0BDE1E04B187E39
:10BEC000002805974ED1187F002800D0E7E0D87EE3
:10BED000002800D039E15C7F002C00D13DE19A7F41
:10BEE000500098770121154608910D409107CE0F1B
:10BEF000AD195607F60FAD191607F60FAD19D60690
:10BF0000F60FAD199606F60FAD195606F60FAD19D8
:10BF1000EEB29D682D692D78AE4223D24726F600F9
:10BF20009E598F27BF00DF59B742059F0AD1012CC8
:10BF300008D04B24A4001C5D1C194926B600A45D42
:10BF4000002C0FD022241C5DFF2C0BD0022D02D818
:10BF5000002904D006E0042D01D8D20702D10899A7
:10BF600008439877B74A3878797809020818B97879
:10BF700009044018114620310140080CDA7FB870DE
:10BF80001007800D08433870020A7A702024195D6A
:10BF90007A703870B9701A7E002A1D4600D0C3E04E
:10BFA000AA7FD20700D1BFE06A7F012A00D1DCE07E
:10BFB000232007902A5C4B20800004902B5CD01833
:10BFC0000721069108402E18492103918900089104
:10BFD0000296765C714271412226AF5D3E46D640A4
:10BFE000F60700D1DAE00294C80735D1521CD01808
:10BFF000069C224007996A5420402E182C46089926
:10C00000755C694269413D46D540ED072546EBD157
:10C01000089AB218029C002900D1C5E04721CE0041
:10C02000A9598F239B00EB588B4245D9591AAB680D
:10C030001B699F78B94200D80F461770A9596A68E2
:10C04000126851184001281824303A46FBF7FBF8D3
:10C05000A859C019A851A7E07B49002068547B4A21
:10C06000A854089BE8508F229200A8504722D20083
:10C07000A850049AA854039AD200A8546877691863
:10C08000C871887148710871C87088704870E91863
:10C090004860059F2B46187F002800D117E73878A5
:10C0A000C0210140481C3870986800690078F87019
:10C0B0000020187709B0F0BD43D203965F1A696873
:10C0C000AB684E68F6191B699B789E4200D83346D0
:10C0D0001370039FEE594A680196921B9A4202938D
:10C0E0001E460B4600D816461A68019951184001A1
:10C0F00028180090243032460193FBF7A4F8019BE6
:10C10000E8598019E8515968884200D30020E85165
:10C110000298821B48D0009880192430196816466E
:10C12000FBF791F8EE513FE0A8688168F81C88475A
:10C130003F2101403878C02202405018387009B0C1
:10C14000F0BD0020079968542EE0387802210143A1
:10C15000C2200840387009B0F0BD3878042101438E
:10C16000C4200840387009B0F0BD80B209044018FE
:10C17000010A7970010CB97036490140C81C387049
:10C180000020285521216854222168542321685415
:10C19000FF20E8830220687709B0F0BD089A029B6F
:10C1A0009A18002900D039E70798285C2121695C9A
:10C1B00009180F220A40059E317873781B0259181E
:10C1C000B3781B04C9182F239943511810220A432E
:10C1D0000499695C3270130A73702F462D5D737079
:10C1E0003270B57092B22B04D218164B1A40130C51
:10C1F000FD7FB3702D07AD0D154335702A0A72709F
:10C200004018069908403C180899625C3570B37074
:10C210000F4B2B409206120C9A18120A7270625C35
:10C22000400139182431F01CFBF70DF80799785CB0
:10C23000401C069A1040785409B0F0BDCC0500208F
:10C24000BC1500201FFCFF002D020000350200007D
:10C25000DF03FF00C0FFFF0080B5784800780328A7
:10C2600006D10320C0017649081809680968884783
:10C2700080BDC04680B571480078032806D12D20C6
:10C28000C0006F49081809680968884780BDC04622
:10C2900080B50248002106F095F880BD65BE000813
:10C2A00080B566480078032803D10248002106F0D3
:10C2B0009FF880BD45C4000870B5614840680568B6
:10C2C0005E4E307800280BD0FEF794FF0024204605
:10C2D00003F01AF801203080B4706420FEF756FF96
:10C2E000A84770BDF0B59BB00546544F387800287C
:10C2F00065D0FEF77FFF0024204603F005F83220CA
:10C300004F4E34543486FF2006303880BC70356080
:10C31000687A00280CD1786800680021C1728172A7
:10C320004172017227490A0AC27181714271017119
:10C33000254DA98901A881810ECD01912349018054
:10C340000393029210A901220C3D02F0ADFD05A954
:10C350002846224602F0A8FD089D32350A98C830CA
:10C36000F56030610C9A104664300B9B19186431EB
:10C37000B061F161079FED19099FED19179F169E96
:10C38000F619109FF6199636751B00D225462C4ECD
:10C3900075619A18059BD218C832139B129CE3183A
:10C3A000149C1B1932339342344604D99A1A5118FB
:10C3B0001018A061E1616420A060FEF7E7FE1BB0E9
:10C3C000F0BDC0460080FFFFB842010820200000F9
:10C3D000B0B53324ED4D285D411FC9B20F2905D8F2
:10C3E00002F02AFA296A08182862285D401C28559C
:10C3F000B0BDC04601480121C170704760070020F0
:10C4000001210902E14A5358036051188A68826089
:10C41000496841607047C046F5480078032809D153
:10C42000DA48806C4621415C463040780002401872
:10C4300000B27047002000B27047C046C804002018
:10C44000CC0F0020F0B583B0F3480078032800D06B
:10C450009AE1FF2108461630CC4E305C202800D2ED
:10C460008FE1029145208000345C8B204500775D90
:10C47000F0192321C9004454002C019112D043200B
:10C480008000009535183058214607F097FC790058
:10C490006E18B0836868009D214607F08FFCB08756
:10C4A000BA4E05E0780030182521C900029A4252A0
:10C4B00043208100002070507A1CD3B20F2B03461A
:10C4C00000D813467355711808814860029F38469A
:10C4D0001830315C0F2904D84A1C32540F2900D07F
:10C4E0004FE12520C000325A0198315C0025FF2A17
:10C4F0002C4600D00BE1FF2A284600D00CE1FF2A91
:10C5000004D02922D200B25A51430D469521490048
:10C51000715AFF290AD03A461A32B25CA5235B0051
:10C52000F35A53435D19A418514308184B2189004D
:10C53000715AFF290AD08D225200B25C53239B000E
:10C54000F35A53435D19A418514308189721490021
:10C55000715AFF290AD03A461C32B25CA7235B000D
:10C56000F35A53435D19A4185143081813210901C4
:10C57000715AFF290AD047229200B25C15231B0191
:10C58000F35A53435D19A4185143081899214900DF
:10C59000715AFF290AD03A461E32B25CA9235B00C9
:10C5A000F35A53435D19A418514308184D218900CB
:10C5B000715AFF290AD08F225200B25C55239B008A
:10C5C000F35A53435D19A418514308189B2149009D
:10C5D000715AFF290AD03A462032B25CAB235B0085
:10C5E000F35A53435D19A418514308182721C90071
:10C5F000715AFF290AD009225201B25C2B23DB00B9
:10C60000F35A53435D19A418514308189D2149005A
:10C61000715AFF290AD03A462232B25CAD235B0040
:10C62000F35A53435D19A418514308184F21890048
:10C63000715AFF290AD091225200B25C57239B0005
:10C64000F35A53435D19A418514308189F21490018
:10C65000715AFF290AD03A462432B25CAF235B00FC
:10C66000F35A53435D19A418514308180521890151
:10C67000715AFF290AD049229200B25C0B235B0158
:10C68000F35A53435D19A41851430818A1214900D6
:10C69000715AFF290AD03A462632B25CB1235B00B8
:10C6A000F35A53435D19A4185143081851218900C6
:10C6B000715AFF290AD093225200B25C59239B0081
:10C6C000F35A53435D19A41851430818A321490094
:10C6D000715AFF2926D13746002C31D0214607F068
:10C6E0006DFB06462846214607F068FB811B7A6CE5
:10C6F000891ACA179143A02900DBA021244A525C61
:10C700000839992927D31146202C27D227E00C4637
:10C71000FF2A284600D1F2E610464843FF2A00D0FF
:10C72000EFE6F3E63A462832B25CB3235B003746C5
:10C73000F35A53435D19A41851430818002CCDD166
:10C740000120000200213E46395438180299890020
:10C750004160816015E01421202C00D31146CAB23B
:10C760001E2A03D80A46402C03D203E01E22402C86
:10C7700000D30A46012109027A5479184E603E46D8
:10C78000886070688068804703B0F0BDCC0F0020DF
:10C790000442010810B5BF480078032813D1BE4CED
:10C7A000E07E00280CD020696169074A1268101ADF
:10C7B000884205D900F00AF821680020884710BD9A
:10C7C000A068C068804710BDAC030020B0B5D14D53
:10C7D000287800280BD0FEF70DFD0024204602F03B
:10C7E00093FD01202880AC706420FEF7CFFCB0BD23
:10C7F000C804002080B5C74900228A7001220A803F
