:020000040800F2
:10600000301D002061700008697000086B70000886
:106010000000000000000000000000000000000080
:106020000000000000000000000000006D7000088B
:1060300000000000000000006F7000087170000890
:106040004D42010800000000D509010873700008E6
:106050007370000873700008737000089975000869
:106060000000000073700008737000080D750008D0
:1060700073700008737000085D2B010800000000B9
:10608000BD2D0108652F01087370000873700008AA
:1060900069280108052A0108E92A01087370000827
:1060A00073700008737000087370000849380108A5
:1060B000AD3801081139010800F002F800F0A4FF22
:1060C0000CA030C8083824182D18671EA246AB460D
:1060D00054465D46AC4201D100F096FF7E460F3E2D
:1060E000B6460FCC0126334200D0FB1A3343A246FA
:1060F000AB461847240000004400000000230024A1
:1061000000250026103A01D378C1FBD8520700D3EE
:1061100030C100D50B607047386100088000002056
:10612000A80100007E7300082062000828020020F9
:10613000081B0000FC6000084113A8071420540647
:106140001420D405100820A654010892081B2052E0
:1061500004415A480801141A4838411AA43CA94479
:106160001A950C69441A940C29441A4C081A96047E
:106170001B8012041A113832011904394422061204
:106180008E128013C5C682088B1C0F781A240C321D
:1061900040325872261816B51B010889240108914F
:1061A0000E01085D19010839220108550C2D9D15B5
:1061B0000108901A74041A140479881201180F2027
:1061C000ED32010849360108C1310108090C4117B7
:1061D00015CD5B07F1CA14087DC11B086508415B3A
:1061E000F417A03133E803124C1340440710024067
:1061F0001D033938392712441B401C2005151C018A
:10620000353412482B4030400C13023736401D38CD
:1062100001400820121B0318333200000000000068
:020000040800F2
:046F8000CC5172C8B6
:020000040800F2
:046F8400A07E019258
:020000040800F2
:046F880078563412F1
:020000040800F2
:046F8C0001010000FF
:020000040800F2
:106F900000000000000000000000000000000000F1
:106FA00000000000000000000000000000000000E1
:106FB00000000000000000000000000000000000D1
:106FC00000000000000000000000000000000000C1
:106FD00000000000000000000000000000000000B1
:106FE00000000000000000000000000000000000A1
:106FF0000000000000000000000000000000000091
:020000040800F2
:107000001FB51FBD10B510BD00F086F91146FFF782
:10701000F7FF0DF025F900F09EF903B4FFF7F2FF3A
:1070200003BC00F0A5F9000070B505460C461646F5
:1070300002E00FCC0FC5103E102EFAD2082E02D35C
:1070400003CC03C5083E042E07D301CC01C5361F6F
:1070500003E021782970641C6D1C761EF9D270BD86
:107060000748804707480047FEE7FEE7FEE7FEE7E0
:10707000FEE7FEE704480549034A054B7047000058
:1070800065280108B960000830190020301D002073
:107090003019002010B5202A04DB0846203AD040E1
:1070A000002110BD0B462024D340D040A21A9140AD
:1070B0000843194610BD4343514330B55C18010CD9
:1070C000130C0D4692B25D4380B251432C19054614
:1070D00055430A0C09044D1962415843010C000440
:1070E0004019514130BDFEB5044610460D461843C7
:1070F00073D0A6468C460020A41A01469D4167D352
:107100006646002701243D46B61A9D4102D3134628
:107110003A462124654676462F04360C3E432D0C14
:10712000B61A9D4104D3150C1B042B4312041034D2
:10713000654676462F06360A3E432D0AB61A9D410D
:1071400004D3150E1B022B43120208346546764603
:107150002F0736093E432D09B61A9D4104D3150F5A
:107160001B012B431201241D65467646AF07B60866
:107170003E43AD08B61A9D4104D3950F9B002B43A7
:107180009200A41C65467646EF0776083E436D08DC
:10719000B61A9D411AD392185B41641C16E0001880
:1071A000764665464941B71A9D410191009009D341
:1071B0006046B11A98418E46844600980199002590
:1071C000401C6941DD0752082A435B08641EE6D56E
:1071D0007246634603B0F0BDFFE72046284307D060
:1071E0000020C0430146C046C04622462B46F1E778
:1071F00000200146F7E7034610B50B439B070FD16C
:10720000042A0DD308C810C9121FA342F8D018BA17
:1072100021BA884201D9012010BD0020C04310BD11
:10722000002A03D0D30703D0521C07E0002010BD72
:1072300003780C78401C491C1B1B07D103780C7881
:10724000401C491C1B1B01D1921EF1D1184610BDD8
:10725000F8B5042A2CD3830712D00B78491C03708D
:10726000401C521E83070BD00B78491C0370401C36
:10727000521E830704D00B78491C0370401C521E19
:107280008B079B0F05D0C91ADF002023DE1B08C91E
:107290000AE0FFF7C9FEF8BD1D4608C9FD401C46BF
:1072A000B4402C4310C0121F042AF5D2F308C91AA7
:1072B000521EF0D40B78491C0370401C521EEAD4B5
:1072C0000B78491C0370401C012AE4D40978017032
:1072D000F8BD01E004C0091F0429FBD28B0701D5CA
:1072E0000280801CC90700D00270704700290BD0B3
:1072F000C30702D00270401C491E022904D3830731
:1073000002D50280801C891EE3E70022EEE70022FE
:10731000DFE7704770477047754600F025F8AE46C6
:10732000050069465346C008C000854618B020B520
:10733000FFF7A0FE60BCB64600260027C0C5C0C54A
:10734000C0C5C0C5C0C5C0C5C0C5C0C5403D490851
:1073500049008D46704710B50446C046C0462046D9
:10736000FFF75BFE10BD00000048704728020020B8
:1073700001491820ABBEFEE726000200704770B539
:107380008C180578401C6B075B0F01D10378401CFB
:107390002A1106D10278401C03E00678401C0E70CA
:1073A000491C5B1EF9D12B0705D40023521E0DD4B6
:1073B0000B70491CFAE70378401CCB1A921C03E0BF
:1073C0001D780D70491C5B1C521EF9D5A142D8D303
:1073D000002070BD19484068122141430A4A4243C7
:1073E0000120C303D218120C5118454A1289002AF1
:1073F00001D0520001E0104AD28892B24A43800381
:107400001018C00B7047C0465F8400003C48C0881D
:10741000002801D0400001E00748808880B2074979
:107420000968074A4A430121CB03D218120C424390
:1074300088031018C00B70471C0F0020C4050020E3
:10744000CDD50400F0B583B02D4C002525702D4816
:10745000057000955021012630462246334600F043
:10746000B7F8002831D00096412087003B1D00204E
:1074700050210290224600F0ABF8002825D0FF20D2
:107480000230C11D22888A421FD1618881421CD1ED
:10749000E0590190204639460BF09EF8019981424F
:1074A00013D14820205C411E022916D220464930C3
:1074B000154E002231460AF0A3FF5D340125204617
:1074C00031462A460AF09CFF04E02120C1000C4806
:1074D000FFF71DFF284603B0F0BD0028029DF9D13B
:1074E0002046D430084D002229460AF089FFE834AE
:1074F0002046294632460AF083FF3546EAE7C04671
:1075000098060020A0070020A807002001211E489F
:107510000246583A126893031AD54A040346543B6C
:107520001A601A4A1278002A2AD1194A13681B06CF
:10753000FCD40903174B1960002101600160101F82
:107540001721090201601068C0071AD01079FAE704
:10755000920215D54A050346543B1A600C4A13683B
:107560001B06FCD409030B4B1960BFF34F8F00219E
:107570000160016041614161101F17210902016032
:10758000704710687047C04658000240A0140020A1
:10759000083800401804005080B501210A484268AC
:1075A000520409D5890341600849086800280AD0B7
:1075B00000220A60804780BD0268920403D5490317
:1075C000016007F045FE80BD0C180240281900201C
:1075D000F0B588B0069242420290424190024900C2
:1075E000081805900D99481E009181414A0601270F
:1075F0007E033A491C4601930492FF2C20462546FF
:1076000000D3FF250124401B03900498024600D0BC
:10761000220607941C0A044600D014462804059B41
:1076200018182043079B1F4000D030430C46143CE1
:107630002060002F02D020683042FCD10868C006CC
:1076400043D4002D1FD0029800280ED00868C4062D
:1076500030D4C2242042F9D0069B187808616D1EF0
:107660005B1C0693002DF1D10DE00868C00621D403
:1076700008684007F9D5C868069B18706D1E5B1C2A
:107680000693002DF1D108680006400FFBD00027BB
:10769000039C002C019B0798AFD1009A002A07D0C9
:1076A0000A689206FCD520224A600A689206FCD439
:1076B00008B0F0BD08688006FCD530204860086836
:1076C0008006FCD4002008B0F0BD08688006FCD518
:1076D0003020486008688006FCD4F3E71854004066
:1076E000F0B558490026CE718400574BDC61E04864
:1076F0000178002904D1EFF3108172B6DC690178BA
:107700004A1C0270524FFA690125280484420BD8A2
:10771000DE61101983B2FB614A48C079134A1360D5
:1077200000280FD02B030EE06804844212D86008B2
:10773000241ADC61101883B2FB61002CECD00B48DA
:1077400003600CE06B03203A1068504C0440E018D2
:10775000106004E0054802603E482018D861C44823
:107760000170002900D0F0BD62B6F0BD3840014084
:10777000F0B534490026CE7180003349C861BC4859
:107780000278002A03D1EFF3108172B602782F49F4
:107790000B46083B0424E5431D600B460C3B1D686B
:1077A00025431D600B68394C23400127BC031B197E
:1077B0000B60531C0370CC68254AD461DDB29D4236
:1077C00004D0EFF3108372B6D46903785D1C0570A2
:1077D0001D4AD569380485420BD8D661601984B238
:1077E0001B48C4611748C0790C62002810D03A03C6
:1077F0000FE07804854212D868082D1A124AD56124
:10780000201884B21248C461002DEBD00C620BE04A
:107810007A0308681D4C20401043086004E00C62A5
:107820000C4828180849C86191490B70180601D105
:1078300062B60B78581E0870000600D0F0BD62B624
:10784000F0BDC04635110020401100201840014015
:10785000601100200000FFFF10B58549087800285E
:1078600003D1EFF3108072B60878074A1368042436
:10787000A34313600870D168044B0B40D360002809
:1078800000D010BD62B610BD0C400140FF8FFFFE5E
:10789000B0B5B34C2078012820D1607805281DD8D8
:1078A000784400794000874402291A383E02224871
:1078B0000078032141430D19FFF7CEFF687A811E3E
:1078C00048424841C046C0462046303020211B4A2D
:1078D00000F038F800F072F800206070B0BDA078B9
:1078E000012801D100F0C8F87D2000011449096881
:1078F0000818FFF7F5FE03206070B0BDA0780028DF
:1079000002D10220C046C0460D4800686421081A12
:10791000FFF7E6FE02206070B0BD6420FFF7E0FED6
:1079200004206070B0BD0020C046C0466420FFF750
:10793000D7FE05206070B0BDC6520108957A0008D8
:10794000CC52010870B5524B1C689D6925605C687B
:10795000002525605A612560454C257805221207CF
:10796000002D05D0257014680325AC4314600AE08F
:10797000EFF3108572B615680326B54315602278BB
:10798000002A00D162B6DA7A5C7AA400394D6251DD
:1079900014CB15462435A560E0606160802020602E
:1079A000812020605960D069800603D5506AD06973
:1079B0008006FBD461208001906070BD344843692B
:1079C000816904220A43002B09D0437A012B08D88D
:1079D00002680123DB021362054A114305E01146E8
:1079E00003E0224901230B701146006801607047D3
:1079F0000400000470B51D4A00231370244A146863
:107A0000956925605468236013612360184C2578BC
:107A100005231B07002D07D025701C680225254370
:107A20000124A5431D600CE0EFF3108572B61D68BC
:107A300002262E430125AE431E602378002B00D181
:107A400062B6937A547AA4000A4D6351136852685F
:107A50001C4628349460D0605160902010609120C2
:107A600010603120C001986070BDC046F41800203D
:107A7000A1140020000802400448012101700448BC
:107A8000816948220A43006802607047FD1800209F
:107A9000A4010020F0B58BB00546314E30780128A6
:107AA00000D090E02F4800687D218900081AFFF778
:107AB0005FFE00242046C046C046B47001227270AA
:107AC000281F1C2869D830200590315CA94264D158
:107AD0000692032D08460AD032463132EB1E084684
:107AE0001778C01980B25B1E521C002BF8D1721996
:107AF0003032521E531E1B7812781202D218EA4BF3
:107B000043409A42069A48D1B460F078002800D1E8
:107B1000F270347731200290375CFA09E3488378B9
:107B2000934252D1E243049203977A06520F072AF6
:107B300000D97CE1920002A39A58049B9746C04664
:107B4000697B0008D97B00083F7C0008437D000862
:107B5000737D00089F7C00082F7E0008F77C0008DA
:107B6000A0030020C8520108042900D05FE10F20C3
:107B700003990140039100D159E1FC4800780028A5
:107B800000D154E131460D31CA5C022A00D02FE108
:107B9000401EC91C0028F7D149E1F44800780321B0
:107BA00041438D19FFF758FE687A811E48424841CB
:107BB000C046C046304630302021ED4AFFF7C2FEB5
:107BC000FFF7FCFE74700BB0F0BD0120C046C0464C
:107BD0000320F0700BB0F0BD042900D027E1E34989
:107BE0000A78002A00D122E10F21039C0C40039463
:107BF00031460E31039F06E0521EC01CC91C002AEC
:107C00002B4600D113E11D465B185B1E1B78002B31
:107C1000F2D04C5DBC42EFD1022B04D0049A521E2C
:107C200002238B54F370039A1202A14BD218B28331
:107C30000278B2774078F07700200870F7E00429E6
:107C400000D0F4E0E9490978002900D1EFE00F24E1
:107C5000039A059422400392451C37460E370020B4
:107C6000039C05E0FF1CED1C401C814200D1DEE0BE
:107C7000DA19521E1278022AF4D1FA5CA242F1D12A
:107C80003A7807AC214600F015F92D783878039042
:107C900000011030A84200D9B1E01022B1E0D34871
:107CA0000078002800D1C2E00F21039A0A40039215
:107CB00035460D35039A04E0ED1C641CA04200D14A
:107CC000B5E0E95C0229F7D129789142F4D1718EAF
:107CD0003246203220460020C046002800D1A6E0CF
:107CE0002978728EF283801D090201430D20000362
:107CF0000843B0839BE0042900D098E00F2003994B
:107D0000014000D093E0FFF7A7FDB84800780028B5
:107D100005D031460C310C70C91C401EFBD1B4702B
:107D20007470B4602046C046C04604203071F470C0
:107D3000304630302021AE4AFFF704FEFFF73EFE0A
:107D400075E00F20039C044039D0A8480178002931
:107D50006DD032460D32002004E0D21C401C81421E
:107D6000049B64D0D35C022BF7D11378A342F4D1E7
:107D700026E09E480078032141438C19FFF76CFDF3
:107D8000607A811E48424841C046C0463046303085
:107D90002021974AFFF7D6FDFFF710FE00207070F4
:107DA000039840B2002842D40598305C20283ED188
:107DB0003046323000F01EF90220F07037E000202B
:107DC000728E31463431009161426141AB1F002017
:107DD000C04600282BD00298305C000727D00598B9
:107DE000325C30461C3031463031FFF71DF91EE061
:107DF0000698C85403980870306BF06117E0059A34
:107E00002A400498385C00021018001D052149031F
:107E10000143B18330461E302146FFF719FA03981B
:107E2000401CC1B209018D4200D800203870327F59
:107E3000002A00D1C7E6FF21022A0B460FD0032AF1
:107E400001D1FC230BE030461D30D31E14460578CB
:107E5000A4B264195B1E401C002BF8D1E3433046EA
:107E60001C308218049CA218521E1370327FFE230D
:107E70001340022B0DD031461D31D31E14460D7810
:107E8000A4B264195B1E491C002BF8D1A1B2090AE7
:107E9000C9438218049B9954317FFFF7ABFD0698C4
:107EA000B0700BB0F0BDC046FFFF0000C352010828
:107EB00006900000F0B51748E24AD388002B02D0A4
:107EC00004465B0001E0044683889EB212480768BE
:107ED000124B5F430120C5037F193A0C724387039D
:107EE000D019C00B0E4E7043C00C0870D548C28824
:107EF000002A01D0500000E0A08880B2064A126833
:107F000053435A19120C4243D019C00B4643F00E8A
:107F10004870F0BD1C0F0020C4050020CDD5040022
:107F2000CDCC0000B0B5FFF797FC304800780028B2
:107F300006D02D490C3100220A70C91C401EFAD10E
:107F4000294D0024AC706C70AC602046C046C04621
:107F500004202871EC70284630302021244AFFF795
:107F6000F1FCFFF72BFD01202870B0BDC6520108BF
:107F7000957A0008B0B51C4D287801282DD1E878F5
:107F800000282BD0A968491CA960FA291FD3FFF744
:107F900063FC16480078002806D029460C310022E0
:107FA0000A70C91C401EFAD10024AC706C70AC6021
:107FB0002046C046C04604202871EC702846303068
:107FC00020210B4AFFF7BEFCFFF7F8FCE87829797F
:107FD000884202D0287100F041F9B0BD0020297913
:107FE0008842FAD0F6E7C046A0030020C652010836
:107FF000957A0008F0B583B07121924A535C421C17
:108000000F2109020D2B019206D85B00C45CC31836
:108010005B781B020B400CE006245C43A318543B26
:108020009C78F0252C401E783609A4191B792B402A
:108030001B011C19844FBC4200D33C46834DAC420B
:1080400000D82C460291824E7443824963180C4634
:108050001B0C81490B8072237A49CB5C0E2B07D213
:108060005900425C411849780902029B19400EE010
:1080700006245C4301996318543B9C78F0210C4022
:108080001A781209A218734C1B790B4019018B182E
:10809000BB4200D33B46AB4200D82B467343191971
:1080A000090C6D4A51807321664A535C0E2B07D22E
:1080B0005900425C411849780902029B19400EE0C0
:1080C00006215943019A891854398A78F0231A40B5
:1080D0000C78240912195F4C0979194009018B1891
:1080E000BB4200D33B46AB4200D82B467343191921
:1080F000090C594A91807421524A535C0E2B07D2C5
:108100005900425C411849780902029B19400EE06F
:1081100006215943019A891854398A78F0231A4064
:108120000C78240912194B4C0979194009018B1854
:10813000BB4200D33B46AB4200D82B4673431919D0
:10814000090C454AD18075213E4A535C0E2B07D25B
:108150005900425C411849780902029B19400EE01F
:1081600006215943019A891854398A78F0231A4014
:108170000C7824091219374C0979194009018B1818
:10818000BB4200D33B46AB4200D82B467343191980
:10819000090C314A118176212A4A535C0E2B07D2F1
:1081A0005900425C411849780902029B19400EE0CF
:1081B00006215943019A891854398A78F0231A40C4
:1081C0000C7824091219234C0979194009018B18DC
:1081D000BB4200D33B46AB4200D82B467343191930
:1081E000090C1D4A51817721164A535C0E2B0AD285
:1081F0005900425C401840780002029908408018FB
:10820000B84211D211E00620584301994018543861
:108210008178F022114003781B09C91800791040B9
:1082200000014018B84200D33846A84200D828467A
:1082300046433019000C0849888106F03BFD03B025
:10824000F0BDC04698060020CA080000EE020000FB
:108250009CC42000F0FDFF3FD4050020B0B5C11E36
:10826000022903D3022806D0002806D10F48032193
:1082700001700F4C02E00C4C00E00A4C0D4D08223E
:1082800028462146FEF7B7FF00280AD003CC03C5D5
:10829000083CA088401E08490860E088401E074945
:1082A0000860B0BD4853010858530108CC130020A2
:1082B00060530108980E0020A00E0020940E0020AC
:1082C000F0B581B0602200238354027B042A50D889
:1082D000044660347A44127952009744020E1B1F00
:1082E0002D000268092A08D8EF4A126842607448D3
:1082F0002080042600292AD12DE041229200437BD0
:108300001B029A182280E84A12688260042600291B
:108310001DD120E0807B0002684A07E02222E14B69
:108320009A5C0A4327D0807B0002614A0243228084
:10833000042600290BD10EE040302246E8C8E8C2EE
:10834000E8C8E8C22678002E13D0002903D0607850
:10835000802101436170B51E204629460AF064F968
:10836000A1198E1E3070204629460AF05DF9000AD8
:10837000707001B0F0BD4F480288921C930AE37000
:108380009208A2704288921C930A6371920822712B
:108390008288921C930AE3719208A271C288921C8F
:1083A000930A6372920822720289921C930AE37202
:1083B0009208A2724289921C930A637392082273F4
:1083C0008289921C930AE3739208A273C289921C59
:1083D000930A637492082274028A921C930AE374CB
:1083E0009208A274428A921C930A637592082275BD
:1083F000828A921C930AE3759208A275C28A921C23
:10840000930A637692082276028B921C930AE37693
:108410009208A276428B921C930A63779208227785
:10842000E278838B9B1C9D082E011643E670F02298
:10843000154066792E4366719B091340E5791D430B
:10844000E571637AC58BAD1CAE0837011F436772B7
:108450001640E37A3343E372AB091340657B1D4357
:108460006573E37B058CAD1CAE0837011F43E773D2
:108470001640637C33436374AB091340E57C1D43B2
:10848000E574637D408C801C85082E011E43667553
:108490001540E37D2B43E37580091040627E024363
:1084A0006276054820802026002900D04FE752E759
:1084B00004200000500400202040000004100000B0
:1084C00004700000F0B587B00492039073480278FE
:1084D0000020012A63D1E522724C0592A35C0E783C
:1084E000FF2E00D101269E4259D802910090039898
:1084F000C01C01900498077805E0761C0027D9B2CB
:10850000F2B28A424AD8F1B26518E822AA5CFF2A80
:10851000F3D0F820285C0697FFB23B01C21A102A5C
:1085200000D310222124E4002C5DFC40E40718D085
:10853000039F3A705B489830451850242C5DBE70FC
:108540007C7089014018C118F4310198FEF780FE53
:10855000029806700498069F07706020285C00212E
:1085600001E00121069F7F1CFAB21301002298420C
:1085700006D998424B4C07D9B618002908D110E00B
:1085800017469842474CF7D80122B618002908D060
:108590000598235CD9B2F2B28A42B4D9009807B0E8
:1085A000F0BD0298067004980770012007B0F0BD76
:1085B00010B5F44AF249535C0021FF2B18D0374B19
:1085C0001B78002B14D0E423D45C002C10D001784D
:1085D0000902084C0C432321C9005452408804214D
:1085E000D1548D2149005052D82000211150012131
:1085F000084610BD06D00000B0B582B014466D46E6
:1086000069702870080AA870E81C1946FEF720FE59
:10861000E21C0348294609F0F9FC02B0B0BDC0468F
:1086200022F00000F0B581B01C4C2278002A33D132
:108630001B4BEF4D0022EA54EC4BE954DD4EA8559C
:1086400030230327EF548423EA54E423EA52D82347
:10865000EA502723DB00EA54CB4B1B68DC27EB51A5
:10866000FF280B4600D003460727FB1AF64FEB55B1
:1086700062702A626A62FF2906D00C4B002208460B
:1086800019460BF039FAA85DFF2803D007490022EC
:108690000BF032FA0120207001B0F0BD90040020F0
:1086A0008F050000B4080020A4150020D052010856
:1086B000F0B585B00446FB4A0029019101D1CB48B1
:1086C00000E0F948101800780BF00AFA02948034A0
:1086D0000394042826D30746039D14350120C04384
:1086E000049003E07F1E6D1C032F1BD92E78301FD2
:1086F0001C28F7D8A819049A815C801840780002D9
:108700004418B11E284609F08FFF8442EAD1039F26
:10871000384629463246FEF79BFD029E307B0428F0
:1087200008D920E10020039F3870029E307B042886
:1087300000D918E13246403278440079400087443D
:108740000214284352003068401C306070688E4923
:108750000968081AFF21F431491C884200D202E15D
:108760000120B08102F0E8FDE7E0707B118C3A88CF
:108770008A426CD1401C707302F0DEFD707B3118B0
:10878000302200238B5402223273B073FF2008740E
:10879000D3E00198C103707B02020A437B49114375
:1087A00089B23A88914200D0A7E0F978491E3F2962
:1087B00000D9A2E03018B9780174F97820228154E8
:1087C0000020F0730120CDE02220B649085C019B17
:1087D000184300D1B1E0B07B311820228A5C112A05
:1087E00046D2002563E051780F230846184000D197
:1087F000B2E04906490F032943D0052900D0ABE078
:108800003D780A2D00D9A7E00121A9400B24E401FD
:10881000214200D1A0E07978CC090495019DA542C0
:10882000049C00D098E00B40834200D094E0702379
:108830001940502900D08FE079885288914200D0A9
:108840008AE0A21F33468433FFF7D6FE89E0002872
:1088500073D00120B0730198002824D12220ED4963
:10886000085C00281FD0042030730020306064E0D2
:10887000B97803250D4029011031914215D81022F5
:1088800015E038881188884266D179885488A142D9
:1088900062D1C0B20A2853D0082854D007285BD12F
:1088A00010793A7951E0032046E00F210A401C4636
:1088B000D90303020B43111D1943012673030B4314
:1088C00099B23B88994217D1002C1AD08001D14926
:1088D000081829014018632189004018029F394671
:1088E0008231FEF7B5FC3146A940B87B3A183023F7
:1088F000D45C0C43D4540DE0029EF07B401CF0731A
:1089000031E04000C3490818029F39468231FEF722
:108910009FFCB87B797B401CC2B28A4200D80646D5
:10892000BE730F293E4608D2B068BC490968081AD0
:1089300080087D2801D3012030730020F07312E0FD
:10894000706C7A6801E09088BA88824204D17878A5
:10895000184000F0ABF804E03068401C30600A2892
:1089600001D303203073F07B0A2806D3B07B401E6E
:10897000707302F0E1FC0120307305B0F0BDC04619
:108980008C050000B4080020A4150020061000008B
:10899000B0B582B0444C9F4D285D002300935B210D
:1089A0008900691820220BF03DFA285D0BF0A2FA2D
:1089B00002B0B0BD8C05000080B50248002109F06E
:1089C000FBFE80BD91890008B0B582B0F04CEE4D41
:1089D000285D002300932946B83120220BF022FAAB
:1089E000285D0BF087FA02B0B0BDC0468D050000CF
:1089F000B408002080B50248002109F0DDFE80BDEA
:108A0000C989000870B582B00E48DF4D295C002985
:108A100015D1DB490978002911D001212954D94EFB
:108A2000A85D0091094A00242146234605F0AAFAD0
:108A3000A85D7D21CA012146234605F0F9FC02B05C
:108A400070BDC0468F0500008E050000A18D000896
:108A500010B5CD4ACD49535C0021FF2B20D0C84B27
:108A60001B78002B1CD0E423D45C002C18D0017898
:108A700009024478A41D0C430B210903214323243C
:108A8000E40011538D214900448854524068042168
:108A9000D154472189005050D82000211150012184
:108AA000084610BDB40800208C05000080B582B0D7
:108AB00001AB59701870080A9870034803221946D0
:108AC00009F0A4FA02B080BD21F00000F0B581B039
:108AD000AF49AD4A535C0021FF2B00D196E0A84B73
:108AE0001B78002B00D191E02221535CFF280090DD
:108AF0005AD0002B62D03121515C00295CD0931CEC
:108B000000242046264604E0002026469B1C8C427A
:108B100076D2171935257D5D641CFD2DF6D11F8891
:108B2000002FF3D0FD07EFD1BD0721D47D0721D45D
:108B30003D0721D4FD0621D4BD0621D47D0621D4D4
:108B40003D0621D4FD0521D4BD0521D47D0521D4C8
:108B50003D0521D4FD0421D4BD0421D47D0421D4BC
:108B60000125ED032F4000D00F20002FCDD1CDE700
:108B70000120CAE70220C8E70320C6E70420C4E7B3
:108B80000520C2E70620C0E70720BEE70820BCE7B3
:108B90000920BAE70A20B8E70B20B6E70C20B4E7B3
:108BA0000D20B2E70E20B0E7002B05D030200323C4
:108BB00013540026565422E0002620E0012353548B
:108BC0003121535C002B0FD0941C002503E0A41C22
:108BD0006D1C9D4208D256193527F65DFD2EF6D143
:108BE00000232380535CF2E7682150543021002693
:108BF00056540949516609490968566291623046DE
:108C0000F1B2C2B2009800F00BF80121084601B0A1
:108C1000F0BDC046B408002007300180A415002034
:108C200080B582B001AB9A70597018700348032266
:108C3000194609F0EBF902B080BDC04619F00000FA
:108C40004F480178012901D1012141707047C04688
:108C5000F0B581B04A4C6078002819D020780128FE
:108C600014D1002525704748474E305C012105F09E
:108C7000C1F84648305CFF2801D00AF0CFFE4448D6
:108C8000305CFF2801D00AF0C9FE657001B0F0BD6C
:108C90003C483D4D285C7D21C9010024224605F059
:108CA000BDFB3B48285CFF281CD02320285C002803
:108CB00013D138480068016A097802290DD1C069CA
:108CC0000078002809D030200321295484202C5416
:108CD0006C6201200002688404E0284624300021F0
:108CE000FFF7E6FC294FE85DFF2804D02846D8307E
:108CF0000121FFF7DDFC2326A85D002806D02548CA
:108D00000068006A0078022809D0AC552048285C29
:108D1000FF2804D0284624300021FFF7D1FAE85D6F
:108D2000FF2804D02846D8300121FFF7C9FA184897
:108D3000285CFF2811D0A95D00290ED184216A5C2E
:108D400022216B5C002B00D0134B294684310BF0A1
:108D5000FDF80F48285C0BF05DF9E85DFF2809D0AD
:108D60002721C9006A5C69180C4B0BF0EFF8E85D2D
:108D70000BF050F902F0E6FA288401B0F0BDC046CD
:108D8000900400208E050000B40800208C0500002F
:108D90008D05000048040020F5890008B989000805
:108DA00080B50248002109F01DFD80BD518C0008EE
:108DB00070470000B0B51348817802220A438270E0
:108DC00011481249C16112480168FF2291430160B4
:108DD000C4490878002803D1EFF3108072B60878F0
:108DE000674A1368764C23400125AD035B19136075
:108DF0000870116821401160002800D0B0BD62B633
:108E0000B0BDC046301100200819002041040108FF
:108E100014E400E0F0B558490026CE718400574BA9
:108E2000DC61E3480178002904D1EFF3108172B6C8
:108E3000DC6901784A1C0270524FFA690125280446
:108E400084420BD8DE61101983B2FB614A48C079B5
:108E5000134A136000280FD02B030EE068048442ED
:108E600012D86008241ADC61101883B2FB61002C50
:108E7000ECD00B4803600CE06B03203A1068504CB8
:108E80000440E018106004E0054802603E482018E5
:108E9000D861C7480170002900D0F0BD62B6F0BDAE
:108EA00038400140F0B534490026CE718000334986
:108EB000C861BF480278002A03D1EFF3108172B66F
:108EC00002782F490B46083B0424E5431D600B46FE
:108ED0000C3B1D6825431D600B68394C234001275E
:108EE000BC031B190B60531C0370CC68254AD4616A
:108EF000DDB29D4204D0EFF3108372B6D4690378DB
:108F00005D1C05701D4AD569380485420BD8D661B1
:108F1000601984B21B48C4611748C0790C620028EC
:108F200010D03A030FE07804854212D868082D1A51
:108F3000124AD561201884B21248C461002DEBD0CA
:108F40000C620BE07A0308681D4C20401043086057
:108F500004E00C620C4828180849C86194490B7059
:108F6000180601D162B60B78581E0870000600D0B2
:108F7000F0BD62B6F0BDC0463511002040110020A2
:108F800018400140601100200000FFFF10B5884923
:108F90000878002803D1EFF3108072B60878074AEA
:108FA00013680424A34313600870D168044B0B407A
:108FB000D360002800D010BD62B610BD0C40014047
:108FC000FF8FFFFE10B5EF4CE078042824D8C04690
:108FD0007844007940008744022007301B001E4877
:108FE000002109F0E9FB10BD2079002802D1E068DA
:108FF000406C8047E1685F20085C0A465F32527827
:1090000080186E22101A896A88470320E07010BD0C
:109010001148002109F0D0FB10BDE068006C8047CA
:10902000E1685E20085C0A465E3252788018F030B3
:10903000896A88470220E07010BD6079012802D15A
:10904000E068C06C8047E1686020085CE130896AB4
:1090500088470420E07010BDE9950008704780B58E
:109060000146002001220AF047FD80BD70B5584B33
:109070001C689D6925605C68002525605A61256033
:109080004B4C257805221207002D05D02570146859
:109090000325AC4314600AE0EFF3108572B615683F
:1090A0000326B54315602278002A00D162B6DA7A29
:1090B0005C7AA4003F4D625114CB15462435A5605F
:1090C000E060616080202060812020605960D0696C
:1090D000800603D5506AD0698006FBD461208001E8
:1090E000906070BDA1140020394843698169042251
:1090F0000A43002B09D0437A012B08D802680123C8
:10910000DB021362054A114305E0114603E02749DB
:1091100001230B70114600680160704704000004D1
:109120002B48016882690A60406800210160016083
:109130007047C04670B51D4A00231370244A146856
:10914000956925605468236013612360184C257865
:1091500005231B07002D07D025701C680225254319
:109160000124A5431D600CE0EFF3108572B61D6865
:1091700002262E430125AE431E602378002B00D12A
:1091800062B6937A547AA4000A4D63511368526808
:109190001C4628349460D06051609020106091206B
:1091A00010603120C001986070BDC046F4180020E6
:1091B000A114002000080240044801210170044865
:1091C000816948220A43006802607047FD18002048
:1091D000A4010020F0B5FF22D2438218062A06D847
:1091E000344A80188F38007808700120F0BD154A85
:1091F0008018062824D84200134B9C1865789C5C84
:109200000C702A021219114D2A406D1C4E7836023C
:109210002E40B5182D0A4D7040255D5D40339E7877
:10922000DF785B780C701B025B193C02A4192404E4
:10923000E318C340D8038018000A48700220F0BD2C
:109240000020F0BD00FEFFFFA8070020FF7F000008
:10925000F0B51749174AD388002B02D00C465B00A3
:1092600001E00C468B889EB213490F68134B5F4395
:109270000121CD037F193A0C72438F03D119C90B19
:109280000F4E7143C90C01700A49CA88002A01D0E7
:10929000510000E0A18889B2074A126853435A1965
:1092A000120C4A43D119C90B4E43F10E4170F0BD67
:1092B0001C0F002098060020C4050020CDD5040016
:1092C000CDCC000070B50446D04D0026AE706E7057
:1092D000AE60E860006A8047A16B094888470120BA
:1092E0002870E868006B8047EE70E868C36B28461A
:1092F00025302421C64A9847E868006C804770BD35
:109300003853010880B5C1490878012810D1886810
:10931000002804D05D4A1268101A632809D9002079
:1093200048708A78904203D08870C968496A884733
:1093300080BD48788A789042FAD0F5E780B525203C
:10934000B24908568206120F022A0BD0012A10D009
:10935000002A0DD1002810D44006C00FC968096941
:10936000884780BD2620085C001FC9688969884736
:1093700080BDC8684069804780BD0220C96809690E
:10938000884780BDF003002010B504469F48C1689F
:109390005E20085C0A465E32527810184B22101A82
:1093A000C96A88470248214609F006FA10BDC0463E
:1093B000B5930008F0B581B00546944EF0780028CA
:1093C0002FD1A81F1E282CD8344625346019401EE2
:1093D0000778691E204609F017F9874221D1252018
:1093E000305C81071DD12621715CA94219D101276A
:1093F000F7700021717125490968B1602721715CFE
:1094000007220A40B2718906490FF1718006000FE8
:10941000022817D001281DD0002824D1F068006D43
:1094200012E0F068006B80470020F070F068C36BBA
:10943000304625302421764A9847F068006C8047F2
:1094400001B0F0BDF068806D00280CD031462831A5
:109450002A1F06E0F068406D002804D0314628310C
:109460001422FDF7F5FE0A480025294609F076F991
:109470007078002800D177703571F068C36B2521B2
:10948000044A2046984701B0F0BDC046A41500200C
:109490003D9300089994000880B501465B4801227D
:1094A0000271024809F088F980BDC046B1940008F5
:1094B000F0B581B0554DE978022928D1152826D17B
:1094C00039202C5C28462530142109F09DF884426F
:1094D0001DD125202F5C03203840012817D12C46B0
:1094E000113414212046FDF710FF02262E74B8080F
:1094F00004285FD8784400794000874402192A3450
:1095000044006878012855D00020687052E0E8686F
:10951000006B80470020E870E868C36B2846253060
:1095200024213B4A9847E868006C804701B0F0BDB1
:1095300006202874E8685C21415C697401465C314E
:109540004978A974C0688047E874000636D16E7007
:1095500034E0687802282DD10A202874E8688168F0
:10956000204688472AE06878022823D10E202874F4
:10957000E88C6874010AA974E9680A6829461431FC
:109580009047E8741AE06878002813D012202874F5
:10959000E88C6874010AA9742821695CEA68536838
:1095A0002A4629329847E874E879072806D1A8792D
:1095B000072803D10020687101B0F0BD2C4610349B
:1095C0001421204609F020F82421685401206871F4
:1095D000E868826C15212046904701B0F0BDC04676
:1095E000D94800787047C04610B5084CE068006B59
:1095F00080470020E070E068C36B204625302421BE
:10960000034A9847E068006C804710BDF0030020D3
:109610008993000810B5CB490870CB480078002822
:1096200000D010BD1648174CB04A214608F06AFE1B
:109630007121AC48415C4900625A13490A80722288
:10964000825C5200A25A4A807322825C5200A25A63
:109650008A807422825C5200A25ACA807522825C7F
:109660005200A25A0A817622825C5200A25A4A8192
:109670007722805C4000205A888105F01BFB10BDDA
:109680005406002014060020D405002010B590B028
:10969000AD480178FE220A40027088072AD4924819
:1096A0006C46924A214608F02DFE71218D48415C9E
:1096B0004900625A8E490A807222825C5200A25A84
:1096C0004A807322825C5200A25A8A807422825C91
:1096D0005200A25ACA807522825C5200A25A0A81A4
:1096E0007622825C5200A25A4A817722805C400036
:1096F000205A888110B010BD10B590B09248017802
:10970000FD220A400270C8072AD177486C46774A82
:10971000214608F0F7FD71217248415C4900625A08
:1097200073490A807222825C5200A25A4A807322D4
:10973000825C5200A25A8A807422825C5200A25A31
:10974000CA807522825C5200A25A0A817622825C0B
:109750005200A25A4A817722805C4000205A8881B8
:1097600010B010BDF0B593B0FF23DB43C318062B38
:1097700010D80020012900D0A8E011781F2900D9B5
:10978000A4E0584DE8187126825D8A4246D1012036
:1097900013B0F0BD4E4BC3180020062B00D995E046
:1097A000022900D092E011785478240266184949C1
:1097B000314000D18AE019242401A14200D985E07A
:1097C0008C1FA4B22C2C00D280E04020424D01908E
:1097D0002C5C2846403045782D022C198578C778B6
:1097E0003F027D192D042C1902945C003A4F3D5D17
:1097F0003C19009467783F027F19012425469D405B
:109800008F423ED1029B2B405F425F41E3035E40AB
:10981000F30B9F4235D1022013B0F0BD81554A4869
:109820000078800728D1304803AC304A214608F040
:1098300069FDA85D4000215A2D4801807221695CB4
:109840004900615A41807321695C4900615A8180F5
:109850007421695C4900615AC1807521695C4900C5
:10986000615A01817621695C4900615A4181772101
:10987000695C4900615A818119490120087013B05F
:10988000F0BD029BAB43019E134FBB55009F397047
:10989000090A7970190EC170190C8170190A41708A
:1098A000115709021278891809D5029A2A430A49E0
:1098B0008A55110EC170110C8170110A4170074850
:1098C000002108F04BFF06480470022013B0F0BDE1
:1098D00000FEFFFFFF7F0000A80700203104010801
:1098E000A00700209806002092080020B81300204E
:1098F00052080020B0B5022809D0002809D111482B
:1099000002210170104803210170104C02E00C4C40
:1099100000E00A4C0E4D082228462146FDF76BFC5C
:1099200000280AD003CC03C5083CA088401E094982
:109930000860E088401E08490860B0BD485301082F
:109940005853010848080020CC1300206053010838
:10995000980E0020A00E0020940E002010B50146A5
:10996000DF204000F84C201800F058FA0020E07288
:1099700010BDC04610B5FF20D230F34C201801F0C6
:1099800065FB0020E07210BD80B507480078012813
:1099900008D108F067FEEC48017C02220A430274F9
:1099A00008F06CFE80BDC04692040020F0B58BB07C
:1099B0000590E548807A002806D00E78FF2E0191A8
:1099C00005D0B006470F03E000200BB0F0BD002724
:1099D00007210E400598C01C03900292157806914D
:1099E00004E07F1C0025002800D0A3E1F1B2002094
:1099F000072903D1FAB2012A00D1A2E1072905D132
:109A00003A0603D1D04A1446683419E0072908D031
:109A1000FAB2072A05D106204843FF4A14186E34CB
:109A20000EE0FAB2072A00D18BE1072900D188E1C4
:109A3000062048432A215143F74A51180C189834FC
:109A4000069B107E00210A910028089301D00A99F4
:109A5000089168210491525C11460F31C9B207295F
:109A600009930FD301230993072906990DD20028E2
:109A700007910ED10790F13A237800280DD1FF2BE2
:109A80007CD0D7E007290699F1D30A9100280791E5
:109A9000F0D0F13A23780028F1D0FF2B00D0C9E0B4
:109AA000F0B2F9B2072814D100290A98099B2ED0E8
:109AB00001290898079B2AD00726F8B2C01F454203
:109AC0004541F4B2E11F481E81410020002D3CD0E9
:109AD00037E1F4B206206043CF4B18186E23C05C08
:109AE000FBB2072B05D0F138884208DD7B1C3046DD
:109AF0000DE00F30C0B2072801D20027DDE70720B4
:109B0000A242034600DC0123A24200DD701CDEB24B
:109B1000F11F4D424D41C4B2E11F4F1EB941072C08
:109B20000DD0072E0BD106216143BB4B5C186E2173
:109B3000635C0721FF2B79D106460F46C9E71F4614
:109B400006460020002D00D0FBE0002900D1F8E0FF
:109B500006206043F9B22A234B43F849C9180C1870
:109B60009820235CFF2B9BD09834002562E0F34CB7
:109B70006834072600272378FF2BF6D1F9B2F4B218
:109B8000072C06D100290A98099B28D00129EED07C
:109B900012E006206043E94B18186E23C05C0729C9
:109BA00005D0F138884212DD7B1C304617E00F30BB
:109BB000C0B207280BD20027F8B2C01F454245416A
:109BC000E11F481E81410020002D22D0B9E007206E
:109BD000A242034600DC0123A24200DD701CDEB27B
:109BE000F11F4D424D41C4B2E11F4F1EB941072C38
:109BF00009D0072E07D106216143F64B5C186E345D
:109C000007270646B7E71F4606460020002D00D06E
:109C100097E0002900D194E006206043F9B22A239E
:109C20004B43EC49C9180C189834A4E76E3400254E
:109C300006460F46E8B22179C140C90718D0059AF7
:109C40005370F90031439170000161780A1A102AAB
:109C500000D3102205990A706188DE4B5918081844
:109C6000FF21D63141180398FDF7F2FA012000E0F8
:109C7000002061786D1CEAB21201914200D9B2E66F
:109C8000FAB2F1B2072910D1002A27D0012A3DD11A
:109C9000D049097E0727002500293E4600D02E46E0
:109CA000002900D09FE60F469DE606234B43C94C92
:109CB000E3186E241B5D072A21D0F13B934200DD9F
:109CC0008FE6C44A049BD25CF13A07238A421F46BE
:109CD00000DC01278A4229DC1E4683E6BD49049A3E
:109CE000895C0F31CAB20721072A0F4600D301272A
:109CF0000025072A2E4600D275E60E4673E60F337E
:109D0000DAB20025072A04D22F466CE60025072682
:109D100069E6B04A049BD25CF13A07238A421F46A7
:109D200000DC01278A4203DC1E465CE6761C59E60D
:109D3000761C58E6F80030430199087002980570C7
:109D400001200BB0F0BDC046B4080020B0B50146FC
:109D50009F4802780020012A17D19E4BDA7A002A08
:109D600013D10C78DF2252009C549A184D885570FC
:109D70002D0A9570097849B2002907D43F21214066
:109D800007290CD1197E002909D0B0BDC9B24906F6
:109D9000FBD10021104600F041F80120B0BD0721A1
:109DA0002140A206520F072906D1002A04D16821BA
:109DB000595CFF2911D1E8E7072911D0072A0FD1F3
:109DC00068229A5C0F32D2B2062ADED806224A43B3
:109DD00099186E22895CFF29D7D00120D872B0BDB6
:109DE0000729D2D0072AD0D068241C5D0F34E4B2F2
:109DF000062CCAD806244C4319196E25495D0F312B
:109E0000C9B20629C1D82A215143591809199822E3
:109E1000895CFF29E1D1B8E7B408002080B503468A
:109E2000CA1C0248194608F0F1F880BD26F000006F
:109E3000F0B585B06649097800297CD1654E0024CB
:109E40003476C10707D181070CD4410712D400072B
:109E500018D403941DE03A49002272540124347648
:109E60008107F2D53119364A01238B54641C3476AC
:109E70004107ECD53119324A02238B54641C3476E5
:109E80000007E6D530192E4903224254641C03947E
:109E900034760023B38173812948315C0720029115
:109EA000401A049030724C480068016820251F4613
:109EB0000BE00A78497809028918D9400F220A4034
:109EC000D7196D1E234601460BD05C1D072C03D805
:109ED0000846072CEDD902E0481C072CE9D9DC1E06
:109EE000E7E701233A480370F81DC0083060039883
:109EF0000028049819D0049338490122029809F0E7
:109F0000FBFD307E02280ED300240E4F334D301956
:109F1000C05D0122294609F0EFFD601CA11C327EC4
:109F200091420446F3D3307A049B0093C0B20021DF
:109F30002B4A04F027F805B0F0BDC046B408002055
:109F4000D5050000D6050000F0B581B0204C217881
:109F500000293BD16721EA4B00225A541A765872E5
:109F60009A815A810721091A197262701A4909687F
:109F70000C68202316460BE02578647824026419C7
:109F8000D4400F22224096195B1E3A460C460BD055
:109F9000571D072F03D82146072FEDD902E0611C7A
:109FA000072FE9D9D71EE7E7012409490C70F11DF5
:109FB000C908D34D29600949224609F09DFD287A38
:109FC00000940021064A234603F0DCFF01B0F0BDF7
:109FD00092040020B4080020480400203B530108EC
:109FE00071B0000870B5C64C207B052800D0D2E0C7
:109FF000207E002806D0E17E07200840072804D1F3
:10A0000000211BE02046093002E02018BD4940181D
:10A01000007809F065FD002115280FD15220205C41
:10A0200003220240022A09D16620255C20465230D4
:10A03000142108F0E9FA281A41424141A07A042883
:10A0400000D9A8E0784400794000874402273D46C3
:10A050006B00607B401C6073C0B20A2800D29AE09B
:10A0600001F06AF9207E002800D1E2E09221FF226F
:10A0700062546E21625410386821605420466E305C
:10A0800082770276827402738271204668300021E2
:10A090000171C943418002214170CDE000297AD08D
:10A0A0005220205CFC210140042974D15520205C01
:10A0B000072870D8002800D1C9E067210122625426
:10A0C000217C0143217470BD607CA27C002A63D195
:10A0D000072861D12546683573E0002939D0522020
:10A0E000205CFC2101400C2933D1FF200146C03106
:10A0F000625C61184978090289185322A25C2346E0
:10A1000053335B781B029A188A4222D15521655C31
:10A11000002D24D0C2302018214656312A46FDF7A2
:10A1200097F81DE0002924D05220205CFC2101403A
:10A1300010291ED1E9204000205A5321615C22469B
:10A140005332527812025118814212D15520205CAC
:10A1500016E0607B401C6073C0B20A281BD3002548
:10A160006A48294608F0FAFA002060730220A072BB
:10A1700070BD607B401C6073C0B20A280BD3002006
:10A1800075218900605460480025294608F0E6FAE8
:10A1900065730220A07270BD072A06D1072804D07B
:10A1A00006224243A5186E350BE00025072A08D089
:10A1B000072806D0062343432A2050432018C518F9
:10A1C0009835002926D05220205CFC210140082926
:10A1D00020D1002666736888C8498842DBD02018E1
:10A1E0006978112903D35322A25C03261640320159
:10A1F0008018FF23D633C0188A1A102A00D31022E1
:10A2000053342146FDF724F80120B0402979014359
:10A21000297170BD607B401C6073C0B20A28BAD33C
:10A22000FF20287000F076F80020607301F084F8B9
:10A2300070BD6820FF212154002060730121A172AC
:10A24000334921616061FF200830E08170BDA17B4E
:10A25000E27B002A04D1072902D12046683014E0AD
:10A26000072A06D1072904D00620484320186E305B
:10A270000BE00020072A08D0072906D00620484313
:10A280002A2151436118081898305321615C0170EC
:10A290005422A25C0023037142700F31C8B2062819
:10A2A00029D8E17BA07B07280DD100290BD1922072
:10A2B000FF2121546E2021546E34A1772176A174A0
:10A2C0002173A17117E0072915D1062141436018B8
:10A2D000C222FF21815498228154EC2281548B2286
:10A2E00052008154052292018154B52252008154BA
:10A2F00065229200815400F00DF801F01DF870BD48
:10A30000B4080020D5050000759900085D99000883
:10A3100000070100F0B589B06820AE49085C0490E0
:10A320000F30C3B200210722072B039100D3039201
:10A330000120072B0646029000D302910498F138C1
:10A340000490A44B187E01906833587800906C4CB0
:10A3500000E0089AD3B2072B0CD1F2B2002A0FD03A
:10A360000723012A13D100230198002814D018468E
:10A37000984E7AE0F3B210460D463746954EABE064
:10A380000D460298039A934EC10754D15FE00D46E3
:10A390001A4637468F4E82E06C2000228D4E325492
:10A3A00000980D18A542084600D354486A22B052BE
:10A3B000A54200D30D460298039AC1073BD146E05F
:10A3C00005461E466E27D75DF0B2072812D10F371B
:10A3D000F8B2072816D200230898037008782F4691
:10A3E0002818A04200D3454F079E3780A042E7D3EC
:10A3F0002846E5E7F13F9F420DDD3746771C059A79
:10A40000744E2AE00499069A91420DDC0020714EA8
:10A4100091420DDD17E00499069A91426D4E0FDCD2
:10A420000020914204DD0EE001206A4E91420ADCD8
:10A430000722C1070BD00727D0B207280BD00CE0AA
:10A4400001209142F4DD05994A1CC107F3D101278F
:10A45000D0B2072801D100294ED0D3B2072B1ED08D
:10A46000F8B207281046294619D107460620584356
:10A4700030187222002383546F22825C8D18A5420B
:10A480000A4600D31D4A7023C252A54200D30D468E
:10A49000F8B20723072838461F461A461CD10892EF
:10A4A00006205843224634463E46F9B22A234B43FF
:10A4B000E1180B189C20002119549920185C2918C8
:10A4C00091422C4600D30D4C9A201C5291421446C6
:10A4D00000D23EE729463CE70590C1B2062006912E
:10A4E0004843321810469C30089010469A30079026
:10A4F000114699313E4665E709B0F0BDFFFF000007
:10A5000001040000F0B581B0324C207E002819D043
:10A51000E17E3F220A403F2A17D100262E4F3546C2
:10A520000AE06019C05D21463D31152209F00EFD9B
:10A530006D1C207E854214D2401E85420A4BF0D00D
:10A540003346EEE72046093004E00720014060185A
:10A550002149401800783D341522034B214609F06B
:10A56000F5FC01B0F0BDC046DDA5000810B51948E6
:10A57000017B02290FD17D218900074A12789200C0
:10A580008A1A007A00242146234603F051FF03482B
:10A59000214608F011F910BD855A010805A50008EB
:10A5A00080B582B00B49087E002808D0CA7E0720FB
:10A5B000104007280CD00818074A801801E0084608
:10A5C00009300078002300935231152209F02AFC4B
:10A5D00002B080BDB4080020D505000080B5024857
:10A5E000002108F0E9F880BDA1A50008F0B593B0FE
:10A5F000FB4C2078012806D16078002805D0F94D61
:10A60000287B00281ED013B0F0BDF7480078002842
:10A61000F9D0F44C207B0028F5D1204619300D905C
:10A620002421FCF772FE277CF80717D12268101D41
:10A630000B90A076B80724D400266676EB48056810
:10A64000A96826E000262670287A012103F0D2FBB3
:10A65000687A09F0E3F9667013B0F0BD18200B902A
:10A66000A07604266676FE2007402774DF4805683A
:10A67000296820461C301422FCF7EAFD78070ED426
:10A6800014E008266676FD2007402774D748056841
:10A69000696920461C30FCF7DBFD780706D50020F1
:10A6A00060610120E074FB2007402774286A00786D
:10A6B000002806D0314640316176022801D1C036EB
:10A6C000667627463D377E1C14213046FCF71DFE7A
:10A6D0003D220123A354A17A481E02280C931ED2C6
:10A6E000E07A002822D00021617302286CD1112069
:10A6F000A054FF200146D23162181D46D35A7B5325
:10A700000423A372615C3F230B40E376D278B270DE
:10A71000C2302118381DFCF79BFD0D9EF3E2002985
:10A7200002D1A3543F20E0760D9EECE2E07C0028AD
:10A730005CD06069002807D01546AD4A1268101A2F
:10A740002A4680087D2851D31120A054032080037D
:10A75000F8523F20E0763D460EAF8020B8700920C9
:10A76000B070384604F034F88120B8700F986871E2
:10A77000F8782871384604F02BF88220B870F87801
:10A78000A871384604F024F88320B870F8780F993F
:10A7900009020818F080384604F01AF88420B870CE
:10A7A000F8780F99090208183081384604F010F83B
:10A7B0008F4800686061F8782F460F9909020818E1
:10A7C0007081A07E0D9E9FE20D20A054DF204000EE
:10A7D00021184A78897809028918F9520321A1724F
:10A7E000205C3F210140E1760D9E8CE20692E67BE3
:10A7F00030465840A37B07251A4609956A40024314
:10A8000050425041002A0CD16268794C2468A21A47
:10A81000744C92087D2A04D3FF200830E081227E08
:10A820003CE0227E0792002A1FD09222A25CFF2ADF
:10A830001FD122466E326E246A4D2C5D95792540DB
:10A84000684CFF2D15D1147B957C2540654CFF2D60
:10A850000FD1147E927F2240624CFF2A09D1079AC1
:10A86000501E984212DD09991BE06822A25CFF2A63
:10A8700010D0891E4A1E9141014300D06EE1672528
:10A88000605D002800D1B5E019465AE1FF2008308C
:10A89000E08103E0FF200830E08100220C9E09994E
:10A8A0000B46059700200A90002A089101D00A98CB
:10A8B00008906820275C38460F30C0B2072875D34F
:10A8C0000121072874D2002A00D109920792F13F92
:10A8D0000CE006256543D4B22A266643414CA419F0
:10A8E0006419983416462278FF2A66D0F4B2D8B29A
:10A8F000072808D1002C0A9B0A4641D0012C0FD111
:10A90000089B099E13E006224243364DAA186E2585
:10A91000525D072C06D0F13AA24220DD761C06E0FB
:10A92000072304E00F32D2B2072A21D200262D4895
:10A93000C67383730120704007221C4654400443B1
:10A94000E4B260426041DCB2072C06D1340604D187
:10A95000244C683400261346C5E7324619E0072424
:10A960008742224600DC0122874208DC234607E0BA
:10A9700007248742224600DC01228742F6DD5B1C69
:10A980001848C2738373DCB20020072C01D1012A5E
:10A9900023D0DCB2072C9CD0D5B2072D99D106224A
:10A9A0006243104CA4186E3407269CE707288AD30C
:10A9B00009980A90002A88D088E70028094C059F4A
:10A9C00000D0C8E00520069960540120A07207203D
:10A9D00003407007800EC018A5E6024C059FBAE040
:10A9E00092040020B4080020450400204804002000
:10A9F000A41500200722002009900799002902923F
:10AA000001D0099802906820205C0A900F30C0B2F3
:10AA100007280892039500D287E001250895039D39
:10AA2000072800D384E0002900D10A4601920A9841
:10AA3000F1380A90002900D110E20597D8B2072812
:10AA400009D1F2B2002A0999089846D0012A3BD1CF
:10AA50000299019E39E0F1B2DDB20620024604956A
:10AA60006A43A5182F4698376E242C5DF2B2072A48
:10AA70000CD10F34E1B207290BD20021F84CE1735D
:10AA8000A3733A78FF2A0E46EED156E0F13C8C4291
:10AA900047DC0A99049A9142F14C1BDD5B1CA373BD
:10AAA0000726E673DAB250432018072A01D06E3029
:10AAB00002E0DF21490040180078FF283ED007213E
:10AAC000072A0E46C8D100E00721E673A173254688
:10AAD000059F0DE001200721059FE073A173072961
:10AAE00004D101280646254602D120E20646254625
:10AAF000C8B206234343F4B22A226243AA18D218EA
:10AB00009832072C01D0134601E0EB186E332C4627
:10AB10000728039D00D113461878FF280B468DD1D6
:10AB20000FE0761C1946CE4CCFE7072800D27AE713
:10AB30000992002900D178E778E70E461946059F6B
:10AB4000039D00206055F0B2012800D011E1C8B289
:10AB5000072800D00DE1F94800686060607B00289C
:10AB60000D9E079902D0A27C617CC1E007200022E3
:10AB7000089200290A90099001D00898099068204D
:10AB8000225C10460F30C0B207280A9B049300D203
:10AB9000A1E001230493072800D39FE0002900D1FE
:10ABA0000A91F13A0392A27C607C002900D1EBE08B
:10ABB0000597C1B2072908D1D3B2002B0899049890
:10ABC0005DD0012B62D0072162E0D1B2C5B2062769
:10ABD0003B4607956B43E618334698336E24345D45
:10ABE000D5B2072D0CD10F34E1B207291CD20021B8
:10ABF000D14CA17460741A78FF2A0A46EED073E033
:10AC0000F13C8C4262DC0399079A9142CA4C0D9E3A
:10AC100032DD401C0722A2746074C3B25F43E119A5
:10AC2000072B12D06E3114E00399079A9142C24C5F
:10AC300022DD401C0722A2746074C3B25F43E11995
:10AC4000072B0D9E0AD06E310CE0DF246400091939
:10AC5000FD4C059F0978FF2909D063E1DF246400DA
:10AC60000919F94C059F0978FF2900D05AE10721FD
:10AC7000072B0A46AAD10BE001200721059FA074EB
:10AC80006174072920D10128024603D109990A9A43
:10AC9000A2746174CDB2264606246C43D0B22A2336
:10ACA0004343F3181B199833072D01D11C4601E0CB
:10ACB00034196E340D9E072800D01C462078FF28DA
:10ACC0000846E14C14D174E70246E3E7521C014602
:10ACD000DD4C059FDCE7072800D25FE70A98089063
:10ACE000002900D15CE75CE70A4601460D9E059FFE
:10ACF0000920069BE0540220A0720720084051075B
:10AD0000890E0818E0760B98C0B2411E304607F055
:10AD10007BFCA17E8919491E08701421384607F072
:10AD200073FC51216054207E002814D00024854FEC
:10AD30002546C54E09E07019C05DB27E0D9909F037
:10AD400005F96D1C307E85420BD2401E85427C4B3E
:10AD5000F1D02346EFE7A27E607A794B314609F0C5
:10AD6000F5F8B9480C990173007A03F097FC13B019
:10AD7000F0BD0520069AA0540120A07207200140D2
:10AD80007007800E4018CEE401460CE006245443C0
:10AD90002A225A43AC4B9A181319AB4C98330246EB
:10ADA0001878FF28A4D1C8B2072809D1D0B2012849
:10ADB0003AD00028089904982FD00721104614E0B3
:10ADC000D0B2CDB206236B43E3186E241B5DD4B220
:10ADD000072C04D0F13B83420ADD501C04E00F3302
:10ADE000D8B207280FD20020F44CA074617425E07B
:10ADF0000722039BAB421046F04C00DC0120AB4223
:10AE00000ADC114609E00722039BAB421046EB4CDB
:10AE100000DC0120AB42F4DD491CA0746174CAB2AD
:10AE2000072A0BD1012809D10A9AA27409996174E1
:10AE3000234668331878FF28B5D059E7CAB2C3B2A1
:10AE4000072BA3D1072AA1D00620504320186E2239
:10AE5000825C0720FF2A0246B3D049E719460DE07D
:10AE6000B408002006224243F0B22A234343E018EC
:10AE7000801898300078FF2800D162E6C8B2072811
:10AE800009D1F1B2012908D007200029099A089BAD
:10AE900001462ED01FE0F2B209E0019EE67302994E
:10AEA000A173204668300078FF28E7D149E6C8B290
:10AEB00006234343E3186E241B5DF4B2072C04D031
:10AEC000F13B93420ADD761C04E00F33DAB2072A25
:10AED00004D20026B94CE673A17313E007220A9B43
:10AEE00083421346B54C00DC01230A9E864200DDF6
:10AEF0004A1CE373A273D0B2072801D1012B13D0EF
:10AF000011461E46CAB2072AACD0F2B2072AA9D10E
:10AF100006224243A0186E22805C0722FF281646B4
:10AF2000C5D10EE60146E3E60721012609E6072121
:10AF300001262C4604E6C046B4080020A4150020D3
:10AF40006DA50008D5050000F0B583B005469A4808
:10AF500001780020012928D1984FF97A002924D1BD
:10AF600002902878FF210C46D23438553E19688863
:10AF700001220192B0526878F070C23178186A7874
:10AF8000291DFCF765F9287841B200290AD4395DFA
:10AF9000387E00280BD03F200840072807D10298B0
:10AFA00003B0F0BD4006029826D003B0F0BD0720E4
:10AFB00008408906490F072807D1002905D16820D4
:10AFC000385CFF28029812D1EFE707281ED0072926
:10AFD0001CD16821795C0F31C9B20629DFD806215E
:10AFE000414378186E21405CFF280298DDD0022092
:10AFF000F872019803B0F0BD75208000002139542B
:10B00000304600F023F8019803B0F0BD0728C6D001
:10B010000729C4D06822BA5C0F32D2B2062ABED841
:10B0200006224243B8186E23C05C0F30C0B2062817
:10B03000B5D82A204843381880189821405CFF284A
:10B040000298D4D1B1E7C046B408002080B50146CB
:10B050000248042206F0DAFF80BDC04625F0000059
:10B0600055480178012901D1012141707047C0463E
:10B0700070B55148007801280ED1504D287B052825
:10B080000AD8C04678440079400087440206192C4B
:10B090003844287A03F0C2F870BD287A03F0BEF86D
:10B0A000287E00283DD00024454E2819805D08F0F8
:10B0B000B1FF641C287E8442F7D30220287370BD40
:10B0C000287E002833D0E87E3F2101403F2956D119
:10B0D00000243B4E2819805D08F09CFF641C287EEC
:10B0E0008442F7D353E0287E002823D0E97E07204E
:10B0F0000840072823D02818314940181CE0287E32
:10B10000002829D0E97E07200840072829D02818E0
:10B110002B49401822E000202873287A03F07EF89B
:10B1200070BD687A08F076FF0220287370BD28464B
:10B13000093029E028460930007808F0DBFE7D2040
:10B14000C0002149097889000918287A002203F0F3
:10B1500065F90420287370BD28460930007808F08E
:10B16000E9FE287A5F2189000024224603F056F97F
:10B17000052028731348214607F01EFB70BD0721E8
:10B18000084028180E494018007808F043FF0E4880
:10B1900000780E490978081A80007321C900411807
:10B1A000287A002203F03AF95220295CFC220A4056
:10B1B0002A540320287370BD92040020B408002094
:10B1C000D5050000E59F0008845A0108865A010849
:10B1D000F0B58DB0039202910546594A11780CA83A
:10B1E000017050780BAA10705248006840220492F7
:10B1F000865C06A8C01C0090FF24A0000590019565
:10B2000001E0002857D10120C0434AB2824237DC16
:10B2100006A8817003F0DCFA0CA909780022002846
:10B2200012D00B46813B032B0FD8C0467B441B79C1
:10B230005B009F442001010106ABDF781B791B02F4
:10B24000DB19059FBB4200D11046491C0CAA1170A6
:10B25000384A12684123D35C7F270F409F42D0D3E6
:10B26000002D1AD00BA900230B700CA90C7000281C
:10B270002146C8D01FE006ABDB78FF2BE5D1E3E722
:10B2800003980028324648D1022D0AD0012D44D11E
:10B2900006A80CA90BAAFDF715F93246002808D11B
:10B2A0003BE006A80CA90BAAFEF780FB324600285B
:10B2B00033D0204802680498105C06A90978C91C9C
:10B2C000814223D8039B002B09D106AB5B7807276B
:10B2D0001F40526ADB08D25CFA40D20716D03246D1
:10B2E0008E4221D3029B197006A84178597081784B
:10B2F00099700778DE1C3046009915463A46FBF7F0
:10B30000A7FFF0190290E81B019DC61E0B980C4A7E
:10B3100050700CA80178117075E7802008490870FA
:10B32000044800680499405C101A411E88410DB021
:10B33000F0BDC046480400200148802101707047DC
:10B340009C0400204448006880B27047B0B50121D9
:10B350008A04144B1C6914431C611C6814431C6050
:10B360001C6894431C60104B1C460C3C002222605D
:10B370005A61DA603F24DC610C4C1C6299601C68E5
:10B38000022525431D604B4B1A60094B18604A4843
:10B390000260FF200004074A1368834388051818D9
:10B3A0001060B0BD301002400C480140FFFF0000AB
:10B3B0000419002014E400E03F490860012213044E
:10B3C000984207D800220A603A490A68101880B2E9
:10B3D000086010E05204904208D84208801A0860C1
:10B3E00034490868801880B2086004E0334A801845
:10B3F000086030480068144948620220C043086071
:10B400007047C046B0B52C490860144A1268294BF1
:10B410001A6001242504A84204D8101882B21A60C8
:10B4200000200AE06404A04205D84408121992B230
:10B430001A60001B01E0214BC018034B5A620860E0
:10B440000220C0431860B0BD1048014002480068A7
:10B45000024908607047C04624480140AC0E0020F5
:10B46000F0B51B490B68012293430B600223DB43B9
:10B470000B61104E002535600F4C20604A611704A7
:10B48000B84203D885B23560002009E05704B842BD
:10B4900004D84708BDB23560C01B01E0074E8019D3
:10B4A0004D6320600B619005054B186008681043E0
:10B4B0000860F0BDA80E0020A40E00200000FFFFD1
:10B4C00000E100E0024801680122914301607047F9
:10B4D00000480140F0B589B0C04E3078002849D00E
:10B4E000B078012803D104F0DDFB002842D000250C
:10B4F000B570717804292ED8880001A210588746AB
:10B5000079B5000815B5000883B50008A9B500088D
:10B5100015B5000802207070307805281CD8C04688
:10B520007844007940008744254D025B768AF521F6
:10B53000AB48425C002A00D19CE30269A94B1B681E
:10B540009B1AF622825CD41E012C00D919E2642BCE
:10B5500000D294E21DE2307800280BD0FFF7B2FF52
:10B560000024204604F094F901203080B470642057
:10B57000FFF776FF09B0F0BD9B48FFF71DFF09B04C
:10B58000F0BD0325757030780528E5D8784400793A
:10B59000400087440217037217A2EBE79048806AC5
:10B5A000FFF70AFF09B0F0BD012777703078052852
:10B5B000D2D8C04678440079400087440203A3D81B
:10B5C00003F2D7E7FFF77EFF0024204604F060F97E
:10B5D00001203080B4706420FFF742FF09B0F0BD55
:10B5E000012900D00BE14D247D49085D52228A5C7F
:10B5F0004B68DD682D7A002D09D0002A07D0401C49
:10B600000855C5B2DF683F7ABD4200D396E2000616
:10B6100000D0F7E0A1E25A20714C002727522046C3
:10B620005A304780012008907070256808202856FD
:10B63000002800D52CE1A97A20465E3031E1312185
:10B640006748425C002A0BD04268664B1B689A1A16
:10B650002323DB00DB339A4200D8A0E100224254CE
:10B66000A42100224250A021604B43503321425478
:10B67000026201217170D3439EE15220584F385C21
:10B6800000280FD0FF201630395C491C39547868E7
:10B69000C068007A002805D04D21795C401E8842A0
:10B6A00000DCE2E201207070384624300068FFF7C9
:10B6B00083FE4F480024214607F066F8386800688A
:10B6C000002800D156E7E8013C503818446049484A
:10B6D000214607F043F809B0F0BD414CA069FFF7DF
:10B6E0006BFE3020205CFE210140082900D041E79C
:10B6F0003520215C4A1E622A00D93BE7491C2154AF
:10B7000009B0F0BDF5213648415C002900D1E0E0E8
:10B71000F621425C002A00D1DBE0F723C15C00295E
:10B7200000D1D6E0D11E022905D341684968097AC3
:10B73000002900D1CDE00021C1548368F8240351D1
:10B7400073685B68FC240351022A01D100F004FCF9
:10B75000032A01D100F007FC042A01D000F009FC03
:10B7600042685268531C5268042400F008FC1C4DC7
:10B770006868C06862210791405C012800D0C7E278
:10B780003320C0002B183F20C100685C40001A5ACB
:10B790006818447864001C5B944200D9F6E10022EA
:10B7A000F5E10F4C2046373020210890FBF7ADFD26
:10B7B0003020205C401E092800D9B0E34000C0467C
:10B7C0007844808840008744170076037A037D031D
:10B7D00086038A038E0392039503A103900300203E
:10B7E000300F0020A415002088130000EDCD0008C4
:10B7F00015C7000829C50008372027548FE35220B9
:10B80000E8490A5C002A19D0E6488168E64A1268CD
:10B81000511A826C137952791202D21891420DD3C7
:10B820005222002181540122120281548018FF22E9
:10B83000920042608260DD4806F090FF4D25D94CB1
:10B840006068C068007A002806D0605D002803D1D7
:10B85000D748002106F098FFE020D6492150522019
:10B86000205C002800D1C1E06168C9680A7A002A1A
:10B8700004D0635D521E9A4200DC40E1E4210022C4
:10B88000079262502146002800D1BCE01C31BBE089
:10B890005E200021215220465E304180A97A204658
:10B8A0006230FBF732FDE06821699422A0509820B5
:10B8B0002150297A0F20084002280FD0032822D1D6
:10B8C0006068A168401C8842089B00DB38466060C5
:10B8D0001BE0C069FFF770FD09B0F0BD5621605C48
:10B8E000401C60545722A25CC3B2934206D300208E
:10B8F00060545821625C012353406354C0B240003D
:10B900002018808A00E06068089B9C216050287A9B
:10B91000000703D10020C0439021605088210020FF
:10B9200060505822A15C5940A1542A7A9206920F85
:10B9300004D0012A01D1014600E019462046AC306E
:10B940004170072028560002A9794018A0216050B4
:10B95000287A4006C00FAC216054E87E012806D149
:10B96000AE20002121542320C000A82160500120D6
:10B97000B070204659308834214603F0ADFF09B03D
:10B98000F0BD2324E400DB34A34278D9022A00D09E
:10B990006EE18948002106F0E1FE09B0F0BDA42166
:10B9A000864A4250A021864A4250332200218154C7
:10B9B00001620369CA43633AAC240251A82283504E
:10B9C000BE2281543221415CBD2281540121B170DB
:10B9D0000246AC3211747B490023C4685460936002
:10B9E000D160A03003F062FA09B0F0BDE421764ADC
:10B9F0006250216C4942EC22A1500021079121465E
:10BA0000002800D042E734310968E822A150F4212F
:10BA1000002262504F21635C5B1C6354655D002D06
:10BA20000890254601D0143500E010352D68F02728
:10BA3000E5515025655DDBB2AB4202D25121615C1C
:10BA400006E062545123E55C01216940E15413464C
:10BA50005A00A36C9A189579D77901225140512048
:10BA6000215438024019F8250695605149201D5C83
:10BA70004833002D0ED0012D0BD100210AE02B21DF
:10BA8000CA000021815055229200504B8350026A17
:10BA9000FBE01146FD27E1550899484248411978D5
:10BAA000FE23E054FC256155B2702046E03003F0DF
:10BAB000FDF90798002803D04548002106F04EFE06
:10BAC00020680068002800D154E56520800000212E
:10BAD0002154069820583122D200A05063208000C3
:10BAE0002150605DFF2196316054E05DCB2149001B
:10BAF000605419200001E169215009B0F0BD6431A2
:10BB00000A78002A0AD04E22A25C921F531E9A4144
:10BB100049784B1E9941914200D1ECE0E1692268DD
:10BB2000536832338B4200D3DBE0E423294FE750E4
:10BB30005268FA2A00DCFA22891A5CE700200855CC
:10BB4000DC686425645D002C07D04E240D5D6D1CFF
:10BB5000EFB2062F00D828460855886C047845783F
:10BB60002D022C198578C0780002401900040019B4
:10BB700000D147E604227270DA68127A002A01D0F6
:10BB8000896B4018FFF718FC09B0F0BD012208923C
:10BB9000825C52009A5A847864001C5B94421BD8E1
:10BBA000089C1AE0300F0020A415002079DB000863
:10BBB00015C700081DD0000889C50008A1C60008E7
:10BBC000EDCD000880E5F9FF71C5000875CD0008CE
:10BBD00035C1000861C500080224025D52009A5A6E
:10BBE000C0784000185A904200D903247F2080007A
:10BBF0002A5CFF2A00D18BE006902046A0242C5915
:10BC0000520004949C52089028180390405C0190C4
:10BC10004200985A059006982A5CAC183B22D00046
:10BC20000294225CFF2A4BD00692059C049AA24201
:10BC30006DD90590029A1018FF2202709000002220
:10BC4000D5431F3D03E010469B1C6D1C58D2DD4AB6
:10BC50005219525CFF2AF7D11A88904201D92C461A
:10BC600020349042EFD80246EDE738462C301DE5EF
:10BC7000002242542B21C900002242505521890044
:10BC8000D24B435001217170D24357239B00C250C5
:10BC9000B922520081542D21C9000022425059225C
:10BCA0009200836983500122B27041180A81C84A08
:10BCB0004A6055218900401803F0F8F809B0F0BD3A
:10BCC000039A059B049C9C4221D251182A18FF23F9
:10BCD0000198135406982B5C0B70285C089C145434
:10BCE00016E0E4210022625001210791214600283C
:10BCF00000D0CBE587E6532100226254E421BFE562
:10BD0000069AED4DA8184454281905994254089CE8
:10BD10005321685C002860D00691089457202B5C62
:10BD20007F2219460392114029543F2101910B4073
:10BD30006A68D4686321645CE407640EE3182B54DA
:10BD40005F241C40D36864255B5DDB079B0E1B19D9
:10BD5000D94C23546F241C40D36865255B5DD64DB8
:10BD6000DB07DB0E1B192B54D06840682B4657337A
:10BD70000593D851D068405C002802D070684068B4
:10BD8000E865842000210491295029468431E8681F
:10BD9000C860286A08614F20285C02904000AC6CA3
:10BDA00000902518A879ED792D02281848614620C1
:10BDB000205C25464635EB571B0218188861A87889
:10BDC000ED4D2423C854049B4920245C012C14D03D
:10BDD000002C11D151202B5C0FE06868C0680799D6
:10BDE000405C012803D17F208000FF212954E86BAB
:10BDF000FFF7E2FA09B0F0BD3B46A92004902B54AE
:10BE0000D068079A805C0128059C29D1039880009E
:10BE1000029A2A54A8183B22D200825C2320C00038
:10BE2000FF2A08D0009AAA183323DB00D25AFF2336
:10BE30001A339A420ED3089AAA18019BDB00D25CEF
:10BE40005200AA183323DB00D25A824200D30246A2
:10BE5000002301E002230246A4202A50AA202B54EA
:10BE60000127B770204603F037FD286800680028D6
:10BE70001CD02D20C1006C50A86C4A22805CA822E6
:10BE8000AA5CFF237E33EA54049AAA5CBF235B00BA
:10BE9000EA5469180F759822AA589C23EB58AC698C
:10BEA000091D1DC14B48002106F058FC00200699D1
:10BEB000685409B0F0BD3720022121542FE037200B
:10BEC000032101E03720042121543420205C402844
:10BED00025D3606A22E03720052121541FE0372056
:10BEE000062121541BE037200721215417E0372079
:10BEF000082101E03720092121543520205C6428E5
:10BF00000DD33620205C3821605408E037200A2108
:10BF10002154A06AE16A0322089B99522087A565F3
:10BF20002948E066A06860666069A0662068042110
:10BF3000415E216781797C22A154007A002801D1D9
:10BF40003220255C7D202554B7705834089821464E
:10BF500003F0C2FC09B0F0BD3C22825E43685B681E
:10BF6000513301240BE042685268531C526802248A
:10BF700005E03C22825E43685B6851330C461B78C7
:10BF80002525ED00435547239B00C2500122130293
:10BF9000C4541124240145690551FF242A34015554
:10BFA0002324E4000A4D05514524A400456A0551A7
:10BFB000B270C2185160111DF83003F08DFC09B049
:10BFC000F0BDC046300F002080E5F9FF75CD0008B8
:10BFD000D055F3FF45C50008F0B59BB00D46654E42
:10BFE0003178002965D00090FFF76CFA00242046D4
:10BFF00003F04EFCF620604F3C54F5203C543C636B
:10C00000812040003080B470009821C768686821A2
:10C01000083FFBF77CF9294DA98901A881810ECD44
:10C020000191274901800393029210A901220C3D3E
:10C0300003F0FEF905A92846224603F0F9F9089B0A
:10C040003233BB610A98C83038620C9D2846643090
:10C050000B9E32186432B862FA62079900915B183D
:10C06000099FDB19179F1699C919109FC919963195
:10C07000CB1A00D22346404F7B627119059C0D19E3
:10C08000C8351399129E7118149E8E193236AE421D
:10C0900004D9711B8A180818B862FA6264207861A2
:10C0A0000099C9180919069A89186431F961FFF7CE
:10C0B000D7F91BB0F0BDC046300F00202454010852
:10C0C0002709000010B519480078022828D1184C1B
:10C0D000A168886800690279531E042B03D209689D
:10C0E0000120884710BD002A14D18179C91E4170F2
:10C0F000A06880680069C179C91E8170A0688168E4
:10C100000969097B00290CD00268E068216907F001
:10C1100077F910BD00F0C2FCA068016800208847D4
:10C1200010BD01680120884710BDC046940400205E
:10C13000A8150020F0B581B00E480078032816D16C
:10C140000D4D6E68F0686321415C002901D009271C
:10C1500000E00527C07839182C4657342046FBF7F5
:10C16000D4F8E0197168884753200121295401B09F
:10C17000F0BDC04690030020300F0020F0B589B01C
:10C180000746E2480078032800D0BDE1E04B187E66
:10C19000002805974ED1187F002800D0E7E0D87E10
:10C1A000002800D039E15C7F002C00D13DE19A7F6E
:10C1B000500098770121154608910D409107CE0F48
:10C1C000AD195607F60FAD191607F60FAD19D606BD
:10C1D000F60FAD199606F60FAD195606F60FAD1906
:10C1E000EEB29D682D692D78AE4223D24726F60027
:10C1F0009E598F27BF00DF59B742059F0AD1012CF6
:10C2000008D04B24A4001C5D1C194926B600A45D6F
:10C21000002C0FD022241C5DFF2C0BD0022D02D845
:10C22000002904D006E0042D01D8D20702D10899D4
:10C2300008439877B74A3878797809020818B978A6
:10C2400009044018114620310140080CDA7FB8700B
:10C250001007800D08433870020A7A702024195D97
:10C260007A703870B9701A7E002A1D4600D0C3E07B
:10C27000AA7FD20700D1BFE06A7F012A00D1DCE0AB
:10C28000232007902A5C4B20800004902B5CD01860
:10C290000721069108402E18492103918900089131
:10C2A0000296765C714271412226AF5D3E46D640D1
:10C2B000F60700D1DAE00294C80735D1521CD01835
:10C2C000069C224007996A5420402E182C46089953
:10C2D000755C694269413D46D540ED072546EBD185
:10C2E000089AB218029C002900D1C5E04721CE006F
:10C2F000A9598F239B00EB588B4245D9591AAB683B
:10C300001B699F78B94200D80F461770A9596A680F
:10C31000126851184001281824303A46FAF798FF5D
:10C32000A859C019A851A7E07B49002068547B4A4E
:10C33000A854089BE8508F229200A8504722D200B0
:10C34000A850049AA854039AD200A8546877691890
:10C35000C871887148710871C87088704870E91890
:10C360004860059F2B46187F002800D117E73878D2
:10C37000C0210140481C3870986800690078F87046
:10C380000020187709B0F0BD43D203965F1A6968A0
:10C39000AB684E68F6191B699B789E4200D83346FD
:10C3A0001370039FEE594A680196921B9A420293BA
:10C3B0001E460B4600D816461A68019951184001CE
:10C3C00028180090243032460193FAF741FF019B70
:10C3D000E8598019E8515968884200D30020E85193
:10C3E0000298821B48D0009880192430196816469C
:10C3F000FAF72EFFEE513FE0A8688168F81C8847E5
:10C400003F2101403878C02202405018387009B0EE
:10C41000F0BD0020079968542EE0387802210143CE
:10C42000C2200840387009B0F0BD387804210143BB
:10C43000C4200840387009B0F0BD80B2090440182B
:10C44000010A7970010CB97036490140C81C387076
:10C450000020285521216854222168542321685442
:10C46000FF20E8830220687709B0F0BD089A029B9C
:10C470009A18002900D039E70798285C2121695CC7
:10C4800009180F220A40059E317873781B0259184B
:10C49000B3781B04C9182F239943511810220A435B
:10C4A0000499695C3270130A73702F462D5D7370A6
:10C4B0003270B57092B22B04D218164B1A40130C7E
:10C4C000FD7FB3702D07AD0D154335702A0A7270CC
:10C4D0004018069908403C180899625C3570B370A2
:10C4E0000F4B2B409206120C9A18120A7270625C63
:10C4F000400139182431F01CFAF7AAFE0799785C3C
:10C50000401C069A1040785409B0F0BD94040020F5
:10C51000A81500201FFCFF002D02000035020000BE
:10C52000DF03FF00C0FFFF0080B5784800780328D4
:10C5300006D10320C00176490818096809688847B0
:10C5400080BDC04680B571480078032806D12D20F3
:10C55000C0006F49081809680968884780BDC0464F
:10C5600080B50248002106F0F9F880BD35C1000809
:10C5700080B566480078032803D10248002106F000
:10C5800003F980BD15C7000870B5614840680568AB
:10C590005E4E307800280BD0FEF794FF0024204632
:10C5A00003F076F901203080B4706420FEF758FF64
:10C5B000A84770BDF0B59BB00546544F38780028A9
:10C5C00065D0FEF77FFF0024204603F061F932209A
:10C5D0004F4E34543486FF2006303880BC703560AE
:10C5E000687A00280CD1786800680021C1728172D5
:10C5F0004172017227490A0AC27181714271017147
:10C60000254DA98901A881810ECD01912349018081
:10C610000393029210A901220C3D02F009FF05A923
:10C620002846224602F004FF089D32350A98C83099
:10C63000F56030610C9A104664300B9B1918643118
:10C64000B061F161079FED19099FED19179F169EC3
:10C65000F619109FF6199636751B00D225462C4EFA
:10C6600075619A18059BD218C832139B129CE31867
:10C67000149C1B1932339342344604D99A1A511828
:10C680001018A061E1616420A060FEF7E9FE1BB014
:10C69000F0BDC0460080FFFF345401082020000098
:10C6A000B0B53324ED4D285D411FC9B20F2905D81F
:10C6B00002F098FB296A08182862285D401C28555A
:10C6C000B0BDC04601480121017070472C0F002009
:10C6D00001210902E14A5358036051188A688260B7
:10C6E000496841607047C046F5480078032809D181
:10C6F000DA48806C4621415C4630407800024018A0
:10C7000000B27047002000B27047C046900300207E
:10C71000300F0020F0B583B0F3480078032800D034
:10C720009AE1FF2108461630CC4E305C202800D21A
:10C730008FE1029145208000345C8B204500775DBD
:10C74000F0192321C9004454002C019112D0432038
:10C750008000009535183058214608F0EDFB79002F
:10C760006E18B0836868009D214608F0E5FBB0872D
:10C77000BA4E05E0780030182521C900029A4252CD
:10C7800043208100002070507A1CD3B20F2B034647
:10C7900000D813467355711808814860029F3846C7
:10C7A0001830315C0F2904D84A1C32540F2900D0AC
:10C7B0004FE12520C000325A0198315C0025FF2A44
:10C7C0002C4600D00BE1FF2A284600D00CE1FF2ABE
:10C7D00004D02922D200B25A51430D469521490076
:10C7E000715AFF290AD03A461A32B25CA5235B007F
:10C7F000F35A53435D19A418514308184B2189007B
:10C80000715AFF290AD08D225200B25C53239B003B
