:020000040800F2
:100000004806002081020008970200089F020008AD
:1000100000000000000000000000000000000000E0
:10002000000000000000000000000000A70200081F
:100030000000000000000000AF020008B702000846
:10004000BF02000800000000C5020008CB02000843
:10005000D1020008D7020008DD020008E302000810
:1000600000000000E9020008EF020008F5020008A5
:10007000FB0200080103000807030008000000005D
:100080000D03000813030008190300081F030008EC
:10009000250300082B03000831030008370300087C
:1000A0003D03000843030008490300084F0300080C
:1000B000550300085B03000800F002F800F030F878
:1000C0000CA030C8083824182D18671EA246AB466D
:1000D00054465D46AC4201D100F022F87E460F3E08
:1000E000B6460FCC0126334200D0FB1A3343A2465A
:1000F000AB461847B81C0000C81C000000230024B1
:1001000000250026103A01D378C1FBD8520700D34E
:1001100030C100D50B6070471FB51FBD10B510BDB5
:1001200000F0ABFA1146FFF7F7FF00F02BFD00F0EF
:100130004FF803B4FFF7F2FF03BC00F055F80000DE
:1001400070B505460C46164602E00FCC0FC5103EB2
:10015000102EFAD2082E02D303CC03C5083E042E7B
:1001600007D301CC01C5361F03E021782970641C38
:100170006D1C761EF9D270BD10B5202A04DB08462E
:10018000203AD040002110BD0B462024D340D0405F
:10019000A21A91400843194610BD4343514330B55C
:1001A0005C18010C130C0D4692B25D4380B25143B2
:1001B0002C19054655430A0C09044D196241584350
:1001C000010C00044019514130BD70477047704721
:1001D00010B50446C046C0462046FFF7AAFF10BD32
:1001E000004870478000002001491820ABBEFEE7A0
:1001F00026000200704700002A0000000A00640088
:10020000080101000001C10003018001000100009C
:1002100001020000000000000000000000000000DB
:1002200000000000000000000000000000000000CE
:1002300000000000000000000000000000000000BE
:1002400000000000000000000000000000000000AE
:10025000000000000000000000000000000000009E
:10026000000000000000000000000000000000008E
:10027000000000000000000000000000000000007E
:100280003E4880473E4800473E4A1268002A00D157
:100290000047096808473C483C49F5E7FEE73C4809
:1002A0003C49F1E7FEE73C483C49EDE7FEE73C48C6
:1002B0003C49E9E7FEE73C483C49E5E7FEE73C48C6
:1002C0003C49E1E73C483D49DEE73D483D49DBE745
:1002D0003D483E49D8E73E483E49D5E73E483F497C
:1002E000D2E73F483F49CFE73F484049CCE7404845
:1002F0004049C9E740484149C6E741484149C3E749
:1003000041484249C0E742484249BDE74248434963
:10031000BAE743484349B7E743484449B4E7444848
:100320004449B1E744484549AEE745484549ABE74C
:1003300045484649A8E746484649A5E7464847494B
:10034000A2E7474847499FE7474848499CE748484C
:10035000484999E74848494996E74948494993E750
:10036000FEE74948006885464848006800470000A5
:1003700047484849464A484B704700006515000801
:10038000B90000087C0000209D02000808600008F9
:10039000A50200080C600008AD0200082C600008EF
:1003A000B502000838600008BD0200083C60000883
:1003B000610300084060000861030008486000080D
:1003C000610300084C6000086103000850600008E9
:1003D00061030008546000086103000858600008C9
:1003E000D10A00085C60000861030008646000082E
:1003F0006103000868600008610300086C60000881
:100400006103000870600008610300087460000860
:10041000610300087860000861030008806000083C
:10042000ED1400088460000861030008886000087B
:10043000610300088C6000086103000890600008F8
:1004400061030008946000084D08000898600008E7
:10045000610300089C60000861030008A0600008B8
:1004600061030008A460000861030008A860000898
:1004700061030008AC60000861030008B060000878
:1004800061030008B4600008006000080460000810
:10049000480200204806002048020020FEB505461C
:1004A00010460C46184373D0AE468C460020AD1A59
:1004B00001469C4167D36646002701243D46B61A93
:1004C0009D4102D313463A462124654676462F04C1
:1004D000360C3E432D0CB61A9D4104D3150C1B045B
:1004E0002B4312041034654676462F06360A3E43E7
:1004F0002D0AB61A9D4104D3150E1B022B4312027E
:100500000834654676462F0736093E432D09B61A4C
:100510009D4104D3150F1B012B431201241D654679
:100520007646AF07B6083E43AD08B61A9D4104D3E0
:10053000950F9B002B439200A41C65467646EF075F
:1005400076083E436D08B61A9D411AD392185B4156
:10055000641C16E00018764665464941B71A9D416D
:100560000191009009D36046B11A98418E468446A5
:10057000009801990025401C6941DD0752082A4373
:100580005B08641EE6D57246634603B0F0BDFFE724
:1005900000200146C046C0462A462346F5E70346EA
:1005A00010B50B439B070FD1042A0DD308C810C9FF
:1005B000121FA342F8D018BA21BA884201D90120EB
:1005C00010BD0020C04310BD002A03D0D30703D0C4
:1005D000521C07E0002010BD03780C78401C491C19
:1005E0001B1B07D103780C78401C491C1B1B01D135
:1005F000921EF1D1184610BDF8B5042A2CD38307FA
:1006000012D00B78491C0370401C521E83070BD07C
:100610000B78491C0370401C521E830704D00B78D2
:10062000491C0370401C521E8B079B0F05D0C91A32
:10063000DF002023DE1B08C90AE0FFF781FDF8BDBB
:100640001D4608C9FD401C46B4402C4310C0121F73
:10065000042AF5D2F308C91A521EF0D40B78491CAB
:100660000370401C521EEAD40B78491C0370401CD6
:10067000012AE4D409780170F8BD7546FFF7B0FD92
:10068000AE46050069465346C008C000854618B00E
:1006900020B5FFF76DFE60BCB64600260027C0C53A
:1006A000C0C5C0C5C0C5C0C5C0C5C0C5C0C5403D2A
:1006B000490849008D46704770B5FF2189021A4AE2
:1006C000126893020B400122D4061C43002184428D
:1006D00027D905210904154B1C680C42FCD11D6863
:1006E000134C2540002D00D01D601D680D42FCD12B
:1006F0001F25ED064019000A0E4D05400E482843FF
:1007000058600E4E2E435E601D680D42FCD10C49B0
:10071000084019685860114018682040002800D02F
:100720001860084670BDC046E075FF1F10200240EB
:10073000FB830000F8FFFF0002000001020001013E
:10074000F8FFFF0106480321C9434158052212045E
:100750001142F8D10121C90702680A4302607047BB
:1007600014200240F0B582B0D31D072293430193B9
:100770001C18FF229202264B1B689D021540012384
:10078000DE062E430022B4423FD2019A002A1A46C6
:100790003BD0052214041F4D1F4E84C9083933680D
:1007A0002342FCD133682B40002B00D033603368E8
:1007B0002342FCD1194B7360026000974760336895
:1007C0002342FCD13368002501273B422B4609D048
:1007D000036893422B4605D14268009BD21A00233E
:1007E0009B1A53413760756032680A4D2A40002ACF
:1007F00000D032600022002B07D0019A083A08305E
:1008000008310192002A3A46C7D1104602B0F0BD25
:10081000E075FF1FFB830000102002400100000173
:100820000748C168002900DB704705210904826878
:100830000A42FAD103490160034901607047C0468A
:100840000820024023016745AB89EFCDF0B581B0A8
:100850001848026802210A422AD0C9430160164A98
:100860001368002B0AD0154DAC1CA3420DD2154EB7
:100870003468E4182C403460002316E01248006805
:10088000002815D0804701B0F0BD01246404A342C4
:1008900007D85E080B4F3C68A4192C403C609B1B9A
:1008A00003E0074C1B19074C246813604462016085
:1008B00001B0F0BD10480140E0000020FFFF000043
:1008C0000000FFFFE8000020E400002010B5154AFA
:1008D00000211160144A1060144801600120820454
:1008E000134B1C6914431C611C6814431C601C6876
:1008F00094431C600B22D2430E4B99505961D9602E
:100900003F21D9610C4919629860196802220A4393
:100910001A60FF210904094A13688B4380051843B4
:10092000106010BDE8000020E4000020E00000207E
:10093000301002400C480140FFFF000014E400E0CA
:10094000B0B512490860124B9A1C904206D2124C64
:10095000226812181A40226000200FE0012252047F
:10096000904207D844080C4D2A6812191A402A6090
:10097000001B03E0074A8018074A1268086007480E
:1009800042620221C9430160B0BDC046E0000020C0
:10099000FFFF00000000FFFFE800002010480140BA
:1009A000B0B511490860114A1268114B1A60114C18
:1009B000A51CA84204D2121822401A6000200BE0A5
:1009C00001256D04A84205D84508521922401A6035
:1009D000401B01E0084BC018086008484262022131
:1009E000C9430160B0BDC046E0000020EC0000201B
:1009F000E8000020FFFF00000000FFFF104801405A
:100A000002480068024908607047C0462448014017
:100A1000EC000020F0B516490B68012293430B60EF
:100A20000223DB430B614A61124C2060124D002609
:100A30002E60124EB71CB84203D230402860002509
:100A40000BE05704B84205D847083E402E60C51B4E
:100A5000304602E00A4D45190020256048630B61CD
:100A60009005084B1860086810430860F0BDC04648
:100A700000480140E0000020E8000020FFFF0000E7
:100A80000000FFFF00E100E00248016801229143FD
:100A90000160704700480140B0B50446094D082286
:100AA00028462146FFF77BFD00280AD003CC03C56A
:100AB000083CA088401E04490860E088401E0349A5
:100AC0000860B0BDF800002000010020F400002004
:100AD00080B501218A0307484368134201D0426070
:100AE00080BD490302680A4202D0016000F05AFF4B
:100AF00080BDC0460C1802407047704702280BD0DA
:100B0000012811D000280ED1012081070A4A116066
:100B100080060A490860704701208107064A116073
:100B2000800206490860704701208106034A11606F
:100B300080030149086070471808005018000050F1
:100B400002480068810B01200840704710040050E3
:100B5000012251065202002800D0114601480160CE
:100B60007047C04618000050BFF34F8F0348044938
:100B70000160BFF34F8F00BFFDE7C0460CED00E002
:100B80000400FA05F0B597B0012568070022C26796
:100B90002F06E9060C91E9070A9110900068034EB0
:100BA000034988420E97129204D029E11020024096
:100BB000CC5172C8109840680149884202D01FE1A8
:100BC000A07E019200201690159011901490064C72
:100BD0002046503814A9602200F0F0FF05200004E0
:100BE0007168002910DA01E0E075FF1F31680142E9
:100BF000FCD10721C943024A7250024A725003E0F5
:100C000023016745AB89EFCDFF218A022168890264
:100C1000139211400C9A1143024A914223462ED955
:100C200002E0C0460050000831680142FCD1316842
:100C3000024A1140002904D002E0C046FB830000B4
:100C4000316031680142FCD139465231716002494C
:100C50000831716002E0C0464A000101316801427A
:100C6000FCD131683946503171603168024A114017
:100C7000002904D002E0C046FB83000031601C461E
:100C800019688902139A11400C9A1143024A1032D2
:100C900091426BD902E0C0460050000815990F91AF
:100CA000149A33680342FCD1336802490B40002B8D
:100CB00003D001E0FB8300003360119933680342E5
:100CC000FCD17B1C7360024B1A600F9F5F6001E0D8
:100CD0000050000833680342FCD1376801231F42EB
:100CE0000F460CD0FD4F3F6897420F4607D1FB4996
:100CF0004A680F99511A0022571A4F4111993360CF
:100D000071603168F64A1140002900D03160002F2F
:100D10000E9F2BD017990F91169937680742FCD177
:100D20003768EF4A1740002F00D037603768074216
:100D3000FCD10E9F7F1C7760E84A91600F9FD760BF
:100D400032680242FCD132681A4205D0E34A926806
:100D50008A4201D1E149C96833600021716031687C
:100D6000DF4A114000290E9F00D0316031680142F6
:100D7000FCD171680A9A114371607168002908DA20
:100D800031680142FCD10721C943D64A7250D64A84
:100D9000725021688902139A11400C9A1143D34A68
:100DA00091421DD331680142FCD13168CC4A1140D7
:100DB000002900D0316031680142FCD139464A3106
:100DC0007160CB49716031680142FCD131683946AC
:100DD000483171603168C24A1140002900D0316049
:100DE00031680142FCD170680A990843706010991B
:100DF0001198086048600120C867FFF7B2FA129A9C
:100E0000BC480260781EBC490490486008682843CA
:100E10000860BA4B186C284318642907D86B0D91E9
:100E20000843D8630F20C0433158B54C0C40B54936
:100E30000A460C433450290418681391084318607B
:100E4000680419680142FCD01968B9431960690641
:100E50001C680C42FCD1AC4CDC60129C9C601C6891
:100E60003C431C60DC680D9E3443DC601C680C4213
:100E7000FCD0996807240594A14302240F942143D0
:100E80009960996838240C40102CFAD1596B2F24A2
:100E9000214359630321119149029C4E31609F6B9C
:100EA0002F439F635F6B27435F633160996B2943D7
:100EB0009963D96B102409942143D963D96A2143DA
:100EC000D962D96AA143D962FC49042308930B6013
:100ED000CD603F238B624D611346E533CB620B68D7
:100EE0002B430B60FB4CE368FB4E3340119FBE036A
:100EF0001E43E660F024F54B029418514B692B43D6
:100F00004B61F649F64B0B60129B4B60F54B8B60C7
:100F100005210A071168F44B1940AC0507942143D9
:100F20001160D1681940EB050B43D3600C999161B6
:100F3000FC430B94ED490B6823402B430B60CB68BB
:100F400023400F9C2343CB60139B8B61C021C9437B
:100F5000E74E33680B4040241C433460F3680B4079
:100F6000802101910B43F360E904B1613168E14BE9
:100F700019402C020C9421433160F4681C40690232
:100F800006910C43F460294615460B05B36134689D
:100F9000D94F3C40CE4AFE3222433260F4683C4096
:100FA000CA022243F2604A05B2612A68D34C224049
:100FB000139F3A4337462A60EA6822400243EA60B8
:100FC0000E9AAA612A68CB4C22400C9E32432A60BA
:100FD000EA682240069C2243EA600693AB610E4613
:100FE0000C21C9433A680A40089B1A433A60FB68DF
:100FF0000B4008221343FB60B8613968C04B1940AD
:10100000300301433960F9681940730308931943A9
:10101000F9600799B96139680B9B19403143396010
:10102000F96819400F9B1943F9601399B961302190
:10103000C9432B680B40099C23432B60EB680B4092
:1010400020211943E960B1040791A9612968AD4CD9
:101050002140631C099319432960E96821400A9BD8
:101060001943E960AB61119909062B688B430E990E
:101070000B432B60A861A4480670A44CA4492046E9
:10108000FFF78DFA002809D0A248A34921606060CB
:10109000A2480E210160A248632101609B4CA14936
:1010A00008222046FFF77BFA002808D09E480F99B7
:1010B0002160606099480660994863210160286852
:1010C0009049084028601098129AC260F10328697C
:1010D00008421DD01146059A39E0C046005000086C
:1010E000FB83000023016745AB89EFCD0148000871
:1010F0004A0001011C01002010E000E00010024045
:10110000F8F4FEFF02030000031004400000014059
:101110006D4C20682B69854A0B4203D008E02B698F
:101120000B4205D123681B1A541CA342664CF6D30C
:101130002168091A91423146059A08D82168081A8F
:101140006428129903D301201099C86000211291DC
:10115000774C784878492160784BE0602361D04330
:10116000774A105857498842039637D10B98105840
:101170005349884232D11168724881422ED81846AC
:1011800000F0DEFC0F906E4800686C49425C6B49D1
:1011900043185978090211439A7812040A43D978FE
:1011A00009061143664A0F9B8B4217D1634B129974
:1011B000002969D00121A17591886060A182106821
:1011C000C15CC018427812020A43817809041143B5
:1011D000C07800060843A060079A02E00020A075CE
:1011E000079A0024109804604460119EB004296896
:1011F0008143114329603968574801403960B1067D
:101200003A688A433A605549CA6E334B1A400C9B80
:101210001A43CA66019FCA59089B1A43CA510A68F1
:101220001A430A604A689A434A60FF221204CB6E4E
:101230009343139A1343CB66CA59039B9B031A43E8
:10124000CA510A689A430A604A681A434A602149A7
:101250000B461968049A1140099A114319601B49F9
:10126000029A8F503E490A6802400D9802430A6074
:101270003005296881430698014329602C4800F015
:101280005FFA204617B0F0BD109909682E4A9142C6
:1012900005D1109949682D4A9142294A8AD010985F
:1012A0000849016006494160BFF34F8F284829492A
:1012B0000160BFF34F8F00BFFDE7C0460010004044
:1012C000A07E0192CC5172C81C01002010E000E009
:1012D0000203000004E400E0FF00FFFF00300040D4
:1012E00055550000C4090000FFFF3FFF000C0050EF
:1012F00000040050FFFCFFFFFFF3FFFFFFFFFCFFB8
:10130000FFCFFFFFFFFFFF3FF0000020F8000020AD
:10131000541D00080F006400AA0200000001002014
:10132000F40000204C1D0008020064000F2700009C
:1013300004010020005800080801010000600008B6
:10134000886F0008FB9F0100C911E81AAC94557F13
:101350000CED00E00400FA05FFFFFFCF001802408B
:1013600000080050B0B50320020626490B689343DD
:101370002548441C1C430C608B6813438B600F2270
:1013800012020B6A9343012214021C430C62FF23D6
:101390001B024C6A9C4305231B0223434B628B6850
:1013A0001A4C1C438C600B68194C1C40194B23438E
:1013B0000B609303184C25691D43256125681D4367
:1013C000256025689D432560C3239C00134B1C604A
:1013D000172424025C601C68402525431D6014030B
:1013E0008C610F4913240C600C330E4C23601225C2
:1013F0004D6063610C490B6803400B60D0020B49E0
:101400000860B0BD00040050FFFFFF003000F00096
:10141000CFFF0FFF2000A0002C100240003800403A
:10142000100802406000024008E400E000E100E033
:10143000F0B583B002912B4F0723DB43FB58012407
:10144000A5032B42F8D123073B60029900292CD039
:10145000002A43D0009003235D02DB020193224E59
:101460001146019B37681F409F4205D000980778BE
:101470003771491E401C009037682F4205D03779DC
:1014800002980770521E401C02900029EAD1002ADF
:10149000144F029922D030682842FCD0307908706D
:1014A000521E491C002AF6D118E00F49002A0BD021
:1014B0000323DB020D681D409D42FBD005780D71B2
:1014C000521E401C002AF5D1086880221042FBD130
:1014D00000E0087908682042FBD1086820033860E2
:1014E00003B0F0BD1804005008380040B0B51649EC
:1014F0000A680120024225D0C2430A6013490A68E3
:10150000521C0A601249097801291BD1114A11683D
:101510004B1C13601049CC88A34213D300231360E3
:101520008D880E4A1468641CAC4200D31C461460BB
:101530000246A2400B68010300071A4200D0014690
:1015400007480160B0BDC046101000401C010020DB
:10155000F0000020F4000020F8000020000100202E
:10156000180000507047C046C00204490A680B6862
:10157000D31A1B028342FAD37047C04618E000E03A
:1015800010B5BC4BDA78032A48D8411C7A4412794A
:101590005200974401253241C21D01240470D868CD
:1015A00003680B701C0ECC701C0C8C701B0A4B70EB
:1015B000837D002B33D0838A0B711B0A4B714168EA
:1015C00011700B0ED3700B0C9370090A5170806868
:1015D0001071010ED171010C9171000A507110BD92
:1015E000022202701A690A70140ECC70140C8C70EE
:1015F000120A4A701979417110BD032202701A69EA
:101600000A70140ECC70140C8C70120A4A7059793E
:10161000FF2910D0417110BD0521017010BD0020BF
:10162000D071907150711071D070907050701070B6
:101630004871087110BD1979002902D0FF2141714C
:1016400010BD0021417110BD70B504468A48006884
:10165000884DA860A878012804D0022804D0374813
:10166000FFF71AFA0220A870012068702178491E3D
:10167000042919D87944097949008F4402051615BF
:101680002C000020E87070BDE978012926D161782E
:10169000A27812025118E27823791B029A181204D8
:1016A00051182A698A4223D170BDE978022923D1D1
:1016B0006178A27812025118E27823791B029A18F5
:1016C000120451182A698A4220D16E7961798840C2
:1016D0003042E9D123E00320E87070BD6178A27840
:1016E00012025118E27823791B029A181204511839
:1016F000A871E870296170BD6178A2781202511852
:10170000E27823791B029A181204511829610221E8
:10171000E97000266E71617988403042C4D1C0B250
:1017200006436E71480129490818A11D2022FEF7C1
:1017300063FFFF2EB8D10220A87170BDF801000828
:101740004C4EF060FFF70EFE00F09CF81E48FFF7CD
:10175000BDF84A48FFF7A0F90027B7717771B77055
:10176000012460023080642005E03771B470B771E5
:10177000022070702046FFF74DF9B0790028FCD0A8
:10178000FFF782F9F0683169E20791420ED1C5682E
:10179000B07901280FD0B0790228E6D1FFF740F8E0
:1017A000220228460949FEF7DDFF09E000694518D5
:1017B000B0790128EFD1FFF733F82846FEF77CFF18
:1017C0003071FEF7BFFFD1E7D117000844010020B8
:1017D000B0B5284C2078012803D100F05BF900282F
:1017E0001ED000252570607800281AD001280CD062
:1017F000022815D165702248FFF7A2F80120207059
:10180000A07802281CD0E9431CE0022060704B2025
:1018100080001230FFF794F80120207000F008F9E2
:10182000B0BDA06814490968081A0721C9016731C9
:10183000884211D9E078032810D1FFF795F9B0BD9F
:101840000721C9016161801E411E88412076143440
:10185000204600F089F8B0BD012004E0A5700748DB
:10186000FFF71AF9022060704B208000FFF768F83C
:10187000B0BDC046280100201C0100205C1D0008EE
:101880003102000070B5AA4E00203070FFF760F9F9
:101890007D20C5002846FFF767FE01242046FFF79C
:1018A00057F92846FFF760FEFFF74AF90028FBD1F9
:1018B0002C4D681C00210222FFF7BAFDFFF740F90A
:1018C0000028FBD1281D00210222FFF7B1FDFFF700
:1018D00037F90028FBD1E81D00210322FFF7A8FDFE
:1018E000FFF72EF90028FBD128460B3000210922F2
:1018F000FFF79EFDFFF724F90028FBD1284615309D
:1019000000210222FFF794FDFFF71AF90028FBD10E
:101910002846183000210422FFF78AFDFFF710F94E
:101920000028FBD128461D3000210422FFF780FD4E
:10193000FFF706F90028FBD12235002103222846B3
:10194000FFF776FDFFF7FCF80028FBD100252846BD
:10195000C046C0462846FFF7D1F82846C046C046D4
:10196000747070BD761D0008B0B5714948600325DC
:101970000D700B48002408222146FFF759FD42480C
:1019800021462A46FFF754FD404821462A46FFF7E4
:101990004FFD3F4801222146FFF74AFDB0BDC0463A
:1019A0009C1D000870B58CB000242046FFF7A6F8F7
:1019B0005F4E307804281ED1FFF722F81B4801AD96
:1019C00004222946FFF734FDE87840061AD419208E
:1019D0000001FEF7E5FF347001AC802060701B2031
:1019E0002070292220462146FFF722FDE01CFFF748
:1019F0002BFE0CB070BD514800210222FFF718FDEC
:101A00000CB070BD706800790028F2D01F48002427
:101A100003222146FFF70CFD0220FFF76FF845482F
:101A200004222146FFF704FD0CB070BD671D0008BD
:101A3000F0B585B03E480124047012480025082204
:101A40002946FFF7F5FC6E4675701A203070B01C01
:101A5000FFF796FD0C48032729463A46FFF7E8FCB6
:101A6000112230462946FFF7E3FC084829463A464A
:101A7000FFF7DEFC064829462246FFF7D9FC05B0F1
:101A8000F0BDC046A41D00086B1D0008641D0008C1
:101A90000602000870B5264E7078012401283ED158
:101AA0003078401E03283AD87844007940008744B3
:101AB00001121628022030706F208000FEF740FFD0
:101AC0000120FFF71BF81C48002404222146FFF7E1
:101AD000AFFC204670BD00203070204670BD04254C
:101AE0003570706800682230FEF72AFF0220FFF789
:101AF00005F81048002421462A46FFF799FC2046A5
:101B000070BD70680068401C0BD00C480025022294
:101B10002946FFF78DFC2846FEF7F0FF357020467A
:101B200070BD0120C003FEF70BFF002070BDC04652
:101B3000200100206E1D0008721D00080A02000826
:101B400070B5002936D00022D3431B4A04785C408C
:101B5000012365081C40644214406C40640826461A
:101B60001E40764216401D406D42154065406C088F
:101B7000664075082E461E40764216401C40644260
:101B800014406C406408664075082E461E4076423C
:101B900016401C40644214406C406408664075085E
:101BA0001C40634213406B40491E401C0029CDD1AC
:101BB000D84370BD002070BD2083B8EDF7B58CB060
:101BC00006460D9807900E98470942D000213468C8
:101BD000524A0B4620460191FEF7DFFA5049401861
:101BE00045076D0F00D102254E4A4F4B2046019903
:101BF000FEF7D3FA4D4B4E4AC0185141002D1DD06F
:101C0000EA0707D04B4A4C4BFEF7C7FA4B4B4C4AFE
:101C1000C01851416C0811D0464A474BFEF7BDFA37
:101C2000464B474AC0185141424A434BFEF7B5FA6A
:101C3000424B434AC0185141641EEDD12A46FEF77B
:101C40009BFA0799361D08600798001D07907F1EB4
:101C5000BCD10D980A9002680E9900200E090292DC
:101C60000390002E58D0C8080B90364A00230A9CD7
:101C700003990298FEF791FA334B0022C0185141A4
:101C80000B9A0025039102902B46921EFEF706FC4C
:101C900017197878397800020843294604461F4A04
:101CA00000230195FEF779FA1D49401845076D0F8D
:101CB00000D102251B4A1C4B20460199FEF76DFA04
:101CC0001A4B1B4AC0185141002D1DD0EA0707D0FE
:101CD000184A194BFEF761FA184B194AC0185141BE
:101CE0006C0811D0134A144BFEF757FA134B144AE1
:101CF000C01851410F4A104BFEF74FFA0F4B104AD4
:101D0000C0185141641EEDD12A46FEF735FA3870ED
:101D1000000A7870761EA8D10FB0F0BDE72B2D8B8E
:101D2000531E7223276C9DF3085D6720A37A2F98BA
:101D3000DE2F780E5B4D51C266F3714A63971A63CA
:101D40007B212667FF74EA0D539A9A0B020000006C
:101D500002006400AA0200000F0064002A000000D4
:101D60000A00C800970043150000008F0080820021
:101D7000000083000000028001029601038F0080B2
:101D8000098D0043004300000000028A030486BE60
:101D9000D89D048B450000038E0080008C700410D9
:101DA000002620088C700410000F2008BC1D0008BD
:0C1DB00080000020C8050000FC000008B6
:020000040800F2
:04480000C1E2465873
:04000005080000B936
:00000001FF
