:020000040800F2
:10600000301D002061700008697000086B70000886
:106010000000000000000000000000000000000080
:106020000000000000000000000000006D7000088B
:1060300000000000000000006F7000087170000890
:1060400075BC0008000000008DBC000873700008DB
:106050007370000873700008737000084D790008B1
:10606000000000007370000873700008ED730008F2
:106070007370000873700008759A00080000000033
:10608000419E000859BB0008737000087370000837
:10609000F99F0008E5A10008F57600087370000874
:1060A00073700008737000087370000859BD000811
:1060B000C5BD000831BE000800F002F800F0A4FFE2
:1060C0000CA030C8083824182D18671EA246AB460D
:1060D00054465D46AC4201D100F096FF7E460F3E2D
:1060E000B6460FCC0126334200D0FB1A3343A246FA
:1060F000AB461847240000004400000000230024A1
:1061000000250026103A01D378C1FBD8520700D3EE
:1061100030C100D50B607047386100088000002056
:10612000A8010000B8C50008186200082802002075
:10613000081B0000FC60000813200582201A280CB0
:1061400032403248721613D8021420D40314209D12
:10615000041B201C041AC90C1AFE081ABE041AC813
:106160000C1A9C081A80081ACA041BE406041A07B1
:1061700050320119041A7C14116206A9446D3B5A6D
:10618000010844412944011839443113358B14085E
:10619000418D1B0861041385961B0889041B2197F8
:1061A00010190429A41A74BC1A5C486958135C01BC
:1061B0002B2094DC298C3123E80313699A9208126E
:1061C0004C134044071002401D0339383933124440
:1061D0001B401C2005151C01353412482B40304053
:1061E0000C13023736401D3801400820121B0314DF
:1061F0003332128E1280180EC94E01082552010842
:106200009D4D0108E50441100A15CD5B07E9090120
:0862100008811C01085D0881F2
:020000040800F2
:046F8000CC5172C8B6
:020000040800F2
:046F8400A07E019258
:020000040800F2
:046F880078563412F1
:020000040800F2
:046F8C0015010000EB
:020000040800F2
:106F900000000000000000000000000000000000F1
:106FA00000000000000000000000000000000000E1
:106FB00000000000000000000000000000000000D1
:106FC00000000000000000000000000000000000C1
:106FD00000000000000000000000000000000000B1
:106FE00000000000000000000000000000000000A1
:106FF0000000000000000000000000000000000091
:020000040800F2
:107000001FB51FBD10B510BD00F07FF91146FFF789
:10701000F7FF00F059FE00F097F903B4FFF7F2FF15
:1070200003BC00F09DF9000070B505460C461646FD
:1070300002E00FCC0FC5103E102EFAD2082E02D35C
:1070400003CC03C5083E042E07D301CC01C5361F6F
:1070500003E021782970641C6D1C761EF9D270BD86
:107060000748804707480047FEE7FEE7FEE7FEE7E0
:10707000FEE7FEE704480549034A054B7047000058
:1070800095BC0008B960000830190020301D0020B0
:107090003019002010B5202A04DB0846203AD040E1
:1070A000002110BD0B462024D340D040A21A9140AD
:1070B0000843194610BD4343514330B55C18010CD9
:1070C000130C0D4692B25D4380B251432C19054614
:1070D00055430A0C09044D1962415843010C000440
:1070E0004019514130BDFEB5054610460C461843C7
:1070F00073D0AE468C460020AD1A01469C4167D342
:107100006646002701243D46B61A9D4102D3134628
:107110003A462124654676462F04360C3E432D0C14
:10712000B61A9D4104D3150C1B042B4312041034D2
:10713000654676462F06360A3E432D0AB61A9D410D
:1071400004D3150E1B022B43120208346546764603
:107150002F0736093E432D09B61A9D4104D3150F5A
:107160001B012B431201241D65467646AF07B60866
:107170003E43AD08B61A9D4104D3950F9B002B43A7
:107180009200A41C65467646EF0776083E436D08DC
:10719000B61A9D411AD392185B41641C16E0001880
:1071A000764665464941B71A9D410191009009D341
:1071B0006046B11A98418E46844600980199002590
:1071C000401C6941DD0752082A435B08641EE6D56E
:1071D0007246634603B0F0BDFFE700200146C0469B
:1071E000C0462A462346F5E7034610B50B439B07E6
:1071F0000FD1042A0DD308C810C9121FA342F8D01A
:1072000018BA21BA884201D9012010BD0020C0431C
:1072100010BD002A03D0D30703D0521C07E0002082
:1072200010BD03780C78401C491C1B1B07D1037848
:107230000C78401C491C1B1B01D1921EF1D1184631
:1072400010BDF8B5042A2CD3830712D00B78491C43
:107250000370401C521E83070BD00B78491C03702F
:10726000401C521E830704D00B78491C0370401C3D
:10727000521E8B079B0F05D0C91ADF002023DE1B8F
:1072800008C90AE0FFF7D0FEF8BD1D4608C9FD4059
:107290001C46B4402C4310C0121F042AF5D2F30838
:1072A000C91A521EF0D40B78491C0370401C521EA0
:1072B000EAD40B78491C0370401C012AE4D40978F5
:1072C0000170F8BD01E004C0091F0429FBD28B073F
:1072D00001D50280801CC90700D0027070470029C8
:1072E0000BD0C30702D00270401C491E022904D3F0
:1072F000830702D50280801C891EE3E70022EEE7A7
:107300000022DFE7704770477047754600F024F8A9
:10731000AE46050069465346C008C000854618B011
:1073200020B5FFF7A7FE60BCB64600260027C0C503
:10733000C0C5C0C5C0C5C0C5C0C5C0C5C0C5403D2D
:10734000490849008D46704710B50446C046C046FE
:107350002046FFF762FE10BD00487047280200205B
:1073600001491820ABBEFEE726000200704700006E
:107370000B48C1884800002901D10848808880B2A4
:1073800008490968084A4A430121CB03D218120C64
:10739000424388031018C00B7047C04620050020E8
:1073A000CC02002094020020CDD504000B48406898
:1073B000122141430A4A42430120C303D218120C4E
:1073C0005118094A13895A00002B01D1054AD28865
:1073D00092B24A4380031018C00B704794020020F9
:1073E0005F84000020050020CC02002010B557204B
:1073F000C0431F490A58012043041A421DD053229A
:10740000D2438B501B4A1278002A30D11A4A136893
:1074100080242342FBD10303184C236000230B601C
:107420000B600321C94317231B02535000E011795D
:1074300011680142FBD1106810BD4305920216D5B8
:107440005322D2438B500C4A136880242342FBD131
:1074500000030A4B1860BFF34F8F002008600860DC
:10746000486148610320C04317210902115010BD33
:10747000580002409C0200200838004018040050C8
:10748000F0B581B00093BFF34F8F174C00232360FA
:107490000124A503154E37682F42FCD12707B7609A
:1074A000134EF0607260134800290DD0124B1C700F
:1074B00090233360912333603162B2618221716124
:1074C00083217161401C05E00B490B7092213160F2
:1074D0009321316009490D600099034A1160084900
:1074E000086001B0F0BDC046A002002010040050AA
:1074F00058000240021700009C02002010180240B1
:1075000004380040F0B583B002912D4B00241C607C
:107510002C4F0723DB43FB580124A5032B42F8D152
:1075200023073B60029900292CD0002A43D0009009
:1075300003235D02DB020193234E1146019B376852
:107540001F409F4205D0009807783771491E401CA4
:10755000009037682F4205D0377902980770521E85
:10756000401C02900029EAD1002A164F029922D02D
:1075700030682842FCD030790870521E491C002A1D
:10758000F6D118E01049002A0BD00323DB020D6866
:107590001D409D42FBD005780D71521E401C002AF3
:1075A000F5D1086880221042FBD100E00879086814
:1075B0002042FBD108682003386003B0F0BDC0460C
:1075C000A00200201804005008380040F0B587B031
:1075D000069304920125AC0200230390002800D1F9
:1075E0002346480018436B060C99002900D10B462E
:1075F00000913F4C069A02900193FF21FF2A164604
:1076000000D30E46921B01210F060592002A1A464E
:1076100000D03A46069F3F0A1F4600D01746330463
:1076200003433B43E8070AD00120400303431327E9
:10763000FF43E351059AE3590342FCD103E01320D1
:10764000C0432350059A23681020034245D1002EE1
:1076500020D0039B002B0ED02368034230D1C227D9
:107660003B42F9D0049D2B782361761E6D1C049556
:10767000002EF1D10EE02368034221D123680427B4
:107680003B42F8D0E368049D2B70761E6D1C049578
:10769000002EF0D12068E0231842FBD00025002AFC
:1076A0000298019BA9D10098002813D020682022BD
:1076B0001042FBD02020606022680242FCD109E029
:1076C000216820200142FBD0302161602268002126
:1076D0000242FBD1084607B0F0BD216820200142DC
:1076E000FBD030216160226800210242FBD1F1E72A
:1076F00018540040F0B581B01848026802210A42CF
:107700002AD0C9430160164A1368002B0AD0154DD0
:10771000AC1CA3420DD2154E3468E4182C403460E2
:10772000002316E012480068002815D0804701B0F9
:10773000F0BD01246404A34207D85E080B4F3C68E7
:10774000A4192C403C609B1B03E0074C1B19074C01
:10775000246813604462016001B0F0BD104801402C
:10776000A4020020FFFF00000000FFFFAC02002089
:10777000A80200200148006880B2704724480140F8
:1077800010B5154A00211160144A106014480160B8
:1077900001208204134B1C6914431C611C681443B0
:1077A0001C601C6894431C600B22D2430E4B995002
:1077B0005961D9603F21D9610C49196298601968F3
:1077C00002220A431A60FF210904094A13688B4305
:1077D00080051843106010BDAC020020A8020020F4
:1077E000A4020020301002400C480140FFFF0000BE
:1077F00014E400E0B0B512490860124B9A1C9042A4
:1078000006D2124C226812181A40226000200FE0A3
:1078100001225204904207D844080C4D2A681219DC
:107820001A402A60001B03E0074A8018074A1268C2
:107830000860074842620221C9430160B0BDC046EA
:10784000A4020020FFFF00000000FFFFAC020020A8
:1078500010480140B0B511490860114A1268114B37
:107860001A60114CA51CA84204D2121822401A60BA
:1078700000200BE001256D04A84205D845085219E7
:1078800022401A60401B01E0084BC01808600848FD
:1078900042620221C9430160B0BDC046A40200207B
:1078A000B0020020AC020020FFFF00000000FFFF3C
:1078B0001048014002480068024908607047C0460D
:1078C00024480140B0020020F0B516490B6801229F
:1078D00093430B600223DB430B614A61124C20602F
:1078E000124D00262E60124EB71CB84203D2304013
:1078F000286000250BE05704B84205D847083E40F1
:107900002E60C51B304602E00A4D45190020256057
:1079100048630B619005084B1860086810430860C5
:10792000F0BDC04600480140A4020020AC02002087
:10793000FFFF00000000FFFF00E100E002480168D7
:1079400001229143016070470048014080B5012148
:107950008A030A484368134208D04260084908680D
:1079600000280AD000220A60804780BD49030268CF
:107970000A4202D001600AF075FE80BD0C18024078
:10798000A0020020B0B582B014466D466970287020
:10799000080AA870032028431946FFF752FCE21C8E
:1079A000024829460CF082FE02B0B0BD22F0000071
:1079B00080B582B001AB59701870080A98700348FE
:1079C000032219460CF072FE02B080BD21F00000C7
:1079D00080B582B001AB597018709A7003480322C9
:1079E00019460CF063FE02B080BDC04619F00000DD
:1079F00080B50346CA1C024819460CF057FE80BDEC
:107A000026F0000080B50146024804220CF04EFE2C
:107A100080BDC04625F0000070B584B0044601A8C2
:107A200008F0D2FDA17880390020052900D982E034
:107A30007944097949008F4402353C43294B414838
:107A40004149CB885A00002B00D1828893B23B4A2F
:107A500012683F4D55430126F203AA18120C5343F6
:107A6000B5035B19DE0B394B5E43F60CE670CE882E
:107A70007100002E00D1818888B250434019C00B9C
:107A80004343D80E20710221002051E0FF208200E4
:107A90000399FC20914202D0029B934242D1E070B4
:107AA000032142E00198E0700320C043801C0121C3
:107AB0003EE00298E070000A20710221FC2037E0CD
:107AC0000398E070000A20710320C043401E2EE09E
:107AD0001A48406812214143194A42430123D803FE
:107AE0001018000C40181749174A16897500002E07
:107AF00000D1CD88AEB246439D037319DE0B134B04
:107B00005E43F60CE67016897200002E00D1CA881A
:107B100091B241434819C00B4343D80E2071022152
:107B2000032005E0C91AE170090A2171801E0221B3
:107B300021706070012004B070BDC0469402002026
:107B40005F84000020050020CC020020CDCC000086
:107B5000CDD5040001214B07CA07002800D01346E9
:107B6000044A1360CB034903002800D00B4613607E
:107B70007047C046180800507047C04602280BD016
:107B8000012811D000280ED1012081070A4A116076
:107B900080060A490860704701208107064A116083
:107BA000800206490860704701208106034A11607F
:107BB0008003014908607047180800501800005001
:107BC00002480068810B01200840704710040050F3
:107BD000012251065202002800D0114601480160DE
:107BE0007047C04618000050F0B58BB048203449AB
:107BF0000591085C411E02290CD2314C21464931C5
:107C0000304D002228460CF0AFFA5D3401222846A0
:107C100021460EE000280ED1294805462946D431D8
:107C2000284C002220460CF09FFA2946E831012218
:107C300020460CF099FA2120C000214D28800D30FB
:107C4000688041208400284621460CF017FF285107
:107C500006A8401C0290261D002506A80490057069
:107C60000F2028401021081AB042344600D804469C
:107C7000029805992246FFF7E4FA01276846076053
:107C80000394631C280A5030C4B238462146049A33
:107C9000FFF79CFC002811D068460760002006AA68
:107CA00021463B46FFF792FC0028F5D00399761A4F
:107CB0000598401805904D19002ECED10BB0F0BD9F
:107CC000CC020020D4030020F0B5A5B0A8480021C4
:107CD0000170A8480160EB20C043A74BA74A1A5087
:107CE000EF20C0431A58012422431A50A44F786948
:107CF0002043786125073869284338610F201C909C
:107D0000C043A04E3258A04B1340A04AE53A1A4354
:107D1000129032502B22D643BA59200416900243B7
:107D2000BA511B946004BA590242FCD01590BA595A
:107D30001B9C23069A43BA516206BB591342FCD1DD
:107D40001F23DB43924CFC502324E0433950B959A4
:107D50008A4C641C1A942143B951F9582943F950AB
:107D6000B9591142FCD01895395807221092914305
:107D70000222149211433950395838220A40102AED
:107D8000FAD10E90B9682F200143B960032569022A
:107D9000804A1160FB681B9C2343FB60BB680D900D
:107DA0000343BB601160F9682143F960396910220F
:107DB0001143396139681143396039681E92914322
:107DC0003960754904201D900860CC603F228A62AA
:107DD0004C616E4ACA620A6822430A60E8436F4AED
:107DE00012586F4B1A401795AB03134311906B4A0F
:107DF0001350614D159A2A604A6922434A61694AC3
:107E000069491160002050606849916068490870B4
:107E100013210F91C943614D6A58FF2313939A436D
:107E2000C02313436B50544A14606A58614B1A4084
:107E3000E3050C931A436A501D994F4A1160514C47
:107E40002169C9B2AA291F9000D083E01698216841
:107E50000142FCD1616800291B991E9D06DA109928
:107E6000C943554A6250554A62501B998907626856
:107E70000A4205D0179AD243514BA350514BA350FD
:107E8000226802421AD0504A3E4B1C680123044229
:107E900009D13C4C23682B421CD12368DB09012407
:107EA0001C401D9B1B1B541E002A02D0012B224686
:107EB000EAD0621C334C002A0FD13EE022682A42ED
:107EC0003BD12268D209012313401D9AD31A012BFA
:107ED000D9D002E0149B002A2FD0042B2DD1226987
:107EE000BB231343236162681598024316986260AE
:107EF0002268024216D0354A224C236803421B9B5B
:107F000009D123682B4212D11E4B1B68DB090124C7
:107F10001C401D9B1B1B541C002A08D0012B224611
:107F2000EAD004E022682A4201D116480268012200
:107F30005204144C6368934363600122D3062046C5
:107F400044681C43446043680B434360D107426864
:107F50000A4342601E4820AC602221460DF066FCB8
:107F60001C490C222046FFF73FF9002834D0FEE7D9
:107F7000D9090020D409002000E100E0FFFFFF0044
:107F80002C10024010200240F8F4FEFFE70300002E
:107F900003100440000001400010004014E400E021
:107FA000FF00FFFF0030004055550000C4090000ED
:107FB000D8090020FFFF00FF23016745AB89EFCD03
:107FC0003B2A19087F6E5D4CFFFF0A000100F5FF98
:107FD0009075FF1F005000081798800405210B9131
:107FE0000A071992116881431B9CA0040843106082
:107FF00037480168374A11400160026836490A4033
:108000000260364AD36E364803402002099003438B
:10801000D3668025535960030343535113680343C8
:108020001360536883435360D06E2E4B1840169BE9
:108030001843D0665059A3031843505110682A4979
:108040000840106050680A93184350602748024661
:10805000129BD058264908401B998C072043D050CA
:10806000059524480560601E19990A6802400A6057
:10807000214A136818490B401B9DA906194311603A
:1080800011680140079421431160106811490840AC
:1080900018990843106017980005199A11688143D0
:1080A0002B461805089001431160106813490840D9
:1080B0001A99084310601D03956111480370114C13
:1080C000114908222046FFF78FF8002832D01DE022
:1080D00000040050FFFFFFCFFFFFFFF30018024036
:1080E000FF00FFFFFFFF00FFFFBFFFFF14E400E002
:1080F000FFFFFF0000E100E000080050FFFFFFFC71
:10810000B4020020C0020020EC59010805480649CD
:108110002160606005480E2101600548632101600F
:1081200008E0C0460F006400AA020000C802002058
:10813000B80200204C4C20684C4908401A9908436A
:10814000206017980006A1680143A1601C980002F6
:10815000216A8143099801432162606A44490840C9
:108160000B99090201436162A06842490143A16081
:1081700020684149014041480843206038690A9914
:108180000843386138680843386038683C4908401B
:1081900038603C49DB393C480160172103910902F2
:1081A000416001684022069211430160A561374990
:1081B0000F9A0A600C30364A106012234B605061EF
:1081C0000B201A90C34333480146C858324A104026
:1081D0000293C8501B9AD002304D2B460190186074
:1081E0002F481F990160606A1399884366210143F3
:1081F00061621C980004216881430B9D6804084358
:108200002060510538690843386138680843386090
:1082100038680491884338602248016891430160BE
:10822000A9020160204901610168114301601F48F2
:108230001F9901701E4801701C980003199C216849
:108240000143216078690899084378617868084398
:108250007860786888437860164C206810421E99D0
:10826000109D3BD028E0C04600040050FFFFFFFCFB
:10827000FF00FFFF3000F000CFFF0FFF2000A00045
:10828000FFBFFFFFE7030000003800401008024076
:108290006000024014E400E0FFFFFF0000E100E0A6
:1082A000A0020020005400406638C7008902002068
:1082B0008A0200200824014020681D9B184205D036
:1082C00020680843206020680842FCD12068149987
:1082D00008432060CE4B20681042FCD120681899DA
:1082E00008432060E720C04319581A588A1A12021E
:1082F000920B7D2AF9D31B9AD00721680143216094
:1083000020680028FCDB20681043206020681043B0
:108310002060E84321581142FBD007998D31A160BC
:10832000069921621799E1601F9D6560B9490A703D
:10833000D1031891B8490978002900D0C4E07969BF
:10834000019A1143796179681143796079689143A1
:108350007960B24AB2490E9C11510299555015509C
:10836000119955501B21CC4310941C9911519551D2
:108370002721C9430B9155500399CC431D9416995D
:10838000491E079111511C46136818990B4313603D
:10839000A4490A461358A4490B400C990B431350A7
:1083A0000A9921603B6914990B433B613B680B437D
:1083B0003B603B688B433B600999491C9B4A0E9B81
:1083C000D1501299555015501068189908431060F3
:1083D0001C9B1098135095510B981550079C1D9895
:1083E00014501068084310608E4A119E90591399DA
:1083F000C943129108400599084390518448169A40
:108400000260786910437861786810437860786812
:1084100090437860864811228260C56105620361DD
:10842000056026464661C26A189B1A43C2627D48AF
:108430000268129C22400A4302600899744C20464C
:1084400001607969159A11437961796811437960FE
:108450007968914379602A46764D1B9C2C626A6349
:108460001C98A862AA61EE62696C19431846696497
:108470006C4B1968704F3940014319600499644886
:1084800001602C606D490A606D4E3178002903D17E
:10849000EFF3108172B631780D9AD2435F4FBC5022
:1084A000624B9C50119A624884506C614322D243C3
:1084B000BC509C501D9A84502C603170002900D112
:1084C00062B6554804701F9D5E4805705E4F0126D8
:1084D0003E705E4805605E4805705E4805605E4817
:1084E00005705E4805705E4805605E4805705E4830
:1084F00040242146FEF704FF5C481C942146FEF709
:10850000FFFE5B485B4908605B4CF0201D902070CB
:10851000684605605121304622463346FFF756F83B
:10852000002815D0684606600020512110232246FD
:10853000FFF74CF800280BD02068102808D14E48CF
:10854000C4680C214C480CF099FA84424A4C03D080
:1085500000204A496160A06000F084FA4848016840
:10856000484A5160808810816720C043FC4C2058E5
:10857000002800D142E1256065602C464825F94875
:108580004455F6480BF084FCF74804703846012740
:108590000770F6480770FB4CF54908222046FEF7A5
:1085A00023FE002808D0F348149921606060F74842
:1085B0000760F74863210160EF480BF025FC224972
:1085C00008780028F74CED4A03D02260087800288C
:1085D000FBD124480078002800D0BDE1E14A505D7D
:1085E000411E022905D2E64809F0ACFB1F9DE34F6E
:1085F0000AE000281F9DFB4F06D14620115CE2488F
:108600001C9A815409F09EFB20A8401C1C903CE061
:1086100000E100E088020020BC090020442C014059
:108620001011000014E400E0FFFF00FF44040040CC
:108630001840014000440140FF00FFFF50090020A6
:10864000D909002031050020300500203405002024
:10865000380500203C0500201804002040050020BB
:1086600044050020480500201C0400205C04002074
:10867000CCCC0000003000402005002000800080AD
:1086800000580008800000202760EB480078002890
:1086900011D0EA48007800280DD1E9480068B021DF
:1086A000D54A50501B98C9490870D54809F04AFB73
:1086B0000020E1490870C5480078012803D1C3486B
:1086C0000570FFF791FAC2480078012829D12846A1
:1086D0001E9DC14F3D60BE4908700C2138460CF00C
:1086E000CDF9F86020AC1D9820701C9839462A46B8
:1086F000FEF7A7FD68460660512111233046224649
:10870000FEF764FF002809D068460660002051216A
:1087100020AA3346FEF75AFF0028F5D0A14C1F9D32
:10872000B04FA948006800281BD00BF0B9FB002807
:1087300017D0A548056008229B4F3846C149FEF76F
:1087400053FD002809D0AA203860BF4878601A98E5
:1087500096490860632096490860BC480CF0BCF854
:10876000A04F98480078012804D10BF099FB00280D
:1087700000D0EFE091480078002885D1904800783B
:10878000002881D1199800691899084203D0002067
:108790009049086078E7804800688E4A116800298F
:1087A00004D0401AAA49884203D26DE710602760BE
:1087B0006BE78B488D4901608B4941607A4CA54934
:1087C00008222046FEF710FD002809D0A24817997C
:1087D00021606060149875490860632074490860DE
:1087E0001999189A08691042FCD0BFF34F8F9B4823
:1087F0009B490160BFF34F8F00BFFDE720687B49B5
:10880000884204D160687849884200D1B3E600F01C
:1088100029F9002800D1AEE6754C26703D707548E8
:1088200005704820744D2F5C781E022801D27348D1
:1088300006E0002F08D14620295C71481C9A81541B
:1088400009F080FA48202F5C781E022847D2564D46
:108850006C4908222846FEF7C7FC002809D06A4860
:108860006A492960686051480F9901605048632146
:1088700001602670022F65D0012F4A4C1F9D594F71
:1088800000D0C1E664486549C1614B488178149ABB
:1088900011438170424801460868139A904308606A
:1088A0003C4F3878002803D1EFF3108072B6387847
:1088B00040490A685A4B1A400A9F3A430A600A68BC
:1088C0001A400A6033490870002800D162B60020BF
:1088D0005449012203F0AEFB04F004F987E6002FAF
:1088E0002FD1314C504908222046FEF77DFC00284C
:1088F0002A4F08D04D481499216060602B4801210F
:1089000001602B48076035480BF0C2FA48480BF06D
:108910009FFD0BF0A9FA50216B5C791C0A465A4363
:10892000002B00D011461422424310460CF086FE64
:10893000282128281B4C1F9D00D308463D4908606C
:1089400055E6FEE7324817990170324804F0BEFE42
:10895000144C4BE603F0DAF902F084FC80000020AE
:1089600074000020CC020020490500209C04002057
:10897000BC59010802006400045A0108AAAA0000B8
:10898000E4000020C0020020A0000020C802002057
:10899000B8020020D9090020D4090020E703000014
:1089A00014E400E000300040C0020020C8020020B3
:1089B000B802002018400140500900203105002075
:1089C00030050020380500203C0500201804002058
:1089D00040050020440500202005002080000020E4
:1089E00074000020AAAA0000490D2188FE78B4C1B5
:1089F0009C0400204A050020CC020020E400002056
:108A0000A0000020F45901081400640000FC0B00D1
:108A1000BD090020485A01087409002069AB00080C
:108A2000FF8FFFFEAF5A0108CC5901080200E8038E
:108A3000280100204C05002050050020A60B002036
:108A400054050020DC5901080C0064005805002082
:108A5000B80B0000C4590108030064000CED00E0ED
:108A60000400FA05F0B583B02F4C002020702F4988
:108A700008706946086050210125284622462B4689
:108A8000FEF7A4FD002835D0684605604127B800F0
:108A90000290031D0026502130462246FEF796FD27
:108AA0002121CA0011460D31002823D0208892B21E
:108AB00090421FD1608889B288421BD1B8002758E4
:108AC000204602990BF0DAFF874213D14820205C40
:108AD000411E022917D220464930154D0022294651
:108AE0000BF088FF5D3401262046294632460BF004
:108AF00081FF05E02120C1000B48FEF701FC0026A4
:108B0000304603B0F0BD0028FAD12046D430084EDC
:108B1000002231460BF06EFFE834204631462A46EB
:108B20000BF068FF2E46EBE7CC0200201804002073
:108B3000D4030020F0B583B00C46784909780029A9
:108B400001D003B0F0BD212806D17A48012101707F
:108B500009F0E8F803B0F0BD5021714D695C0029BF
:108B600007D0AD21AC22AA5C002AEAD0695C0029BA
:108B7000E7D03E283CD0322853D03028E1D12078AD
:108B8000617809020143A078E278120202431004DE
:108B90000843B0216958814213D0674E30780028CD
:108BA0000FD12078617809020143A078E27812029F
:108BB0000243100408436149086009F0E9FA012002
:108BC0003070FD202A5C217901268A4204D0295484
:108BD00009F0D2FA5748067060793040FC21695C90
:108BE0008142AED0FC2168545248067003B0F0BDFB
:108BF00020786178090201434A4808404A4D28809C
:108C0000A0780121A87000206960A86028460C3077
:108C1000E11C0522FEF715FB28460BF097FC03B07C
:108C2000F0BD2078029041004048425C43185978DA
:108C30000F0217433E49FF39A67832020A40617895
:108C400011430022B94204D01970090A5970A6785C
:108C500001229978DF783D020D43E77839023143EC
:108C60004908334E31409E1CA94204D03170090A94
:108C70007170E778012219795D792D020D4326790B
:108C80003102394389082A4F39401F1DA94204D0B7
:108C90003970090A7970267901229979DD792D02D6
:108CA0000D43617909023143C908214E31409B1DB2
:108CB000A94203D01970090A597001220192402378
:108CC000C15C4125455D0246280208434225515DAD
:108CD0004326975D3F020F433F0407433846029AFD
:108CE000D0400F210840A479A04203D10198002868
:108CF0000DD126E7944091408F4327430B48C7543A
:108D0000390E8155390C4155390A4122815409F0F7
:108D100033FA08480121017003B0F0BD300500208E
:108D2000CC020020FFBF000094060020D4030020E6
:108D3000FF01000018040020500500205405002009
:108D400080B5064A13780022002B01D0104680BD62
:108D500009F046FA0246104680BDC04630050020A4
:108D6000F0B587B00D4604461248204011381B2844
:108D70003FD8400078448088400087441D002A0086
:108D800035003A004B003A003A003A0059006D00B5
:108D90009B00C600D9003A00E7003A00F5001E012A
:108DA00039013A005A0169018401A101B201E301CC
:108DB00029025D02FF0F0000E0480078002801D082
:108DC00000F028FCDE480121017008F0ABFF07B07D
:108DD000F0BDDA480078002801D000F01BFCD8482C
:108DE0000121017007B0F0BDD5480121017007B025
:108DF000F0BDE00401D400F00DFC01A90C800720B7
:108E000000030440FA48401E204380B202220BF0C7
:108E10004DFCFFE3002A00D1B6E201A90C80F54821
:108E20000443F548204002220BF040FC07B0F0BD9F
:108E3000012A00D01AE2287804F09AFA002800D01B
:108E4000E8E301A90C80EB480443EB4820400222F0
:108E50000BF02CFC07B0F0BD012A00D011E22878FD
:108E6000E6490A78824200D1D4E30870DE4A1378DA
:108E7000002B00D13AE3002800D1CBE3E0480023E7
:108E80000370012515700D70DE4CDF490822204665
:108E9000FEF7AAF9002808D0DC48022121606060B2
:108EA000DB480560DB4863210160DB480AF0ACFF6A
:108EB00007B0F0BD202A00D0EEE1D84EB436202213
:108EC00030462946FEF790F900280BD02022304684
:108ED0002946FEF7B6F9C4480078002802D1C348F5
:108EE00001210170002120460A460BF0DFFBC44837
:108EF0000178BD4A1278002A00D18BE3042900D002
:108F000088E30521017007B0F0BD1C2A00D009E3F9
:108F1000C3481C222946FEF794F9002120460A4640
:108F20000BF0C4FBBF480068BF49086007B0F0BD44
:108F3000002A00D12FE201A90C80AE480443AE48BC
:108F4000204002220BF0B2FB07B0F0BD002A00D196
:108F50002BE201A90C80A7480443A7482040022225
:108F60000BF0A4FB07B0F0BD072A00D932E20120C4
:108F70009040B021084200D12CE2287801AE307038
:108F80006878A978FD327270090201437180301D42
:108F9000E91CD2B2FEF755F9304604F0BBF90028BF
:108FA00000D037E306A90C80924804439248204041
:108FB00002220BF07BFB07B0F0BD032A00D076E164
:108FC000297801A801706978AA7812020A434280C0
:108FD00003F066FF002800D01CE306A90C8085483A
:108FE00004438548204002220BF060FB07B0F0BD2F
:108FF000032A00D066E1894E3146FE31032228461D
:10900000FEF7F2F800280DD001273802A978315474
:109010006878FF2170542878FE21705409F0B4F864
:1090200072480770002120460A460BF03FFB07B04C
:10903000F0BD101F102800D24FE101A90C806D482F
:1090400004436D48204002220BF030FB07B0F0BD16
:10905000032A00D061E1297801A801706978AA7813
:1090600012020A43428004F0CFFE002800D0D1E271
:1090700006A90C805F4804435F48204002220BF0A1
:1090800015FB07B0F0BD042A00D051E15648007826
:10909000002800D1E4E12878697809020143A87822
:1090A000EA781202024310040843B0215B4A505090
:1090B00053480178032900D0F5E104210170F2E161
:1090C000152A03D12878022800D28EE101A90C804C
:1090D000484804434848204002220BF0E7FA07B012
:1090E000F0BD012A00D02EE1FD204C490B5C2D780B
:1090F00000221F2D00D82A463B4D2E78002E01D18C
:109100009A4208D00A542878002804D109F034F88B
:10911000364801210170002120460A460BF0C6FAAC
:10912000374801782A78002A00D173E2002900D05C
:1091300070E20121017007B0F0BDC046300500208B
:1091400018040020012A00D008E1FC20334E325CD4
:10915000254F3B782978002B01D1914206D031541C
:109160003878002802D121480121017000212046D1
:109170000A460BF09BFA224800783978002900D182
:1091800048E2052800D045E20125280227498A78CF
:1091900032544878FF22B0540878FE2170540026DB
:1091A0003E7016480670174C214908222046FEF7EB
:1091B0001BF8002807D01F4825606060144806602F
:1091C00014486321016009480121017007B0F0BD16
:1091D00005480078002802D104480121017008F0F8
:1091E000A1FD07B0F0BDC0463005002018040020E6
:1091F0000280FFFF0280000002F000009C040020BB
:1092000049050020C0020020BC590108020064008A
:10921000C8020020B8020020045A0108CC02002035
:1092200058050020D40900203C050020385A0108C8
:10923000D459010801006400082A00D099E0287878
:10924000697809020143A878EA78120202431004FF
:109250000843411C00D12DE1002800D033E1F04843
:109260000021C180F048808840086EE101A90C808F
:10927000E9480443E948204002220BF017FA07B0FE
:10928000F0BD01A90C80E4480443E44820400222D8
:109290000BF00CFA07B0F0BD01A90C80DE480443C6
:1092A000DE48204002220BF001FA07B0F0BD01A910
:1092B0000C80D9480443D948204002220BF0F6F92B
:1092C00007B0F0BD01A90C80D3480443D348204027
:1092D00002220BF0EBF907B0F0BD287801AE307038
:1092E0006878A978FD327270090201437180301DDF
:1092F000E91CD2B2FDF7A5FF304605F079FE002843
:1093000000D087E106A90C80C3480443C34820402D
:1093100002220BF0CBF907B0F0BD01A90C80BE48CA
:109320000443BE48204002220BF0C0F907B0F0BD54
:1093300001A90C80B8480443B848204002220BF031
:10934000B5F907B0F0BD01A90C80B3480443B34898
:10935000204002220BF0AAF907B0F0BD01A90C8051
:10936000AD480443AD48204002220BF09FF907B0FE
:10937000F0BD01A90C80A8480443A848204002225F
:109380000BF094F907B0F0BDBD49202220460BF048
:109390008DF907B0F0BD002120460A460BF086F992
:1093A000A7480121017007B0F0BDA64801680191EE
:1093B000028901A98A808289CA80008AFF22163226
:1093C0004A810881A04888810E2220460BF06EF960
:1093D00007B0F0BD01A90C808F4804438F4820409E
:1093E00002220BF063F907B0F0BD142141438C4811
:1093F0004618D4366F1C95480078002806D11422F0
:1094000038463146FDF7F0FE002812D014223046CF
:109410003946FDF716FF2A78984930460BF0EAFAEC
:109420008A480078002804D108F0A6FE7D48012172
:109430000170002120460A460BF038F98348007875
:10944000002800D1E6E0824801782A78002A00D17D
:10945000C6E0022900D0DDE00321017007B0F0BDB5
:109460002878697809020143A878EA781202024351
:1094700010040843B0216A4A5158884213D07D4EE7
:10948000307800280FD12878697809020143A8783C
:10949000EA7812020243100408437749086008F092
:1094A00077FE01203070002120460A460BF0FEF8BE
:1094B00007B0F0BD5A48C1885B4880884008002941
:1094C00043D0084641E0564BDF8801218A03DA8009
:1094D000564A1268564B5343CE039919090C800320
:1094E0000CF0ACF8B04228D952482CE0022800D148
:1094F00090E001287AD0002814D1564C5B4908220C
:109500002046FDF771FE002800D183E05848012174
:109510002160606050480021016050486321016073
:1095200007B0F0BD01A90C803B4804433B482040F4
:1095300002220BF0BBF807B0F0BD410B00D007468C
:10954000002900D108463649CF8001A90880287932
:10955000697909020143A879EA79120202431004E9
:109560000843411C08D000280FD12D48002101815B
:109570002D48C088400828E0294801892A48C08829
:109580004008002921D008461FE0254B1E890121F3
:109590008A031A81254A526812235343264F5743A0
:1095A000CD037919090CCA182449114080030CF025
:1095B00045F8A84201D91F4805E0410B00D00646F6
:1095C000002900D1084616490E81164901220A7069
:1095D00001A94880042220460BF068F807B0F0BDCE
:1095E000012917D10221017007B0F0BD194C1C49A7
:1095F00008222046FDF7F8FD00280BD0194802216B
:10960000216060601448012101601448164901601E
:1096100007B0F0BD07B0F0BD0280000002F000000E
:10962000CC02002018040020200500209402002015
:10963000CDD50400FFFF00005F840000FFFF0100A4
:10964000380500200002000801030000300500205A
:1096500049050020C0020020C8020020B8020020F6
:10966000CC5901080200E803E7030000D4590108BF
:10967000010064005005002054050020D4030020A0
:10968000185A010800207047F0B581B019480078D9
:10969000002801D001B0F0BD1748006817490860E4
:1096A000174800780090002804D0174E154D184C2C
:1096B000164F03E0134E144D144C154F40223846FC
:1096C0002146FDF7BEFD202228463146FDF7B9FDB3
:1096D00010488660C4601048056247620120009A05
:1096E000424007490A700D49087008F0EDFC01B0CE
:1096F000F0BDC04630050020D4090020340500200C
:109700004A050020740500209D0400205C04002010
:109710001C040020A00000202801002031050020AA
:1097200080B5002817D0AD210C4AAC23D35C002BA8
:1097300009D0515C002906D0012108F0D7FA232175
:10974000002806D107E0002108F0D0FA22210028E5
:1097500001D0C8B280BD3F21C8B280BDCC0200207C
:1097600080B50B48006800280ED008490978002908
:109770000AD008490968081A07490968884203D3CA
:10978000064800210BF008FA80BDC04631050020D4
:1097900034050020D40900204C05002089960008DB
:1097A000F0B583B000282DD04827964EF05D411EBD
:1097B000022945D3C51E022D5DD29B4800210170B0
:1097C0009B4CA24908222046FDF70EFD002809D037
:1097D0009F482A21216060609848092101609848CB
:1097E000632101600020F0803081F16C9948818014
:1097F0004921715C8171691E8D4145720AF026FB19
:1098000003B0F0BD94480021017087480125057020
:1098100086480570864C914908222046FDF7E4FCF5
:10982000002808D08E4802212160606083480560CE
:109830008348632101608B480AF0E6FA03B0F0BD6B
:109840007948002404700AF019FB30464930744D01
:10985000294622460BF0CEF830465D3001222946DB
:109860000BF0C8F8F15D0220012900D108467649C5
:10987000087003B0F0BD002800D08FE06248634953
:10988000634A00241470634A026241625027F05D0B
:109890007D21CD0000280ED0AD20AC214922B25C44
:1098A000012A00D098E0715C002900D194E0305C7E
:1098B000002800D190E0019702953B20574A115CA7
:1098C0001F29204600D80846FD2170543C20105C1A
:1098D00001273840FC2170543546D43511463D31BE
:1098E000282228460092FDF7ACFC4D4928460D463B
:1098F00022460BF07FF83046E83029463A460BF016
:1099000079F848480178FE22B1544178FF22B154D9
:109910003902807870546520404A105C6621515CA1
:10992000090201436720105C134668229A5C120208
:10993000024310040843B02170503B4804703B4878
:1099400007703B4C3B4908222046FDF74DFC0028A0
:10995000029D08D0384802212160606037480760C6
:10996000681E374908603748077027480AF070FDBD
:109970000AF07AFA0199725C29465143002A00D014
:109980000D4614214143084629460BF057FE28286E
:1099900000D300982049086003B0F0BD2E48002194
:1099A000017021480125057020480570204C2B4985
:1099B00008222046FDF718FC002808D0284802217C
:1099C000216060601D4805601D48632101602548D5
:1099D0000AF01AFA03B0F0BD0AF046FAF25D294621
:1099E0005143002A00D00D46142141430846294620
:1099F0000BF024FE2821282800D3084606490860D9
:109A000003B0F0BDCC020020280100201C0400207F
:109A10004A0500209D0400204C050020E408002099
:109A2000D4030020385A0108300500209C0400208F
:109A3000C0020020CC5901080200E803C80200203F
:109A4000B80200201804002048050020E45901084D
:109A50000A0064006C01002049050020BC5901087F
:109A600002006400045A0108014801210170704796
:109A700040050020F0B581B0964D28680321C94308
:109A8000695801404E080F20304093490C7802215C
:109A90000E4205D0024622400C4241D1002A3FD05E
:109AA00006460420064200D1AAE031462140044285
:109AB00002D1002900D0A3E0F0B21022D143083136
:109AC0002960FB26064085480769002F5CD000927C
:109AD000834B1978002905D1EFF3108072B67F48C7
:109AE00007691978481C18707E4800697E4A931CE3
:109AF0009F425CD20023794D2B61764DC0191040F6
:109B0000784A10617B4B1B79E8622020002B00D043
:109B10000098774A713AEB6813400343EB606BE0BF
:109B20001020C0430C3028600D2006406B4A93681B
:109B3000002B33D06A4F3978002904D1EFF310801D
:109B400072B693683978481C387066488068664AEF
:109B5000971CBB423CD20027009060488760009869
:109B6000C01810405F4A90605D4F624A9378A862C7
:109B7000012250031203002B00D01046AA685E4B4E
:109B800013400343AB608FE05C480269002A37D082
:109B9000042021469047300734D493E05748826828
:109BA000002A00D17DE702202146904779E74D4AFF
:109BB0004E4B9F421BD27B08FD1A484F3D61C01897
:109BC000494B18401061002D00D180E0414D12E05A
:109BD000464FBB4262D25F08DA1B404B9A60C01905
:109BE000414B18403F4B9860002A5BD1BCE7404A8C
:109BF000BA183A4B1A61E86239480170002949D015
:109C000030075FD526400820044201D1002E59D1EB
:109C10001020C0432860314A1368002B24D03048FC
:109C20000178002904D1EFF3108172B6136801782E
:109C30004C1C04702B4C26682B4FB81C83421CD242
:109C400000201060F2183A4022602A4800782A6307
:109C500001235A031B03002800D01A46E868264B4C
:109C600003401343EB6029E024480268002A29D00E
:109C700000202146904701B0F0BD1C48834219D214
:109C800058081B1A136032183A402260002BDCD0AF
:109C90002A6313E062B63007B4D413E0144FDB1923
:109CA0000E4A9360A8620E4F3970002900D0F8E682
:109CB00062B6F6E60E48181810602E630848017068
:109CC000002901D001B0F0BD62B601B0F0BD014D78
:109CD00018E7C046102C014050090020540900200C
:109CE000D909002094090020FFFF000001000200B4
:109CF0000000FFFFB4090020FF8FFFFE7409002061
:109D0000F0B543490A78002A03D1EFF3108272B606
:109D10000A78531C0B7086003E4CA3193E4FBD19A8
:109D2000A459BF593D4EB11C8F420FD2002129606A
:109D3000E41934401C603C49095C022301250029D8
:109D400000D02B460025072819D95AE034498F4204
:109D50000AD279087F1A2F60641834401C600023EF
:109D60000125002F09D1E6E72E497B1871332B60BE
:109D70000125002B00D11D460023072841D8C046ED
:109D8000784400794000874403080A17191E3229D5
:109D900029484462002D25D033E0284828E0264891
:109DA000C461002D2DD10321C9434458204D2540C5
:109DB0001B032B43435024E01E4819E01E48046255
:109DC000002D18D01DE01B484462002D19D14168B8
:109DD000144C0C4019012143416012E01348046205
:109DE000002D0ED10168124C0C40190307E00F48FA
:109DF000C461002D05D101680A4C0C4019012143B2
:109E0000016003480270002A00D0F0BD62B6F0BDC8
:109E1000D90900209409002054090020FFFF000008
:109E2000010002008FFFFEFFB4090020184001402E
:109E3000FF8FFFFE180400401C2C01401844014015
:109E4000F0B581B0624D28680321C94369580140CB
:109E50004E080F2030405F494C7801210E4205D05A
:109E6000024622400C4236D1002A34D0410700D4A9
:109E7000ACE0204004210C4202D1002800D0A5E033
:109E80000820C0432860544A5369002B56D05348D9
:109E90000178002904D1EFF3108172B6536901787B
:109EA0004C1C04704E4C66694E4FB81C834256D20F
:109EB00000205061F2183A4062614D484079EA62F0
:109EC00020221023002800D01A46E868474B0340A0
:109ED0001343EB6064E00820C043801D28600E201F
:109EE00006403D4AD368002B31D03C4F39780029D9
:109EF00004D1EFF3108072B6D3683978481C3870FB
:109F00003748C068374A971CBB4235D200270090BB
:109F10003148C7600098C0181040314AD0602F4FB8
:109F2000334AD378686220201022002B00D01046DC
:109F3000AA682E4B13400343AB603FE02D484269B3
:109F4000002A43D005202146904701B0F0BD2948A2
:109F5000C268002A36D003202146904732E02248CA
:109F6000834218D258081B1A536132183A40626172
:109F7000002BA2D0EA6213E01B4FBB4217D25F084E
:109F8000DA1B154BDA60C019164B1840144BD86019
:109F9000002A11D1C3E71548181871305061EE62DC
:109FA0000E480170002911D162B601B0F0BD0F4F0B
:109FB000DB197133084AD3606862084F3970002991
:109FC00000D162B63046410700D552E701B0F0BD7E
:109FD000100400405009002054090020D909002035
:109FE00094090020FFFF0000010002008FFFFEFF28
:109FF000B409002074090020F0B583B00720C743DE
:10A000006D4AD0590B21C943515801404D080320D6
:10A0100028406A498C780126354205D00146214006
:10A02000344239D1002937D0810700D4C1E0204023
:10A0300002210C4202D1002800D0BAE00420C04323
:10A04000D0515F4AD369002B5ED05E480178002969
:10A0500004D1EFF3108172B6D36901784C1C0470FF
:10A06000594CE569594FB81C834262D20020D06137
:10A07000EA183A40E2615848C0794F4B1A627203BD
:10A080003303002800D01A464B4804462068544B3E
:10A0900003401343236074E00420C043801CD0516C
:10A0A0000220054046488369002B36D0454A107887
:10A0B000002805D1EFF3108072B64148836910780B
:10A0C0000290401C107040488169404A921C9342A3
:10A0D0003DD200223A488261C8183C4908403A49BA
:10A0E000886102993C4A9379334AD061202010223A
:10A0F000002B00D01046374A713A2F4B1B68134093
:10A100002D4A034313604BE03448C269002A50D003
:10A1100007202146904703B0F0BD30488269002AED
:10A1200002D00620214690472846234A810740D581
:10A130007DE7274883421FD258081B1AD3612A188B
:10A140003A40E261002B96D01B48026219E001916F
:10A150001F4A93421CD25A08991A194B99610B460F
:10A16000019880181949084017498861002B029905
:10A17000B8D0114AD06113E016481818D0610E48C3
:10A18000056210480170002913D162B603B0F0BD1A
:10A19000104A9A180A4B9A61074A0198D0610299AD
:10A1A00008480170002900D162B62846810700D511
:10A1B0003DE703B0F0BDC046184001405009002003
:10A1C00054090020D909002094090020FFFF000055
:10A1D000010002000000FFFFB40900207409002004
:10A1E000FF8FFFFEF0B581B02320C2433348815872
:10A1F0002723DB43C3580B405C0801231C40002C81
:10A2000057D02F49C9780C40194201D1002C50D1A8
:10A210000224E44384502B4C6568002D27D02A4E3D
:10A220003278002A04D1EFF3108172B66568327873
:10A23000511C317025494F68254CA61CB5421ED2D1
:10A240000023204E73607B1923404B601E4E224931
:10A250004C78036020211023002C00D019461B23CA
:10A26000DB43C4581B4D25400D43C5501EE01B4821
:10A270004268002A1DD00120904701B0F0BD26465B
:10A280005B049D420BD86B08ED1A0E4C6560FB1801
:10A2900033404B60002D0C4ED9D0036006E00D49D1
:10A2A00069187131074B59600760074E3270002AF8
:10A2B00001D001B0F0BD62B601B0F0BD3444014040
:10A2C0005009002054090020D909002094090020D9
:10A2D000FFFF00008FFFFEFFB4090020740900207B
:10A2E00070B5604A1378002B03D1EFF3108372B678
:10A2F00013785C1C1470072800D98DE0840001A538
:10A300006459A74625A3000845A300085FA30008D9
:10A310007DA3000899A30008B5A30008D3A30008F3
:10A32000F7A30008554C2569504E2E40266125683C
:10A330001026B543256000296ED103218905052427
:10A34000240766E04E4CE5684A4E2E40E6602568DC
:10A350000226B543256000295ED14A4936E0474CC4
:10A36000E568424E2E40E66025680426B543256028
:10A37000002951D13E490C68C02539E03E4CE568C2
:10A380003C4E2E40E66025680226B5432560002934
:10A3900042D1032109023BE0384C2569354E2E405D
:10A3A000266125680826B5432560002934D103219C
:10A3B00009032DE0304C25692E4E2E40266125687C
:10A3C0000826B5432560002926D129490C680325B4
:10A3D0000EE0254CE568274E2E40E66025680226F3
:10A3E000B5432560002917D1052109070C683025E0
:10A3F000AC430C6010E01C4CE5681C4E2E40E6603F
:10A4000025680426B5432560002905D10321890765
:10A41000174C25688D43256081001B4C0025655035
:10A420001A49095C01248C401949095C194D6E5C7C
:10A43000A6436E54002E0FD1174908560321C400BD
:10A4400088431649455818262640FF24B440A543A2
:10A450008024B4402C4344501370002B00D070BDB6
:10A4600062B670BDD90900200C400140FF8FFFFE8D
:10A47000000400508FFFFEFF0C0400400C2C014034
:10A480000C440140000C005074090020D061010808
:10A49000C861010850090020D861010800E400E00B
:10A4A000F0B581B08400924D2A51924A125C012588
:10A4B00000959540904E365C904FBC5DAC43934008
:10A4C0002343BB55DAB200239B1A5341DA018C4B6C
:10A4D0001D56EB0018241C40A240FF26A640032373
:10A4E0009D43884C2F59B74317432F51042605220B
:10A4F000002900D0164684490A78002A03D1EFF3D8
:10A50000108272B60A78541C0C70072824D8069D55
:10A51000784400794000874403263F5D7791AAC6BE
:10A520007F4804687A4F3C4036032643066004683F
:10A530003C400460002D00D0D1E00F200003052432
:10A540002407656A8543009E70032843606298056E
:10A5500023688343F005C0E00A70002A00D0C1E000
:10A5600062B601B0F0BD6F4804686B4F3C403601E5
:10A570002643066004683C400460002D00D0AEE035
:10A580006948046A0F25AC4302252C430462046821
:10A590009C432C430460A2E0D843614B1C585C4FA1
:10A5A0003C40360326431E501C583C401C50002D96
:10A5B00000D094E00F200003564B1C6A844300989F
:10A5C0000003204318621868C024A0438024044379
:10A5D0001C6084E0514804684F4F3C4036012643DC
:10A5E000066004683C400460002D78D10F20000410
:10A5F000484C256A8543009E300428432062180297
:10A6000023688343700268E045480468424F3C4039
:10A6100036012643066004683C400460002D5ED18C
:10A620000F2000063B4C256A8543009E30062843D8
:10A63000206218032368834370034EE03748446860
:10A64000354F3C4036012643466044683C404460F8
:10A65000002D44D12F48046A0F25AC43009D2C43A4
:10A66000046204689C4302232343036037E02748C5
:10A670000368294C234036011E43066003682340CB
:10A680000360002D2BD10F20000205231C07256A33
:10A6900085431802284320622068302398432023F2
:10A6A000034323601BE019480468194F3C403603FC
:10A6B0002643066004683C400460002D0FD10F2043
:10A6C0000007144C656A8543052000072843606233
:10A6D0009807236883430098C007184320600A70D6
:10A6E000002A01D001B0F0BD62B601B0F0BDC04695
:10A6F00074090020D0610108C861010850090020D8
:10A70000D861010800E400E0D909002018400140A8
:10A71000FF8FFFFE000400508FFFFEFF1804004073
:10A720001C2C014018440140000C0050F0B5214998
:10A730000A78002A03D1EFF3108272B60A78531C0C
:10A740000B701D4C25460C350223DB4307282AD805
:10A750001A4EC0467844007940008744031E080B17
:10A760000D1015190E3B194C2546103514E09B1E93
:10A77000164C0FE0144C08E09B1F144C01E09B1F8B
:10A78000114C2546103508E00D4C25460C3504E0EB
:10A790009B1E0B4C25460C350A4E20681840206045
:10A7A0002868304028600A70002A00D0F0BD62B6E8
:10A7B000F0BDC046D90900200C4401408FFFFEFFC8
:10A7C0000C400140FF8FFFFE0C0400400C2C0140A8
:10A7D000002107280ED808497844007940008744B2
:10A7E0000308030503050707064902E0044900E0E2
:10A7F0000249096888B2704724440140244001405E
:10A8000024040040242C014070B58400444D2A519A
:10A81000444A00251551444A1354444A1378002BE6
:10A8200003D1EFF3108372B613785C1C1470042408
:10A830000525002900D02C46072821D8810001A534
:10A8400049598F4665A8000889A8000891A8000802
:10A850009BA80008A3A80008ADA80008CBA8000882
:10A86000E5A800080221CD430E3D35494D600D6835
:10A8700010262E430E600E692E4D354010313EE0FD
:10A880001370002B49D070BD0225EE432D491FE007
:10A890000221C9438D1E2A4928E00225EE4327499B
:10A8A00016E00221C9438D1F254903E00221C94357
:10A8B0008D1F22494D600D6808262E430E600E69DB
:10A8C0001D4D3540103104261AE00225EE4318498B
:10A8D0004E600E682E430E60CE68174D35400C3129
:10A8E00004260DE00221C9438D1E11494D600D68FB
:10A8F00004262E430E60CE680E4D35400C310C26DA
:10A90000B4402C430C601370002B02D0FFF7F8F911
:10A9100070BD62B6FFF7F4F970BD62B670BDC04697
:10A920009409002054090020B4090020D90900200E
:10A930000C400140FF8FFFFE8FFFFEFF0C04004024
:10A940000C2C01400C44014010B58300034CE15035
:10A9500003490A54FFF7D4F910BDC046540900203A
:10A96000B409002070B58400444D2A51444A135460
:10A9700004230522002900D01346424C21780029E7
:10A9800003D1EFF3108172B621784A1C2270072898
:10A9900022D8810001A28A589746C046BDA9000866
:10A9A000E3A90008EBA90008F5A90008FDA9000823
:10A9B00007AA000827AA00083FAA00080222D543D8
:10A9C0000E3D354A5560156810262E4316601569F0
:10A9D0002E4E2E401B0323E0217000294AD162B67F
:10A9E00070BD0225EE432D4A20E00222D243951E7F
:10A9F000294A28E00225EE43264A17E00222D243E4
:10AA0000951F254A03E00222D243951F214A556033
:10AA1000156808262E43166015691D4E2E401B0131
:10AA2000334313611AE00225EE43174A5660166855
:10AA30002E431660D568164E2E401B010CE00222F4
:10AA4000D243951E104A5560156804262E431660A1
:10AA5000D5680E4E2E401B033343D3601832126864
:10AA60000F4B5A50FFF74CF92078401E2070FF2101
:10AA7000084200D070BD62B670BDC04654090020C7
:10AA8000B4090020D90900200C400140FF8FFFFECF
:10AA90008FFFFEFF0C0400400C2C01400C440140D1
:10AAA00094090020B0B52A490A78002A03D1EFF3AF
:10AAB000108272B60A78531C0B708300254C002557
:10AAC000E55007283DD8C0467844007940008744C7
:10AAD000030B0F14181D252E0220C0430E38204BE7
:10AAE00058601868102429E00220C3431D4C18E068
:10AAF0000220C043801E1A4B1DE00220C343174CA6
:10AB00000FE00220C043801F154B03E00220C0432A
:10AB1000801F124B5860186808240FE00220C343BE
:10AB20000D4C6360236803432360A06009E00220AA
:10AB3000C043801E084B58601868042420431860E6
:10AB40009C600A70002A00D0B0BD62B6B0BDC0469D
:10AB5000D9090020940900200C4001400C04004059
:10AB60000C2C01400C44014080B501F051FD80BD2A
:10AB700080B502F05FFD80BD0020704770B51248BF
:10AB8000124AD4886300002C00D183889CB2104BF9
:10AB90001B68104D5D430126F303EB181B0C5C434F
:10ABA000B5036419E60B0C4C6643F60C0E70D688A0
:10ABB0007200002E00D1828890B258434019C00B19
:10ABC0004443E00E487070BD20050020CC020020F8
:10ABD00094020020CDD50400CDCC0000F0B581B0AA
:10ABE0007121A74A525C0F2109020D2A009107D852
:10ABF0005200835C8218527817020F401F4312E004
:10AC000006235343C2185023DB43D35CF024234074
:10AC10005225ED43555D2D091D434E23DB43D25C88
:10AC2000224017012F43974A974200D31746964C6C
:10AC3000A74200D82746954D6F4395497B180F468C
:10AC40001B0C94490B8072238D49CB5C0E2B0AD2CE
:10AC50005900465C411849780B0200990B40334378
:10AC6000934216D216E006265E4383195026F64319
:10AC70009E5DF0273E405221C943595C090931438A
:10AC80004E26F6439B5D3B40814F1B010B43934295
:10AC900000D31346A34200D823466B43D919090CAD
:10ACA0007C4B59807321764B5B5C0E2B0AD259008A
:10ACB000465C411849780B0200990B40334393429C
:10ACC00016D216E00621594341185023DB43CB5CD2
:10ACD000F02633405227FF43CF5D3F091F434E23E9
:10ACE000DB43C95C31400B013B43694F934200D3C6
:10ACF0001346A34200D823466B43D919090C654B70
:10AD0000998074215E4B5B5C0E2B0AD25900465C25
:10AD1000411849780B0200990B403343934216D2F5
:10AD200016E00621594341185023DB43CB5CF02643
:10AD300033405227FF43CF5D3F091F434E23DB4380
:10AD4000C95C31400B013B43514F934200D3134642
:10AD5000A34200D823466B43D919090C4D4BD98027
:10AD60007521474B5B5C0E2B0AD25900465C41189B
:10AD700049780B0200990B403343934216D216E0F8
:10AD80000621594341185023DB43CB5CF026334066
:10AD90005227FF43CF5D3F091F434E23DB43C95C6E
:10ADA00031400B013B433A4F934200D31346A34239
:10ADB00000D823466B43D919090C364B19817621EB
:10ADC0002F4B5B5C0E2B0AD25900465C4118497828
:10ADD0000B0200990B403343934216D216E0062132
:10ADE000594341185023DB43CB5CF02633405227B4
:10ADF000FF43CF5D3F091F434E23DB43C95C314016
:10AE00000B013B43224F934200D31346A34200D889
:10AE100023466B43D919090C1E4B59817721184BD6
:10AE20005B5C0E2B0AD25900435C4018407800024C
:10AE3000009908401843904215D215E00621594365
:10AE400040185021C943415CF02319405226F64373
:10AE5000865D36090E434E21C943405C184000010F
:10AE60003043904200D31046A04200D820464543CC
:10AE7000E819000C0749888107F026F901B0F0BDF8
:10AE8000CC020020CA080000EE0200009CC4200092
:10AE9000F0FDFF3F1C040020704700207047C046B3
:10AEA000B0B5C11E022903D3022806D0002806D15E
:10AEB0000F48032101700F4C02E00C4C00E00A4CDB
:10AEC0000D4D082228462146FCF78EF900280AD0AD
:10AED00003CC03C5083CA088401E08490860E088F0
:10AEE000401E07490860B0BDBC590108FC59010863
:10AEF000BD090020F4590108C0020020C80200204A
:10AF0000B8020020F0B524490025CD718400234B00
:10AF1000DC6123480178002904D1EFF3108172B677
:10AF2000DC6901784A1C02701E4EF7691E4A901CAB
:10AF3000844215D2DD613B191340F3611648C07994
:10AF40001B4A1360012463032403002800D0234616
:10AF50001F20C0431458174D25401D43155013E0C2
:10AF60000120400484420AD86008241ADC613B189E
:10AF70001340F361002CE1D00D48036004E00B485E
:10AF80002018D8610A48076005480170002900D0E0
:10AF9000F0BD62B6F0BDC046B409002054090020DF
:10AFA000D909002094090020FFFF00000000FFFFE6
:10AFB00038400140FF8FFFFEF0B582B037490022D4
:10AFC0000192CA718000364FF861364E3078002801
:10AFD00003D1EFF3108072B63078411C3170072036
:10AFE000C0430422D443304B1C500B20C0431C5898
:10AFF00014431C5018682D4A104001229403044346
:10B000001C60DD682A48C561FF24214205D1EFF3A9
:10B01000108072B62648C5693178481C3070F869CE
:10B02000244EB71CB84216D2019F00941C4CE76115
:10B03000009C2D1835401E48C5611848C6791D6210
:10B0400050031203002E00D010461A68174D2A40F4
:10B0500002431A6013E05704B8420BD84708C01BDC
:10B060000F4EF061ED19134E3540114EF561002879
:10B0700004D1E2E7104A8018094AD0611D62094AEA
:10B080001170214201D162B61178481E1070204221
:10B0900001D002B0F0BD62B602B0F0BDB40900202C
:10B0A00054090020D909002018400140FF8FFFFEFD
:10B0B00094090020FFFF00000000FFFF10B50B48BF
:10B0C0000178002903D1EFF3108172B60178084AA4
:10B0D00013680424A3431360D368064C1C40D46057
:10B0E0000170002900D010BD62B610BDD909002042
:10B0F0000C400140FF8FFFFEF0B51E4B5A619A696C
:10B100001C6822605A680024146014600522140729
:10B11000194A1578002D05D026680327BE432660FE
:10B1200015700BE0EFF3108572B6157826680327CB
:10B13000BE4326601570002D00D162B6DA7A5C7AC3
:10B14000A4000E4D625114CB15462435A560E06075
:10B15000616059608020206081202060D1692020BA
:10B16000014203D0516AD1690142FBD161208001C3
:10B170009060F0BD78010020D9090020000802404D
:10B180000C484369816904220A43002B09D0437AA1
:10B19000012B08D802680123DB021362074A11431E
:10B1A00005E0114603E0044901230B7011460068D5
:10B1B0000160704778010020E209002004000004CB
:10B1C000F0B51D4A002313611C4C23709469156867
:10B1D0002C6054682360236005231C07184B1D78DE
:10B1E000002D07D026680327BE4302273743276078
:10B1F0001D700DE0EFF3108572B61D7826680327E9
:10B20000BE430227374327601D70002D00D162B670
:10B21000937A547AA4000B4D6351136852681C460C
:10B2200028349460D06051609020106091201060AC
:10B230003120C0019860F0BD78010020E2090020B3
:10B24000D909002000080240044801210170044887
:10B25000816948220A43006802607047DA090020C9
:10B260007801002080B5B021074AFF2353504821C0
:10B270005054FCF7B9FCBFF34F8F044804490160F8
:10B28000BFF34F8F00BFFDE7CC0200200CED00E0C4
:10B290000400FA0580B506F06FFF80BDF0B581B0FF
:10B2A0000022030A3AD083235B00984207D8204A41
:10B2B00010188E22D243805C087001222EE0194BB8
:10B2C000C01883B2062B29D84200174B9C5C9A18F1
:10B2D000527812022243154D2A400E784F783F02D1
:10B2E00037436D1C3D4015430D702D0A4D704225AE
:10B2F0005D5D009543269E5D4027DF5D41255B5DDA
:10B300000C701B023B433402009D2C4324041C435D
:10B31000C440E0031043000A48700222D0B201B0DA
:10B32000F0BDC04600FEFFFFD4030020FF7F0000F9
:10B33000CC020020F0B599B00024030A00D1C5E08A
:10B34000FF273B460833984242D2FB43C3180129EA
:10B3500000D0BBE010781F2800D9B7E0624DE91893
:10B3600071268A5D0124824200D1AFE088555F4892
:10B370000078800728D15E4809AC5E4A214609F072
:10B38000BBFAA85D4000215A5B4801807221695CCC
:10B390004900615A41807321695C4900615A81808A
:10B3A0007421695C4900615AC1807521695C49005A
:10B3B000615A01817621695C4900615A4181772196
:10B3C000695C4900615A81814648012404707DE02E
:10B3D000404D4519A8B2062878D8022976D11078B0
:10B3E0005178090201433C4E0E40002E6ED0B01F32
:10B3F0000890B0B289339BB20790984266D80898FB
:10B4000080B22C2862D34020344C0590205C41232C
:10B410000293E35C1C020443422004902F4B185C0F
:10B420000890432303932D48C35C1B0208980343F1
:10B430001B0423436800294C245C0894274C2018E3
:10B44000019040780002089C204301240894AC40FD
:10B450000694079CA0420BD11846069C204000246D
:10B46000251A4541C80B08994840022485422DD031
:10B4700001990E70300A4870F843FF300699484031
:10B480001840164C059D6055010E039FE155010CB7
:10B49000049EA155000A02996054089810560002B3
:10B4A00011780143002909DA069803436355180E01
:10B4B000E055180CA055180A412160540848002195
:10B4C00009F06AFB0748089901700224E0B219B03C
:10B4D000F0BDC04600FEFFFFFF7F0000D403002048
:10B4E00095B2000818040020CC020020BD090020FD
:10B4F000FE040020BE090020BE04002070B51249E1
:10B50000124AD4886300002C00D18B889CB2104B67
:10B510001B68104D5D430126F303EB181B0C5C43C5
:10B52000B5036419E60B0C4C6643F60C0670D6881E
:10B530007200002E00D18A8891B259434919C90B73
:10B540004C43E10E417070BD20050020CC0200206C
:10B5500094020020CDD50400CDCC00000148007835
:10B560007047C046BD09002010B51A4908701A4836
:10B570000078002800D010BD1848194C194A2146FF
:10B5800009F0BAF971211848415C4900625A17491B
:10B590000A807222825C5200A25A4A807322825C24
:10B5A0005200A25A8A807422825C5200A25ACA8037
:10B5B0007522825C5200A25A0A817622825C520075
:10B5C000A25A4A817722805C4000205A888106F086
:10B5D0007BFD10BD9C040020BD0900209D040020BF
:10B5E0005C040020BE090020CC0200201C040020C6
:10B5F00010B590B01A480178FE220A40027002206D
:10B6000001422AD117486C46174A214609F074F9BD
:10B6100071211648415C4900625A15490A8072221C
:10B62000825C5200A25A4A807322825C5200A25A63
:10B630008A807422825C5200A25ACA807522825C7F
:10B640005200A25A0A817622825C5200A25A4A8192
:10B650007722805C4000205A888110B010BDC0461F
:10B66000BD090020FE040020BE090020CC020020FD
:10B67000BE04002010B590B01A480178FD220A409F
:10B680000270012001422AD117486C46174A214610
:10B6900009F032F971211648415C4900625A154996
:10B6A0000A807222825C5200A25A4A807322825C13
:10B6B0005200A25A8A807422825C5200A25ACA8026
:10B6C0007522825C5200A25A0A817622825C520064
:10B6D000A25A4A817722805C4000205A888110B0AB
:10B6E00010BDC046BD090020FE040020BE09002098
:10B6F000CC020020BE0400207047C046B0B51348FD
:10B700001349C1611348817802220A4382701248AA
:10B710000168FF229143016010480178002903D19C
:10B72000EFF3108172B601780D4A13680D4C234077
:10B730000125AD031D43156013682340136001709C
:10B74000002900D0B0BD62B6B0BDC046740900206B
:10B7500071AB00085009002014E400E0D909002072
:10B7600018400140FF8FFFFEB0B5022809D0002825
:10B7700009D1114802210170104803210170104CB9
:10B7800002E00C4C00E00A4C0E4D082228462146EF
:10B79000FBF72AFD00280AD003CC03C5083CA0888B
:10B7A000401E09490860E088401E08490860B0BD95
:10B7B000BC590108FC5901089C040020BD09002067
:10B7C000F4590108C0020020C8020020B80200207D
:10B7D000F0B524490025CD718400234BDC6123485A
:10B7E0000178002904D1EFF3108172B6DC69017889
:10B7F0004A1C02701E4EF7691E4A901C844215D2E4
:10B80000DD613B191340F3611648C0791B4A136090
:10B81000012463032403002800D023461F20C043D3
:10B820001458174D25401D43155013E001204004C6
:10B8300084420AD86008241ADC613B181340F36183
:10B84000002CE1D00D48036004E00B482018D861BB
:10B850000A48076005480170002900D0F0BD62B6B3
:10B86000F0BDC046B409002054090020D9090020C9
:10B8700094090020FFFF00000000FFFF3840014056
:10B88000FF8FFFFEF0B582B0374900220192CA71E6
:10B890008000364FF861364E3078002803D1EFF340
:10B8A000108072B63078411C31700720C0430422EA
:10B8B000D443304B1C500B20C0431C5814431C5025
:10B8C00018682D4A10400122940304431C60DD686F
:10B8D0002A48C561FF24214205D1EFF3108072B6DA
:10B8E0002648C5693178481C3070F869244EB71C69
:10B8F000B84216D2019F00941C4CE761009C2D18A1
:10B9000035401E48C5611848C6791D6250031203B0
:10B91000002E00D010461A68174D2A4002431A60C4
:10B9200013E05704B8420BD84708C01B0F4EF06114
:10B93000ED19134E3540114EF561002804D1E2E7B0
:10B94000104A8018094AD0611D62094A11702142CB
:10B9500001D162B61178481E1070204201D002B0A9
:10B96000F0BD62B602B0F0BDB40900205409002059
:10B97000D909002018400140FF8FFFFE94090020E4
:10B98000FFFF00000000FFFF10B50B480178002901
:10B9900003D1EFF3108172B60178084A13680424CA
:10B9A000A3431360D368064C1C40D4600170002987
:10B9B00000D010BD62B610BDD90900200C40014076
:10B9C000FF8FFFFE704780B501460020012200F086
:10B9D00031FB80BDF0B51E4B5A619A691C6822602C
:10B9E0005A6800241460146005221407194A157857
:10B9F000002D05D026680327BE43266015700BE096
:10BA0000EFF3108572B6157826680327BE432660CB
:10BA10001570002D00D162B6DA7A5C7AA4000E4D62
:10BA2000625114CB15462435A560E0606160596011
:10BA30008020206081202060D1692020014203D035
:10BA4000516AD1690142FBD1612080019060F0BD53
:10BA500078010020D9090020000802400C48436901
:10BA6000816904220A43002B09D0437A012B08D8AC
:10BA700002680123DB021362074A114305E0114605
:10BA800003E0044901230B70114600680160704710
:10BA900078010020E2090020040000040448016845
:10BAA00082690A6040680021016001607047C046F9
:10BAB00078010020F0B51D4A002313611C4C23704F
:10BAC000946915682C6054682360236005231C0763
:10BAD000184B1D78002D07D026680327BE43022788
:10BAE000374327601D700DE0EFF3108572B61D78A7
:10BAF00026680327BE430227374327601D70002DA9
:10BB000000D162B6937A547AA4000B4D6351136846
:10BB100052681C4628349460D060516090201060B8
:10BB2000912010603120C0019860F0BD78010020A4
:10BB3000E2090020D9090020000802400448012140
:10BB400001700448816948220A4300680260704716
:10BB5000DA09002078010020F0B581B0364801688C
:10BB60000124214265D0E143016034480168491C49
:10BB70000160334D2C7008F097F90021297031488D
:10BB8000007801282FD130480378304DAA6B304817
:10BB90000678B7002F48C019002B09D00568AA18ED
:10BBA0002A4D02601F2B04D150092B4AD05100E0CE
:10BBB0000260721C264E3270D0B2022809D3317056
:10BBC000581CC2B21F2A0A4600D802461E480270FC
:10BBD0000A46D0B221A1085C21468140296228682A
:10BBE0000421014329601E48007801281BD11D490A
:10BBF0000868421C0A601C48C3889A4213D300227A
:10BC00000A60858819490B685B1CAB4200D3134658
:10BC10000B6022469A400368200321071A4200D095
:10BC200008461349086006F045FA00F081FF01F06C
:10BC30006DFD01B0F0BDC04610100040D4090020D9
:10BC4000D809002088020020890200200824014031
:10BC50008A0200208C0200209402002006070000C7
:10BC6000B4020020B8020020C0020020C802002058
:10BC70001800005010B5044C0120207008F034FF6B
:10BC80000020207010BDC046D809002080B508F003
:10BC900057FF80BD7047C04610B5084A00290AD03A
:10BCA000002304789BB21B19491E401C0029F8D1BF
:10BCB000534098B210BD134698B210BDFFFF00006C
:10BCC000C00204490A680B68D31A1B028342FAD3E4
:10BCD0007047C04618E000E005480178002903D10C
:10BCE000EFF3108172B60178491C01707047C046AD
:10BCF000D909002004480178491E0170FF20014243
:10BD000000D0704762B67047D90900200120400773
:10BD10000749084A0023026041608360BFF34F8FE8
:10BD2000054806490160BFF34F8F00BFFDE7C046DD
:10BD3000AC94557FC911E81A0CED00E00400FA0537
:10BD4000014801210160704700E200E00148042140
:10BD50000160704700E200E010B50120C102164CFE
:10BD60002068084210D01548026E1162816F116080
:10BD7000416E00230B600B60426F002A04D04367C2
:10BD8000C06E4968401A904720684021084212D08E
:10BD90000A48026E11620A4BD97800290BD00021A3
:10BDA000D970836F1360426E11601160026F002AB8
:10BDB00001D00167904710BD1C3801407801002078
:10BDC000DA09002010B50120C102164C2068084293
:10BDD00010D01548026A1162816B1160416A00231C
:10BDE0000B600B60426B002A04D04363C06A496851
:10BDF000401A904720684021084212D00A48026A3F
:10BE000011620A4B597800290BD000215970836BBD
:10BE10001360426A11601160026B002A01D0016355
:10BE2000904710BD1C44004078010020DA09002032
:10BE3000F0B581B03D4CA0783D4D00281CD029685C
:10BE40001020014218D03B490A6C10623A488078B1
:10BE5000002811D04B6D002B0ED0C86C4F6C7E6843
:10BE6000801B09D00026344DAE708D6D1560304DAD
:10BE70003E603E604E6598472078304E00281FD0C7
:10BE80003168102001421BD02A490A6810622A48F2
:10BE90000378002B14D04B69002B11D0CD684F686C
:10BEA0007868281A224D0BD000900020224D28706F
:10BEB0008D6915601E4D386038604861009898475C
:10BEC000A078002816D028684021084212D01948CE
:10BED000026C11621A4B997800290BD000219970DD
:10BEE000836D1360426C11601160026D002A01D0F5
:10BEF000016590472078002816D03068402108421C
:10BF000012D00C48026811620D4B197800290BD031
:10BF10000021197083691360426811601160026921
:10BF2000002A01D00161904701B0F0BDDE09002078
:10BF30001C48004078010020E20900201C4C004011
:10BF4000DA090020B0B541012E4A535851188A69C8
:10BF50001A60496800220A600A602B490A542B497A
:10BF60000A78002A03D1EFF3108272B60A78531CC4
:10BF70000B70032840D8C0467844007940008744BD
:10BF8000010E1A2D05200007C3680C24A343C360CB
:10BF900001231B048361F023DB43E13329E0052007
:10BFA0000007C368C024A343C36001239B048361CB
:10BFB000F023DB431DE0164803680324A34303601A
:10BFC00005231B0701256D059D61A4021D68A5437E
:10BFD0001D600C38F023DB43ED330AE003208303BC
:10BFE0000B4804689C43046001239B05C3600C3824
:10BFF000084B04681C4004600A70002A00D0B0BDE1
:10C0000062B6B0BD78010020DA090020D90900200D
:10C010000C040050FF0FFFFF40010549081841685C
:10C020004A68C368981A0021934200D808467047AE
:10C0300078010020F0B58BB004920A91074679018F
:10C04000C4480991401808214156089008300390CF
:10C050000022D0430590C048002909DB1F23194066
:10C0600001238B4080214350BFF34F8FBFF36F8F6D
:10C07000BA49CA5501256C04B9490E461036032F3A
:10C08000069720D8B74BC0467F443F797F00BF4416
:10C090000111060BEC040E461036B54B0AE0AC0459
:10C0A0000E461036B14B05E0AC03081D1431AE4B03
:10C0B0000E4601463068204330600868204308601F
:10C0C000086818400860089F786802600260A1480C
:10C0D0000999435840201862FA603A617A610A98D7
:10C0E0008478032009900440601E111A41414902DE
:10C0F000A802002C00D1204608432903002C0E463C
:10C1000000D126463043B8613C4618347E7A022E70
:10C11000079403D3274610242043386018600A98F8
:10C12000847810202040070340033843A408099F67
:10C130003C40012C00D0114608436A03002C1146F4
:10C14000069F00D121460843012E04D80A215961D7
:10C150000121C9050843079C58600998C0029860EE
:10C160000A98807800092840401C029081490E7886
:10C17000002E03D1EFF3108072B60E78701C087099
:10C18000EB02032F00D984E0B80001A400598746D0
:10C19000A1C10008DDC1000811C2000863C2000887
:10C1A00005200007046AFF27BC4344272743076292
:10C1B000C4680C27BC43069F02998900C9B2214379
:10C1C000C16001680F24A1430A240C43046009984C
:10C1D000800769490C6884430C6058E0FF20040222
:10C1E00005200007076AA743112424023C43046288
:10C1F000C468C027BC43069F02998901C9B2214384
:10C20000C1600168F024A143A0240C4304603EE017
:10C210000F242705052000070190016AB943AF05E7
:10C220000F430762544F396AA14304240C43394633
:10C230000C62099FF8430090CC68044002990C43BB
:10C240004D49CC60BC0201980768A7431F430760B3
:10C25000069F08680C4600990840022101432160AE
:10C2600015E0FF2001064448046A8C4304620999E2
:10C270008903C4688C43029989032143C1600F215B
:10C28000090304688C430521490321430160079C8D
:10C2900038490E70002E00D162B60A9908784978A4
:10C2A00009020143C4324A43E8031018000C0899FC
:10C2B0000968C860206828432060086050330B621A
:10C2C0000398007841B2059EB14205DD1F20084069
:10C2D00001228240294802601E48007F0028049BFA
:10C2E0000FD02846B840002B024600D11A46244BF6
:10C2F0001C78844314431C70E0B2002802D1054628
:10C3000000E01D461F480122C2550020401B684125
:10C31000C001B14204DD0B46099CA3431B4C05E060
:10C320000F230B40083B099CA343174C1B19CC005F
:10C3300018252540A840FF24AC401D68A5430543AF
:10C340001D60B14204DD1F2001408A4002480260A6
:10C350000BB0F0BD7801002000E100E0E209002010
:10C360002C100240FFFFFDFFFFBFFFFFFFFFFBFFA1
:10C37000FFFFF7FFD90900200004005080E200E031
:10C38000E6090020DE0900201CED00E000E400E0EA
:10C39000F0B583B002930092019141012D4D6C18CC
:10C3A000089E66616958A5690D60616800250D6089
:10C3B0000D60261D284A1778002F03D1EFF3108156
:10C3C00072B61778791C117005210D073021C94309
:10C3D000032811D83346C04678440079400087448A
:10C3E000010703052D3103E01E4901E01B491C4DE7
:10C3F0002868084028601E461770002F00D162B6DA
:10C40000E07A617A8900184BC85031682068034689
:10C4100024338B60019BCB60009A4A60E2608022EB
:10C42000A024029B002B00D022460A608122A12476
:10C43000002B00D022460A60C26920210A4203D0A4
:10C44000426AC2690A42FBD161218901816003B05D
:10C45000F0BDC04678010020D9090020FFCFFFFFC2
:10C4600000040050FFF3FFFF0008024010B5410137
:10C470000D4A51184C698A6904231343002C09D0D2
:10C480004C7A012C08D808680123DB0203620848B3
:10C49000024305E01A4603E0044A012414541A46F4
:10C4A0000868026010BDC04678010020E209002043
:10C4B00004000004400105490A5808188169116008
:10C4C00040680021016001607047C046780100208B
:10C4D000F0B583B002920191284900220A5441012B
:10C4E000274D6C1823616958A3690B6061680A6065
:10C4F0000A60211D0091234D2E78002E03D1EFF309
:10C50000108272B62E78721C2A700522170730220C
:10C51000D3432022032814D878440079400087446C
:10C52000010C04082D33022207E00120C202184B3F
:10C5300003E001204203144B144F386818401043A5
:10C5400038602E70002E00D162B6A07A617A890020
:10C55000104A88500098006821680A462832826094
:10C56000019AC260029A42609022026091220260A7
:10C570003120C001886003B0F0BDC046E209002050
:10C5800078010020D9090020FFCFFFFF00040050F0
:10C59000FFF3FFFF00080240054901220A54400151
:10C5A00004490A58081880694821014311607047FE
:10C5B000DA0900207801002070B58C180578401C3D
:10C5C0006B075B0F01D10378401C2A1106D102785A
:10C5D000401C03E00678401C0E70491C5B1EF9D11C
:10C5E0002B0705D40023521E0DD40B70491CFAE70B
:10C5F0000378401CCB1A921C03E01D780D70491C77
:10C600005B1C521EF9D5A142D8D3002070BD00009A
:10C61000B0B55F4C2078012820D1607805281DD85E
:10C62000784400794000874402291A383E022248A3
:10C630000078032141430D19FEF740FD687A811E01
:10C6400048424841C046C0462046303020211B4A5F
:10C65000FEF752FDFEF794FD00206070B0BDA0789B
:10C66000012801D1FEF7F0FD7D2000011449096881
:10C670000818FEF747FC03206070B0BDA0780028C2
:10C6800002D10220C046C0460D4800686421081A45
:10C69000FEF738FC02206070B0BD6420FEF732FC6B
:10C6A00004206070B0BD0020C046C0466420FEF784
:10C6B00029FC05206070B0BD3C5A0108C5C60008C1
:10C6C000445A0108F0B58BB00546314E3078012848
:10C6D00000D090E02F4800687D218900081AFEF7FD
:10C6E0006BFC00242046C046C046B4700122727024
:10C6F000281F1C2869D830200590315CA94264D1DC
:10C700000692032D08460AD032463132EB1E084607
:10C710001778C01980B25B1E521C002BF8D1721919
:10C720003032521E531E1B7812781202D218EA4B76
:10C7300043409A42069A48D1B460F078002800D16C
:10C74000F270347731200290375CFA09E34883783D
:10C75000934252D1E243049203977A06520F072A7A
:10C7600000D97CE1920002A39A58049B9746C046E8
:10C7700099C7000809C800086FC8000873C90008F5
:10C78000A3C90008CFC800085FCA000827C900086D
:10C79000000B0020405A0108042900D05FE10F205F
:10C7A00003990140039100D159E1E0480078002845
:10C7B00000D154E131460D31CA5C022A00D02FE18C
:10C7C000401EC91C0028F7D149E1F7480078032131
:10C7D00041438D19FEF772FC687A811E4842484138
:10C7E000C046C046304630302021F04AFEF784FC77
:10C7F000FEF7C6FC74700BB0F0BD0120C046C04609
:10C800000320F0700BB0F0BD042900D027E1E64909
