:020000040800F2
:100000005006002081020008970200089F020008A5
:1000100000000000000000000000000000000000E0
:10002000000000000000000000000000A70200081F
:100030000000000000000000AF020008B702000846
:10004000BF02000800000000C5020008CB02000843
:10005000D1020008D7020008DD020008E302000810
:1000600000000000E9020008EF020008F5020008A5
:10007000FB0200080103000807030008000000005D
:100080000D03000813030008190300081F030008EC
:10009000250300082B03000831030008370300087C
:1000A0003D03000843030008490300084F0300080C
:1000B000550300085B03000800F002F800F030F878
:1000C0000CA030C8083824182D18671EA246AB466D
:1000D00054465D46AC4201D100F022F87E460F3E08
:1000E000B6460FCC0126334200D0FB1A3343A2465A
:1000F000AB461847A41F0000B41F000000230024D3
:1001000000250026103A01D378C1FBD8520700D34E
:1001100030C100D50B6070471FB51FBD10B510BDB5
:1001200000F0B2FA1146FFF7F7FF01F01BF900F0FB
:100130004FF803B4FFF7F2FF03BC00F055F80000DE
:1001400070B505460C46164602E00FCC0FC5103EB2
:10015000102EFAD2082E02D303CC03C5083E042E7B
:1001600007D301CC01C5361F03E021782970641C38
:100170006D1C761EF9D270BD10B5202A04DB08462E
:10018000203AD040002110BD0B462024D340D0405F
:10019000A21A91400843194610BD4343514330B55C
:1001A0005C18010C130C0D4692B25D4380B25143B2
:1001B0002C19054655430A0C09044D196241584350
:1001C000010C00044019514130BD70477047704721
:1001D00010B50446C046C0462046FFF7AAFF10BD32
:1001E000004870478000002001491820ABBEFEE7A0
:1001F0002600020070477047AA0200000F0064004A
:10020000120101000001C100010180010001000094
:1002100001020000000000000000000000000000DB
:1002200000000000000000000000000000000000CE
:1002300000000000000000000000000000000000BE
:1002400000000000000000000000000000000000AE
:10025000000000000000000000000000000000009E
:10026000000000000000000000000000000000008E
:10027000000000000000000000000000000000007E
:100280003E4880473E4800473E4A1268002A00D157
:100290000047096808473C483C49F5E7FEE73C4809
:1002A0003C49F1E7FEE73C483C49EDE7FEE73C48C6
:1002B0003C49E9E7FEE73C483C49E5E7FEE73C48C6
:1002C0003C49E1E73C483D49DEE73D483D49DBE745
:1002D0003D483E49D8E73E483E49D5E73E483F497C
:1002E000D2E73F483F49CFE73F484049CCE7404845
:1002F0004049C9E740484149C6E741484149C3E749
:1003000041484249C0E742484249BDE74248434963
:10031000BAE743484349B7E743484449B4E7444848
:100320004449B1E744484549AEE745484549ABE74C
:1003300045484649A8E746484649A5E7464847494B
:10034000A2E7474847499FE7474848499CE748484C
:10035000484999E74848494996E74948494993E750
:10036000FEE74948006885464848006800470000A5
:1003700047484849464A484B70470000F701000883
:10038000B90000087C0000209D02000808600008F9
:10039000A50200080C600008AD0200082C600008EF
:1003A000B502000838600008BD0200083C60000883
:1003B000610300084060000861030008486000080D
:1003C000610300084C6000086103000850600008E9
:1003D00061030008546000086103000858600008C9
:1003E000410900085C6000086103000864600008BF
:1003F0006103000868600008610300086C60000881
:100400006103000870600008610300087460000860
:10041000610300087860000861030008806000083C
:10042000ED1200088460000861030008886000087D
:10043000610300088C6000086103000890600008F8
:1004400061030008946000087912000898600008B1
:10045000610300089C60000861030008A0600008B8
:1004600061030008A460000861030008A860000898
:1004700061030008AC60000861030008B060000878
:1004800061030008B4600008006000080460000810
:10049000500200205006002050020020FEB5044605
:1004A00010460D46184373D0A6468C460020A41A69
:1004B00001469D4167D36646002701243D46B61A92
:1004C0009D4102D313463A462124654676462F04C1
:1004D000360C3E432D0CB61A9D4104D3150C1B045B
:1004E0002B4312041034654676462F06360A3E43E7
:1004F0002D0AB61A9D4104D3150E1B022B4312027E
:100500000834654676462F0736093E432D09B61A4C
:100510009D4104D3150F1B012B431201241D654679
:100520007646AF07B6083E43AD08B61A9D4104D3E0
:10053000950F9B002B439200A41C65467646EF075F
:1005400076083E436D08B61A9D411AD392185B4156
:10055000641C16E00018764665464941B71A9D416D
:100560000191009009D36046B11A98418E468446A5
:10057000009801990025401C6941DD0752082A4373
:100580005B08641EE6D57246634603B0F0BDFFE724
:100590002046284307D00020C0430146C046C0463D
:1005A00022462B46F1E700200146F7E7034610B547
:1005B0000B439B070FD1042A0DD308C810C9121F83
:1005C000A342F8D018BA21BA884201D9012010BD3F
:1005D0000020C04310BD002A03D0D30703D0521C13
:1005E00007E0002010BD03780C78401C491C1B1B41
:1005F00007D103780C78401C491C1B1B01D1921EAB
:10060000F1D1184610BDF8B5042A2CD3830712D0B7
:100610000B78491C0370401C521E83070BD00B78CB
:10062000491C0370401C521E830704D00B78491CE0
:100630000370401C521E8B079B0F05D0C91ADF00A8
:100640002023DE1B08C90AE0FFF77AFDF8BD1D462E
:1006500008C9FD401C46B4402C4310C0121F042A98
:10066000F5D2F308C91A521EF0D40B78491C037056
:10067000401C521EEAD40B78491C0370401C012A0E
:10068000E4D409780170F8BD7546FFF7A9FDAE46C0
:10069000050069465346C008C000854618B020B51D
:1006A000FFF766FE60BCB64600260027C0C5C0C581
:1006B000C0C5C0C5C0C5C0C5C0C5C0C5403D49084E
:1006C00049008D4670470000BFF34F8F034804492F
:1006D0000160BFF34F8F00BFFDE7C0460CED00E0A7
:1006E0000400FA0510B5924BDA78032A48D8411C69
:1006F0007A4412795200974401253241C21D0124E7
:100700000470D86803680B701C0ECC701C0C8C70C5
:100710001B0A4B70837D002B33D0838A0B711B0A1D
:100720004B71416811700B0ED3700B0C9370090A5A
:10073000517080681071010ED171010C9171000A25
:10074000507110BD022202701A690A70140ECC702A
:10075000140C8C70120A4A701979417110BD032271
:1007600002701A690A70140ECC70140C8C70120A84
:100770004A705979FF2910D0417110BD05210170CF
:1007800010BD0020D071907150711071D0709070B8
:10079000507010704871087110BD1979002902D08D
:1007A000FF21417110BD0021417110BD70B504469B
:1007B0003B4800685E4DA860A878012804D0022854
:1007C00004D0384800F086F90220A8700120687033
:1007D0002178491E042919D87944097949008F44A0
:1007E000020516152C000020E87070BDE97801297B
:1007F00026D16178A27812025118E27823791B027F
:100800009A18120451182A698A4223D170BDE978D6
:10081000022923D16178A27812025118E278237953
:100820001B029A18120451182A698A4220D16E7943
:10083000617988403042E9D123E00320E87070BD3F
:100840006178A27812025118E27823791B029A1873
:1008500012045118A871E870296170BD6178A278FE
:1008600012025118E27823791B029A1812045118C7
:1008700029610221E97000266E7161798840304259
:10088000C4D1C0B206436E7148012C490818A11D9D
:100890002022FFF7B8FEFF2EB8D10220A87170BD4C
:1008A0004802002038200008214EF06000F0DEFBF6
:1008B00000F04AFA1F4800F029F91F4800F00AF931
:1008C0000027B7717771B77001246002308064200F
:1008D00005E03771B470B77102207070204600F0E7
:1008E0009FF9B0790028FCD000F0CCF9F0683169AC
:1008F000E20791420ED1C568B07901280FD0B079D6
:100900000228E6D100F0D0F8220228460B4900F078
:1009100071F809E000694518B0790128EFD100F0BD
:10092000C3F8284600F020F8307100F053F8D1E702
:10093000E8000020950C000840200008100100206D
:1009400080B5012107484268520402D589034160FD
:1009500080BD0268920403D54903016000F084FA67
:1009600080BDC0460C18024070B50121CA064A4B32
:100970001B681B069B0B9A18824225D9052214047A
:10098000474A13682342FCD11568444B1D4000D0F0
:10099000156015682542FCD11F25ED064019C00AD7
:1009A000C0000A4D45195560094E0643566010684F
:1009B0002042FCD10720854310685560084011682B
:1009C000194000D0116070BD002070BD0200000110
:1009D00002000101064805210904021F12680A42AB
:1009E000F9D10121C90702680A4302607047C04675
:1009F00014200240F0B581B0D31D072293431A188A
:100A00000126F406244D2D682D06AD0B2C19A242AB
:100A10003AD20096002B3CD005221404204E0F68D9
:100A20004A68009232682242FCD132681B4D2A404B
:100A300000D0326032682242FCD11A4A72600760EC
:100A4000009A426032682242FCD132680025D20707
:100A50002A4608D00268BA422A4604D14268009F5A
:100A6000D71B7A427A410127009737607560356855
:100A70000A4F3D4000D03560002A08D0083B0830BE
:100A80000831002BCBD104E00020009001E00020D1
:100A90000090009801B0F0BDE075FF1FFB830000DF
:100AA00010200240010000010748C168002900D45D
:100AB00070470521090482680A42FAD1034901609E
:100AC000034901607047C046082002402301674582
:100AD000AB89EFCDB0B50446094D08222846214622
:100AE000FFF764FD00280AD003CC03C5083CA088AA
:100AF000401E04490860E088401E03490860B0BDFC
:100B000030020020380200202C020020B0B5012164
:100B10008A04144B1C6914431C611C6814431C6038
:100B20001C6894431C60104B1C460C3C0022226045
:100B30005A61DA603F24DC610C4C1C6299601C68CD
:100B4000022525431D604B4B1A60094B18604A482B
:100B50000260FF200004074A1368834388051818C1
:100B60001060B0BD301002400C480140FFFF000093
:100B70004C02002014E400E03F4908600122130405
:100B8000984207D800220A603A490A68101880B2D1
:100B9000086010E05204904208D84208801A0860A9
:100BA00034490868801880B2086004E0334A80182D
:100BB000086030480068144948620220C043086059
:100BC0007047C046B0B52C490860144A1268294BDA
:100BD0001A6001242504A84204D8101882B21A60B1
:100BE00000200AE06404A04205D84408121992B219
:100BF0001A60001B01E0214BC018034B5A620860C9
:100C00000220C0431860B0BD10480140024800688F
:100C1000024908607047C046244801404402002051
:100C2000F0B51B490B68012293430B600223DB43A1
:100C30000B61104E002535600F4C20604A6117048F
:100C4000B84203D885B23560002009E05704B842A5
:100C500004D84708BDB23560C01B01E0074E8019BB
:100C60004D6320600B619005054B186008681043C8
:100C70000860F0BD400200203C0200200000FFFFA1
:100C800000E100E0024801680122914301607047E1
:100C900000480140B0B5284C2078012803D100F06D
:100CA0008FF900281ED000252570607800281AD002
:100CB00001280CD0022815D165702248FFF75CFF8F
:100CC00001202070A07802281CD0E9431CE00220FB
:100CD00060704B2080001230FFF74EFF0120207023
:100CE00000F03CF9B0BDA06814490968081A072152
:100CF000C9016731884211D9E078032810D1FFF784
:100D0000E3FCB0BD0721C9016161801E411E88411D
:100D100020761434204600F089F8B0BD012004E0AC
:100D2000A5700748FFF7D6FE022060704B208000B8
:100D3000FFF722FFB0BDC046E800002048020020B7
:100D4000402000083102000070B5C44E0020307011
:100D500000F0D8F87D20C500284600F081FA012473
:100D6000204600F0CFF8284600F07AFA00F0C2F8EA
:100D70000028FBD12C4D681C0021022200F0DCF978
:100D800000F0B8F80028FBD1281D0021022200F055
:100D9000D3F900F0AFF80028FBD1E81D00210322B1
:100DA00000F0CAF900F0A6F80028FBD128460B3065
:100DB0000021092200F0C0F900F09CF80028FBD1C6
:100DC000284615300021022200F0B6F900F092F812
:100DD0000028FBD1284618300021042200F0ACF98D
:100DE00000F088F80028FBD128461D30002104229D
:100DF00000F0A2F900F07EF80028FBD12235002196
:100E00000322284600F098F900F074F80028FBD17E
:100E100000252846C046C046284600F07DF82846F2
:100E2000C046C046747070BD62200008B0B58B49E2
:100E3000486003250D700B4800240822214600F06D
:100E40007BF95C4821462A4600F076F95A4821464B
:100E50002A4600F071F959480122214600F06CF948
:100E6000B0BDC0468820000870B58CB00024204674
:100E700000F052F8794E307804281ED1FFF7C6FEF4
:100E80001B4801AD0422294600F056F9E8784006D7
:100E90001AD419200001FFF795FE347001AC8020B0
:100EA00060701B20207029222046214600F044F962
:100EB000E01CFFF77BFC0CB070BD6B4800210222E8
:100EC00000F03AF90CB070BD706800790028F2D0DB
:100ED000394800240322214600F02EF9022000F0B8
:100EE0001BF85F480422214600F026F90CB070BDC3
:100EF00053200008024800684004C00F7047C046F5
:100F0000100400500121002801D0480200E04806EA
:100F1000114908607047C04602280BD0012811D043
:100F200000280ED1012081070A4A116080060A4973
:100F30000860704701208107064A11608002064957
:100F40000860704701208106034A1160800301494F
:100F5000086070471808005018000050F0B585B0C0
:100F60003E4801240470124800250822294600F05A
:100F7000E3F86E4675701A203070B01CFFF7B2FBB4
:100F80000C48032729463A4600F0D6F8112230468D
:100F9000294600F0D1F8084829463A4600F0CCF836
:100FA00006482946224600F0C7F805B0F0BDC04605
:100FB0009020000857200008502000080602000872
:100FC00070B5264E7078012401283ED13078401E3D
:100FD00003283AD878440079400087440112162843
:100FE000022030706F208000FFF7C6FD0120FFF760
:100FF00093FF1C4800240422214600F09DF820465F
:1010000070BD00203070204670BD042535707068BA
:1010100000682230FFF7B0FD0220FFF77DFF104887
:10102000002421462A4600F087F8204670BD7068EB
:101030000068401C0BD00C4800250222294600F015
:101040007BF82846FFF768FF3570204670BD012009
:10105000C003FFF791FD002070BDC046E0000020F6
:101060005A2000085E2000080A020008B0B50320DC
:10107000020626490B68934325481B185B1C0B602E
:101080008B6813438B600F2212020B6A9343012279
:1010900014021B190B62FF231B024C6A9C4305239D
:1010A0001B02E3184B628B681A4C1C438C600B6864
:1010B000194C1C40194BE3180B609303184C25691D
:1010C0001D43256125681D43256025689D432560D6
:1010D000C3239C00134B1C60172424025C601C6813
:1010E000402525431D6014038C610F4913240C60B7
:1010F0000C330E4C236012254D6063610C490B6864
:1011000003400B60D0020B490860B0BD00040050E2
:10111000FFFFFF003000F000CFFF0FFF2000A00016
:101120002C100240003800401008024060000240CD
:1011300008E400E000E100E0F0B581B0274B1C4678
:10114000083C24686404FAD401273C071C60002989
:1011500028D0002A3ED0009703246502E702204EE3
:10116000144601E0002C0FD033683B40BB4203D053
:1011700003783371641E401C33682B42F2D03379FC
:101180000B70521E491CEDE7002A144B009F21D022
:1011900030682842FCD030790870521E491C002A61
:1011A000F6D117E00E49002A0BD00324E4020D68A3
:1011B0002540A542FBD005780D71521E401C002A27
:1011C000F5D108680006FCD400E008790868C0077B
:1011D000FBD108683803186001B0F0BD1804005056
:1011E0000838004070B5002936D00022D3431B4A8E
:1011F00004785C40012365081C40644214406C4044
:10120000640826461E40764216401D406D42154039
:1012100065406C08664075082E461E4076421640B2
:101220001C40644214406C406408664075082E46B9
:101230001E40764216401C40644214406C406408D4
:10124000664075081C40634213406B40491E401CB9
:101250000029CDD1D84370BD002070BD2083B8EDEA
:10126000C00204490A680B68D31A1B029842FAD8D4
:101270007047C04618E000E0B0B51748016889071C
:1012800029D50221C9430160144B1A68002A09D0EC
:1012900001242504AA420BD800241C60114B1C68B1
:1012A000A2180EE010480068002814D08047B0BD96
:1012B0006404A24208D85408121B1A60094B1A6829
:1012C000121992B21A6004E0054C12191A60054A0C
:1012D000126842620160B0BD104801403C0200202B
:1012E0000000FFFF400200204C020020B0B516496C
:1012F0000868C00727D00120C2430A6013490A6862
:10130000521C0A601249097801291CD1114A11683E
:101310004B1C13601049CC88A34214D300231360E4
:101320008D880E4A1468641CAC4200D31C461460BD
:101330000968E140C90703D0000709490860B0BD4A
:10134000000307490860B0BD1010004048020020AB
:10135000280200202C020020300200203802002049
:1013600018000050F0B59BB00122500700211591E4
:10137000C167D5061292D1070D910E900068034EF9
:10138000034F04498842179506D035E1FFFFFF005F
:1013900010200240CC5172C80E9840680149884222
:1013A00002D029E1A07E019200201A901990149099
:1013B0001890064C2046503818A9602200F074FDA1
:1013C000052000047968002910D501E0E075FF1FB1
:1013D00039680142FCD139460839024A0A60024A9A
:1013E0000A6003E023016745AB89EFCD2168090658
:1013F000890B2943FF2292021692024A9142234608
:1014000029D901E00050000839680142FCD139684F
:10141000014A114003D001E0FB83000039603968C4
:101420000142FCD13146533179600249083179607B
:1014300002E0C0464A00010139680142FCD1396826
:101440003146513179603968014A114003D001E0D9
:10145000FB83000039601C4619688902169A114006
:101460002943024B1033994202D87EE00050000815
:101470001999189D3B680342FCD13B68024E3340EA
:10148000024E06D004E0C046FB830000FFFFFF00D1
:101490003B603B680342FCD1B61C7E60014A15608C
:1014A000516001E0005000083B680342FCD13B68FA
:1014B000DB07149A13460FD0024B1B68AB4213464E
:1014C0000AD101E000500008024B5B68591A4B42F8
:1014D0004B4101E000500008012139607A603D680D
:1014E000014A154003D001E0FB8300003D60002B62
:1014F000179D3AD018ABDA6813921A9D3B680342E5
:10150000FCD13B68014A134003D001E0FB8300009B
:101510003B603B680342FCD17E60024A9560139BAE
:10152000D36001E0005000083B680342FCD13B68F7
:10153000DB070DD0024A9368AB4209D102E0C046F6
:1015400000500008014AD26802E0C046005000087E
:101550003960002179603968024A1140179D04D032
:1015600002E0C046FB8300003960149B39680142E9
:10157000FCD179680D9A1143796079680029FB4E96
:1015800008D539680142FCD139460839F84A0A6061
:10159000F84A0A6021688902169A11402943F64ADE
:1015A00091421BD339680142FCD13968F34A11409A
:1015B00000D0396039680142FCD131464B31796045
:1015C000EF49796039680142FCD1396831464931C7
:1015D00079603968E94A114000D0396039680142C0
:1015E000FCD101200E99C8670B604B6078680D999B
:1015F00008437860FEF7B5FEE24815990160E24CB9
:10160000201F0660204608380168129A11430160C5
:10161000DE4D286C104328641107E86B10910843D5
:10162000E863103F3868DA490140DA480818386042
:10163000110428680F91084328605204286810425A
:10164000FCD0129F380629688143296079062868F2
:101650000842FCD1D048E8601598A860701C2E683C
:10166000149006432E60EE6810980643EE602E68D4
:101670000E42FCD0A96802201190014305200C9075
:101680008143A960A96838270F40102FFAD1696BF0
:101690002F2001436963032113914B02BF490B6063
:1016A000AE6B129F3E43AE636E6B06436E630B6080
:1016B000A86B3843A863E86B102109910843E863DD
:1016C000E86A0843E862C9430691E86A0840E862AC
:1016D000B349042016900860CF603F2088624F61B4
:1016E000AC48E530C862086838430860AD4BD8683C
:1016F000AD4E3040139EB6030B968019D860AB48B0
:101700000260486938434861A948AA4A0260159AAC
:101710004260A94A82600C9802071068A7490840F5
:10172000BB050C93C0181060D0680840F905019102
:101730004018D06017989061A14803683B43119905
:10174000CE43059633400360C6680E43F9430491C7
:101750000E40C6600F9981619A490868402318437A
:101760008026B0430860C8681796304308939843B2
:10177000C860F804079088610868934E30403B02C7
:101780000293C0180860C86830407E0280193E4647
:10179000C86038050A90886108688C4B18403F0380
:1017A000C0190860C868184073030393C018C86064
:1017B0000C98886108683043059B18400860C86829
:1017C000119B1843049B1840C8600F9888611068EB
:1017D00009990843202188431060D068084306997E
:1017E0000840D060B00405909061106878490840C6
:1017F0004018401C1060D06808400D990843D06024
:101800009161139800061168814314980143116097
:101810001492069797616F4806706F4F6F490822C0
:101820003846FEF7C3FE002809D06D486D4939607F
:1018300078606D480E2101606C4863210160149945
:1018400008680B9A10430860286C0A9908432864BA
:10185000286B08432863286B88432863644D2868F5
:10186000C00710D02868400706D5286809990843A2
:1018700028602868C006FCD42868119908432860AD
:101880002868C007FCD128681099084328602068A0
:101890002168411A0902890B7D29F9D328680D991D
:1018A0000843286028680028FCD428683043286052
:1018B000286830432860284608380068C007FAD0F6
:1018C000E4488E30A860179828621398E86015984D
:1018D0006860E14FE349082238460D92FEF766FE44
:1018E000002808D0E048119939607860DB4806602C
:1018F000DB486321016014990868D34A10400860EE
:10190000C86810400C9A1043C860D04A1068089FFD
:1019100038431799884310601068CD4B1840069BD8
:101920001843106010680B9B9843B3031193C018C1
:101930001060079890619761916119208602206874
:101940002168411A09028E42FAD8C8480278511C0F
:101950000170A86BC64F002A01D03A688018386021
:10196000CAB2132A60D87D20C20248E0FFFFFF0000
:1019700023016745AB89EFCD01480008FB830000D8
:101980004A0001014802002018E000E00010024077
:10199000F8F4FEFF020300000310044000000140C1
:1019A0000010004004E400E0FF00FFFF00E100E061
:1019B0000030004055550000C4090000FFFF3FFF04
:1019C000000C005000040050FFFCFFFFFFCFFFFFA2
:1019D000FFFFFF3F2802002030020020F80100082E
:1019E0000F006400AA020000380200202C02002030
:1019F000082401403860491CCBB2132B11D817982A
:101A000028622868169B1843286020682368C31A38
:101A10001B029A42FAD8A86B0B06EBD03B68C018A1
:101A2000E8E71421914A1170142100F041F991491D
:101A30000860159A8D4802700E98C260149800696B
:101A400000050ED481480D99816120682168411AF2
:101A500009028E42FAD8149800690005C00F15904B
:101A600033E00868D22830D378480C9A8261019A12
:101A7000826120682268821A12029642FAD8129E67
:101A80007A480670A86B38607D20C002179A2A62D7
:101A90002A68169B1A432A6022682368D31A1B02FD
:101AA0009842FAD8AA6B3B689A183A60721C122EB8
:101AB0001646EBD9002015906C4A1070A86B086090
:101AC000332802D201200E99C8606B4D6B4C6C48D4
:101AD000E8602C616B4828606B4E3046083800681F
:101AE0005549884232D1301F0068524988422DD171
:101AF00031686648814229D82046FFF773FB316878
:101B00000A5D0B195F783F02BA189F783F04D2191B
:101B1000DB781B06D218904218D1159800286FD098
:101B200069600120A875B088A8823068015D00193D
:101B3000427812025118827812048918C07800067F
:101B40000818A8603E4B029D059A04E00020A87585
:101B50003B4B029D059A139FB804149E3168814344
:101B600011433160394C21684D4801402160B9066C
:101B700022688A4322604B49CA6E1A402A43CA66C9
:101B8000494A1368039C234313600B6823430B608B
:101B900001235C034D68A5434D60FF242404CD6EF2
:101BA000A5430F9C2543CD661468119D2C431460FA
:101BB0009A030B6893430B604A682A434A600024E7
:101BC0000E990C604C601D4B1968194A1140214A4E
:101BD000521C0A431A601B49179A0A6033490A6863
:101BE0000240109802430A603805316881430A9820
:101BF000014331602048FEF757FE20461BB0F0BD80
:101C00000E980068224A904204D10E984068214AFA
:101C1000904285D00E980849016006494160BFF3A3
:101C20004F8F1D481D490160BFF34F8F00BFFDE777
:101C3000FFFFFF00A07E0192CC5172C804E400E0D7
:101C4000FF00FFFF00E100E0FFFF3FFF0004005046
:101C5000FFCFFFFFFFFFFF3F3002002038020020D0
:101C60002C02002048200008020064000C01002023
:101C7000080100200401002010020020006000087C
:101C80000058000812010100886F0008FB9F010046
:101C9000C911E81AAC94557F0CED00E00400FA0578
:101CA000FFFFFFCF001802408018024000080050DC
:101CB00043088B421AD3002203098B4279D3030ACB
:101CC0008B425ED3030B8B4242D3030C8B4227D350
:101CD0000902FF2212BA030C8B4202D3121209022C
:101CE00003D0030B8B4233D31AE0D3E0411A804177
:101CF000401C704703460B4371D443088B42F5D315
:101D0000002203098B4254D3030A8B4239D3030BBD
:101D10008B421DD3030C8B4202D394466EE0090A1A
:101D2000C30B8B4201D3CB03C01A5241830B8B42AE
:101D300001D38B03C01A5241430B8B4201D34B0397
:101D4000C01A5241030B8B4201D30B03C01A5241FC
:101D5000C30A8B4201D3CB02C01A5241830A8B4281
:101D600001D38B02C01A5241430A8B4201D34B026A
:101D7000C01A5241030A8B4201D30B02C01A5241CE
:101D8000CDD2C3098B4201D3CB01C01A5241830982
:101D90008B4201D38B01C01A524143098B4201D3BC
:101DA0004B01C01A524103098B4201D30B01C01AE7
:101DB0005241C3088B4201D3CB00C01A5241830861
:101DC0008B4201D38B00C01A524143088B4201D38E
:101DD0004B00C01A5241411A524110007047CA0FBD
:101DE00000D04942031000D34042534000229C4699
:101DF00003098B422DD3030A8B4212D38901FC22A3
:101E000012BA030A8B420CD3890192118B4208D378
:101E1000890192118B4204D3890137D0921100E0DD
:101E20008909C3098B4201D3CB01C01A52418309EE
:101E30008B4201D38B01C01A524143098B4201D31B
:101E40004B01C01A524103098B4201D30B01C01A46
:101E50005241C3088B4201D3CB00C01A52418308C0
:101E60008B4201D38B00C01A5241D9D243088B4216
:101E700001D34B00C01A5241411A00D201465241CF
:101E8000104663465B1000D34042704763465B10C8
:101E900000D3404201B50021004201D0C9430846A9
:101EA000C046C04602BD0000F7B58CB006460D988E
:101EB00007900E98470942D000213468524A0B46D9
:101EC00020460191FEF769F95049401845076D0F0A
:101ED00000D102254E4A4F4B20460199FEF75DF98D
:101EE0004D4B4E4AC0185141002D1DD0EA0707D076
:101EF0004B4A4C4BFEF751F94B4B4C4AC0185141E1
:101F00006C0811D0464A474BFEF747F9464B474A03
:101F1000C0185141424A434BFEF73FF9424B434AF6
:101F2000C0185141641EEDD12A46FEF725F90799E4
:101F3000361D08600798001D07907F1EBCD10D98C4
:101F40000A9002680E9900200E0902920390002E5A
:101F500058D0C8080B90364A00230A9C039902986F
:101F6000FEF71BF9334B0022C01851410B9A002594
:101F7000039102902B46921EFEF790FA171978787B
:101F8000397800020843294604461F4A0023019578
:101F9000FEF703F91D49401845076D0F00D10225D2
:101FA0001B4A1C4B20460199FEF7F7F81A4B1B4AB7
:101FB000C0185141002D1DD0EA0707D0184A194B0F
:101FC000FEF7EBF8184B194AC01851416C0811D0B4
:101FD000134A144BFEF7E1F8134B144AC018514151
:101FE0000F4A104BFEF7D9F80F4B104AC018514159
:101FF000641EEDD12A46FEF7BFF83870000A7870EB
:10200000761EA8D10FB0F0BDE72B2D8B531E722387
:10201000276C9DF3085D6720A37A2F98DE2F780E3A
:102020005B4D51C266F3714A63971A637B21266741
:10203000FF74EA0D539A9A0B2A0000000A0064000C
:102040002A0000000A00C80002000000020064002C
:10205000970043150000008F00808200000083007D
:102060000000028001029601038F0080098D004369
:10207000004300000000028A030486BED89D048B42
:10208000450000038E0080008C700410002620089C
:102090008C700410000F2008A82000088000002089
:0820A000D0050000FC0000085F
:020000040800F2
:04480000C1E2465873
:04000005080000B936
:00000001FF
